:0A00000002038A0080FD05264A2253
:07000B0080FE75B5FF8025A2
:0700130080FE80200217ECC3
:10001B0080FE1251070210EF80FEE4F564023047B8
:10002B0080FE456E7465722049435000E4F5AB7554
:06003B00AC2075AD0822A7
:0F00430080FEE5755401FF2280FE7F38020B4BD3
:0200530080FE2D
:03005B0002188404
:0300630002391B44
:03006B0002183F39
:10007300046DC52B1207002903A403A803BAFFFFCD
:1000830003D4BB010689828A83E0225002E722BBA4
:10009300FE02E32289828A83E49322BB010CE58278
:1000A30029F582E5833AF583E0225006E92582F8B3
:1000B300E622BBFE06E92582F8E222E58229F582E3
:1000C300E5833AF583E49322BC000BBE0029EF8D50
:1000D300F084FFADF022E4CCF875F008EF2FFFEECB
:1000E30033FEEC33FCEE9DEC984005FCEE9DFE0FD9
:1000F300D5F0E9E4CEFD22EDF8F5F0EE8420D21C34
:10010300FEADF075F008EF2FFFED33FD400798507B
:1001130006D5F0F222C398FD0FD5F0EA22C5F0F818
:10012300A3E028F0C5F0F8E582158270021583E09C
:1001330038F022A3F8E0C5F025F0F0E582158270CF
:10014300021583E0C838F0E822ECF608EDF608EE75
:10015300F608EFF622A8828583F0D083D0821201BD
:100163006F12016F12016F12016FE473E493A3C561
:1001730083C5F0C583C8C582C8F0A3C583C5F0C5D0
:1001830083C8C582C822D083D082F8E493701274E6
:100193000193700DA3A393F8740193F5828883E40C
:1001A300737402936860EFA3A3A380DF8A838982B9
:1001B300E473EF4E6012EF60010EEDBB010B898219
:1001C3008A83F0A3DFFCDEFA2289F05007F709DF08
:1001D300FCA9F022BBFEFCF309DFFCA9F022E7092E
:1001E300F608DFFA8046E709F208DFFA803E8882E4
:1001F3008C83E709F0A3DFFA8032E309F608DFFA1C
:10020300806EE309F208DFFA806688828C83E30953
:10021300F0A3DFFA805A89828A83E0A3F608DFFA23
:10022300804E89828A83E0A3F208DFFA804280D27B
:1002330080FA80C680D4805580F28029801080A601
:1002430080EA809A80A880DA80E280CA8029888444
:100253008C8589828A83E493A30592F0A31592DFA8
:10026300F5DEF3800B89828A83E493A3F608DFF932
:10027300ECFAA9F0EDFB2288848C8589828A83E0DD
:10028300A30592F0A31592DFF6DEF480E389828A58
:1002930083E493A3F208DFF980D688F0EF60010EC0
:1002A3004E60CD88F0ED2402B4040050C3F582EB18
:1002B3002402B4040050B9232345822390023173EE
:1002C300780030AF04C2AF78018FE5C2C030C0FD03
:1002D300E86002D2AF22780030AF04C2AF78017574
:1002E300E5FFC2C030C0FDAFE5E86002D2AF22ED4A
:1002F300601D780030AF04C2AF78018E838F82E037
:10030300F5E5C2C030C0FDA3DDF5E86002D2AF223F
:10031300ED6020780030AF04C2AF78018E838F8206
:1003230075E5FFC2C030C0FDE5E5F0A3DDF2E8608E
:1003330002D2AF228E838F82A3E08E838F82541FDB
:1003430070047F04800BD3941050047F0980027FD4
:10035300157E00E02EFEA3DFFAF404F0228E838FD5
:1003630082A3E08E838F82541F70047F05800BD39A
:10037300941050047F0A80027F167E00E02EFEA3B5
:10038300DFFA70027F012278FFE4F6D8FD90800047
:100393007F007E08E4F0A3DFFCDEFA75817F0206AE
:1003A300FC0403090412034C006F00670069007426
:1003B300006500630068001A0355005300420020E3
:1003C30000520065006300650069007600650072F5
:1003D300001E03520051005200310032002E003043
:1003E3000037005F00420030003000320039002F38
:1003F300EA324B0025324B002537E037FE00253B20
:10040300103164336032CF0025002500250025809C
:1004130000FF00FF0080008000800080FFFFFF05D9
:10042300010906A1019508750115002501050719A4
:10043300E029E78102810395050508190129059142
:100443000295017503910195067508150026FF00B5
:10045300050719002AFF008100C005010902A10157
:1004630085020901A10095107501150025010509F3
:100473001901291081029502750C1601F826FF0750
:100483000501093009318106950175081581257F1C
:10049300093881069501050C0A38028106C0C0059A
:1004A3000C0901A101850395027510150126FF02B0
:1004B30019012AFF028100C005010980A1018504F9
:1004C30095017502150125030982098109838100BC
:1004D30075068103C006BCFF0988A1018508950143
:1004E3007508150126FF00190129FF8100C00600C8
:1004F300FF0901A101851095067508150026FF0067
:100503000901810009019100C00600FF0902A10150
:10051300851195137508150026FF0009028100094E
:10052300029100C00600FF0904A1018520950E7504
:1005330008150026FF00094181000941910085212A
:10054300951F0942810009429100C0120100020077
:100553000000086D042BC5071201020001090254B3
:1005630000030104A0310904000001030101000993
:100573002111010001223B0007058103080008093E
:100583000401000103010200092111010001229469
:1005930000070582030800020904020001030000AA
:1005A30000092111010001225D00070583032000DA
:1005B300020422003B045D009404F1005D02120773
:1005C300002988020401000000000000000301026A
:1005D30003040106060000000000000000200108DB
:1005E3004001040001000000000000000021020897
:1005F3004002040001000000000000000022030884
:100603004003040001000000000000000023040870
:10061300400404000100000000000000002405085D
:10062300400504000100000000000000002506084A
:100633004006040001000000000000000030010239
:100643000304000000000000000000000000253348
:100653009B3344337E0025002500250025002541DA
:10066300FF32F631210025002500250025FF80807B
:1006730080FFFFFFFFFF000000FFFFFFFF11FF0AE6
:100683000000000000000000000000000000000067
:100693000005080B0E1114171A1D202326292C2FD1
:1006A3003235383B3E4144474A0104050601020303
:1006B3000A0B0C0D0E090A0B120D0E0F1617181349
:1006C3001415010A0B000D0E00000000141500178D
:1006D300180000000000020400050175A380C2B9E0
:1006E300C290C2B875E610D29222110DD1DE758088
:1006F30038E4F595F5C9F59422C2AF759002758E6D
:100703000212439BD1ED1217A37F0FF1F3F1A5E57D
:10071300B130E0047FEBF1E7120D3590C7D6E0204E
:10072300E308E04408F07FFAF1F37F01F1AD90C7ED
:10073300D6E054F7F0D2AF1218E2E57F30E504E4D7
:10074300FFF1ADE57F30E106537FFD1244D6E5505E
:1007530030E112E563700E908381E07008E572204A
:10076300E503121809E57F30E205537FFBF1A5E5A8
:100773007F30E306537FF71250E5E55030E5B812BA
:100783002DEB1227ED12515AEF600AE57130E3A702
:1007930012129D80A2E57130E303121E93122A9870
:1007A3008095D291125138C290221242B2F1A51211
:1007B3004509121FF312547B12530B124BAA124416
:1007C300D6123B8A5372F75371DF5371FEE4908262
:1007D30033F0A3F09081F5743FF05371F790838069
:1007E300740FF022F1F37FFAF1F37FFAF1F37FFA5A
:1007F30090832CEFF0E4A3F0A3F090832CE0FFC3ED
:1008030090832EE09F90832DE094005022120015D8
:10081300E4FFFE000FBF00010EBE05F7BF7BF4909F
:10082300832EE004F0700690832DE004F080CB2249
:100833007F002085027F0122E537120189087C00B1
:10084300089C0108AA0208C20308D4D008E2D4090C
:1008530050E4095FE60862F0096EF1000009CDE497
:10086300F538F539F53A12515AEF700221D275383D
:100873004C7539549083472125E4F538F539F53A19
:10088300E57154014239AF72EF1313F1E6AF72EF22
:10089300C45401C454F0423922E4F538F539F53A29
:1008A3009082C6E0C3E1E6E4F538F539F53AF53967
:1008B300FF12172D30E00205390FEFB406F322E4DF
:1008C300F538F539F53A908233E0F538A3E0F53998
:1008D30022E4F538F539F53AE57F5401F53822126B
:1008E3004F89853838853939C3E09410908328E0DF
:1008F3009400501A7F7C31D3EF4E700221C990834C
:1009030028E0FCA3E02FF582EE3CF5838014F1D1BF
:10091300EE946C4011D3EF94FFEE946F50088F82E6
:100923008E83E0F53A22F1D1EE94FE401ED3EF948C
:10093300FFEE94FF5015E02400F0908328E034028A
:10094300F0D2FB125508F53AC2FB228079E57F30DD
:10095300E07811338F38E4F539F53A22E4F538F5C8
:1009630039F53AE573F53885743922E53824FE60A4
:100973001114601514602E2403704B753912753AE7
:100983000722E4F539753A2922907FB0740193F474
:100993007003E493F4600C907FB21238A5ECF53940
:1009A3008D3A228021907FB0740193B46D16E49345
:1009B300B40411907FB4740193F539907FB6740138
:1009C30093F53A2280007F0380027F02122D4C228E
:1009D300908337EFF0E4F57BF57CFF906C00E0FE4D
:1009E300B43F047F108006EEB47F027F20906E0038
:1009F300E0FEB43F06EF4401FF8008EEB47F04EF4E
:100A03004402FFEF1201890A77000A35010A5502F1
:100A13000A29100A37110A5F120A2B200A43210AF6
:100A2300842200000A958040908337E0FDF47062D1
:100A3300803C8017908337E0FDE4FF1250C1800BA8
:100A4300908337E0FDB4FF03E48023908337E0FD18
:100A53008012908337E0FDF470388008908337E08C
:100A6300FDB4FF047F018007908337E0FDE4FF12AC
:100A730050C1801EE4FFF18BD119F196F4701380FD
:100A83000BF17AF18BD119F196B4FF06757B6C7576
:100A93007C10AE7BAF7C2290835CE0908334F0903B
:100AA3006C00E0643F7004F15F800A906E00E064C4
:100AB3003F700AF1577F7FD168D1308006D111D1C1
:100AC30068C1309083337401F0908333E0FFD39493
:100AD3005F5031A3E0FEEF6E6022908333E0D17468
:100AE3004E6019908335D182C002C001785C7C834B
:100AF3007D01D001D002D161D172D130908333E036
:100B030004F080C57F7CD1744E6019908335D18207
:100B1300C002C001785C7C837D01D001D002D16129
:100B2300D172D130906C00E0B47F08D11991177F56
:100B3300018009906E00E0B47F04F168714222EFF6
:100B430060047F3780027F36EFC39436401BEFD3B8
:100B5300943950157E0030AF027E01F1DB8FFA200D
:100B6300FCFDC2FDEE6002D2AF22906C00E0B43F08
:100B730004F15F800A906E00E0B43F09E4F1577F0F
:100B83007F91178004D11181177F01F151D19160B9
:100B930014D17FC002C001785C7C837D01D001D079
:100BA30002D161D1207F02F151D1916014D17FC074
:100BB30002C001785C7C837D01D001D002D161D178
:100BC300207F03F151D1916014D17FC002C001781D
:100BD3005C7C837D01D001D002D161D1207F7CF187
:100BE30051D1916014D17FC002C001785C7C837DB8
:100BF30001D001D002D161D120906C00E0B47F0814
:100C0300D11991177F018009906E00E0B47F04F140
:100C13006871422290835CEFF0AE04AF057D0190D2
:100C2300833912512F90833E7401F0A37483F0A390
:100C3300745CF0908339E0FEA3E0FD90833CEEF01A
:100C4300A3EDF0C3EE946C404BD390833AE094FF52
:100C5300908339E09473503C7F0030AF027F01F101
:100C6300DB90833BE0602690833EE0FBA3F173A916
:100C7300F0FA120085FE90833CF17385F082F583D0
:100C8300EEF020FCFD90833BE014F080D4C2FDEF36
:100C93006002D2AF2290832CEFF0906C00E0B43F5F
:100CA30004F15F800A906E00E0B43F09E4F1577FDE
:100CB3007F91178004D11181179083307401F090D4
:100CC3008330E0FFD3945F503990832CE0FE241FE0
:100CD3006F6027EE242FFE908330E06E601C9083BC
:100CE3002CE0243F6F6013F1A56B7008E9658270F7
:100CF30003EA65836004D150D120908330E004F08F
:100D030080BD7F7CF1A56B7008E965827003EA659D
:100D1300836004D150D120906C00E0B47F08D119D6
:100D230091177F018009906E00E0B47F04F1687130
:100D33004222906C00E0643F600C906E00E0643FE0
:100D43006004F17A7142906C00E0B4FF0B906E0086
:100D5300E0B4FF04D1199117906C00E0B43F0B90FD
:100D63006E00E0B43F04E4FF7142906C00E0B47F96
:100D730004E4FF7142906E00E0B47F047F0171428E
:100D83007F0231D3EF4E60338F828E83A3E06412F0
:100D93006006D11191178017E490832CF090832C77
:100DA300E0FD9005C093FCEF2DD1D1E06C6005E42C
:100DB300FEFF800712257CE0B410E2EF4E700EF1C7
:100DC300C87A0579C0FE7F1012029DD1207F0331BE
:100DD300D3EF4E703812419690832CEFF0C2FB6034
:100DE3002CF1C87A0579D0D161D2FB90000BE09049
:100DF300835DF090000CE090835E1255B790835FA3
:100E0300F090000EE0908360F0C2FBD12022E4FF5B
:100E130071427F0171427D007C6C7F3F227FFFD155
:100E23008C7002419A908331E0FEA3E0FF908337F8
:100E3300EEF0A3EFF090835CE04480F1817D1091AC
:100E43002290835CE0547FF1817D018122785C7C78
:100E5300837D0190832DE0FBA3E0FAA3E0F97E00FC
:100E63007F1002029D9117908334E090835CF07FA2
:100E7300FF31D3908335EEF0A3EFF02290832CE083
:100E8300FEA3E0AA06F97B012231D3908331EEF071
:100E9300A3EFF04E228F828E83E534F0A3E535F085
:100EA3008F828E83A3A3E536F08F828E83A3A3A3C1
:100EB300E537F0EF2404F582E43EF583E538F0EFFF
:100EC3002405F582E43EF583E539F0EF2406F58247
:100ED300E43EF58322753411D198E53AF0EF240707
:100EE300D1D1E53BF0EF2408D1D1E53CF0EF240963
:100EF300D1D1E53DF0EF240AD1D1E53EF0EF240B4B
:100F0300D1D1E53FF0EF240CD1D1E540F0EF240D32
:100F1300D1D1E541F0EF240ED1D1E542F0EF240F1A
:100F2300D1D1E543F0EF2410D1D1E544F0EF241102
:100F3300D1D1E545F0EF2412D1D1E546F0EF2413EA
:100F4300D1D1E547F053229F5322FB7F142231D3A3
:100F530090832C22FF71427D007C6C227F017142C1
:100F63007D007C6E227D007C6E7F3F9117E4FF2223
:100F7300E475F001020136E4FF71427F0122F09033
:100F83008337E0FEA3E0FF22714290835CE090830D
:100F930038F0229117908338E090835CF090833788
:100FA300E02231D3AA06A90790832D7401F0A3EAA6
:100FB300F0A3E9F090832DE0FBA3E0FAA3E0F9743A
:100FC3000190000022785C7C837D017BFF2290836B
:100FD30028E0FEA3E0FFC322C2AF75FAAA75FA5553
:100FE300D2FD2213540133333354F84239221133DF
:100FF300EF600E908382E0D3941F5010E004F080E2
:101003000B908382E0D394004002E4F0908382E06B
:10101300C3941F7F0040027F012211307D1F7F0296
:10102300F161D290E57130E00343230122C2907F46
:1010330001912230C1087FFA91227FFA9122221175
:10104300301247B97D1F7F0111EF908381E0600467
:101053007D1F80027D1E7F0211EF11EBE4FD7F04F3
:1010630011EF908100E0FF12510711EFE57F30E0AF
:10107300047D0980027D0F7F0611EF756CBB756DD2
:101083000A756EDC756FA57570757D6C7B057F0ABF
:101093001244811254DD90821CB10FF57012447B0F
:1010A30090821DB10FFD7F0C11EF90821EB10FFDD9
:1010B3007F0D11EFE4FD7F0E11EF7D067F1D11EF14
:1010C3007D1F7F1C11EF7FE2317A7FE1317AF1E0FE
:1010D300F139D29022FD7F0611EF7D707F0711EF6A
:1010E3007FE2317A7FE1317A7D037F03908333EDB1
:1010F30012553E908333F19BD2902290832DEFF0D3
:10110300A3EDF0D29111307D3CE4FF11EF7D017F1F
:101113000111EF90832E31AF7D0F11D9F1E67D3FA1
:101123007F0411EFC2917F30F175C2917F2AF1756F
:10113300F139D2902211307D7231A290837DE04447
:101143001911D8C2917F301254AFD29112558E909B
:1011530083317401F07FFF1202C312462CE0C39463
:101163002140F21255955195EF20E50512001580A7
:10117300F5F1E0D2907FE3C290C2911202C3D29103
:10118300D2902211307D7331A2F1E690837DE04449
:101193000911D8C2917F2A1254AFD291D29022E47E
:1011A300FF11EFE4FD7F0111EF90837FE0FD7F05E9
:1011B30001EF90832BEEF0A3EFF0E490832FF02068
:1011C300C107E57120E402418F9132E0FF540EFE26
:1011D300C313908330F0EF20E605E06407605B9073
:1011E3008330E0D3940450527D407F0711EF1251B6
:1011F3004990832EEFF07002801490832EE0D394F5
:101203002440117424F01255DE7D2412510E7FE226
:10121300317A800B1255DE90832EE0FD12510E9031
:101223008330E014F0E0FFF57DC394035005121AF8
:101233005FF57E90832FE04401F090832DE030E54D
:10124300077D2091FA4402F090832DE030E4077D7E
:101253001091FA4404F07F0020C1027F0190833192
:10126300EFF091327F0020C1027F01908331E06F64
:101273006002913290832DE0540EC313908330F0BB
:101283006407600543711080035371EF90832FE06F
:10129300FF22C2911202D9D29122908346E024FE0A
:1012A300605314606E1470026158240360026198E5
:1012B3007E837F287D01B10360541246A39081ADE4
:1012C300E020E402619878497C837D017B017A8187
:1012D30079AD120E619080FCE0B4DE14A3E0B4ADEE
:1012E3000FA3E0B4DF0AA3E0B40A0512522261920D
:1012F30012524E61787E837F28E4FDB103600F12A2
:1013030046A390835AE020E10312524E80671251A4
:10131300F601FEE578657A602B5195EF20E0259084
:10132300835B7406F01251649081D4E0240F600C47
:10133300240F70611251A5EF705B80539081D5E04B
:10134300FF024AAB5195EF20E04B908348E0D394E2
:10135300484042803A908345E0C39415500280018F
:10136300C350191251F611FEE52220E2281252173A
:1013730060231247379083467403F0221200174309
:1013830022107F0912520D12558212520111FE9042
:1013930083467402F02290832B12512FA374C8F05A
:1013A300E4A3F0A3F011307FE1317A12558E9083DC
:1013B3002DE0601A125505FF1202C390832DE0142D
:1013C300F012257C700690832BE004F080E0125528
:1013D30095519590832FEFF090832EE014F07F6466
:1013E30091221200151218E290832FE020E50920C4
:1013F300E40690832EE070D97D307F0711EF908350
:101403002EE0600BA3E030E606A37401F08005E450
:10141300908330F0E4908348F0908330E0FF22E43F
:10142300FEEEC39F500800000000000E80F322511F
:101433009590832DEFF022E53824FE700281F3248A
:1014430002600281F9E53914607014700281D814C6
:10145300700281E22403600281F9E53A7012757625
:101463000575770190837EE054FEF054FDF0013062
:10147300E53AB4010F75760575770290837EE054E3
:10148300FDF02138E53AB4020F75760575770390C0
:10149300837EE04402F02186E53A64037058F576D2
:1014A300F57790811AE0FFA3E0A3CFF0A3EFF0E478
:1014B300F55A90821CF0537FFE22E53A90837EB466
:1014C300FF05E04401F022E054FEF0A3E53AF0E02A
:1014D300FD7F05801F1244B3E53A12552201EFAF99
:1014E3003A124714EF70047F018002AF3A02001DE5
:1014F300AD3AAF39F161227F0711EF90832FE022DC
:10150300F1497E837F287D027199EF22E075F01CFB
:10151300A42403F582E43481F583E022E490832854
:10152300F01229039406506EF12D30E06490832865
:101533001247C8F582E43481F583E0FE9082DDE052
:10154300FDEE6D704CEF75F01CA42411F582E434AC
:1015530081F583E0FF9082DEE0FEEF6E70339083CF
:101563002812274C1255A1FE9082DFE0FDEE6D702C
:1015730020EF1255129082E0E0FEEFB50613908340
:1015830028E0FF24221222C64402F12C4404F080F6
:101593000512290B808B908328E06406704BFFF1C2
:1015A3002D20E007908328EFF080050FEFB406EFBE
:1015B300908328E0640670319082C6E030E023E433
:1015C300FF908103E0FEE4908328F0EFB110FDEE7D
:1015D300D39D4007AE05908328EFF00FEFB406EBE1
:1015E30080079083817401F022E4908381F0F57683
:1015F300F5779082CFE020E002C1B6124F99908038
:10160300FCE0FF90832812543AF583EFF09080FDBD
:10161300F12512544AEFF09080FEF125122FDAF5EE
:1016230083EFF09080FFF125122FE2F583EFF09026
:1016330082CAF1251253EAF583EFF09082CBF125AC
:10164300125457EFF012542EF5837488F0EEC454FD
:10165300F012541A7402F09082D9F1251253F2F564
:1016630083EFF09082DAF1251253FAF583EFF090CD
:1016730082DBF125125464EFF09082DCF1251254E1
:1016830002F583EFF09082D5F12512540AF583EF2A
:10169300F09082D6F125125471EFF09082D7F125A4
:1016A300125412F583EFF09082D8F125125424EFEF
:1016B3001253079082C8E0908102F0124E7C90830F
:1016C30028E0FF7D01124F5B7D02124F5B7D031209
:1016D3004E9C9082F6E0600A908328E0FF7D04121E
:1016E3004E9C5372FE908328E0FF2455F130440250
:1016F300F0745A2FF8E4F6E57130E014908328E093
:1017030024221222C64401F0E4908262F0432302B1
:10171300908328E0FF12225BE060061222C3440498
:10172300F022E0FFEEC454F022F074552FF582E46A
:101733003482F583E022E4FF1244ABEF4402FDE47C
:10174300FF11EFC284228F828E8374E2F0ED7F005B
:1017530060027F10EF4408A3F0227D1E7F02908376
:1017630031EFF0A3EDF01130908331E0FFA3E0FD02
:1017730001EF1202C390832DE0FF1202C39080FF9A
:10178300E0FF1202C39080FEE0FF1202C39080FDCF
:10179300E0FF1202C39080FCE0FF1202C3D2912249
:1017A30075891175885575C81075CD0075CC01758F
:1017B300CB0075CA01D2C8756903756A18756B09C0
:1017C300AF8CEF756800F567AF8AEF4268E567FF96
:1017D300EFB58CEC125575E4908381F0227D707F18
:1017E3000701EF7D017F0201EF90835AE054FDF082
:1017F3004401F02275B5FF75A520D2BDE4F5AB75A4
:10180300AC0475AD0A221207A55350FE5375FE535F
:1018130071DFE4F5245322F75323DF5323EFF576E7
:10182300F57775D901C2921217F775A52A75A40128
:10183300D29222E4F5ABF5AC75AD0B22C0E0C083C8
:10184300C082C085C084C0925392FE1136E57220D7
:10185300E522E55820E006908383740CF09083839F
:10186300E0700B740CF0756318437F088006908357
:1018730083E014F0D092D084D085D082D083D0E09E
:1018830032C0E0C0F0C083C082C085C084C0925320
:1018930092FEC0D075D000C000C001C002C003C01A
:1018A30004C005C006C00775A04011365350FE534F
:1018B30050FD756300437F085372DF75A000D007A6
:1018C300D006D005D004D003D002D001D000D0D0B0
:1018D300D092D084D085D082D083D0F0D0E03212A1
:1018E3000015AF8CEFFCAF8AEFFDECFFEFB58CF288
:1018F300C3ED9568FDEC9567FC1255CB500241355D
:1019030012557574CB2DFD74FA3CFCE569D3940034
:1019130040021569E55020E11DE4FF515FFE919CF3
:10192300E0FAA3E04A600AEE919C74FFF5F012011D
:10193300200FEFB403E5E55960021559E563600232
:101943001563E4FF745A2FF8E6FE6004F4600106A1
:101953000FEFB406EF908348E004F01255CB50A08C
:10196300E5697057756904E56A94004002156A12C7
:101973000FF1EF6024908381E0701E908380E0700C
:1019830018E57F20E013A3741EF0E49081F4F09037
:1019930082C6E04401F012101DE4FF74542FF8E6F0
:1019A300600874552FF8E66001160FEFB401EC9050
:1019B300830CE0D3947D5003E004F0E56A70147562
:1019C3006A19E56BD394004002156B908380E06045
:1019D3000214F0E56B705B756B0A90837EE030E078
:1019E30008E57F30E0031243A3908381E060211474
:1019F300F0B283E0701A9082C6E054FEF0E57130D5
:101A0300E0034323025372FBE4F576F57712175D87
:101A1300908381E07002D283908261E0D39401408D
:101A230003E014F090835BE0600814F0E0700312AD
:101A330044FA22E57A75F015A4FDEE04FEAC050D1B
:101A430074002CF582E43480F583EEF0AE050D745A
:101A5300002EF582E43480F583740EF0741C2FF5A8
:101A630082E43482F583E022AD07E5796002618286
:101A7300EDC3940340026182125537FC741C2D514F
:101A8300621255E7718AEF7183740F71837405F0E5
:101A9300ED1255E7718AEFF0ED14601414601C2405
:101AA300026002618271847427718374D4F080149C
:101AB30071847436718374E4F080097184744571A0
:101AC3008374F4F0E57230E30A74002C718A7401B4
:101AD300F0800774002C718AE4F0741C2D5162129B
:101AE30055D58005C333CE33CED8F9FF9081F5E0C9
:101AF300F9FBEF5B601D741C2D5162123AAD80023D
:101B0300C333D8FCF4599081F5F074002C718AE04A
:101B13004402F0741C2D51621255D58005C333CE97
:101B230033CED8F9FF908233E0F9FBEF5B601D748D
:101B33001C2D5162123AAD8002C333D8FCF4599084
:101B43008233F074002C718AE04404F00C741C2D71
:101B5300516275F01CA41255A1FF74002C718AEF19
:101B6300F00C741C2D516212551274002C718AF101
:101B7300E24003E4F57A1254CBB57A037579012276
:101B8300F0AF040C74002FF582E43480F5832290C7
:101B9300832BEFF0124F4990832CEFF0E0FE241CCF
:101BA300516291BE7403F0A374E8F0741C2E516269
:101BB300919CE4F0A3F090832CE0FE241C5162245A
:101BC3005AF8760190832BE0FD741C2E124E59EDCA
:101BD300F0ED124655E0FCA3E0FD90832BE0FE916F
:101BE300BEECF0A3EDF0EE91BEE0FCA3E0FDEE91C0
:101BF3009CECF0A3EDF0EFC39403500FEE1215101D
:101C0300FD90832CE0240BFF12176190832CE0FFDF
:101C1300516B90832CE0FFB1D990832CE0FF22908D
:101C2300832AEFF0E4FA741C2A5162FF121510FEA6
:101C330090832AE0FDEE6D702A12172D30E0248A7E
:101C43007D741C2A5162F57E91AAEEF0A3EFF09108
:101C5300BC9195EEF0A3EFF0AF02516BAF02B1D997
:101C63007F01220AEA640370BDE4FFEF121510FE40
:101C730090832AE0FDEE6D60050FEFB406EDEFC330
:101C83009406500B71928F7D515FF57E7F01227F09
:101C93000022E0FEA3E0FFE57E75F01CA4241CF502
:101CA30082E43481F5832275F01CA42418F582E4C0
:101CB3003481F583E0FEA3E0FFE57E75F01CA424E8
:101CC3001AF582E43481F58322E4908329F0E57DDB
:101CD300B4FF197E817FAC120360EF7002A1D3D1F0
:101CE3008C641F6002A1D3124B63A1D3E57D64030F
:101CF3007026E57230E2217E817FAC120360EF70C3
:101D030002A1D3D18CFFBF0F02F159D18C641F60A4
:101D130002A1D3124B86A1D3E57D6403701BD18C42
:101D2300FFBF0F07A3E0B40702A1D39081ACE0FF8C
:101D33009122908328EFF08002F1EC908328E070E9
:101D430002A1D37E817FAC120360EF7002A1D3E5C1
:101D53007DC39403507A1220A6908329EFF09081DB
:101D6300ADE030E723E57E91AAEEF0A3EFF0E55076
:101D730030E107919A1247C0800991BC9195EEF02A
:101D8300A3EFF0435001800991BC9195EEF0A3EFCE
:101D9300F01255AC4020EF601D7455257E121730AC
:101DA30030E013E57130E00A7422257E1222C64426
:101DB30001F0AF7DB1D91255AC4013EF6010122280
:101DC30059E0600A7422257E1222C64404F0E4F628
:101DD300908329E0FF22E5797029515FFE12268A5C
:101DE30030E6205136245B1237BBE0FFAE057400AA
:101DF3002E718AF1E24003E4F57A1254CBB57A03EB
:101E030075790122E57F20E066E4FF515FF9919C3B
:101E1300E0FCA3E04C7052745A29F8E6704BE57667
:101E230064036039F1ECE4FEEF6E6020741C2E5104
:101E33006291BEE0FCA3E0FDE991BEE0FAA3E0C33A
:101E43009DEA9C4007E4908328F080050EEEB403DE
:101E5300D7908328E06006757603757701E991BE14
:101E63001247C0745A29F876010FEF6403709C225D
:101E73007E007F207D007B017A8279351201B59047
:101E830081ADE0541F908237F09081ADE0541F2262
:101E9300E576B4051BE57764036002E1587F07121A
:101EA30044ABEF20E602E1581217E07FE202117A19
:101EB300122699E57624FE7002E13F147002E14296
:101EC300147002E14724046002E15312469C600A45
:101ED3001247D06005E4F576F577E578657A6034E6
:101EE300121295EF20E02D125192C002C00178D159
:101EF3007C817D01D001D002125180E57875F01507
:101F0300A42400718AE0FF1247E11251874003E4E1
:101F1300F578D2AFE57F20E0217F01E4FE741C2E2B
:101F23005162245AF8E6D394C85004E4FF80050EA6
:101F3300EEB403E9EF60031247ABC107024663D176
:101F430007024753E57F30E004E4F576220246E7D3
:101F5300E4F576F577229081AEE024FD602524FD3B
:101F630060322406703BF1A591BCEEF0A3EFF0F1D3
:101F7300A5919AEEF0A3EFF09081ADE030E5224316
:101F8300232022919AE4F0A3F09081ADE030E51193
:101F9300432310229081AFE0B40106757602757772
:101FA30005229081B0E0240CFF9081AFE03400FE65
:101FB30022E5797029515FFE12268A30E6205136D8
:101FC300245B1237BBE0FFAE0574002E718AF1E289
:101FD3004003E4F57A1254CBB57A0375790122EF05
:101FE300F0057AE57AC3940C229083287401F022D9
:101FF300E4908381124E6190835AE054FBF0E490A5
:102003008346F0F57AF578F579F57D90821CE0F555
:102013007EE4F559908100E0F560E4F517F518F5D5
:102023001990830AF0A3F0A3F0FFEF04FE116DEE05
:10203300F00FEFB403F4537FFE537FFD537FFB5345
:102043007FF7537FEF537FDFE4FF745A2FF851C1BB
:1020530054FEF051C354F7F00FEFB406ED5375FD82
:102063005375F75375FB5375FE2274632FF582E4A2
:102073003482F58322116DE064016026E4FEEEB53F
:102083000709246311707401F0801274632E1170B8
:10209300E06403600874632E1170E004F00EEEB484
:1020A30003DC2290832A7401121E8B12018920DF24
:1020B3000020E40120E602210C03211F0421320841
:1020C30021450E21510F215B10216011216F132037
:1020D300F91521B21621651F000021C9124A4B21AF
:1020E300D521D0516920E20221D05155E06002216F
:1020F300C012499621D5516920E20221D05155E001
:10210300600221C0123F7621D5516920E30221D01C
:102113005155E0600221C0123CDB21D5516920E416
:102123000221D05155E0600221C0124A6F21D5D15E
:102133008820E00221D05155E0600221C0124A7B81
:1021430021D5D18820E60221D012000921D5121F02
:1021530059E57230E27C8075124A878075124AEF26
:102163008070E57230E203124B868061516930E181
:1021730008E57E12555720E0028052AF7D1178F1B9
:102183005E5159E0604CE52130E0475321FE9081D8
:10219300ADE054E04401F0E49081B5F0A31201589E
:1021A30000000000E49081BA1237D4A3F0800EE55A
:1021B3007EF19D20E60280155159E06004F1D38041
:1021C30011123CFF800C5159E06002F1D3E490837B
:1021D3002AF09081ADE030E556E524C39403504FD7
:1021E300E0541F700C90832B7481F0A374B1F080C2
:1021F3001E121E8CD39410500C90832B7481F0A369
:1022030074B6F0800A90832B7481F0A374CCF0E54C
:102213007E04F1AC2425F8A607125505FCA3E0FDC6
:10222300A3E0FEA3E0F1AC2426F812014C0524122E
:102233001E8C6018E0541F640F6011E0541F641F6C
:10224300600A7416257E12554FE004F090832AE04D
:10225300FF22AF7D1178E57E75F01CA4241EF58264
:10226300E43481F58322E57E75F01CA42414F58201
:10227300E43481F583E022EF516B30E107F153E45D
:10228300F0432102EF516B30E20AF1E0123F6BE4BD
:10229300F0432108EF516BFE30E303432120EE307E
:1022A300E403432180F19C30E60AE57230E40551F2
:1022B300C34408F0EFD18A30E0034322022276FFC1
:1022C30074222FF582E43483F583E022E524C3945A
:1022D30002405090C5807411F0A374FFF0A37449B9
:1022E300F0A3E524F0A3E525125566E529F0A3E55F
:1022F3002AF0A3E52BF0A3E52CF0A3E52DF0A3E54D
:102303002EF0E52494034014A3E52FF0A3E530F069
:10231300A3E531F0A3E532F0A3E533F0E4F524754A
:10232300191422E52330E00D5323FEF1BDE4F50B30
:10233300430B01A14CE490832CF0B183501C51C397
:10234300FFC31330E010F13AEF54FDF1B4750A40C6
:10235300750B02E4A14CB17C80E0E490832CF0B1D6
:1023630083505F51C3FF30E055F13AEF54FEF1B4AF
:10237300750A41750B04F1492409F582E43481F5AA
:1023830083E0540FF50C745A2FF8E66005430C40B4
:102393008008121E8C6003430C8090832CE012553E
:1023A3005730E003430C20E57230E303430C10F194
:1023B300491241CDF50EEF1241D8F50DA152B17C72
:1023C300809DE490832CF0B183502951C3FF1313F4
:1023D300543F30E01BF13AEF54FBF0EE515BE06009
:1023E3000F90832CE0FD7F807EC51241718F1922EF
:1023F300B17C80D390835AE030E05854FEF07508E6
:1024030010908347E0FFF509750A41750B0590832A
:102413004AE0FE540FF50C90835AE020E105EE44A8
:1024230040F50CEF64756024908347F14C24E9F583
:1024330082E43480F583E0F50EEF75F01CA424EA02
:10244300F582E43480F583E0F50D8005E4F50EF5BF
:102453000DA152E490832CF0B183501F12172DFF6E
:102463001313543F30E0101250B154FBF07F807EC1
:10247300C51241E78F1922B17C80DDE490832CF0F3
:10248300B183501512172DFFC31330E0081250B15A
:1024930054FDF08015B17C80E7E57130E716908339
:1024A3002CE0B4060F53717F7D077F807EC51240F9
:1024B300CE8F1922E52330E12F5323FD908220E0B4
:1024C3007021F1BDF50B530BFE908262E0F50CE435
:1024D300F50D90821FE0FFB4FF05E4F50E80028F37
:1024E3000E806CE4908220F0E52230E214C4135491
:1024F30003700E7F807EC51240828F195322FB80AA
:1025030014E52230E216C413540360107F807EC5A5
:10251300120ED88F195371FB5371DF22E52330E577
:102523001A5323DFF1C7750B03121CBCE0FCA3E0B5
:10253300FDECF50C8D0DE4F50E8014E52330E41964
:102543005323EFF1C7750B04E4F50CF50DF50E7F7E
:10255300807EC512408E8F1922E524640170199084
:10256300C5807410F0A3E525F0A37449125566E500
:1025730029F0E4F5247519072290832CE004F02256
:1025830090832CE0FFC3940622AD0790835B74060F
:10259300F0908346E06002C14090835AE04404F027
:1025A30054FDF0908347EFF0BF7521908359747504
:1025B300F09080FC74DEF0A374ADF0A374DFF0A39D
:1025C300740AF0E4908352F0A3F0800C908347E008
:1025D30014121510908359F0E490832CF0B18350BA
:1025E30039908347E0146F602D90832CE0245AF8D0
:1025F300E6702312172D30E01D51C14401F0908382
:102603002CE0FF515BE0600751C34404F080079066
:10261300832CE0FF517AB17C80C3E4FF74492FF52A
:1026230082E43483F58374FFF00FEFB410EE125598
:10263300821252011210FE9083467401F022EF5170
:102643006B30E107F153E4F0432102EF516B30E2C9
:102653000AF1E0123F6BE4F0432108EF516BFE30C7
:10266300E303432120EE30E403432180F19C30E671
:102673000AE57230E40551C34408F0EFD18A30E033
:102683000343220222E57E75F01CA42415F582E49F
:102693003481F583E022E4908328F0122903940621
:1026A3005047745A2FF8E6FFC394C84037EFF460DD
:1026B30033E0245512173030E02A76FFE57130E01D
:1026C3000B908328E0242251C64401F0908328E034
:1026D300FF515BE0600751C34404F08007908328F7
:1026E300E0FF517A12290B80B222E490832CF0B1DF
:1026F30083502E51C3FF131313541F30E01F9083D5
:102703002CE0F13FEF54F7F07E007F207D007B014A
:102713007A8279351201B590832CE0800EB17C80EA
:10272300CEE52330E3105323F7E57E04FF7D807C61
:10273300C5123E0C8F192290832CE0FE2422F582D1
:10274300E43483F5832290832CE0FF75F01CA422EC
:10275300742D2FF582E43482F58322E57E124F7ABD
:102763001252599081B5E064C970255159E0701C2B
:102773001255C1F156EFF0E4F51AFFF153E0421A96
:102783000FEFB406F6781B7C00123FD443210122DD
:102793000574E5747002057322EF75F01CA424160A
:1027A300F582E43481F583E022FFE52475F005A486
:1027B30022F0750810EE04F509227508107509FF5B
:1027C300750A4A22750810E57E04F509750A49223F
:1027D300121E73123CE712029D4322082274212F1A
:1027E300F582E43482F583E4F022E55030E10A30E7
:1027F300E00A1228005350FE2212280F22437F08BA
:1028030012435B1243671242A20218E2E57F30E4EF
:102813000BE52220E206537FEF12437CE4908328EA
:10282300F0310394035024EF2481FF1231FF90838E
:1028330028E0FE2429B153EFF074292EB153E06050
:1028430006740A2E123FCA310B80D6908329E060AA
:1028530007E5177003123B2F90832AE06007E51802
:102863007003123F2990832AE0600BE5187007E597
:10287300526003123CB790832AE0600BE51870079F
:10288300E5526003123C2390832AE0600BE5187045
:1028930007E5526003123C5B90832BE0600BE51964
:1028A3007007E55360031222CF90832BE0600BE5A2
:1028B300197007E5536003123FE390832BE0600B2D
:1028C300E5197007E55360031226EDE4908328F0C1
:1028D30031039403502974172FF8E6FD601DE0259A
:1028E300E0FFE433FEEF24B7FFEE34C78F82F583B6
:1028F300EDF0908328E02417F8E4F6310B80D12221
:10290300908328E0FFC322F0908328E004F022E5BF
:1029130037242F70024175241C60024183E57F2018
:10292300E0024171E538D3947F501AE538640260C0
:1029330014785C7C837D017B007A007938120E6108
:10294300120E204187E538C394F05002416DE538FB
:10295300D394F54002416D124F99E538540F90839B
:1029630028F0E0FF12543CF583E539F0EF125447A9
:10297300E53AF0EFC454F0F1DAF583E53BF0EFC448
:1029830054F0F1E2F583E53CF0EFC454F01253EA5E
:10299300F583E53DF0EF125454E53EF0EF12542F6A
:1029A300F5837488F0EFC454F012541A7402F0EFF4
:1029B300C454F01253F2F583E53FF0EFC454F01220
:1029C30053FAF583E540F0EF125461E541F0EFC4AB
:1029D30054F0125402F583E542F0EFC454F012545C
:1029E3000AF583E543F0EF12546EE544F0EFC45467
:1029F300F0125412F583E545F0EFC454F012542459
:102A0300E546125307908328E0FD124F6EAB07FA99
:102A13000BEBAE0270010A14F5828E83E06D600247
:102A23008040121FEC3103940750170BEBAC02707C
:102A3300010AB15BE66E60067F09B14C8004310B7D
:102A430080E374022BFBE43AFA9083287407F03195
:102A530003940F502F0BEBAC0270010AB15BE66ECF
:102A630060047F09801C310B80E57F0380147F02A3
:102A73008010E57F30E0051243C580087F028002A5
:102A83007F02B14CE536648F6007E4F538F539F51C
:102A93003A43220422E52330E21E5323FBE49083CE
:102AA30028F0310394035010121A5F245AF8E67089
:102AB30003121DD9310B80EAE4908328F03103948B
:102AC30003502F121A5FFF245AF8E67021047E0088
:102AD300A807088005C333CE33CED8F9FF9081F51C
:102AE300E0FDEF5D6008908328E0FF121A6B310B65
:102AF30080CB908261E0B4010EE4F0FFEF12225B21
:102B0300E4F00FEFB406F5E5796013121295EF3098
:102B1300E00C7FE112117AE4F57AF578F579224336
:102B230072047E007F3D7D007B017A8279C71201AA
:102B3300B59081BAE030E2109081B7E0B404099017
:102B430081B4E0C3940850099082C6E020E102A159
:102B5300409081BAE030E3179081C0E090821FF08B
:102B6300E0701290838104F09082627405F02290E9
:102B7300821F74FFF09083817402F090826214F0DC
:102B83007F031209D3AA06A907908329740112525D
:102B9300FF908329120FBA6B7008E965827003EA0C
:102BA30065836002812E124196908328EFF0C2FB69
:102BB3006024D2FB90000BE09080FCF090000CE0CE
:102BC3009080FD1255B79080FEF090000EE090804B
:102BD300FFF0C2FB8019124931E5F39080FCF0E568
:102BE300F3A3F0E5F3540F4490A3F0E5F3A3F0123D
:102BF30054DD75700112447B8031E4FFFEEE121543
:102C030010FD908102E0B505047F0180050EEEB44E
:102C130006EBEF7016908102E0FF600FC394014052
:102C230006EFD394064004EFB47508908102E004E4
:102C3300F080C79081ACE09082C7F0908102E09071
:102C430082C8F09081B4E09082C9F09081B5E090A1
:102C530082CAF09081B6E09082CBF09081B7E09089
:102C630082CCF09081B8E09082CDF09081B9E09071
:102C730082CEF0E4908328F0908328E0FF24BAF515
:102C830082E43481F583E0FE74CF2FF582E434824D
:102C9300F583EE310AE0B406DF124924A37401F090
:102CA3009080FCE09081D3F09080FDE09081D4F09F
:102CB3009080FEE09081D5F09080FFE09081D6F087
:102CC3009082C8E09081D7F09082C9E09081D8F0DB
:102CD300A37488F0A37402F0A37404F0A37401F046
:102CE3009082CEE09081DDF0E4908328F03103946C
:102CF30006500F74DE2FF582E43481F583E4310A44
:102D030080EB9082CFE0542F9081DEF09081F4E04D
:102D130060079081E3E04401F07E817FD0120337A6
:102D2300908220E0FD7E817FD060028002E4FDF18D
:102D3300399082C8E0FD7F0E121761E11290838102
:102D43007401F090826204F0221254F043220422B0
:102D5300F582E43483F5832214F5828C83E0FE74D8
:102D6300382FF822E537244D603324FE7053E538BD
:102D7300D3947F5024AF381209D3EF4E70028019D9
:102D8300AA06A9077B01C002C00178387C007D0038
:102D9300D001D002120E6180217F0380267E007F46
:102DA300107D007B007A0079381201B5E4FF1255DB
:102DB3004CB160A6060FEFB406F44322604322042D
:102DC300227F028084E536247F600D24FE60132475
:102DD300037011124BCB800312083B53229F4322F3
:102DE300042280807F01A14CE52220E702C1C54374
:102DF300221090830FE0F47051E52230E202C1C249
:102E030053227FE57130E20FD1FFD1D87F07120241
:102E13009D7F07B14CC1C290830EE0B4100DD1FF6A
:102E2300D1D87F0712029DB1C8C1C290830EE0645E
:102E3300116002C1C278347C00FD7B017A83790E74
:102E4300FE7F1412029DF10680751236C54006E01E
:102E5300D39406400890830FE06475705E90830FEF
:102E6300E064756007E02459F8E6600A90835AE04D
:102E730030E24430E141E57970391237C3B41006CA
:102E8300D1C67F07800B90830EE0B41109D1C67FB2
:102E93001412029D800280271255322400121B8ACD
:102EA300121FE24003E4F57A1254CBB57A11757917
:102EB30001800C7F0780067F0980027F08D1E153E0
:102EC30022EF22E57A75F015A42401F9748035F018
:102ED300A801FC7D017B017A83790E7E0022908319
:102EE30028EFF0E52220E21353227FD1FFD1D87FD0
:102EF3000712029D908328E0FFB14C2278347C00B6
:102F03007D0022E536247E700221127F01A14C75DB
:102F13007602E4F5772278F67C827D017B017A8163
:102F230079AF7E007F0E12029DF112F1BE120337BC
:102F3300F1AFF13980D990832EEDF01237CBF582C2
:102F43008E83A3E0541FFF123D10AD0790832CF135
:102F5300B6FB90832F12512FA3EBF0121030C291C6
:102F6300908332E0540744A8FF1202C390832FF1E9
:102F7300B6FD1202F2D291D290229081B0E09082FB
:102F8300E7F0E4FF74B12FF582E43481F583E0FECA
:102F930074E82FF582E43482F583EEF00FEFB40E7C
:102FA300E3F1BE120337F1AFF139E1127E817FD035
:102FB3007D0422E0FEA3E0FFA3E0229081ACE09039
:102FC30081D0F0A3740FF0A37406F0A37402F0A3EE
:102FD30004F07E817FD0222468F582E434822224A7
:102FE30069F582E434822290C700E4F0A3F0E54857
:102FF300541F14601214601A24027045E5585401DA
:1030030025E090C700803351C55036E55030E53197
:103013008029E54C702BE54D547F70057F02FE80BF
:103023001EE55030E51BE54D30E716547FC394048D
:10303300500FAF4D114E90C700EFF07F027E00613D
:103043001502002590C7B47411F02251B9401BEF4B
:10305300D394055015ED20E70A511F117920E00A9A
:103063001C8007117020E002E4FCAF0422ED547FC2
:1030730075F002A424B4FFE5F034C78F82F583E032
:1030830022AD07ED547FFF701D90C7ACE04401F003
:1030930090C7DEE04401F090C7ADE04401F090C773
:1030A300DFE04401F022EFD394055054ED20E726EE
:1030B30090C7DFC083C08231048002C333D8FC4F82
:1030C300D082D083F0ED511F117954FEF090C7D711
:1030D300EDF02420F022ED547FFD90C7DEC083C0C5
:1030E3008231048002C333D8FC4FD082D083F0ED09
:1030F300117354FEF0ED241090C7D7F0ED2430F097
:1031030022E0FF7401A805082274512FF8A64BEFA3
:103113002481FF118431E7908341E004F02251C5FB
:10312300503BE55030E536E54D60046401702EE513
:103133004B600464017026E548541FFFBF010FE490
:10314300908341F031F194035016310C80F6E490F2
:103153008341F031F194035007310C80F6120025BE
:1031630022E548541F700BD3E54B9401E54A9400C4
:103173004003020025E54B605231F831F1940450CD
:103183000AEF2480FF1184311A80F0755020E4FF88
:10319300EF700875547D75557D800C74542FF8E4D9
:1031A300F674552FF8E4F60FEFB401E4437F0843B8
:1031B3007F0231F8908341E0FFD39405502690C7F6
:1031C300D7EFF0EF2440F0311A80E931F831F19470
:1031D30004500BEF2480FF124273311A80EF7550B5
:1031E30010437F0475640590C7B47412F022908372
:1031F30041E0FFC3229083417401F02251B9401989
:10320300EFD394055013ED20E709511F117960099D
:103213001C800611706002E4FCAF042275F002A466
:1032230024C422EF547FFE70020147EED39405506D
:1032330016EF20E704511F8009EF547F75F002A4B5
:1032430024B411794401F022E548541F24FE601B85
:103253002402705FE54B6401454A7057E549B401A8
:10326300055358FE804B4358018046E54C7044E5B6
:103273004B454A703EE5496401701FE54D547F702C
:1032830002802EE55030E52BE54D30E726547FC311
:103293009404501FAF4D11848017E55030E514E5B9
:1032A3004D30E70F51BE400BEF94045006AF4D5124
:1032B3002621E7020025AD077C01ED547FFFD3945F
:1032C3000022C3E54D9403E54C940022E548541FC6
:1032D3006401701CE54B454A701651C55012E55008
:1032E30030E50DE54F7009E54D2481FF118421E799
:1032F30002002551C55018E55030E513E4FFE54DB4
:103303007008854A54854A557F01EF600221E70220
:1033130000258E658F66E54E6006E4F54E754FFF1A
:10332300919150048E658F66918740057564018085
:103333000375640390C7B5E566917FE4F565F566AB
:103343002251C55015E55030E510E54D700C90C77E
:1033530000E554F07F017E0080B8020025E5485463
:103363001FFFBF011351C5500FE55030E50A90C749
:1033730000E4F07F01FE809A02002551C55016E556
:103383005030E511E54D6003B4010A7451254DF841
:10339300E69151611502002551C54002814EE55069
:1033A30020E502814E90C700E54BF0A3E4F1D4A3DE
:1033B300F0E54A64016002813DE54D7005123FF47A
:1033C3008028E54D64017012E552700512401B80A0
:1033D30019E54BB4020491A58010E54DB4010FE546
:1033E3004BB4030AE55260067F057E00805BE54D22
:1033F300B4010FE54BB4040AE55260067F027E0078
:103403008047E54DB4010FE54BB4080AE552600669
:103413007F027E008033E54D6402702FE553602BFD
:10342300E54BB410067F077E00801EE54B641170E8
:103433001A7C067D807F14FE801DE54AB4020CE5EC
:103443004D7008908304E09151611502002590C7E7
:1034530000F07F017E00228E658F66AE04AF058E7D
:10346300618F62919150048E658F669187400575D7
:1034730064018003756403123AC88001F090C7B4F5
:103483007402F022C3E5669408E565940022E54ED4
:10349300FE7C00E4254FFFEC3EFEC3EF9566EE9500
:1034A30065227B007AC791F7E50FF07F13D1F59082
:1034B3008341EEF0A3EFF07F15D1F5A3EEF0A3EF78
:1034C300F0908341A3E0B105A3F0908344F13790DA
:1034D3008341F12CB16FEFF0908343E0FEA3E078DA
:1034E30004CEA2E713CE13D8F8B151E512F0E4F5F8
:1034F300127F08225321FB8B828A837402F0A3E597
:1035030010F08B828A83A3A322AB07AA0691F7E567
:103513000FF07F13D1CDF1CB7F15D1CDA3EEF0A367
:10352300EFF090832CA3E0B105A3F090832FF13744
:1035330090832CF12CB16FEFF090832EE0FEA3E08B
:103543007804CEA2E713CE13D8F8B151809DFFEBD8
:103553002405F582E43AF583EFF0EB2406F582E4E3
:103563003AF583E511F0E4F511EB2407F582E43A2B
:10357300F5832290834374C6F0A374C0F0EF24FF55
:10358300FBE434FFFAEB2DFDEA3CFCEFD39400405F
:1035930024908343E0FAA3E02FB16FE58224FFF583
:1035A30082E58334FFF583E08D828C83F0ED1D701B
:1035B300011C1F80D62290C6C0E0908341F090C6C4
:1035C300C1E0908342F0E55614B409004002C1B74C
:1035D3009035E175F003A4C58325F0C583730235E7
:1035E300FC0236B702361E02364C02366102366ED4
:1035F3000236B702368F0236A4D1BB908341E090E6
:103603008304F0E4FF908341E0FE745B2FF1BBEE93
:10361300F00FEFB406EF432304C1B7908341E06496
:103623001070227C837D0E7F07B176D1BB4322804D
:10363300D1C55002C1B7E0D394065078E52220E407
:1036430073F177806FD1BB806B908341E06411701D
:10365300637C837D0E7F08B17675560580417C833C
:103663007D167F08B17675560680347C837D1E7F78
:1036730004B176755607D1BB432280D1C54038E0EB
:10368300D394065032E52220E42DE177908341E084
:10369300642070207C817DF67F08B17675560980A1
:1036A3007E7C817DFE7F07B17675560BD1BB43725D
:1036B30002024FE0E4F5562275640590C7B4741016
:1036C300F02290830FE0C3940122F10F7003FEFFF9
:1036D30022F1184002E163F144A8075005F1537F3A
:1036E3000122E6FC08E6FDA807E4F608F6AE04AFFF
:1036F3000522F10F7003FEFF22F11840028061F1F1
:1037030044A8075005F1537F012280D6A807E6FCA1
:1037130008E6FD4C22D3ED94FFEC64809487227578
:10372300640490C7C574FF817FE0540FFFEF4DFF22
:10373300EB240422E0540FC4F8540FC868FFAD070C
:1037430022A807E6FC08E6C39401EC64809478227F
:103753000874FF26F618740736F64321047EF82210
:10376300A80708740126F61874F836F64321047E78
:10377300077FFF2290830FE02459F8E67039E5793B
:103783007035F1C3B41007122EC67F07800D9083E6
:103793000EE064117021122EC67F1412029D125581
:1037A300322400121B8A121FE24003E4F57A1254FA
:1037B300CBB57A0375790122F582E43482F583224D
:1037C30053227F90830EE02290832CEEF0A3EFF040
:1037D30022F0A3F0A3F0A3F0A3F0A3F022E5485452
:1037E3001F7017C3E54B9480E54A9400500CE550D5
:1037F30030E5047550202275501022E548541F709F
:103803004DE54A24FE600F1460142402600201A2F5
:103813007C057D4E80247C057D607F548054E54B80
:1038230014601314601824FE601C240470717C035C
:103833007DA47F04803C7C037DA87F1280347C03BD
:103843007DBA7F1A802C7C037DD47F1E8024E548BB
:10385300541F640170491232C55044E54AB421161D
:10386300E54D75F019A42472F582E43405AD82FCAC
:103873007F097E008026E54AB42224E54D25E02514
:10388300E024B6F582E4340511ADFFE54D25E025CE
:10389300E024B4F582E43405F58311A502345A0219
:1038A3000025E493FC740193FD22F583E493FE74F5
:1038B300019322E4F556E548546024E06025242072
:1038C3007053E54954F0704DE54990041293FFE5B8
:1038D3004854806F703FE54925E024F2F582E434D3
:1038E30003802AE54954F0702CE54990067093FF54
:1038F300E5485480B5071EE548541FFFBF01167500
:10390300F002E549A42450F582E5F0340611ADAA8E
:1039130006F90201AF020025C0E0C0F0C083C082F7
:10392300C085C084C0925392FEC0D075D000C00041
:10393300C001C002C003C004C005C006C007C2C4A2
:1039430090C7A8E012018939810039B40439BE084F
:1039530039C60C3A07103A14183A331C3A54203A31
:1039630071243A54283A712C3A54303A71343A5407
:10397300383A713C3A54403A714400003A8C90C74B
:10398300E8E0F548A3E0F549A3E0F54BA3E0F54AE9
:10399300A3E0F54DA3E0F54CA3E0F54FA3E0F54E0E
:1039A30075640090C7A97401F0A3F0A3F011B641A8
:1039B3008C51BD54FDF05350FB418C90C7AB740444
:1039C300F0418C90C7AB7408F0E55020E21330E56A
:1039D30010E57F90838320E005745EF08003740C10
:1039E300F0E55020E10E30E50B756300E57220E54C
:1039F30003437F025350FE43500243500451BD44DE
:103A030002F0418C90C7AB7410F0437F20F55080D7
:103A13007890C7A97401F0E56424FD60082402705E
:103A23002851C8806475640090C7B47410F080593D
:103A330090C7AA7401F0E56424FC600814700A12AC
:103A430036BB80451235B98040756400123047801B
:103A53003890C7A8E024E851B4CEC313CE13D8F9E5
:103A630051AD8002C333D8FC90C7A9F0801B90C727
:103A7300A8E024E451B4CEC313CE13D8F951AD80DA
:103A830002C333D8FC90C7AAF0D007D006D005D024
:103A930004D003D002D001D000D0D0D092D084D0B3
:103AA30085D082D083D0F0D0E032FF7401A807081C
:103AB30022FFE434FFFEEF78032290C7AB7402F0D9
:103AC30090C7AEE022E4FFE5664565602C0562E53C
:103AD30062AC617002056114F5828C83E493FEEF9E
:103AE3002400FDE434C78D82F583EEF0E5661566A8
:103AF300700215650FEFB408CE90C7B5EFF0E56619
:103B030045657008EF6408600375640322E5485453
:103B13001F7016E55090C70030E5057401F0800270
:103B2300E4F07F017E00023315020025E52130E138
:103B3300165321FD911A7183E4FF122753E0421AB1
:103B43000FEFB406F5800DE52120E008E554600C85
:103B5300E55570087F807EC671608F17225321FE62
:103B63008F828E83E51AF0A3E4F0EF2402918B7B1E
:103B7300007A00791BF1DCE5546002F5557F0822D9
:103B83007A00791A0201B57E007F037D007B007AFB
:103B93000079211201B5E4F524FE7F07FDFB718353
:103BA3007E007F087D007B007A00790F1201B591BA
:103BB300AA91047A83790591047A83790D91047A21
:103BC30083790491107B007A00793491107B017A18
:103BD30083790E1201B5911A7A0079081201B57E24
:103BE300007F047D007B007A0079711201B5E4FF48
:103BF30074172FF8E4F6740A2FF1CA0FEFB403F029
:103C0300221201B57E007F017D007B01221201B5E6
:103C13007E007F147D00227E007F077D007B0022D3
:103C2300E52130E70E53217F91077A83790512014D
:103C3300B58005E52130E6087F007EC691448F18E4
:103C4300225321BF8F828E837404F0908305E08F0B
:103C5300828E83A3F07F0222E52230E10E5322FD00
:103C630091077A83790D1201B58005E52230E008CA
:103C73007F007EC6917C8F18225322FE8F828E8313
:103C83007408F090830D80C6FFE43EA807FC7D0115
:103C9300228F828E835321EF7403F0EF2401918BE3
:103CA30091B091D47F05227E007F047D007B017A51
:103CB30083790622E52130E50A5321DF91AA120117
:103CC300B58005E52130E4087F007EC691948F1806
:103CD300227E007F0402029D78067C8391F691D4B4
:103CE30043211022FFB110EF24FDFFE434FFFE78DF
:103CF300387C827D017B017A8179AE22E57230E4E2
:103D03000B121E7391E712029D43230822EF7004E6
:103D13007E05800AEFD394107E1650027E0AAF060A
:103D2300221237CB908237E0FFB110EF6416703860
:103D3300D1A17421D1AEA3E0D199F0E4FF74382F5F
:103D4300F582E43482F583E0FEEF2403FDE433FCE3
:103D530090832CE0FAA3E02DF582EA3CF583EEF0A4
:103D63000FEFB41DD87F2022D1A17420D1AEA3E0E0
:103D7300FDD199D185F1172404D103F120D103900A
:103D8300823BE0B19F908242E0FFED240DD103908E
:103D93008243E0FFED240ED1037F0F22FFED2406C3
:103DA300F582E43CF583EFF090823CE0FFED2407DD
:103DB300F582E43CF583EFF090823DE0FFED2408CB
:103DC300F582E43CF583EFF090823EE0FFED2409B9
:103DD300F582E43CF583EFF090823FE0FFED240AA7
:103DE300F582E43CF583EFF0908240E0FFED240B95
:103DF300F582E43CF583EFF0908241E0FFED240C83
:103E0300F582E43CF583EFF0228D828C837411F00C
:103E1300A3EFF0D18A7466D185F1172404D103F19D
:103E230020D103908242D19190823BE0540F4FB155
:103E33009F90824AD191908243E0540F4FFFED242B
:103E43000DD103908244E0FFED240ED1039082450F
:103E5300E0FFED240FD103908246E0FFED2410D163
:103E630003908247E0FFED2411D103908248E0FFE5
:103E7300ED2412D103908249E0FFED2413D1037F97
:103E83001422F0908238E08D828C83A3A322E05425
:103E9300F0C454F0FF22F5828C83A3A3EF22908316
:103EA3002CE0FEA3E0FFF5828E8322F0E57E048FF3
:103EB300828E83A3F0908237E0FF90832CE0FC2274
:103EC300AD07AC065321FB8D828C83E510F0AF1454
:103ED300AE13D1FAA3EFF0AF16AE15D1FAD18AEF34
:103EE300F0D18AA3E511F0E4F513F514F515F516F1
:103EF300F511F5127F0422D3EF947FEE6480948052
:103F030040037F7F22C3EF9481EE6480947F50034C
:103F13007F812222A3F0908239E0FFED2290823A42
:103F2300E0FFED240522E52130E3155321F7F1BB32
:103F3300F15EE0420F0FEFB406F6E552701380090D
:103F4300E52130E215E5527008FF7EC6D1C38F1814
:103F5300227F007EC612350C8F182274212FF58222
:103F6300E43482F583E0421074272FF582E434822F
:103F7300F58322124A2FF16EF1B9F15EE0420F0F81
:103F8300EFB406F69081B1E0FE9081B0E0FDAC069F
:103F93007F131249469081B3E0FE9081B2E0FDEEBB
:103FA300FCF1C29081B4E0FD1249FA0FA3E0FD12C7
:103FB30049FA43210422EFF0E4F510F50FFF227FC5
:103FC300151249467F1122F582E43483F583E4F028
:103FD300227D007B017A8179AF7E007F0602029DFC
:103FE300E52230E30B5322F77F807EC5B1248F197E
:103FF300225321FE90C700E51AF0A3E4F0A3E51BCA
:10400300F0A3E51CF0A3E51DF0A3E51EF0A3E51F57
:10401300F0A3E520F07F08225321FB90C700E510B1
:10402300F0D3E514947FE513648094804006A37471
:104033007FF08018C3E5149481E5136480947F9026
:10404300C70150057481F08003E514F0D3E516949D
:104053007FE51564809480400890C702747FF080E8
:1040630018C3E5169481E5156480947F90C70250C8
:10407300057481F08003E516F090C703023EE775EF
:104083003410120E98E53AF07F07228F828E83E573
:1040930008F0A3E50911C6E50A11C6A3E50BF0EF85
:1040A3002404120ED1E50CF0EF2405120ED1E50D18
:1040B300120ECDE50EF07F07228F828E837420F0DF
:1040C300E904A3F08F828E83A3A322A905E4FDEF65
:1040D3002D120ED1E4F00DEDB40FF48F828E8374A4
:1040E30020F0A3A37441F0E9D39406400E8F828E8F
:1040F30083A3E411C6A37402F08068E9048F828E5F
:1041030083A3F0E57230E00811C7A37401F08005C2
:1041130011C7A3E4F0E931D8FDEF2404120ED13125
:104123006931CDFDEF2405120ED1EDF0E912226BBA
:10413300FD120ECEEDF0E912268AFDEF2407120ED2
:10414300D1EDF0E912279DFDEF2408120ED131695C
:104153002417F582E43481F583E0FDEF2409120E80
:10416300D1EDF07F0F22EDF0E975F01CA422A90533
:10417300E4FDEF2D120ED1E4F00DEDB40FF411BCFC
:104183007442F0745A29F8E6600611C7A37401F06B
:104193007F0F22D2FB7F0BFE31C04DFDA3A3E0FCBA
:1041A3004DFD11C7A3E0FB4D601031C05DFDEC5D1B
:1041B300FDEB5DF460047F0180027F00228F828E1D
:1041C30083A3E0FD8F828E83E0222405F582E4340D
:1041D30081F583E02275F01CA42406F582E4348182
:1041E300F583E022A905E4FDEF2D120ED1E4F00DD5
:1041F300EDB40FF411BC7440F07F0F221232C5509E
:1042030069E55030E564E54A6402705EE54D700D82
:10421300E54F6401454E70057556018047E54D64D1
:10422300027028E5536024E54BB4100DE54F640795
:10423300454E7005755603802BE54BB4110DE54FC4
:104243006414454E70057556048019E54DB4021A81
:10425300E54BB42015E5536011E54F640F454E70EF
:1042630009755608854F57023722E4F55602002593
:10427300EF547FFE7401A806088002C333D8FC54B0
:104283003EF4FEEF20E70B90C7ADE05EF090C7DF92
:10429300800990C7ACE05EF090C7DEE05EF0227F5D
:1042A3000190C7D7EFF02440F00FEFB406F322E4F8
:1042B300FE74502EF8E4F60EEEB409F5E4F554F569
:1042C30055FE74512EF876010EEEB403F5EF60053A
:1042D300E4F550800FE550C39410500575500880E5
:1042E30003755010E4F564715B90C7AE741DF090D4
:1042F300C7E0E4F0A3F090C7DDF090C7AC04F09002
:10430300C7DEF090C7ADF090C7DFF090C7A9743F48
:10431300F0A3F090C781714790C7887430F0A37100
:104323004790C7E27418F090C7F0E4F090C7F874B0
:1043330008F090C7E37404F0D2BBD2BC90C7AB744F
:104343001FF041A27410F0A37420F0A37430F0A303
:104353007440F0A37450F02275A0407F011207F35C
:10436300E4F5A02290C7D67402F0000014F07F0792
:104373001207F390C7D6E4F022C2AF719B1207A5D0
:104383007FFA1207E7E4F5F5FFEF90002D93F5F2BE
:104393000FEFB40AF402740090C7D6E04408F02289
:1043A30090837FE0C3940550057451F08007908398
:1043B3007FE024FBF090837EE030E103021186026C
:1043C3001138E5382420606124DC6002817190801B
:1043D300FCE539F0A3E53AF0A3E53BF0A3E53CF0B7
:1043E300908103E53DF01210307D397B057F0B9101
:1043F30081D290AF3FEFFDAF3E9172908118F0A351
:10440300EFF0AF41EFFDAF409172A3F0A3EFF09057
:104413008100E542F0E0FFF114EF700590810004A4
:10442300F0908100E0FF02001D9080FCE53DF0A3C9
:10443300E53CF0A3E53BF0A3E53AF0908103E539D1
:10444300F01254DD908103E0F570121030917BD2AD
:104453009090837FE53EF0E0FD7F0512176191B3F5
:10446300E53F1255221210EF75760575770322EF9B
:10447300FEED240CFFE43E227D6C7B057F0B9083D5
:1044830031EDF0A3EB12553E908332E0601514FF3B
:10449300908331E02FF8E6FF1202C3908332E014D9
:1044A300F080E5D291D29022F1D81202D9D2912292
:1044B3007F0691ABEF54F9FD22121030D291F1B97E
:1044C300E4FF91ABBF1D0543710880045371F722CC
:1044D300021042F1ABE4FF745A2FF876FFEF121C7F
:1044E300BEF1C0EF121C9CE4F0A3F012554CE4F0B3
:1044F3000FEFB406E280C2B109121FF391D6E49024
:10450300835BF00217EC7F03120E8C700C908331E7
:104513007405F0A374D1F08006D1337002D12C90CE
:104523008331120E8278FC7C807D01F1B2E49081AC
:10453300ABF0908333F0D14C4002A1D7EF2420FF9E
:10454300120E8C701DA3E0FFC454F024E1F582E445
:104553003405AD82908331F0A3ED12172C54FEF095
:104563008018D1337002D12C908333E02455121775
:10457300304401F09081ABE004F0908331120E825D
:10458300C001A3E075F01CA42403F97481D144D0C5
:10459300017E007F0D12029D90833312274C240469
:1045A300F582E43481F583E0240CFDE433FCEFD1A0
:1045B30055D13AFFD155E0FCA3E0FDEF121CBED16B
:1045C3003AFF121CBEE0FCA3E0FDEF121C9CD13AA3
:1045D30004F0A139E4908333F0D14C503CEF243004
:1045E300FF120E8C700C9083317406F0A37441F0AB
:1045F3008006D1337002D12C908331120E82C00118
:10460300A3F1C8F97481D144D0017E007F0812025E
:104613009D908333E004F080C0908100E0FFF114AB
:10462300EF700590810004F022908331E004F022C2
:10463300908332E004F022ECF0A3EDF0908333E0BA
:104643002235F0A801FC7D0122908333E0FFC3945F
:10465300062275F01CA42418F582E43481F5832224
:10466300E57714601A14601A14601A14601A14603F
:104673001A24057023D19C601F5375FE021CCC02C3
:104683002B2202484B022F7D022F1912151F124EA7
:1046930062B10912530B91D622D1A3120045EF2226
:1046A300E57120E517E524C394035010E52220E3C8
:1046B3000BE52320E30620E50330E40DE553600911
:1046C30090830CE0C3947D401A7E819081AC7F245B
:1046D300E4F0A3DFFB7E817FAC1211B5EF30E00382
:1046E30043750122E57724FE6008047023F1230556
:1046F3007722D19C600AF1D06016E4F576F5772233
:10470300E559700CF123908100E0B560031210426B
:1047130022EFD394185006EF60037F01227F00221B
:10472300908100E09006C593FF908100F012001D78
:1047330075591822D1A3124B567536829081ACE07D
:10474300F537A3E0F538E4F539124A9F5322EF22F7
:10475300E577B4010C908100E0FFF560F19D0577EA
:1047630022D19C60195375FE7E817FAC120360EFEA
:104773006020121CCCEF601AE4F576F57722E55938
:1047830070100577E577B40602801D908100E0FF85
:10479300F19D22EF9006AC93FF22F196908100EFFA
:1047A300F012001D75590C22757604757701227E6F
:1047B300007F0702029D7D1DE4FF0210EF7407F0E6
:1047C300A374D0F022E075F01CA42410225375FECC
:1047D300121CCCEF22C291EF541FFF0202C390833D
:1047E30028EFF0E014F0E0245AF8E6705A9081D0F4
:1047F300F0A3E054BFF0E4908329F0908329E0FF15
:10480300C394035042121A5FFF908328E0FEEF6EB9
:10481300702D9081D1E0541F64106007E0541FFE97
:10482300BE1108EF1215109081D2F07E817FD01255
:1048330003377E817FD0908329E004FD022F3990D6
:104843008329E004F080B42212175DE4FF74AF2FD4
:10485300F582E43481F583E0FE74D92FF582E434E4
:1048630082F583EEF00FEFB404E331319082D5315A
:1048730002A33102E4FF74D52FF582E43482F58379
:10488300E0FE74D32FF582E43481F583EEF00FEF6D
:10489300B404E3E4FF311774DD2FF582E43482F5C9
:1048A30083EEF0311774D72FF582E43481F583EE6C
:1048B300F00FEFB404DFE4FF310A74E12FF582E473
:1048C3003482F583EEF0310A74DB2FF582E4348110
:1048D300F583EEF00FEFB404DF9081BBE09082E547
:1048E300F03124A37402F09082E5E09081DFF07E42
:1048F300817FD0120337122FAF122F39022F12E507
:10490300F3F0A3E5F3F02274B72FF582E43481F5D5
:1049130083E0FE2274B32FF582E43481F583E0FE55
:10492300229081ACE09081D0F0A3741FF02275E84F
:1049330010D2E8858CF3858AF385CDF385CCF320FB
:10494300E8FD22EC30E714C374019DFB74F8317B5E
:10495300D33187401A76F808760122C374FF9DFB92
:104963007407317BC33187500676070876FF220828
:10497300ED26F618EC36F6229CFAA807E6F583082E
:10498300E6F58222EB9582E5836480F8EA648098F9
:10499300A80722512F123F6E123FB9123F5EE04229
:1049A3000F0FEFB406F59081B1E0540FFE9081B084
:1049B300E07C002400FFEC3EAD07FC30E30344F051
:1049C300FC7F1331469081B1E054F0C4540FFD7C59
:1049D30000A3E075F010A42DFDEC35F0FC30E303EB
:1049E30044F0FC123FC29081B3E0FD31FA0FA3E023
:1049F300FD31FA43210422ED30E711A807E6FEC397
:104A030074819DFCD351244014768122A807E6FECD
:104A1300C3747F9DFCC351245003767F22ED26F699
:104A230022EE6480F8EC648098A807229081AEE0BF
:104A3300FF7421257EF582E43482F583EFF09081C3
:104A4300AFE0FF7427257E225160121CBCEEF0A359
:104A5300EFF05160121C9AEEF0A3EFF0229081AFB9
:104A6300E0240CFF9081AEE03400FE229081AEE0A2
:104A7300908305F0432140229081AEE090830DF0B6
:104A8300432201229081AFE0B44B05E57130E00B86
:104A93007134E0519F4371205322EF22F53A5322A0
:104AA3009F4322044371042271567536817537F191
:104AB3008F38EF24FE601014601C2402702590834D
:104AC3004CE0F539A3801590834EE0FCA3E0FDECA8
:104AD300F5398D3A8009E4F53990834BE0F53A5185
:104AE300A180057F03122D4C5322EF227134E0F590
:104AF3003AA3E0F53BA3E0F53CA3E0F53DA3E0F5E5
:104B03003EA3E0F53FA3E0F540A3E0F541A3E0F5C4
:104B130042A3E0F543A3E0F544A3E0F545A3E0F5A4
:104B230046A3E0F54743226051A44371205322EF8B
:104B3300224322109081ADE0F534E57E04F53590F3
:104B430081AFE0F536A3E0F537A3E0F538A3E0F550
:104B530039A322432210753410908347E0F53522A0
:104B63009081AEE0146006047018022D40E57DB418
:104B7300FF03E48003E57D04908220F075760275DF
:104B83007701229081AEE024FD600E1460122402AE
:104B93007014757602757702227576027577032293
:104BA30075760275770422E4FF741C2FD159EFF058
:104BB3000FEFB403F4E4FFEF12225BE4F00FEFB462
:104BC30006F5E4908261F022E5371201894BF20089
:104BD3004C1B014C2F024C52034C5EB24D11D04D75
:104BE30046D14D54D44DBDD74DF6F000004E46E5A9
:104BF3003930E00543710180035371FEE53930E339
:104C03000543720880035372F7E53930E4054372B4
:104C130010C14B5372EFC14BE5399082C630E306A6
:104C2300E04402F0C14BE054FDF0C14BE53820E114
:104C330002C14BE57120E002C14BE4FF12172D3096
:104C4300E0061222C34401F00FEFB406EFC14B900C
:104C53008233E538F0A3E539F0C14BE57F30E0025C
:104C6300A10DE53864016006E53864067042908161
:104C7300ABE0C3940640079082C6E030E02EE53AED
:104C83009083816005E53AF08003741EF0E538B443
:104C930006089081F47401F08005E49081F4F0E457
:104CA300908220F012101D908262800C7F05C14813
:104CB300E538B402089083817401F0C14BE5386490
:104CC300037043E539D394065004E53970047F0338
:104CD300C148E53914FF12227AAF39120C981245F4
:104CE300091244BCAF3974212FF582E43483F58370
:104CF300E04402F0AF3974542FF582E43482F58333
:104D0300E04404F0C14B7F03C1487F02C148E5384A
:104D13006401702A437F01FE7F01FD7B017A837961
:104D23007E1201B5E4F576F5777FE112117A90836F
:104D330081E07002C14BE4D16112175DC14B537F17
:104D4300FEA1DFE57F30E00512143AC14B7F02C1BB
:104D530048E57F30E060F189120FD19410EE9400A2
:104D63005050EF9400EE940040487F7C1209D3909A
:104D7300832A120E91700EFE7F10FDD17390835C17
:104D8300747CF0801790832A120E82C002C00178CF
:104D93005C7C837D01D001D002120E61908328A335
:104DA300E0245CF582E43483F583E53AF0120E20C7
:104DB300C14B7F03C1487F02C148E57F30E030E546
:104DC300387002C14B24FC601024FE601924057066
:104DD3001A120F7A120B42806F120D3512450971A8
:104DE300AA1244D68062120B6D805D7F0380567FCA
:104DF300028052E538B4490FE539B4430AE53AB4C1
:104E03005005437F108041E538B44C1FE539B45455
:104E13001AE53AD394004007E53AD394064005E5F2
:104E23003AB47507AF3A12258C801DE538B4580F94
:104E3300E539B4490AE53AB454051244FA80097FC6
:104E43000380027F02122D4CE536648F6007E4F580
:104E530038F539F53A22F582E43482F58322F0906D
:104E630082C6E054FEF05372FB227E007F107D0069
:104E73007B017A83795C0201B5D16D90835C740305
:104E8300D1947B017A8079FC1247B2020E20908381
:104E93005CF0785D7C837D0122908329EFF0A3EDA4
:104EA300F0D16D90832AE024FE601E14602F1460FD
:104EB3004024037054908329E02420D1917B017A0C
:104EC3008279C87E007F0D803A908329E02430D117
:104ED300917B017A8279DD7E007F09802690832988
:104EE300E02440D1917B017A8279E77E007F0F80B5
:104EF30012908329E02450D1917B017A8279F67E46
:104F0300007F0E12029D120E202212004DE49083A8
:104F130029F07E007F11D171908329E0FF90835C9B
:104F2300F0EFF17AC002C001D195D001D002120E88
:104F330061908329E0FFF140F16340D622EFF16EE7
:104F4300FE7D11020C22E4FF12206DE0B403012266
:104F53000FEFB403F37F0022D19C908328E0FF225C
:104F6300908329E004F0E0C394062275F020A42482
:104F730000FFE5F034702275F010A42466F9748202
:104F830035F0FA7B0122AF39EFFFAD38ED9083287E
:104F9300CFF0A3EFF022E4908329F0908329E0FD82
:104FA30012543CAF82FEF1B0F16340EF2290833A9A
:104FB300EEF0A3EFF0EDF16EFE0FBF00010EAA06B7
:104FC300A9077B01C00290833AE0FEA3E0AA06F89A
:104FD300AC027D01D0027E007F1002029DE57220AB
:104FE300E1030250B05372FD9081F7E0F9F46003DE
:104FF300025088A3E0247F605E14607B2402600279
:1050030001B09081FAE0FFF46003EF7007908261D2
:10501300EFF08006EF04908261F0E4FB74017E0000
:10502300A803088005C333CE33CED8F9FF9081F9A6
:10503300E0FDEF5D6015EB12225BE07014EB1222D2
:105043005B7401F0AF031226418006EB12225BE48E
:10505300F00BEBB406C622437201E4FB74552B122A
:105063001730FF30E00874552B11B84402F00BEBF6
:10507300B406E9437180229081F9E0600443722011
:10508300225372DF229081F8E024F27020E914FBAE
:105093009081F9E0FF745B2B1237BBEFF0E4FF1252
:1050A3001A5FB50303021FB40FEFB403F222908318
:1050B3002CE0FD2455F582E43482F583EF22EF7A68
:1050C3006C60027A6E7B007F1F74102BFBE43AFA4C
:1050D3008B82F583E0B505078A7B8B7CF46002DF66
:1050E300E822D291121739D29022908331EFF01235
:1050F3004714EF700590833104F0908331E09006FC
:105103009393FF2211EDAD077F0522908332312F58
:10511300D3942040037420F0C2917F611202C390A4
:105123008332122FB6FD120313D29122EEF0A3EFB6
:10513300F0A3EDF022E4FF1244ABEF54FDFDE4FFD6
:105143001210EFD28422C290C2917F601202C31266
:1051530002D9D291D29022908346E07F017001FF61
:10516300223192C002C00178D17C817D01D001D06F
:1051730002318031874003E4F578D2AF227E007F8D
:105183001402029DE4F5790578E578C3940C22C2F4
:10519300AFE57875F015A42401F9748035F0FA7B36
:1051A300012290832A7401F0908347E0FF9081D21B
:1051B300E06F701FE52220E2345117600512473774
:1051C300802B908345E075F00384E5F0F0A374042D
:1051D300F0801A4322107F03510D908359E0FF9012
:1051E3008345E051011210FEE490832AF090832A54
:1051F300E0FF22908359E0FF908345E004F075F0CF
:105203000384E5F090000693FD22122D4C437104B4
:105213005322EF227E817FD47D15121399EF2290C2
:105223008354E09080FCF0908355E09080FDF090F3
:105233008356E09080FEF0908357E09080FFF090DB
:105243008358E0FFA3F031FB0210FE90835AE04441
:1052530002F04401F02290832DEB51FF9081B6E0E0
:10526300908374F09081B7E0908375F09081B8E0FB
:10527300908376F09081B9E0908377F075E810E43D
:10528300F5F5F5F67F10EFD3940040251F90832D9D
:10529300E0FBA3E0FAA3E0F98F8275830012009E7E
:1052A300F5F1746D2FF582E43483F583E0F5F38033
:1052B300D5D2E820E8FD51F651F69081B5E065F3CB
:1052C300F09081B4E065F3F09081B3E065F3F09082
:1052D30081B2E065F3F09081B1E065F3F09081B0C5
:1052E300E065F3F09081AFE065F3F09081AEE065A7
:1052F300F3F022AFF3AFF3AFF3AFF322F0A3EAF08F
:10530300A3E9F022F0124F0DE4908339F090833932
:10531300E0FDC39406400261E97E837F29124FB00A
:10532300908330E0FF908339913AF583EFF09083D7
:105333002AE0F4FFEE9147EFF0908329121725122C
:105343002FDAF583EFF090832C121725122FE2F555
:1053530083EFF090833312172571EAF583EFF09012
:10536300832BE0F4FFEE9154EFF0908332E0645529
:10537300FF912EF583EFF0908337121725911AEFE3
:10538300F090833112172571F2F583EFF090832F9C
:1053930012172571FAF583EFF0908335E0F4FFEEF1
:1053A3009161EFF090832E1217259102F583EFF0B0
:1053B300908336121725910AF583EFF0908338E036
:1053C3006455FFEE916EEFF090832D121725911225
:1053D300F583EFF09083341217259124EFF0908337
:1053E30039E004F0611022246AF582E43482222435
:1053F3006EF582E4348222246FF582E4348222241F
:1054030071F582E43482222472F582E43482222408
:1054130074F582E4348222246DF582E43482F583C8
:10542300222475F582E43482F58322EEC454F024F9
:105433006CF582E4348222E0FEC454F02466F582E3
:10544300E4348222C454F02467F582E43482F58381
:1054530022C454F0246BF582E43482F58322C454CD
:10546300F02470F582E43482F58322C454F024736B
:10547300F582E43482F5832290836D7404F0A3747F
:1054830014F0A3741DF0A3741FF0A37427F0A304F6
:10549300F0A3740DF0908378740AF0A3740DF0A355
:1054A3007413F0A37426F0A3740EF0221202C37FC8
:1054B300FF1202C37FFF1202C37FFF1202C37FFFEB
:1054C3001202C37FFF0202C3E57824FFFFE434FF27
:1054D300FE7C007D0C1200CBED229080FCE0F56C8D
:1054E300A3E0F56DA3E0F56EA3E0F56F22E4F53AD2
:1054F3008F3985373885363775341075368F532293
:105503009F2290832BE0FEA3E0F5828E83E0227539
:10551300F01CA42413F582E43481F583E0FF2225F3
:10552300E0540690837DF0E0AE054EFD7F062290A9
:10553300830FE0FFE57A75F015A422F0C290C291C3
:10554300EF541F4420FF0202C374162FF582E43484
:1055530082F5832275F01CA4240AF582E43481F5D4
:1055630083E022F0A3E526F0A3E527F0A3E528F0E6
:10557300A32274352568F56874053567F56722E459
:10558300908345F0908359E0FFE422C2917FA0020B
:1055930002C3D291D2907F0A121422C29022241203
:1055A300F582E43481F583E022745A257EF8E6FF20
:1055B300C3943022F090000DE0540F449022908168
:1055C300AEE0FF742D257E22D3ED9400EC6480942D
:1055D3008022FF74017E00A807082290832BE0FE3F
:0D55E300A3E0FF2204FFAE040C74002E2292
:0267FE0064FB3A
:1074000002756EBB010689828A83E0225002E72260
:10741000BBFE02E32289828A83E49322BB010689B0
:10742000828A83F0225002F722BBFE01F322C2D5EA
:10743000EC30E709B2D5E4C39DFDE49CFCEE30E7F7
:1074400015B2D5E4C39FFFE49EFE12749CC3E49D75
:10745000FDE49CFC800312749C30D507C3E49FFFBD
:10746000E49EFE22A42582F582E5F03583F5832291
:10747000D083D082F8E4937012740193700DA3A3AB
:1074800093F8740193F5828883E4737402936860BF
:10749000EFA3A3A380DF8A838982E473BC000BBEC1
:1074A0000029EF8DF084FFADF022E4CCF875F008F0
:1074B000EF2FFFEE33FEEC33FCEE9DEC984005FC25
:1074C000EE9DFE0FD5F0E9E4CEFD22EDF8F5F0EEED
:1074D0008420D21CFEADF075F008EF2FFFED33FDD8
:1074E0004007985006D5F0F222C398FD0FD5F0EA78
:1074F00022EFF87FFF900000E87908C36F548060A6
:1075000007EF33648DFF8003EF33FFC3E833F8D90F
:10751000EAA3E0F8E583B468DF22EFF87EFF7FFF9F
:10752000900000E87908C36E5480600CEF3364214A
:10753000FFEE336410FE8006EF33FFEE33FEC3E848
:1075400033F8D9E2A3E0F8E583B468D722900001CC
:10755000E02FFFA3E583B468F722900001E0FEA3CB
:10756000E02FFFA3E03EFEA3E583B468F322787F1B
:10757000E4F6D8FD758139027671FF7D9AFF7E6150
:10758000FF7E77FF7E61FF7E77FF7E76FF7DA5FF22
:107590007E77FF7D88FF77E2FF7D91FF7E77FF7E1C
:1075A00077FF7E77FF7E77FF7E7706B0FF0901A128
:1075B0000175089520150026FF00090181000901C9
:1075C0009100C012010002000000206D04AAAA026E
:1075D00001010200010902220001010480310904B5
:1075E000000001030000000921110100012219001F
:1075F000070581032000010403090412034C006FF6
:10760000006700690074006500630068001E035590
:107610000053004200200042006F006F0074004CD5
:10762000006F0061006400650072001E0342004F9D
:10763000005400300031002E00300032005F004264
:107640000030003000310035006E524632344C5567
:10765000312B207265762E204100456E74657220B4
:107660004943500075B5FFE4F5AB75AC4075AD0806
:1076700022C2AF759002758E02F1DAD16475803046
:10768000E4F595F5C9759420F5F57F0AF524E52410
:1076900090765A93B5F2011F0524E524B40AEF90C1
:1076A0000000E0B40207A3E0D394674002E4FF3097
:1076B0008509C284208504E4FF80035394DFC284DB
:1076C000EF600E900001E0FEA3E0FDEDAA06F99147
:1076D000967F08743A24F8F524E524D39400400BEF
:1076E000AE070FA806E4F6152480EE90C7D6E0207A
:1076F000E308E04408F07FFAF1ACF12190C7D6E04E
:1077000054F7F0F1AA30C403127860E539B40102ED
:10771000F121E537B401EC90C7B6E070E6F1DA800C
:10772000FEE4F539F537F53675A0407F01F1ACE49C
:10773000F5A090C7AE741DF090C7E0E4F0A3F09000
:10774000C7AC04F090C7DEF090C7ADF090C7DFF093
:1077500090C7A9743FF0A3F090C781F19690C788B5
:107760007430F0A3F19690C7E27418F090C7F0E47B
:10777000F090C7F87408F090C7E37404F0C2BBD26D
:10778000BC90C7AB741FF07F0190C7D7EFF02440C7
:10779000F00FBF06F4227410F0A37420F0A374302D
:1077A000F0A37440F0A37450F022C1678F25E4F574
:1077B00026F527C3E5279525E5269400501BF1AA59
:1077C000E4FFFE000FBF00010EBE05F7BF7BF4050E
:1077D00027E5277002052680DA2290C7D6E0440804
:1077E000F022127E43F18775360590C7B47412F00B
:1077F00022E4F53690C7B47411F02275360590C7AF
:10780000B47410F02290C7B6E0705390C6C0E0F593
:107810003090C680F090C6C1E0753200F53190C658
:1078200081F090C6C2E0423290C682E532F090C646
:10783000C3E0F533D3941C400375331C90C683E436
:10784000F07528017529C6752AC4F52B85332CFBE4
:107850007A00790871BF315990C7B77420F0809BC6
:10786000C2C490C7A8E012747078A00078AA047807
:10787000B10878B80C78BF1078C91878E91C79106D
:107880002079102479102879302C7910307930340F
:1078900079103879303C7910407930440000794FC4
:1078A000E4F53690C7AB04F0813C90C7AB7402F0AE
:1078B0002290C7AB7404F02290C7AB7408F02290FA
:1078C000C7AB7410F07539012290C7A97401F0E5B7
:1078D0003624FD60062402700981DA90C7B4741062
:1078E000802990C7B47411802290C7AA7401F0E572
