:0A00000002038A0080FD05264A2253
:07000B0080FE75B5FF8025A2
:0700130080FE80200217ECC3
:10001B0080FE1252DB0210EF80FEE4F564023048E2
:10002B0080FE456E7465722049435000E4F5AB7554
:06003B00AC2075AD0822A7
:0F00430080FEE5755401FF2280FE7F38020B4BD3
:0200530080FE2D
:03005B0002188404
:0300630002391649
:03006B0002183F39
:10007300046DC52B1205002803A403A803BAFFFFD0
:1000830003D4BB010689828A83E0225002E722BBA4
:10009300FE02E32289828A83E49322BB010CE58278
:1000A30029F582E5833AF583E0225006E92582F8B3
:1000B300E622BBFE06E92582F8E222E58229F582E3
:1000C300E5833AF583E49322BC000BBE0029EF8D50
:1000D300F084FFADF022E4CCF875F008EF2FFFEECB
:1000E30033FEEC33FCEE9DEC984005FCEE9DFE0FD9
:1000F300D5F0E9E4CEFD22EDF8F5F0EE8420D21C34
:10010300FEADF075F008EF2FFFED33FD400798507B
:1001130006D5F0F222C398FD0FD5F0EA22C5F0F818
:10012300A3E028F0C5F0F8E582158270021583E09C
:1001330038F022A3F8E0C5F025F0F0E582158270CF
:10014300021583E0C838F0E822ECF608EDF608EE75
:10015300F608EFF622A8828583F0D083D0821201BD
:100163006F12016F12016F12016FE473E493A3C561
:1001730083C5F0C583C8C582C8F0A3C583C5F0C5D0
:1001830083C8C582C822D083D082F8E493701274E6
:100193000193700DA3A393F8740193F5828883E40C
:1001A300737402936860EFA3A3A380DF8A838982B9
:1001B300E473EF4E6012EF60010EEDBB010B898219
:1001C3008A83F0A3DFFCDEFA2289F05007F709DF08
:1001D300FCA9F022BBFEFCF309DFFCA9F022E7092E
:1001E300F608DFFA8046E709F208DFFA803E8882E4
:1001F3008C83E709F0A3DFFA8032E309F608DFFA1C
:10020300806EE309F208DFFA806688828C83E30953
:10021300F0A3DFFA805A89828A83E0A3F608DFFA23
:10022300804E89828A83E0A3F208DFFA804280D27B
:1002330080FA80C680D4805580F28029801080A601
:1002430080EA809A80A880DA80E280CA8029888444
:100253008C8589828A83E493A30592F0A31592DFA8
:10026300F5DEF3800B89828A83E493A3F608DFF932
:10027300ECFAA9F0EDFB2288848C8589828A83E0DD
:10028300A30592F0A31592DFF6DEF480E389828A58
:1002930083E493A3F208DFF980D688F0EF60010EC0
:1002A3004E60CD88F0ED2402B4040050C3F582EB18
:1002B3002402B4040050B9232345822390023173EE
:1002C300780030AF04C2AF78018FE5C2C030C0FD03
:1002D300E86002D2AF22780030AF04C2AF78017574
:1002E300E5FFC2C030C0FDAFE5E86002D2AF22ED4A
:1002F300601D780030AF04C2AF78018E838F82E037
:10030300F5E5C2C030C0FDA3DDF5E86002D2AF223F
:10031300ED6020780030AF04C2AF78018E838F8206
:1003230075E5FFC2C030C0FDE5E5F0A3DDF2E8608E
:1003330002D2AF228E838F82A3E08E838F82541FDB
:1003430070047F04800BD3941050047F0980027FD4
:10035300157E00E02EFEA3DFFAF404F0228E838FD5
:1003630082A3E08E838F82541F70047F05800BD39A
:10037300941050047F0A80027F167E00E02EFEA3B5
:10038300DFFA70027F012278FFE4F6D8FD90800047
:100393007F007E08E4F0A3DFFCDEFA75817F0206AE
:1003A300FC0403090412034C006F00670069007426
:1003B300006500630068001A0355005300420020E3
:1003C30000520065006300650069007600650072F5
:1003D300001E03520051005200310032002E003043
:1003E3000035005F00420030003000320038002F3B
:1003F300EB324C0025324C002537DB37F90025372B
:10040300963165336132D000250025002500258013
:1004130000FF00FF0080008000800080FFFFFF05D9
:10042300010906A1019508750115002501050719A4
:10043300E029E78102810395050508190129059142
:100443000295017503910195067508150026FF00B5
:10045300050719002AFF008100C005010902A10157
:1004630085020901A10095107501150025010509F3
:100473001901291081029502750C1601F826FF0750
:100483000501093009318106950175081581257F1C
:10049300093881069501050C0A38028106C0C0059A
:1004A3000C0901A101850395027510150126FF02B0
:1004B30019012AFF028100C005010980A1018504F9
:1004C30095017502150125030982098109838100BC
:1004D30075068103C006BCFF0988A1018508950143
:1004E3007508150126FF00190129FF8100C00600C8
:1004F300FF0901A101851095067508150026FF0067
:100503000901810009019100C00600FF0902A10150
:10051300851195137508150026FF0009028100094E
:10052300029100C00600FF0904A1018520950E7504
:1005330008150026FF00094181000941910085212A
:10054300951F0942810009429100C0120100020077
:100553000000086D042BC5051201020001090254B5
:1005630000030104A0310904000001030101000993
:100573002111010001223B0007058103080008093E
:100583000401000103010200092111010001229469
:1005930000070582030800020904020001030000AA
:1005A30000092111010001225D00070583032000DA
:1005B300020422003B045D009404F1005D02120575
:1005C300002888020401000000000000000301026B
:1005D30003040106060000000000000000200108DB
:1005E3004001040001000000000000000021020897
:1005F3004002040001000000000000000022030884
:100603004003040001000000000000000023040870
:10061300400404000100000000000000002405085D
:10062300400504000100000000000000002506084A
:100633004006040001000000000000000030010239
:100643000304000000000000000000000000253348
:100653009C3345337F0025002500250025002541D7
:10066300D432F731220025002500250025FF8080A4
:1006730080FFFFFFFFFF000000FFFFFFFF11FF0AE6
:100683000000000000000000000000000000000067
:100693000005080B0E1114171A1D202326292C2FD1
:1006A3003235383B3E4144474A0104050601020303
:1006B3000A0B0C0D0E090A0B120D0E0F1617181349
:1006C3001415010A0B000D0E00000000141500178D
:1006D300180000000000020400050175A380C2B9E0
:1006E300C290C2B875E610D29222110DD1DE758088
:1006F30038E4F595F5C9F59422C2AF759002758E6D
:100703000212437CD1ED1217A37F0FF1F3F1A5E59C
:10071300B130E0047FEBF1E7120D3590C7D6E0204E
:10072300E308E04408F07FFAF1F37F01F1AD90C7ED
:10073300D6E054F7F0D2AF1218E2E57F30E504E4D7
:10074300FFF1ADE57F30E106537FFD1244B7E5507D
:1007530030E112E563700E908381E07008E572204A
:10076300E503121809E57F30E205537FFBF1A5E5A8
:100773007F30E306537FF71252B9E55030E5B812E4
:100783002DD61227E812532EEF600AE57130E3A746
:1007930012129D80A2E57130E303121E93122A8385
:1007A3008095D29112530CC29022124293F1A5125A
:1007B30044EA121FF312543212513F124C181244DE
:1007C300B7123B675372F75371DF5371FEE49082A4
:1007D30033F0A3F09081F5743FF05371F790838069
:1007E300740FF022F1F37FFAF1F37FFAF1F37FFA5A
:1007F30090832CEFF0E4A3F0A3F090832CE0FFC3ED
:1008030090832EE09F90832DE094005022120015D8
:10081300E4FFFE000FBF00010EBE05F7BF7BF4909F
:10082300832EE004F0700690832DE004F080CB2249
:100833007F002085027F0122E537120189087C00B1
:10084300089C0108AA0208C20308D4D008E2D4090C
:1008530050E4095FE60862F0096EF1000009CDE497
:10086300F538F539F53A12532EEF700221D2753867
:100873004C7539549083472125E4F538F539F53A19
:10088300E57154014239AF72EF1313F1E6AF72EF22
:10089300C45401C454F0423922E4F538F539F53A29
:1008A3009082C6E0C3E1E6E4F538F539F53AF53967
:1008B300FF12172D30E00205390FEFB406F322E4DF
:1008C300F538F539F53A908233E0F538A3E0F53998
:1008D30022E4F538F539F53AE57F5401F53822126B
:1008E3004EEA853838853939C3E09410908328E07F
:1008F3009400501A7F7C31D3EF4E700221C990834C
:1009030028E0FCA3E02FF582EE3CF5838014F1D1BF
:10091300EE946C4011D3EF94FFEE946F50088F82E6
:100923008E83E0F53A22F1D1EE94FE401ED3EF948C
:10093300FFEE94FF5015E02400F0908328E034028A
:10094300F0D2FB1254D8F53AC2FB228079E57F300E
:10095300E07811338F38E4F539F53A22E4F538F5C8
:1009630039F53AE573F53885743922E53824FE60A4
:100973001114601514602E2403704B753912753AE7
:100983000522E4F539753A2822907FB0740193F477
:100993007003E493F4600C907FB21238A0ECF53945
:1009A3008D3A228021907FB0740193B46D16E49345
:1009B300B40411907FB4740193F539907FB6740138
:1009C30093F53A2280007F0380027F02122D3722A3
:1009D300908337EFF0E4F57BF57CFF906C00E0FE4D
:1009E300B43F047F108006EEB47F027F20906E0038
:1009F300E0FEB43F06EF4401FF8008EEB47F04EF4E
:100A03004402FFEF1201890A77000A35010A5502F1
:100A13000A29100A37110A5F120A2B200A43210AF6
:100A2300842200000A958040908337E0FDF47062D1
:100A3300803C8017908337E0FDE4FF1250BC800BAD
:100A4300908337E0FDB4FF03E48023908337E0FD18
:100A53008012908337E0FDF470388008908337E08C
:100A6300FDB4FF047F018007908337E0FDE4FF12AC
:100A730050BC801EE4FFF18BD119F196F470138002
:100A83000BF17AF18BD119F196B4FF06757B6C7576
:100A93007C10AE7BAF7C2290835CE0908334F0903B
:100AA3006C00E0643F7004F15F800A906E00E064C4
:100AB3003F700AF1577F7FD168D1308006D111D1C1
:100AC30068C1309083337401F0908333E0FFD39493
:100AD3005F5031A3E0FEEF6E6022908333E0D17468
:100AE3004E6019908335D182C002C001785C7C834B
:100AF3007D01D001D002D161D172D130908333E036
:100B030004F080C57F7CD1744E6019908335D18207
:100B1300C002C001785C7C837D01D001D002D16129
:100B2300D172D130906C00E0B47F08D11991177F56
:100B3300018009906E00E0B47F04F168714222EFF6
:100B430060047F3780027F36EFC39436401BEFD3B8
:100B5300943950157E0030AF027E01F1DB8FFA200D
:100B6300FCFDC2FDEE6002D2AF22906C00E0B43F08
:100B730004F15F800A906E00E0B43F09E4F1577F0F
:100B83007F91178004D11181177F01F151D19160B9
:100B930014D17FC002C001785C7C837D01D001D079
:100BA30002D161D1207F02F151D1916014D17FC074
:100BB30002C001785C7C837D01D001D002D161D178
:100BC300207F03F151D1916014D17FC002C001781D
:100BD3005C7C837D01D001D002D161D1207F7CF187
:100BE30051D1916014D17FC002C001785C7C837DB8
:100BF30001D001D002D161D120906C00E0B47F0814
:100C0300D11991177F018009906E00E0B47F04F140
:100C13006871422290835CEFF0AE04AF057D0190D2
:100C2300833912530390833E7401F0A37483F0A3BA
:100C3300745CF0908339E0FEA3E0FD90833CEEF01A
:100C4300A3EDF0C3EE946C404BD390833AE094FF52
:100C5300908339E09473503C7F0030AF027F01F101
:100C6300DB90833BE0602690833EE0FBA3F173A916
:100C7300F0FA120085FE90833CF17385F082F583D0
:100C8300EEF020FCFD90833BE014F080D4C2FDEF36
:100C93006002D2AF2290832CEFF0906C00E0B43F5F
:100CA30004F15F800A906E00E0B43F09E4F1577FDE
:100CB3007F91178004D11181179083307401F090D4
:100CC3008330E0FFD3945F503990832CE0FE241FE0
:100CD3006F6027EE242FFE908330E06E601C9083BC
:100CE3002CE0243F6F6013F1A56B7008E9658270F7
:100CF30003EA65836004D150D120908330E004F08F
:100D030080BD7F7CF1A56B7008E965827003EA659D
:100D1300836004D150D120906C00E0B47F08D119D6
:100D230091177F018009906E00E0B47F04F1687130
:100D33004222906C00E0643F600C906E00E0643FE0
:100D43006004F17A7142906C00E0B4FF0B906E0086
:100D5300E0B4FF04D1199117906C00E0B43F0B90FD
:100D63006E00E0B43F04E4FF7142906C00E0B47F96
:100D730004E4FF7142906E00E0B47F047F0171428E
:100D83007F0231D3EF4E60338F828E83A3E06412F0
:100D93006006D11191178017E490832CF090832C77
:100DA300E0FD9005C093FCEF2DD1D1E06C6005E42C
:100DB300FEFF8007122577E0B410E2EF4E700EF1CC
:100DC300C87A0579C0FE7F1012029DD1207F0331BE
:100DD300D3EF4E703812416B90832CEFF0C2FB605F
:100DE3002CF1C87A0579D0D161D2FB90000BE09049
:100DF300835DF090000CE090835E1255A590835FB5
:100E0300F090000EE0908360F0C2FBD12022E4FF5B
:100E130071427F0171427D007C6C7F3F227FFFD155
:100E23008C7002419A908331E0FEA3E0FF908337F8
:100E3300EEF0A3EFF090835CE04480F1817D1091AC
:100E43002290835CE0547FF1817D018122785C7C78
:100E5300837D0190832DE0FBA3E0FAA3E0F97E00FC
:100E63007F1002029D9117908334E090835CF07FA2
:100E7300FF31D3908335EEF0A3EFF02290832CE083
:100E8300FEA3E0AA06F97B012231D3908331EEF071
:100E9300A3EFF04E228F828E83E534F0A3E535F085
:100EA3008F828E83A3A3E536F08F828E83A3A3A3C1
:100EB300E537F0EF2404F582E43EF583E538F0EFFF
:100EC3002405F582E43EF583E539F0EF2406F58247
:100ED300E43EF58322753411D198E53AF0EF240707
:100EE300D1D1E53BF0EF2408D1D1E53CF0EF240963
:100EF300D1D1E53DF0EF240AD1D1E53EF0EF240B4B
:100F0300D1D1E53FF0EF240CD1D1E540F0EF240D32
:100F1300D1D1E541F0EF240ED1D1E542F0EF240F1A
:100F2300D1D1E543F0EF2410D1D1E544F0EF241102
:100F3300D1D1E545F0EF2412D1D1E546F0EF2413EA
:100F4300D1D1E547F053229F5322FB7F142231D3A3
:100F530090832C22FF71427D007C6C227F017142C1
:100F63007D007C6E227D007C6E7F3F9117E4FF2223
:100F7300E475F001020136E4FF71427F0122F09033
:100F83008337E0FEA3E0FF22714290835CE090830D
:100F930038F0229117908338E090835CF090833788
:100FA300E02231D3AA06A90790832D7401F0A3EAA6
:100FB300F0A3E9F090832DE0FBA3E0FAA3E0F9743A
:100FC3000190000022785C7C837D017BFF2290836B
:100FD30028E0FEA3E0FFC322C2AF75FAAA75FA5553
:100FE300D2FD2213540133333354F84239221133DF
:100FF300EF600E908382E0D3941F5010E004F080E2
:101003000B908382E0D394004002E4F0908382E06B
:10101300C3941F7F0040027F012211307D1F7F0296
:10102300F161D290E57130E00343230122C2907F46
:1010330001912230C1087FFA91227FFA9122221175
:10104300301247B37D1F7F0111EF908381E060046D
:101053007D1F80027D1E7F0211EF11EBE4FD7F04F3
:1010630011EF908100E0FF1252DB11EFE57F30E0DA
:10107300047D0980027D0F7F0611EF756CBB756DD2
:101083000A756EDC756FA57570757D6C7B057F0ABF
:1010930012446212548290821CB10FF57012445CA8
:1010A30090821DB10FFD7F0C11EF90821EB10FFDD9
:1010B3007F0D11EFE4FD7F0E11EF7D067F1D11EF14
:1010C3007D1F7F1C11EF7FE2317A7FE1317AF1E0FE
:1010D300F139D29022FD7F0611EF7D707F0711EF6A
:1010E3007FE2317A7FE1317A7D037F03908333EDB1
:1010F300125502908333F19BD2902290832DEFF00F
:10110300A3EDF0D29111307D3CE4FF11EF7D017F1F
:101113000111EF90832E31AF7D0F11D9F1E67D3FA1
:101123007F0411EFC2917F30F175C2917F2AF1756F
:10113300F139D2902211307D7231A290837DE04447
:101143001911D8C2917F30125466D2911255709002
:1011530083317401F07FFF1202C312460DE0C39482
:101163002140F21255775195EF20E50512001580C5
:10117300F5F1E0D2907FE3C290C2911202C3D29103
:10118300D2902211307D7331A2F1E690837DE04449
:101193000911D8C2917F2A125466D291D29022E4C7
:1011A300FF11EFE4FD7F0111EF90837FE0FD7F05E9
:1011B30001EF90832BEEF0A3EFF0E490832FF02068
:1011C300C107E57120E402418F9132E0FF540EFE26
:1011D300C313908330F0EF20E605E06407605B9073
:1011E3008330E0D3940450527D407F0711EF1253B4
:1011F3001D90832EEFF07002801490832EE0D39421
:101203002440117424F01255D67D241252E27FE259
:10121300317A800B1255D690832EE0FD1252E29064
:101223008330E014F0E0FFF57DC394035005121AF8
:101233005FF57E90832FE04401F090832DE030E54D
:10124300077D2091FA4402F090832DE030E4077D7E
:101253001091FA4404F07F0020C1027F0190833192
:10126300EFF091327F0020C1027F01908331E06F64
:101273006002913290832DE0540EC313908330F0BB
:101283006407600543711080035371EF90832FE06F
:10129300FF22C2911202D9D29122908346E024FE0A
:1012A300605314606E1470026158240360026198E5
:1012B3007E837F287D01B10360541246839081AD04
:1012C300E020E402619878497C837D017B017A8187
:1012D30079AD120E619080FCE0B4DE14A3E0B4ADEE
:1012E3000FA3E0B4DF0AA3E0B40A05124BA5619291
:1012F30012537961787E837F28E4FDB103600F1276
:10130300468390835AE020E1031253798067124B9E
:101313007901FEE578657A602B5195EF20E0259001
:10132300835B7406F01253389081D4E0240F600C71
:10133300240F7061124B29EF705B80539081D5E0CD
:10134300FF024A715195EF20E04B908348E0D3941C
:10135300484042803A908345E0C39415500280018F
:10136300C35019124B7911FEE52220E228124B9A41
:101373006023124A569083467403F02212001743E7
:1013830022107F09124B90125564124B8411FE9068
:1013930083467402F02290832B125303A374C8F084
:1013A300E4A3F0A3F011307FE1317A1255709083FA
:1013B3002DE0601A1254D5FF1202C390832DE0145E
:1013C300F0122577700690832BE004F080E012552D
:1013D30077519590832FEFF090832EE014F07F6484
:1013E30091221200151218E290832FE020E50920C4
:1013F300E40690832EE070D97D307F0711EF908350
:101403002EE0600BA3E030E606A37401F08005E450
:10141300908330F0E4908348F0908330E0FF22E43F
:10142300FEEEC39F500800000000000E80F322511F
:101433009590832DEFF022E53824FE700281F3248A
:1014430002600281F9E53914607014700281D814C6
:10145300700281E22403600281F9E53A7012757625
:101463000575770190837EE054FEF054FDF0013062
:10147300E53AB4010F75760575770290837EE054E3
:10148300FDF02138E53AB4020F75760575770390C0
:10149300837EE04402F02186E53A64037058F576D2
:1014A300F57790811AE0FFA3E0A3CFF0A3EFF0E478
:1014B300F55A90821CF0537FFE22E53A90837EB466
:1014C300FF05E04401F022E054FEF0A3E53AF0E02A
:1014D300FD7F05801F124494E53A1254F201EFAFE9
:1014E3003A1246F4EF70047F018002AF3A02001D06
:1014F300AD3AAF39F161227F0711EF90832FE022DC
:10150300F1497E837F287D027199EF22E075F01CFB
:10151300A42403F582E43481F583E022E490832854
:10152300F01228EE9406506EF12D30E0649083287B
:101533001247C2F582E43481F583E0FE9082DDE058
:10154300FDEE6D704CEF75F01CA42411F582E434AC
:1015530081F583E0FF9082DEE0FEEF6E70339083CF
:101563002812274712558FFE9082DFE0FDEE6D7043
:1015730020EF1254E29082E0E0FEEFB50613908371
:1015830028E0FF24221222C14402F12C4404F080FB
:10159300051228F6808B908328E06406704BFFF1D8
:1015A3002D20E007908328EFF080050FEFB406EFBE
:1015B300908328E0640670319082C6E030E023E433
:1015C300FF908103E0FEE4908328F0EFB110FDEE7D
:1015D300D39D4007AE05908328EFF00FEFB406EBE1
:1015E30080079083817401F022E4908381F0F57683
:1015F300F5779082CFE020E002C1B61251259080AA
:10160300FCE0FF90832812521DF583EFF09080FDDC
:10161300F125125288EFF09080FEF125122FDBF5B1
:1016230083EFF09080FFF125122FE3F583EFF09025
:1016330082CAF12512522AF583EFF09082CBF1256D
:10164300125295EFF0125279F5837488F0EEC45478
:10165300F012525A7402F09082D9F125125232F5E7
:1016630083EFF09082DAF12512523AF583EFF0908E
:1016730082DBF1251252A2EFF09082DCF1251252A7
:1016830042F583EFF09082D5F12512524AF583EFAC
:10169300F09082D6F1251252AFEFF09082D7F12568
:1016A300125252F583EFF09082D8F125125264EF73
:1016B30012513B9082C8E0908102F0124EFA90835F
:1016C30028E0FF7D01124FD37D02124FD37D031219
:1016D3004F1A9082F6E0600A908328E0FF7D04129F
:1016E3004F1A5372FE908328E0FF2455F1304402D1
:1016F300F0745A2FF8E4F6E57130E014908328E093
:1017030024221222C14401F0E4908262F0432302B6
:10171300908328E0FF122256E060061222BE4404A2
:10172300F022E0FFEEC454F022F074552FF582E46A
:101733003482F583E022E4FF12448CEF4402FDE49B
:10174300FF11EFC284228F828E8374E2F0ED7F005B
:1017530060027F10EF4408A3F0227D1E7F02908376
:1017630031EFF0A3EDF01130908331E0FFA3E0FD02
:1017730001EF1202C390832DE0FF1202C39080FF9A
:10178300E0FF1202C39080FEE0FF1202C39080FDCF
:10179300E0FF1202C39080FCE0FF1202C3D2912249
:1017A30075891175885575C81075CD0075CC01758F
:1017B300CB0075CA01D2C8756903756A18756B09C0
:1017C300AF8CEF756800F567AF8AEF4268E567FF96
:1017D300EFB58CEC125557E4908381F0227D707F36
:1017E3000701EF7D017F0201EF90835AE054FDF082
:1017F3004401F02275B5FF75A520D2BDE4F5AB75A4
:10180300AC0475AD0A221207A55350FE5375FE535F
:1018130071DFE4F5245322F75323DF5323EFF576E7
:10182300F57775D901C2921217F775A52A75A40128
:10183300D29222E4F5ABF5AC75AD0B22C0E0C083C8
:10184300C082C085C084C0925392FE1136E57220D7
:10185300E522E55820E006908383740CF09083839F
:10186300E0700B740CF0756318437F088006908357
:1018730083E014F0D092D084D085D082D083D0E09E
:1018830032C0E0C0F0C083C082C085C084C0925320
:1018930092FEC0D075D000C000C001C002C003C01A
:1018A30004C005C006C00775A04011365350FE534F
:1018B30050FD756300437F085372DF75A000D007A6
:1018C300D006D005D004D003D002D001D000D0D0B0
:1018D300D092D084D085D082D083D0F0D0E03212A1
:1018E3000015AF8CEFFCAF8AEFFDECFFEFB58CF288
:1018F300C3ED9568FDEC9567FC1255C35002413565
:1019030012555774CB2DFD74FA3CFCE569D3940052
:1019130040021569E55020E11DE4FF515FFE919CF3
:10192300E0FAA3E04A600AEE919C74FFF5F012011D
:10193300200FEFB403E5E55960021559E563600232
:101943001563E4FF745A2FF8E6FE6004F4600106A1
:101953000FEFB406EF908348E004F01255C350A094
:10196300E5697057756904E56A94004002156A12C7
:101973000FF1EF6024908381E0701E908380E0700C
:1019830018E57F20E013A3741EF0E49081F4F09037
:1019930082C6E04401F012101DE4FF74542FF8E6F0
:1019A300600874552FF8E66001160FEFB401EC9050
:1019B300830CE0D3947D5003E004F0E56A70147562
:1019C3006A19E56BD394004002156B908380E06045
:1019D3000214F0E56B705B756B0A90837EE030E078
:1019E30008E57F30E003124384908381E060211493
:1019F300F0B283E0701A9082C6E054FEF0E57130D5
:101A0300E0034323025372FBE4F576F57712175D87
:101A1300908381E07002D283908261E0D39401408D
:101A230003E014F090835BE0600814F0E0700312AD
:101A330044DB22E57A75F015A4FDEE04FEAC050D3A
:101A430074002CF582E43480F583EEF0AE050D745A
:101A5300002EF582E43480F583740EF0741C2FF5A8
:101A630082E43482F583E022AD07E5796002618286
:101A7300EDC3940340026182122FBBFC741C2D51F1
:101A8300621255DF718AEF7183740F71837405F0ED
:101A9300ED1255DF718AEFF0ED14601414601C240D
:101AA300026002618271847427718374D4F080149C
:101AB30071847436718374E4F080097184744571A0
:101AC3008374F4F0E57230E30A74002C718A7401B4
:101AD300F0800774002C718AE4F0741C2D5162129B
:101AE30055CD8005C333CE33CED8F9FF9081F5E0D1
:101AF300F9FBEF5B601D741C2D5162123AA8800242
:101B0300C333D8FCF4599081F5F074002C718AE04A
:101B13004402F0741C2D51621255CD8005C333CE9F
:101B230033CED8F9FF908233E0F9FBEF5B601D748D
:101B33001C2D5162123AA88002C333D8FCF4599089
:101B43008233F074002C718AE04404F00C741C2D71
:101B5300516275F01CA412558FFF74002C718AEF2B
:101B6300F00C741C2D51621254E274002C718AF132
:101B7300E24003E4F57A122FC2B57A0375790122A4
:101B8300F0AF040C74002FF582E43480F5832290C7
:101B9300832BEFF0124FC190832CEFF0E0FE241C57
:101BA300516291BE7403F0A374E8F0741C2E516269
:101BB300919CE4F0A3F090832CE0FE241C5162245A
:101BC3005AF8760190832BE0FD741C2E124EC7ED5C
:101BD300F0ED124636E0FCA3E0FD90832BE0FE918E
:101BE300BEECF0A3EDF0EE91BEE0FCA3E0FDEE91C0
:101BF3009CECF0A3EDF0EFC39403500FEE1215101D
:101C0300FD90832CE0240BFF12176190832CE0FFDF
:101C1300516B90832CE0FFB1D990832CE0FF22908D
:101C2300832AEFF0E4FA741C2A5162FF121510FEA6
:101C330090832AE0FDEE6D702A12172D30E0248A7E
:101C43007D741C2A5162F57E91AAEEF0A3EFF09108
:101C5300BC9195EEF0A3EFF0AF02516BAF02B1D997
:101C63007F01220AEA640370BDE4FFEF121510FE40
:101C730090832AE0FDEE6D60050FEFB406EDEFC330
:101C83009406500B71928F7D515FF57E7F01227F09
:101C93000022E0FEA3E0FFE57E75F01CA4241CF502
:101CA30082E43481F5832275F01CA42418F582E4C0
:101CB3003481F583E0FEA3E0FFE57E75F01CA424E8
:101CC3001AF582E43481F58322E4908329F0E57DDB
:101CD300B4FF197E817FAC120360EF7002A1D3D1F0
:101CE3008C641F6002A1D3124BD1A1D3E57D6403A1
:101CF3007026E57230E2217E817FAC120360EF70C3
:101D030002A1D3D18CFFBF0F02F159D18C641F60A4
:101D130002A1D3124BF4A1D3E57D6403701BD18CD4
:101D2300FFBF0F07A3E0B40702A1D39081ACE0FF8C
:101D33009122908328EFF08002F1EC908328E070E9
:101D430002A1D37E817FAC120360EF7002A1D3E5C1
:101D53007DC39403507A1220A6908329EFF09081DB
:101D6300ADE030E723E57E91AAEEF0A3EFF0E55076
:101D730030E107919A1247BA800991BC9195EEF030
:101D8300A3EFF0435001800991BC9195EEF0A3EFCE
:101D9300F012559A4020EF601D7455257E121730BE
:101DA30030E013E57130E00A7422257E1222C1442B
:101DB30001F0AF7DB1D912559A4013EF6010122292
:101DC30054E0600A7422257E1222C14404F0E4F632
:101DD300908329E0FF22E5797029515FFE12268561
:101DE30030E6205136245B123779E0FFAE057400EC
:101DF3002E718AF1E24003E4F57A122FC2B57A0319
:101E030075790122E57F20E066E4FF515FF9919C3B
:101E1300E0FCA3E04C7052745A29F8E6704BE57667
:101E230064036039F1ECE4FEEF6E6020741C2E5104
:101E33006291BEE0FCA3E0FDE991BEE0FAA3E0C33A
:101E43009DEA9C4007E4908328F080050EEEB403DE
:101E5300D7908328E06006757603757701E991BE14
:101E63001247BA745A29F876010FEF6403709C2263
:101E73007E007F207D007B017A8279351201B59047
:101E830081ADE0541F908237F09081ADE0541F2262
:101E9300E576B4051BE57764036002E1587F07121A
:101EA300448CEF20E602E1581217E07FE202117A38
:101EB300122694E57624FE7002E13F147002E1429B
:101EC300147002E14724046002E15312467C600A65
:101ED3001247CA6005E4F576F577E578657A6034EC
:101EE300121295EF20E02D125366C002C00178D183
:101EF3007C817D01D001D002125354E57875F01531
:101F0300A42400718AE0FF1247DB12535B4003E411
:101F1300F578D2AFE57F20E0217F01E4FE741C2E2B
:101F23005162245AF8E6D394C85004E4FF80050EA6
:101F3300EEB403E9EF600312476FC107024644D1D1
:101F430007024717E57F30E004E4F576220246C72F
:101F5300E4F576F577229081AEE024FD602524FD3B
:101F630060322406703BF1A591BCEEF0A3EFF0F1D3
:101F7300A5919AEEF0A3EFF09081ADE030E5224316
:101F8300232022919AE4F0A3F09081ADE030E51193
:101F9300432310229081AFE0B40106757602757772
:101FA30005229081B0E0240CFF9081AFE03400FE65
:101FB30022E5797029515FFE12268530E6205136DD
:101FC300245B123779E0FFAE0574002E718AF1E2CB
:101FD3004003E4F57A122FC2B57A0375790122EF33
:101FE300F0057AE57AC3940C229083287401F022D9
:101FF300E4908381124ECF90835AE054FBF0E49037
:102003008346F0F57AF578F579F57D90821CE0F555
:102013007EE4F559908100E0F560E4F517F518F5D5
:102023001990830AF0A3F0A3F0FFEF04FE116DEE05
:10203300F00FEFB403F4537FFE537FFD537FFB5345
:102043007FF7537FEF537FDFE4FF745A2FF851BCC0
:1020530054FEF051BE54F7F00FEFB406ED5375FD87
:102063005375F75375FB5375FE2274632FF582E4A2
:102073003482F58322116DE064016026E4FEEEB53F
:102083000709246311707401F0801274632E1170B8
:10209300E06403600874632E1170E004F00EEEB484
:1020A30003DC2290832A7401121E8B12018920DC27
:1020B3000020E102210703211A04212D0821400EEB
:1020C300214C0F215610215B11216A1320F4152195
:1020D300AD1621601F000021C41249F621D05164BE
:1020E30020E20221CB5150E0600221BB124975214D
:1020F300D0516420E20221CB5150E0600221BB1297
:102103003F5421D0516420E30221CB5150E06002BF
:1021130021BB123CB921D0516420E40221CB5150A0
:10212300E0600221BB124A1A21D0D18320E00221B0
:10213300CB5150E0600221BB124A2621D0D183202B
:10214300E60221CB12000921D0121F59E57230E2B9
:102153007C8075124A328075124AC28070E57230F3
:10216300E203124BF48061516430E108E57E1255BD
:102173003920E0028052AF7D1178F1595154E0606B
:102183004CE52130E0475321FE9081ADE054E0441B
:1021930001F0E49081B5F0A312015800000000E4BF
:1021A3009081BA12378AA3F0800EE57EF19820E67B
:1021B3000280155154E06004F1CE8011123CDD80A1
:1021C3000C5154E06002F1CEE490832AF09081AD8B
:1021D300E030E556E524C39403504FE0541F700CE0
:1021E30090832B7481F0A374B1F0801E121E8CD3E4
:1021F3009410500C90832B7481F0A374B6F0800A72
:1022030090832B7481F0A374CCF0E57E04F1A724B2
:1022130025F8A6071254D5FCA3E0FDA3E0FEA3E036
:10222300F1A72426F812014C0524121E8C6018E035
:10223300541F640F6011E0541F641F600A74162555
:102243007E125522E004F090832AE0FF22AF7D1135
:1022530078E57E75F01CA4241EF582E43481F583B1
:1022630022E57E75F01CA42414F582E43481F58301
:10227300E022EF516630E107F14EE4F0432102EF33
:10228300516630E20AF1DB123F49E4F0432108EFE3
:102293005166FE30E303432120EE30E40343218003
:1022A300F19730E60AE57230E40551BE4408F0EFD9
:1022B300D18530E0034322022276FF74222FF58278
:1022C300E43483F583E022E524C39402405090C5AF
:1022D300807411F0A374FFF0A37449F0A3E524F014
:1022E300A3E525125548E529F0A3E52AF0A3E52B3C
:1022F300F0A3E52CF0A3E52DF0A3E52EF0E524945F
:10230300034014A3E52FF0A3E530F0A3E531F0A3D8
:10231300E532F0A3E533F0E4F52475191422E5233F
:1023230030E00D5323FEF1B8E4F50B430B01A14755
:10233300E490832CF0B17E501C51BEFFC31330E0F8
:1023430010F135EF54FDF1AF750A40750B02E4A1AE
:1023530047B17780E0E490832CF0B17E505F51BEAB
:10236300FF30E055F135EF54FEF1AF750A41750BBF
:1023730004F1442409F582E43481F583E0540FF534
:102383000C745A2FF8E66005430C408008121E8C2B
:102393006003430C8090832CE012553930E00343F3
:1023A3000C20E57230E303430C10F1441241A2F513
:1023B3000EEF1241ADF50DA14DB177809DE49083F1
:1023C3002CF0B17E502951BEFF1313543F30E01B54
:1023D300F135EF54FBF0EE5156E0600F90832CE0A3
:1023E300FD7F807EC51241468F1922B17780D3903D
:1023F300835AE030E05854FEF0750810908347E0AC
:10240300FFF509750A41750B0590834AE0FE540FE9
:10241300F50C90835AE020E105EE4440F50CEF649F
:10242300756024908347F14724E9F582E43480F50D
:1024330083E0F50EEF75F01CA424EAF582E4348002
:10244300F583E0F50D8005E4F50EF50DA14DE4905F
:10245300832CF0B17E501F12172DFF1313543F30FE
:10246300E0101250AC54FBF07F807EC51241BC8F4C
:102473001922B17780DDE490832CF0B17E501512E0
:10248300172DFFC31330E0081250AC54FDF0801534
:10249300B17780E7E57130E71690832CE0B4060F3F
:1024A30053717F7D077F807EC51240A38F1922E57C
:1024B3002330E12F5323FD908220E07021F1B8F502
:1024C3000B530BFE908262E0F50CE4F50D90821F36
:1024D300E0FFB4FF05E4F50E80028F0E806CE490FC
:1024E3008220F0E52230E214C4135403700E7F807F
:1024F3007EC51240578F195322FB8014E52230E228
:1025030016C413540360107F807EC5120ED88F1932
:102513005371FB5371DF22E52330E51A5323DFF1B7
:10252300C2750B03121CBCE0FCA3E0FDECF50C8DA3
:102533000DE4F50E8014E52330E4195323EFF1C2C3
:10254300750B04E4F50CF50DF50E7F807EC5124086
:10255300638F1922E5246401701990C5807410F00B
:10256300A3E525F0A37449125548E529F0E4F524C1
:102573007519072290832CE004F02290832CE0FF4E
:10258300C3940622AD0790835B7406F0908346E004
:102593006002C13B90835AE04404F054FDF0908301
:1025A30047EFF0BF75219083597475F09080FC74E8
:1025B300DEF0A374ADF0A374DFF0A3740AF0E4902B
:1025C3008352F0A3F0800C908347E014121510900F
:1025D3008359F0E490832CF0B17E5039908347E027
:1025E300146F602D90832CE0245AF8E670231217A1
:1025F3002D30E01D51BC4401F090832CE0FF515677
:10260300E0600751BE4404F0800790832CE0FF5143
:1026130075B17780C3E4FF74492FF582E43483F501
:102623008374FFF00FEFB410EE125564124B841253
:1026330010FE9083467401F022EF516630E107F1FA
:102643004EE4F0432102EF516630E20AF1DB123F20
:1026530049E4F0432108EF5166FE30E303432120B0
:10266300EE30E403432180F19730E60AE57230E46B
:102673000551BE4408F0EFD18530E0034322022226
:10268300E57E75F01CA42415F582E43481F583E01E
:1026930022E4908328F01228EE94065047745A2FB0
:1026A300F8E6FFC394C84037EFF46033E0245512D3
:1026B300173030E02A76FFE57130E00B908328E095
:1026C300242251C14401F0908328E0FF5156E06079
:1026D3000751BE4404F08007908328E0FF51751230
:1026E30028F680B222E490832CF0B17E502E51BEA6
:1026F300FF131313541F30E01F90832CE0F13AEFC4
:1027030054F7F07E007F207D007B017A82793512B9
:1027130001B590832CE0800EB17780CEE52330E3C2
:10272300105323F7E57E04FF7D807CC5123DEA8FBD
:10273300192290832CE0FE2422F582E43483F5836E
:102743002290832CE0FF75F01CA422742D2FF582B8
:10275300E43482F58322E57E12551012538490816E
:10276300B5E064C970255154E0701C1255AFF151A6
:10277300EFF0E4F51AFFF14EE0421A0FEFB406F65C
:10278300781B7C001254C6432101220574E5747042
:1027930002057322EF75F01CA42416F582E434813C
:1027A300F583E022FFE52475F005A422F0750810F7
:1027B300EE04F509227508107509FF750A4A22759A
:1027C3000810E57E04F509750A4922121E73123CAE
:1027D300C512029D4322082274212FF582E434821C
:1027E300F583E4F022E55030E10A30E00912428734
:1027F3005350FE22F1FA22E57F30E40BE52220E27A
:1028030006537FEF12435DE4908328F011EE9403A7
:102813005024EF2481FF123200908328E0FE242904
:10282300B13EEFF074292EB13EE06006740A2E1219
:1028330055B911F680D6908329E06007E517700338
:10284300123B0B90832AE06007E5187003123F07E1
:1028530090832AE0600BE5187007E5526003123C91
:102863009590832AE0600BE5187007E55260031228
:102873003C0190832AE0600BE5187007E552600382
:10288300123C3990832BE0600BE5197007E5536028
:10289300031222CA90832BE0600BE5197007E553FE
:1028A3006003123FDF90832BE0600BE5197007E5AF
:1028B3005360031226E8E4908328F011EE9403504A
:1028C3002974172FF8E6FD601DE025E0FFE433FED1
:1028D300EF24B7FFEE34C78F82F583EDF0908328A2
:1028E300E02417F8E4F611F680D122908328E0FF64
:1028F300C322F0908328E004F022E537242F7002EE
:102903004160241C6002416EE57F20E002415CE5EA
:1029130038D3947F501AE53864026014785C7C8362
:102923007D017B007A007938120E61120E2041720C
:10293300E538C394F050024158E538D394F540028A
:102943004158125125E538540F908328F0E0FF12C7
:10295300521FF583E539F0EF125285E53AF0EFC4E3
:1029630054F0F1DBF583E53BF0EFC454F0F1E3F50C
:1029730083E53CF0EFC454F012522AF583E53DF0B1
:10298300EF125292E53EF0EF12527AF5837488F01B
:10299300EFC454F012525A7402F0EFC454F01252BE
:1029A30032F583E53FF0EFC454F012523AF583E574
:1029B30040F0EF12529FE541F0EFC454F01252423F
:1029C300F583E542F0EFC454F012524AF583E54330
:1029D300F0EF1252ACE544F0EFC454F0125252F54A
:1029E30083E545F0EFC454F0125264E54612513BBF
:1029F300908328E0FD1250E9AB07FA0BEBAE0270AF
:102A0300010A14F5828E83E06D60028040121FEC90
:102A130011EE940750170BEBAC0270010AB146E6B6
:102A23006E60067F09B137800411F680E374022BD0
:102A3300FBE43AFA9083287407F011EE940F502FB9
:102A43000BEBAC0270010AB146E66E60047F0980AD
:102A53001C11F680E57F0380147F028010E57F3030
:102A6300E0051243A680087F0280027F02B137E5AA
:102A730036648F6007E4F538F539F53A43220422CA
:102A8300E52330E21E5323FBE4908328F011EE94F8
:102A9300035010121A5F245AF8E67003121DD9115D
:102AA300F680EAE4908328F011EE9403502F121A73
:102AB3005FFF245AF8E67021047E00A8070880050A
:102AC300C333CE33CED8F9FF9081F5E0FDEF5D60DF
:102AD30008908328E0FF121A6B11F680CB90826175
:102AE300E0B4010EE4F0FFEF122256E4F00FEFB46E
:102AF30006F5E5796013121295EF30E00C7FE112D1
:102B0300117AE4F57AF578F579224372047E007F31
:102B13003D7D007B017A8279C71201B59081BAE0CD
:102B230030E2109081B7E0B404099081B4E0C3941B
:102B33000850099082C6E020E102A12B9081BAE0FF
:102B430030E3179081C0E090821FF0E07012908311
:102B53008104F09082627405F02290821F74FFF06A
:102B63009083817402F090826214F07F031209D380
:102B7300AA06A907908329740112542A9083291263
:102B83000FBA6B7008E965827003EA65836002819E
:102B93001912416B908328EFF0C2FB6024D2FB90A3
:102BA300000BE09080FCF090000CE09080FD12554B
:102BB300A59080FEF090000EE09080FFF0C2FB80B5
:102BC3001912492BE5F39080FCF0E5F3A3F0E5F34C
:102BD300540F4490A3F0E5F3A3F0125482757001EF
:102BE30012445C8031E4FFFEEE121510FD90810269
:102BF300E0B505047F0180050EEEB406EBEF701619
:102C0300908102E0FF600FC394014006EFD3940666
:102C13004004EFB47508908102E004F080C790810E
:102C2300ACE09082C7F0908102E09082C8F090817E
:102C3300B4E09082C9F09081B5E09082CAF09081AF
:102C4300B6E09082CBF09081B7E09082CCF0908197
:102C5300B8E09082CDF09081B9E09082CEF0E4901C
:102C63008328F0908328E0FF24BAF582E43481F5C9
:102C730083E0FE74CF2FF582E43482F583EE11F501
:102C8300E0B406DF12491EA37401F09080FCE090CB
:102C930081D3F09080FDE09081D4F09080FEE090AD
:102CA30081D5F09080FFE09081D6F09082C8E090CB
:102CB30081D7F09082C9E09081D8F0A37488F0A303
:102CC3007402F0A37404F0A37401F09082CEE09038
:102CD30081DDF0E4908328F011EE9406500F74DE4A
:102CE3002FF582E43481F583E411F580EB9082CFF4
:102CF300E0542F9081DEF09081F4E060079081E34F
:102D0300E04401F07E817FD0120337908220E0FD02
:102D13007E817FD060028002E4FDF1629082C8E090
:102D2300FD7F0E121761E13A9083817401F0908266
:102D33006204F0221254B143220422F582E4348364
:102D4300F5832214F5828C83E0FE74382FF822E594
:102D530037244D603324FE7053E538D3947F5024D9
:102D6300AF381209D3EF4E70028019AA06A9077B68
:102D730001C002C00178387C007D00D001D002126E
:102D83000E6180217F0380267E007F107D007B0003
:102D93007A0079381201B5E4FF12551FB14BA6062C
:102DA3000FEFB406F4432260432204227F0280849F
:102DB300E536247F600D24FE601324037011124C4A
:102DC30039800312083B53229F4322042280807FD1
:102DD30001A137E52220E702C1AD43221090830F02
:102DE300E0F47051E52230E202C1AA53227FE5717B
:102DF30030E20FD1E7D1C07F0712029D7F07B137C1
:102E0300C1AA90830EE0B4100DD1E7D1C07F0712A1
:102E1300029DB1B3C1AA90830EE064116002C1AAFE
:102E230078347C00FD7B017A83790EFE7F141202D5
:102E33009DD1EE80721236C74006E0D39406400857
:102E430090830FE06475705B90830FE06475600797
:102E5300E02459F8E6600A90835AE030E24130E119
:102E63003EE5797036F1AEB41006D1AE7F07800B24
:102E730090830EE0B41109D1AE7F1412029D80023B
:102E83008025F1B62400121B8A121FE24003E4F5E9
:102E93007AF1C2B57A11757901800C7F0780067FBC
:102EA3000980027F08D1C95322EF22E57A75F01514
:102EB300A42401F9748035F0A801FC7D017B017A1B
:102EC30083790E7E0022908328EFF0E52220E2131F
:102ED30053227FD1E7D1C07F0712029D908328E060
:102EE300FFB1372278347C007D0022E536247E70E2
:102EF3000201FD7F01A13790830FE02459F8E670AA
:102F030035E5797031F1AEB41006D1AE7F07800C90
:102F130090830EE06411701ED1AE7F1412029DF1F6
:102F2300B62400121B8A121FE24003E4F57AF1C2B1
:102F3300B57A0375790122757602E4F5772278F67E
:102F43007C827D017B017A8179AF7E007F0E120244
:102F53009DF13A125495120337F1D4F16280D8905F
:102F6300832EEDF0123781F5828E83A3E0541FFF89
:102F7300123CEEAD0790832CF1A6FB90832F1253E6
:102F830003A3EBF0121030C291908332E054074454
:102F9300A8FF1202C390832FF1A6FD1202F2D29171
:102FA300D29022E0FEA3E0FFA3E02253227F90838E
:102FB3000EE02290830FE0FFE57A75F015A422E579
:102FC3007824FFFFE434FFFE7C007D0C1200CBED80
:102FD300227E817FD07D04222468F582E43482221C
:102FE3002469F582E434822290C700E4F0A3F0E57B
:102FF30048541F14601214601A24027045E5585493
:103003000125E090C700803351C65036E55030E5C6
:10301300318029E54C702BE54D547F70057F02FE0E
:10302300801EE55030E51BE54D30E716547FC39411
:1030330004500FAF4D114F90C700EFF07F027E0099
:10304300611602002590C7B47411F02251BA401BD7
:10305300EFD394055015ED20E70A5120117A20E0B3
:103063000A1C8007117120E002E4FCAF0422ED5436
:103073007F75F002A424B4FFE5F034C78F82F58393
:10308300E022AD07ED547FFF701D90C7ACE0440113
:10309300F090C7DEE04401F090C7ADE04401F0904A
:1030A300C7DFE04401F022EFD394055054ED20E74D
:1030B3002690C7DFC083C08231058002C333D8FCAA
:1030C3004FD082D083F0ED5120117A54FEF090C797
:1030D300D7EDF02420F022ED547FFD90C7DEC083AE
:1030E300C08231058002C333D8FC4FD082D083F035
:1030F300ED117454FEF0ED241090C7D7F0ED243099
:10310300F022E0FF7401A805082274512FF8A64BA2
:10311300EF2481FF118531E8908341E004F02251CF
:10312300C6503BE55030E536E54D60046401702E32
:10313300E54B600464017026E548541FFFBF010F8F
:10314300E4908341F031F294035016310D80F6E49C
:10315300908341F031F294035007310D80F6120051
:103163002522E548541F700BD3E54B9401E54A949F
:10317300004003020025E54B605231F931F294041B
:10318300500AEF2480FF1185311B80F0755020E435
:10319300FFEF700875547D75557D800C74542FF8BE
:1031A300E4F674552FF8E4F60FEFB401E4437F0817
:1031B300437F0231F9908341E0FFD3940550269079
:1031C300C7D7EFF0EF2440F0311B80E931F931F23A
:1031D3009404500BEF2480FF124248311B80EF759B
:1031E3005010437F0475640590C7B47412F02290A5
:1031F3008341E0FFC3229083417401F02251BA401E
:1032030019EFD394055013ED20E7095120117A608B
:10321300091C800611716002E4FCAF042275F00200
:10322300A424C422EF547FFE70020148EED3940518
:103233005016EF20E70451208009EF547F75F00208
:10324300A424B4117A4401F022E548541F24FE60FB
:103253001B2402705FE54B6401454A7057E549B48E
:1032630001055358FE804B4358018046E54C70449A
:10327300E54B454A703EE5496401701FE54D547FB7
:103283007002802EE55030E52BE54D30E726547F64
:10329300C39404501FAF4D11858017E55030E514DA
:1032A300E54D30E70F51BF400BEF94045006AF4D8F
:1032B300512721E8020025AD077C01ED547FFFD3A0
:1032C300940022C3E54D9403E54C940022E5485451
:1032D3001F6401701CE54B454A701651C65012E538
:1032E3005030E50DE54F7009E54D2481FF1185212F
:1032F300E802002551C65018E55030E513E4FFE518
:103303004D7008854A54854A557F01EF600221E8D4
:103313000200258E658F66E54E6006E4F54E754F17
:10332300FF919150048E658F669187400575640106
:10333300800375640390C7B5E566917FE4F565F591
:10334300662251C65015E55030E510E54D700C90DE
:10335300C700E554F07F017E0080B8020025E548F0
:10336300541FFFBF011351C6500FE55030E50A90BB
:10337300C700E4F07F01FE809A02002551C6501673
:10338300E55030E511E54D6003B4010A7451254D54
:10339300F8E69151611602002551C64002814EE5BF
:1033A3005020E502814E90C700E54BF0A3E4F18A7B
:1033B300A3F0E54A64016002813DE54D7004F1B478
:1033C3008028E54D64017012E5527005123FF080CC
:1033D30019E54BB4020491A58010E54DB4010FE546
:1033E3004BB4030AE55260067F057E00805BE54D22
:1033F300B4010FE54BB4040AE55260067F027E0078
:103403008047E54DB4010FE54BB4080AE552600669
:103413007F027E008033E54D6402702FE553602BFD
:10342300E54BB410067F077E00801EE54B641170E8
:103433001A7C067D807F14FE801DE54AB4020CE5EC
:103443004D7008908304E09151611602002590C7E6
:1034530000F07F017E00228E658F66AE04AF058E7D
:10346300618F62919150048E658F669187400575D7
:1034730064018003756403123AC38001F090C7B4FA
:103483007402F022C3E5669408E565940022E54ED4
:10349300FE7C00E4254FFFEC3EFEC3EF9566EE9500
:1034A30065227B007AC791F7E50FF07F13D1F79080
:1034B3008341EEF0A3EFF07F15D1F7A3EEF0A3EF76
:1034C300F0908341A3E0B105A3F0908344F13990D8
:1034D3008341F12EB16FEFF0908343E0FEA3E078D8
:1034E30004CEA2E713CE13D8F8B151E512F0E4F5F8
:1034F300127F08225321FB8B828A837402F0A3E597
:1035030010F08B828A83A3A322AB07AA0691F7E567
:103513000FF07F13D1CFF1817F15D1CFA3EEF0A3AD
:10352300EFF090832CA3E0B105A3F090832FF13942
:1035330090832CF12EB16FEFF090832EE0FEA3E089
:103543007804CEA2E713CE13D8F8B151809DFFEBD8
:103553002405F582E43AF583EFF0EB2406F582E4E3
:103563003AF583E511F0E4F511EB2407F582E43A2B
:10357300F5832290834374C6F0A374C0F0EF24FF55
:10358300FBE434FFFAEB2DFDEA3CFCEFD39400405F
:1035930024908343E0FAA3E02FB16FE58224FFF583
:1035A30082E58334FFF583E08D828C83F0ED1D701B
:1035B300011C1F80D62290C6C0E0908341F090C6C4
:1035C300C1E0908342F0E55614B409004002C1B94A
:1035D3009035E175F003A4C58325F0C583730235E7
:1035E300FC0236B902361E02364D02366202366FCF
:1035F3000236B90236910236A6D1BD908341E090DE
:103603008304F0E4FF908341E0FE745B2FF179EED5
:10361300F00FEFB406EF432304C1B9908341E06494
:103623001070237C837D0E7F07B176D1BD4322804A
:10363300D1C75002C1B9E0D39406507AE52220E401
:1036430075122EFA8070D1BD806C908341E06411B5
:1036530070647C837D0E7F08B17675560580427C4D
:10366300837D167F08B17675560680357C837D1E73
:103673007F04B176755607D1BD432280D1C7403947
:10368300E0D394065033E52220E42E022EFA9083F1
:1036930041E0642070207C817DF67F08B176755609
:1036A30009807E7C817DFE7F07B17675560BD1BD87
:1036B300437202024FDBE4F5562275640590C7B4EA
:1036C3007410F02290830FE0C3940122F111700370
:1036D300FEFF22F11A4002E165F146A8075005F109
:1036E300557F0122E6FC08E6FDA807E4F608F6AEDE
:1036F30004AF0522F1117003FEFF22F11A4002808C
:1037030061F146A8075005F1557F012280D6A8072D
:10371300E6FC08E6FD4C22D3ED94FFEC648094872D
:103723002275640490C7C574FF817FE0540FFFEFD7
:103733004DFFEB240422E0540FC4F8540FC868FF74
:10374300AD0722A807E6FC08E6C39401EC64809465
:1037530078220874FF26F618740736F64321047E90
:10376300F822A80708740126F61874F836F64321E0
:10377300047E077FFF22F582E43482F5832290835F
:103783002CEEF0A3EFF022F0A3F0A3F0A3F0A3F04C
:10379300A3F022E548541F7015E55090C70030E5AB
:1037A300057401F08002E4F07F017E0061160200DF
:1037B300255321FE90C700E51AF0A3E4F0A3E51B0F
:1037C300F0A3E51CF0A3E51DF0A3E51EF0A3E51FA0
:1037D300F0A3E520F07F0822E548541F7017C3E5E6
:1037E3004B9480E54A9400500CE55030E504755045
:1037F300202275501022E548541F704DE54A24FEDF
:10380300600F14601424026002019D7C057D4E80CC
:10381300247C057D607F548054E54B146013146051
:103823001824FE601C240470717C037DA47F048033
:103833003C7C037DA87F1280347C037DBA7F1A8091
:103843002C7C037DD47F1E8024E548541F640170C3
:10385300491232C65044E54AB42116E54D75F019B4
:10386300A42472F582E43405AD82FC7F097E0080D6
:1038730026E54AB42224E54D25E025E024B6F58269
:10388300E4340511A8FFE54D25E025E024B4F582D5
:10389300E43405F58311A002345A020025E493FCB5
:1038A300740193FD22F583E493FE74019322E4F5FE
:1038B30056E548546024E0602524207053E54954BC
:1038C300F0704DE54990041293FFE54854806F7002
:1038D3003FE54925E024F2F582E43403802AE549F3
:1038E30054F0702CE54990067093FFE5485480B579
:1038F300071EE548541FFFBF011675F002E549A4F2
:103903002450F582E5F0340611A8AA06F90201AFA6
:10391300020025C0E0C0F0C083C082C085C084C05F
:10392300925392FEC0D075D000C000C001C002C047
:1039330003C004C005C006C007C2C490C7A8E012F4
:103943000189397C0039AF0439B90839C10C3A020D
:10395300103A0F183A2E1C3A4F203A6C243A4F284B
:103963003A6C2C3A4F303A6C343A4F383A6C3C3A12
:103973004F403A6C4400003A8790C7E8E0F548A30B
:10398300E0F549A3E0F54BA3E0F54AA3E0F54DA329
:10399300E0F54CA3E0F54FA3E0F54E75640090C746
:1039A300A97401F0A3F0A3F011B1418751B854FDFC
:1039B300F05350FB418790C7AB7404F0418790C725
:1039C300AB7408F0E55020E21330E510E57F9083F7
:1039D3008320E005745EF08003740CF0E55020E171
:1039E3000E30E50B756300E57220E503437F025358
:1039F30050FE43500243500451B84402F0418790B3
:103A0300C7AB7410F0437F20F550807890C7A9743A
:103A130001F0E56424FD60082402702851C380642A
:103A230075640090C7B47410F0805990C7AA7401EC
:103A3300F0E56424FC600814700A1236BD80451258
:103A430035B98040756400123048803890C7A8E0CB
:103A530024E851AFCEC313CE13D8F951A88002C3C3
:103A630033D8FC90C7A9F0801B90C7A8E024E45189
:103A7300AFCEC313CE13D8F951A88002C333D8FCF9
:103A830090C7AAF0D007D006D005D004D003D00247
:103A9300D001D000D0D0D092D084D085D082D08332
:103AA300D0F0D0E032FF7401A8070822FFE434FF0E
:103AB300FEEF78032290C7AB7402F090C7AEE0220A
:103AC300E4FFE5664565602C0562E562AC61700262
:103AD300056114F5828C83E493FEEF2400FDE43446
:103AE300C78D82F583EEF0E5661566700215650FE6
:103AF300EFB408CE90C7B5EFF0E56645657008EF03
:103B03006408600375640322E52130E1165321FD47
:103B130071F87160E4FF12274EE0421A0FEFB4060A
:103B2300F5800DE52120E008E554600CE5557008AB
:103B33007F807EC6713C8F17225321FE8F828E8336
:103B4300E51AF0A3E4F0EF240291697B007A00798F
:103B53001B1254CEE5546002F5557F08227A007992
:103B63001A0201B57E007F037D007B007A00792174
:103B73001201B5E4F524FE7F07FDFB71607E007F33
:103B8300087D007B007A00790F1201B5918871E2FC
:103B93007A83790571E27A83790D71E27A83790404
:103BA30071EE7B007A00793471EE7B017A83790EB2
:103BB3001201B571F87A0079081201B57E007F040D
:103BC3007D007B007A0079711201B5E4FF74172F31
:103BD300F8E4F6740A2F1255B90FEFB403EF22126B
:103BE30001B57E007F017D007B01221201B57E00BD
:103BF3007F147D00227E007F077D007B0022E5216C
:103C030030E70E53217F71E57A8379051201B58080
:103C130005E52130E6087F007EC691228F182253E6
:103C230021BF8F828E837404F0908305E08F828E90
:103C330083A3F07F0222E52230E10E5322FD71E5DA
:103C43007A83790D1201B58005E52230E0087F0003
:103C53007EC6915A8F18225322FE8F828E83740858
:103C6300F090830D80C6FFE43EA807FC7D01228F00
:103C7300828E835321EF7403F0EF24019169918EB7
:103C830091B27F05227E007F047D007B017A8379D8
:103C93000622E52130E50A5321DF91881201B58020
:103CA30005E52130E4087F007EC691728F18227EDD
:103CB300007F0402029D78067C8391D491B2432154
:103CC3001022FF91EEEF24FDFFE434FFFE78387CF1
:103CD300827D017B017A8179AE22E57230E40B1299
:103CE3001E7391C512029D43230822EF70047E05C3
:103CF300800AEFD394107E1650027E0AAF0622127A
:103D03003781908237E0FF91EEEF64167038D17FF0
:103D13007421D18CA3E0D177F0E4FF74382FF582BE
:103D2300E43482F583E0FEEF2403FDE433FC908367
:103D33002CE0FAA3E02DF582EA3CF583EEF00FEFD9
:103D4300B41DD87F2022D17F7420D18CA3E0FDD174
:103D530077D163D1F52404B1E1D1FEB1E190823B87
:103D6300E0B17D908242E0FFED240DB1E19082430A
:103D7300E0FFED240EB1E17F0F22FFED2406F58273
:103D8300E43CF583EFF090823CE0FFED2407F582FD
:103D9300E43CF583EFF090823DE0FFED2408F582EB
:103DA300E43CF583EFF090823EE0FFED2409F582D9
:103DB300E43CF583EFF090823FE0FFED240AF582C7
:103DC300E43CF583EFF0908240E0FFED240BF582B5
:103DD300E43CF583EFF0908241E0FFED240CF582A3
:103DE300E43CF583EFF0228D828C837411F0A3EF12
:103DF300F0D1687466D163D1F52404B1E1D1FEB189
:103E0300E1908242D16F90823BE0540F4FB17D909D
:103E1300824AD16F908243E0540F4FFFED240DB1DE
:103E2300E1908244E0FFED240EB1E1908245E0FF92
:103E3300ED240FB1E1908246E0FFED2410B1E19053
:103E43008247E0FFED2411B1E1908248E0FFED24C9
:103E530012B1E1908249E0FFED2413B1E17F142216
:103E6300F0908238E08D828C83A3A322E054F0C4C7
:103E730054F0FF22F5828C83A3A3EF2290832CE0DE
:103E8300FEA3E0FFF5828E8322F0E57E048F828E0F
:103E930083A3F0908237E0FF90832CE0FC22AD07F0
:103EA300AC065321FB8D828C83E510F0AF14AE1367
:103EB300D1D8A3EFF0AF16AE15D1D8D168EFF0D1BA
:103EC30068A3E511F0E4F513F514F515F516F511EE
:103ED300F5127F0422D3EF947FEE64809480400335
:103EE3007F7F22C3EF9481EE6480947F50037F81B0
:103EF3002222A3F0908239E0FFED2290823AE0FF84
:103F0300ED240522E52130E3155321F7F1D8F13CE7
:103F1300E0420F0FEFB406F6E55270138009E52176
:103F230030E215E5527008FF7EC6D1A18F18227FBB
:103F3300007EC612350C8F182274212FF582E434CB
:103F430082F583E0421074272FF582E43482F583EF
:103F5300221249DAF14CF1D6F13CE0420F0FEFB4F3
:103F630006F69081B1E0FE9081B0E0FDAC067F13D0
:103F7300F19D9081B3E0FE9081B2E0FDEEFCF196FD
:103F83009081B4E0FD1249400FA3E0FD1249404384
:103F93002104227F15F19D7F1122EC30E716C374B3
:103FA300019DFB74F8125583D312552A401C76F8F1
:103FB30008760122C374FF9DFB7407125583C31255
:103FC300552A500676070876FF2208ED26F618ECE8
:103FD30036F622EFF0E4F510F50FFF22E52230E389
:103FE3000B5322F77F807EC5B1028F19225321FB29
:103FF30090C700E510F0D3E514947FE51364809433
:10400300804006A3747FF08018C3E5149481E51300
:104013006480947F90C70150057481F08003E51498
:10402300F0D3E516947FE51564809480400890C72B
:1040330002747FF08018C3E5169481E515648094BB
:104043007F90C70250057481F08003E516F090C796
:1040530003023EC5753410120E98E53AF07F07222D
:104063008F828E83E508F0A3E509119BE50A119B76
:10407300A3E50BF0EF2404120ED1E50CF0EF2405B9
:10408300120ED1E50D120ECDE50EF07F07228F82C1
:104093008E837420F0E904A3F08F828E83A3A3227E
:1040A300A905E4FDEF2D120ED1E4F00DEDB40FF4EC
:1040B3008F828E837420F0A3A37441F0E9D3940616
:1040C300400E8F828E83A3E4119BA37402F0806859
:1040D300E9048F828E83A3F0E57230E008119CA37C
:1040E3007401F08005119CA3E4F0E931ADFDEF24E8
:1040F30004120ED1313E31A2FDEF2405120ED1ED93
:10410300F0E9122266FD120ECEEDF0E9122685FDCE
:10411300EF2407120ED1EDF0E9122798FDEF2408E2
:10412300120ED1313E2417F582E43481F583E0FD8C
:10413300EF2409120ED1EDF07F0F22EDF0E975F0B7
:104143001CA422A905E4FDEF2D120ED1E4F00DED20
:10415300B40FF411917442F0745A29F8E660061111
:104163009CA37401F07F0F22D2FB7F0BFE31954D90
:10417300FDA3A3E0FC4DFD119CA3E0FB4D601031BA
:10418300955DFDEC5DFDEB5DF460047F0180027FD6
:1041930000228F828E83A3E0FD8F828E83E0222410
:1041A30005F582E43481F583E02275F01CA424062E
:1041B300F582E43481F583E022A905E4FDEF2D12B5
:1041C3000ED1E4F00DEDB40FF411917440F07F0FB4
:1041D300221232C65069E55030E564E54A64027044
:1041E3005EE54D700DE54F6401454E700575560152
:1041F3008047E54D64027028E5536024E54BB41015
:104203000DE54F6407454E7005755603802BE54B4E
:10421300B4110DE54F6414454E70057556048019AD
:10422300E54DB4021AE54BB42015E5536011E54F93
:10423300640F454E7009755608854F57023724E4BD
:10424300F556020025EF547FFE7401A8060880028C
:10425300C333D8FC543EF4FEEF20E70B90C7ADE028
:104263005EF090C7DF800990C7ACE05EF090C7DED8
:10427300E05EF0227F0190C7D7EFF02440F00FEF0C
:10428300B406F322437F08713C714851770218E268
:10429300E4FE74502EF8E4F60EEEB409F5E4F5549A
:1042A300F555FE74512EF876010EEEB403F5EF606A
:1042B30005E4F550800FE550C39410500575500880
:1042C3008003755010E4F564713C90C7AE741DF023
:1042D30090C7E0E4F0A3F090C7DDF090C7AC04F022
:1042E30090C7DEF090C7ADF090C7DFF090C7A97418
:1042F3003FF0A3F090C781712890C7887430F0A372
:10430300712890C7E27418F090C7F0E4F090C7F8F2
:104313007408F090C7E37404F0D2BBD2BC90C7AB6F
:10432300741FF041777410F0A37420F0A37430F07D
:10433300A37440F0A37450F02275A0407F011207CC
:10434300F3E4F5A02290C7D67402F0000014F07FC6
:10435300071207F390C7D6E4F022C2AF717C1207AD
:10436300A57FFA1207E7E4F5F5FFEF90002D93F52B
:10437300F20FEFB40AF402740090C7D6E04408F0D9
:104383002290837FE0C3940550057451F080079019
:10439300837FE024FBF090837EE030E1030211860B
:1043A300021138E5382420606124DC6002815290D8
:1043B30080FCE539F0A3E53AF0A3E53BF0A3E53C47
:1043C300F0908103E53DF01210307D397B057F0BC2
:1043D3009162D290AF3FEFFDAF3E9153908118F0C1
:1043E300A3EFF0AF41EFFDAF409153A3F0A3EFF084
:1043F300908100E542F0E0FFD1F4EF700590810079
:1044030004F0908100E0FF02001D9080FCE53DF088
:10441300A3E53CF0A3E53BF0A3E53AF0908103E587
:1044230039F0125482908103E0F570121030915CE0
:10443300D29090837FE53EF0E0FD7F0512176191F6
:1044430094E53F1254F21210EF7576057577032247
:10445300EFFEED240CFFE43E227D6C7B057F0B9089
:104463008331EDF0A3EB125502908332E060151413
:10447300FF908331E02FF8E6FF1202C3908332E00E
:1044830014F080E5D291D29022F1D21202D9D291C6
:10449300227F06918CEF54F9FD22121030D291F154
:1044A300B3E4FF918CBF1D0543710880045371F77A
:1044B30022021042F16FE4FF745A2FF876FFEF12D5
:1044C3001CBEF1BAEF121C9CE4F0A3F012551FE4DA
:1044D300F00FEFB406E280C291EA121FF391B7E442
:1044E30090835BF00217EC7F03120E8C700C9083A9
:1044F300317405F0A374D1F08006D1147002D10D8C
:10450300908331120E8278FC7C807D01F1ACE490C3
:1045130081ABF0908333F0D12D4002A1B8EF24207A
:10452300FF120E8C701DA3E0FFC454F024E1F5824A
:10453300E43405AD82908331F0A3ED12172C54FEC1
:10454300F08018D1147002D10D908333E0245512FA
:1045530017304401F09081ABE004F0908331120EE8
:1045630082C001A3E075F01CA42403F97481D12552
:10457300D0017E007F0D12029D90833312274724C2
:1045830004F582E43481F583E0240CFDE433FCEF8D
:10459300D136D11BFFD136E0FCA3E0FDEF121CBEE8
:1045A300D11BFF121CBEE0FCA3E0FDEF121C9CD14B
:1045B3001B04F0A11AE4908333F0D12D503CEF2477
:1045C30030FF120E8C700C9083317406F0A374418B
:1045D300F08006D1147002D10D908331120E82C087
:1045E30001A3F1C2F97481D125D0017E007F0812A5
:1045F300029D908333E004F080C0908100E0FFD1FE
:10460300F4EF700590810004F022908331E004F010
:1046130022908332E004F022ECF0A3EDF090833398
:10462300E02235F0A801FC7D0122908333E0FFC333
:1046330094062275F01CA42418F582E43481F583D2
:1046430022E57714601A14601A14601A146019149E
:10465300601924057022D17C601E5375FE021CCCA8
:10466300022B0D024845E176022F4112151F124E0F
:10467300D091EA12513F91B722D183120045EF2224
:10468300E57120E517E524C394035010E52220E3E8
:104693000BE52320E30620E50330E40DE553600931
:1046A30090830CE0C3947D401A7E819081AC7F247B
:1046B300E4F0A3DFFB7E817FAC1211B5EF30E003A2
:1046C30043750122E57724FE6008047023F1030596
:1046D3007722D17C600AF1CA6016E4F576F5772279
:1046E300E559700CF103908100E0B56003121042AC
:1046F30022EFD394185006EF60037F01227F00223C
:10470300908100E09006C593FF908100F012001D98
:1047130075591822E577B4010C908100E0FFF5602C
:10472300F161057722D17C60195375FE7E817FACE0
:10473300120360EF6020121CCCEF601AE4F576F5EB
:104743007722E55970100577E577B40602801D904E
:104753008100E0FFF16122EF9006AC93FF22F15A52
:10476300908100EFF012001D75590C2275760475C7
:104773007701229081B0E09082E7F0E4FF74B12FDB
:10478300F582E43481F583E0FE74E82FF582E434A6
:1047930082F583EEF00FEFB40EE312549512033754
:1047A300122FD4122F62022F3A7E007F0702029D3E
:1047B3007D1DE4FF0210EF7407F0A374D0F022E034
:1047C30075F01CA42410225375FE121CCCEF22C2D8
:1047D30091EF541FFF0202C3908328EFF0E014F01F
:1047E300E0245AF8E6705A9081D0F0A3E054BFF069
:1047F300E4908329F0908329E0FFC394035042128D
:104803001A5FFF908328E0FEEF6E702D9081D1E058
:10481300541F64106007E0541FFEBE1108EF121509
:10482300109081D2F07E817FD01203377E817FD0BA
:10483300908329E004FD022F62908329E004F08035
:10484300B42212175DE4FF74AF2FF582E43481F5CF
:1048530083E0FE74D92FF582E43482F583EEF00F02
:10486300EFB404E3312B9082D511FCA311FCE4FFD8
:1048730074D52FF582E43482F583E0FE74D32FF5EB
:1048830082E43481F583EEF00FEFB404E3E4FF3107
:104893001174DD2FF582E43482F583EEF031117467
:1048A300D72FF582E43481F583EEF00FEFB404DF04
:1048B300E4FF310474E12FF582E43482F583EEF0F2
:1048C300310474DB2FF582E43481F583EEF00FEFCE
:1048D300B404DF9081BBE09082E5F0311EA3740243
:1048E300F09082E5E09081DFF07E817FD012033784
:1048F300122FD4122F62022F3AE5F3F0A3E5F3F05F
:104903002274B72FF582E43481F583E0FE2274B379
:104913002FF582E43481F583E0FE229081ACE090B0
:1049230081D0F0A3741FF02275E810D2E8858CF3D0
:10493300858AF385CDF385CCF320E8FD22ED30E7BE
:1049430011A807E6FEC374819DFCD3316A40147637
:104953008122A807E6FEC3747F9DFCC3316A50031E
:10496300767F22ED26F622EE6480F8EC648098A828
:10497300072231DA123F4C123FD6123F3CE0420F7E
:104983000FEFB406F59081B1E0540FFE9081B0E0D3
:104993007C002400FFEC3EAD07FC30E30344F0FC55
:1049A3007F13123F9D9081B1E054F0C4540FFD7CFE
:1049B30000A3E075F010A42DFDEC35F0FC30E3030B
:1049C30044F0FC123F969081B3E0FD31400FA3E029
:1049D300FD3140432104229081AEE0FF7421257E06
:1049E300F582E43482F583EFF09081AFE0FF742722
:1049F300257E22510B121CBCEEF0A3EFF0510B12DB
:104A03001C9AEEF0A3EFF0229081AFE0240CFF900C
:104A130081AEE03400FE229081AEE0908305F04346
:104A23002140229081AEE090830DF0432201229039
:104A330081AFE0B44B05E57130E00B7107E0514AFB
:104A43004371205322EF22F53A53229F432204431A
:104A530071042212468351B57536829081ACE0F51C
:104A630037A3E0F538E4F539514A5322EF2251B523
:104A73007536817537F18F38EF24FE601014601C92
:104A83002402702590834CE0F539A3801590834E62
:104A9300E0FCA3E0FDECF5398D3A8009E4F53990AB
:104AA300834BE0F53A514C80057F03122D37532297
:104AB300EF22432210753410908347E0F5352271BD
:104AC30007E0F53AA3E0F53BA3E0F53CA3E0F53DB1
:104AD300A3E0F53EA3E0F53FA3E0F540A3E0F541F5
:104AE300A3E0F542A3E0F543A3E0F544A3E0F545D5
:104AF300A3E0F546A3E0F547432260514F437120FD
:104B03005322EF224322109081ADE0F534E57E0479
:104B1300F5359081AFE0F536A3E0F537A3E0F5383E
:104B2300A3E0F539A32290832A7401F0908347E030
:104B3300FF9081D2E06F701EE52220E233719A600C
:104B4300045156802B908345E075F00384E5F0F023
:104B5300A37404F0801A4322107F03719090835949
:104B6300E0FF908345E071841210FEE490832AF005
:104B730090832AE0FF22908359E0FF908345E0046D
:104B8300F075F00384E5F090000693FD22122D37B3
:104B93004371045322EF227E817FD47D1512139932
:104BA300EF22908354E09080FCF0908355E0908056
:104BB300FDF0908356E09080FEF0908357E0908064
:104BC300FFF0908358E0FFA3F0717E0210FE908106
:104BD300AEE0146006047018022D2BE57DB4FF03CC
:104BE300E48003E57D04908220F0757602757701F9
:104BF300229081AEE024FD600E1460122402701432
:104C030075760275770222757602757703227576BB
:104C13000275770422E4FF741C2FD1C7EFF00FEF66
:104C2300B403F4E4FFEF122256E4F00FEFB406F5F9
:104C3300E4908261F022E5371201894C60004C89CF
:104C4300014C9D024CC0034CCCB24D7FD04DB4D12E
:104C53004DC2D44E2BD74E64F000004EB4E539302C
:104C6300E00543710180035371FEE53930E30543E9
:104C7300720880035372F7E53930E405437210C1BB
:104C8300B95372EFC1B9E5399082C630E306E04407
:104C930002F0C1B9E054FDF0C1B9E53820E102C129
:104CA300B9E57120E002C1B9E4FF12172D30E00627
:104CB3001222BE4401F00FEFB406EFC1B990823364
:104CC300E538F0A3E539F0C1B9E57F30E002A17B17
:104CD300E53864016006E538640670429081ABE014
:104CE300C3940640079082C6E030E02EE53A9083F5
:104CF300816005E53AF08003741EF0E538B40608D8
:104D03009081F47401F08005E49081F4F0E49082E2
:104D130020F012101D908262800C7F05C1B6E53829
:104D2300B402089083817401F0C1B9E5386403705B
:104D330043E539D394065004E53970047F03C1B6C3
:104D4300E53914FF122275AF39120C981244EA1296
:104D5300449DAF3974212FF582E43483F583E04415
:104D630002F0AF3974542FF582E43482F583E044C2
:104D730004F0C1B97F03C1B67F02C1B6E53864014F
:104D8300702A437F01FE7F01FD7B017A83797E12C6
:104D930001B5E4F576F5777FE112117A908381E02E
:104DA3007002C1B9E4D1CF12175DC1B9537FFEC1FF
:104DB3004DE57F30E00512143AC1B97F02C1B6E573
:104DC3007F30E060D1EA120FD19410EE940050507E
:104DD300EF9400EE940040487F7C1209D390832A1D
:104DE300120E91700EFE7F10FDD1E190835C747CF6
:104DF300F0801790832A120E82C002C001785C7C77
:104E0300837D01D001D002120E61908328A3E02498
:104E13005CF582E43483F583E53AF0120E20C1B9E0
:104E23007F03C1B67F02C1B6E57F30E030E538705D
:104E330002C1B924FC601024FE60192405701A1203
:104E43000F7A120B42806F120D351244EA91181239
:104E530044B78062120B6D805D7F0380567F0280B2
:104E630052E538B4490FE539B4430AE53AB450057D
:104E7300437F108041E538B44C1FE539B4541AE53B
:104E83003AD394004007E53AD394064005E53AB493
:104E93007507AF3A122587801DE538B4580FE539F9
:104EA300B4490AE53AB454051244DB80097F038010
:104EB300027F02122D37E536648F6007E4F538F57B
:104EC30039F53A22F582E43482F58322F09082C6E2
:104ED300E054FEF05372FB227E007F107D007B01C5
:104EE3007A83795C0201B5AF39EFFFAD38ED90837A
:104EF30028CFF0A3EFF022D1DB90835C7403F1128F
:104F03007B017A8079FC1247AC020E2090835CF01F
:104F1300785D7C837D0122908329EFF0A3EDF0D1AE
:104F2300DB90832AE024FE601E14602F146040246B
:104F3300037054908329E02420F10F7B017A827956
:104F4300C87E007F0D803A908329E02430F10F7BE7
:104F5300017A8279DD7E007F098026908329E0240F
:104F630040F10F7B017A8279E77E007F0F801290F8
:104F73008329E02450F10F7B017A8279F67E007F4A
:104F83000E12029D120E202212004DE4908329F08E
:104F93007E007F11D1DF908329E0FF90835CF0EFE7
:104FA300125510C002C001F113D001D002120E61DC
:104FB300908329E0FF1250E012526E40D322E4FFA7
:104FC30012206DE0B40301220FEFB403F37F00223C
:104FD300F11A908328E0FF22E57220E1030250AB2F
:104FE3005372FD9081F7E0F9F46003025083A3E06C
:104FF300247F605E14607B2402600201AB9081FA1F
:10500300E0FFF46003EF7007908261EFF08006EF3A
:1050130004908261F0E4FB74017E00A8030880051C
:10502300C333CE33CED8F9FF9081F9E0FDEF5D6055
:1050330015EB122256E07014EB1222567401F0AFF6
:105043000312263C8006EB122256E4F00BEBB40667
:10505300C622437201E4FB74552B121730FF30E074
:105063000874552B11B34402F00BEBB406E94371FA
:1050730080229081F9E06004437220225372DF2280
:105083009081F8E024F27020E914FB9081F9E0FFAD
:10509300745B2B123779EFF0E4FF121A5FB5030349
:1050A300021FB40FEFB403F22290832CE0FD2455CA
:1050B300F582E43482F583EF22EF7A6C60027A6E34
:1050C3007B007F1F74102BFBE43AFA8B82F583E09D
:1050D300B505078A7B8B7CF46002DFE822EF11E9D8
:1050E300FE7D11020C2275F020A42400FFE5F034AC
:1050F300702290833AEEF0A3EFF0ED11E9FE0FBFBB
:1051030000010EAA06A9077B01C00290833AE0FEC4
:10511300A3E0AA06F8AC027D01D0027E007F100254
:10512300029DE4908329F0908329E0FD511FAF8213
:10513300FE11F5516E40F022F0124F8BE49083394B
:10514300F0908339E0FDC394064002411C7E837FC7
:105153002911F5908330E0FF908339511DF583EFDA
:10516300F090832AE0F4FFEE5185EFF0908329124B
:105173001725122FDBF583EFF090832C12172512DE
:105183002FE3F583EFF0908333121725512AF5832C
:10519300EFF090832BE0F4FFEE5192EFF090833227
:1051A300E06455FF5179F583EFF0908337121725AB
:1051B300515AEFF09083311217255132F583EFF0F6
:1051C30090832F121725513AF583EFF0908335E042
:1051D300F4FFEE519FEFF090832E1217255142F505
:1051E30083EFF0908336121725514AF583EFF09041
:1051F3008338E06455FFEE51ACEFF090832D121726
:10520300255152F583EFF09083341217255164EF43
:10521300F0908339E004F0214422E0FEC454F024EA
:1052230066F582E4348222246AF582E434822224FD
:105233006EF582E4348222246FF582E434822224E0
:1052430071F582E43482222472F582E434822224CA
:1052530074F582E4348222246DF582E43482F5838A
:10526300222475F582E43482F58322908329E004B5
:10527300F0E0C3940622EEC454F0246CF582E434C7
:105283008222C454F02467F582E43482F58322C475
:1052930054F0246BF582E43482F58322C454F02461
:1052A30070F582E43482F58322C454F02473F582CA
:1052B300E43482F58322D291121739D2902290835B
:1052C30031EFF01246F4EF700590833104F09083D0
:1052D30031E090069393FF2251C1AD077F052290E1
:1052E30083327103D3942040037420F0C2917F6111
:1052F3001202C3908332122FA6FD120313D29122FE
:10530300EEF0A3EFF0A3EDF022E4FF12448CEF5490
:10531300FDFDE4FF1210EFD28422C290C2917F60A0
:105323001202C31202D9D291D29022908346E07F17
:10533300017001FF227166C002C00178D17C817DBA
:1053430001D001D0027154715B4003E4F578D2AF10
:10535300227E007F1402029DE4F5790578E578C387
:10536300940C22C2AFE57875F015A42401F974807A
:1053730035F0FA7B012290835AE04402F04401F0B5
:105383002290832DEB912A9081B6E0908374F09064
:1053930081B7E0908375F09081B8E0908376F090C8
:1053A30081B9E0908377F075E810E4F5F5F5F67FC1
:1053B30010EFD3940040251F90832DE0FBA3E0FA68
:1053C300A3E0F98F8275830012009EF5F1746D2FAF
:1053D300F582E43483F583E0F5F380D5D2E820E861
:1053E300FD912191219081B5E065F3F09081B4E0C6
:1053F30065F3F09081B3E065F3F09081B2E065F37B
:10540300F09081B1E065F3F09081B0E065F3F09046
:1054130081AFE065F3F09081AEE065F3F022AFF386
:10542300AFF3AFF3AFF322F0A3EAF0A3E9F02290D6
:10543300836D7404F0A37414F0A3741DF0A3741F9C
:10544300F0A37427F0A304F0A3740DF09083787491
:105453000AF0A3740DF0A37413F0A37426F0A374DD
:105463000EF0221202C37FFF1202C37FFF1202C398
:105473007FFF1202C37FFF1202C37FFF0202C390AA
:1054830080FCE0F56CA3E0F56DA3E0F56EA3E0F519
:105493006F229081ACE09081D0F0A3740FF0A374DD
:1054A30006F0A37402F0A304F07E817FD022E4F51A
:1054B3003A8F3985373885363775341075368F53BB
:1054C300229F227D007B017A8179AF7E007F0602D5
:1054D300029D90832BE0FEA3E0F5828E83E022758C
:1054E300F01CA42413F582E43481F583E0FF222524
:1054F300E0540690837DF0E0AE054EFD7F0622F07A
:10550300C290C291EF541F4420FF0202C375F010F2
:10551300A42466F9748235F0FA7B012274162FF500
:1055230082E43482F58322EB9582E5836480F8EA92
:10553300648098A8072275F01CA4240AF582E43439
:1055430081F583E022F0A3E526F0A3E527F0A3E5A8
:1055530028F0A32274352568F56874053567F56767
:1055630022E4908345F0908359E0FFE422C2917FC7
:10557300A00202C3D291D2907F0A121422C29022B7
:105583009CFAA807E6F58308E6F582222412F58241
:10559300E43481F583E022745A257EF8E6FFC39450
:1055A3003022F090000DE0540F4490229081AEE041
:1055B300FF742D257E22F582E43483F583E4F02203
:1055C300D3ED9400EC6480948022FF74017E00A8E4
:1055D30007082290832BE0FEA3E0FF2204FFAE0422
:0555E3000C74002E22F3
:0267FE00811404
:1074000002756EBB010689828A83E0225002E72260
:10741000BBFE02E32289828A83E49322BB010689B0
:10742000828A83F0225002F722BBFE01F322C2D5EA
:10743000EC30E709B2D5E4C39DFDE49CFCEE30E7F7
:1074400015B2D5E4C39FFFE49EFE12749CC3E49D75
:10745000FDE49CFC800312749C30D507C3E49FFFBD
:10746000E49EFE22A42582F582E5F03583F5832291
:10747000D083D082F8E4937012740193700DA3A3AB
:1074800093F8740193F5828883E4737402936860BF
:10749000EFA3A3A380DF8A838982E473BC000BBEC1
:1074A0000029EF8DF084FFADF022E4CCF875F008F0
:1074B000EF2FFFEE33FEEC33FCEE9DEC984005FC25
:1074C000EE9DFE0FD5F0E9E4CEFD22EDF8F5F0EEED
:1074D0008420D21CFEADF075F008EF2FFFED33FDD8
:1074E0004007985006D5F0F222C398FD0FD5F0EA78
:1074F00022EFF87FFF900000E87908C36F548060A6
:1075000007EF33648DFF8003EF33FFC3E833F8D90F
:10751000EAA3E0F8E583B468DF22EFF87EFF7FFF9F
:10752000900000E87908C36E5480600CEF3364214A
:10753000FFEE336410FE8006EF33FFEE33FEC3E848
:1075400033F8D9E2A3E0F8E583B468D722900001CC
:10755000E02FFFA3E583B468F722900001E0FEA3CB
:10756000E02FFFA3E03EFEA3E583B468F322787F1B
:10757000E4F6D8FD758139027671FF7D9AFF7E6150
:10758000FF7E77FF7E61FF7E77FF7E76FF7DA5FF22
:107590007E77FF7D88FF77E2FF7D91FF7E77FF7E1C
:1075A00077FF7E77FF7E77FF7E7706B0FF0901A128
:1075B0000175089520150026FF00090181000901C9
:1075C0009100C012010002000000206D04AAAA026E
:1075D00001010200010902220001010480310904B5
:1075E000000001030000000921110100012219001F
:1075F000070581032000010403090412034C006FF6
:10760000006700690074006500630068001E035590
:107610000053004200200042006F006F0074004CD5
:10762000006F0061006400650072001E0342004F9D
:10763000005400300031002E00300032005F004264
:107640000030003000310035006E524632344C5567
:10765000312B207265762E204100456E74657220B4
:107660004943500075B5FFE4F5AB75AC4075AD0806
:1076700022C2AF759002758E02F1DAD16475803046
:10768000E4F595F5C9759420F5F57F0AF524E52410
:1076900090765A93B5F2011F0524E524B40AEF90C1
:1076A0000000E0B40207A3E0D394674002E4FF3097
:1076B0008509C284208504E4FF80035394DFC284DB
:1076C000EF600E900001E0FEA3E0FDEDAA06F99147
:1076D000967F08743A24F8F524E524D39400400BEF
:1076E000AE070FA806E4F6152480EE90C7D6E0207A
:1076F000E308E04408F07FFAF1ACF12190C7D6E04E
:1077000054F7F0F1AA30C403127860E539B40102ED
:10771000F121E537B401EC90C7B6E070E6F1DA800C
:10772000FEE4F539F537F53675A0407F01F1ACE49C
:10773000F5A090C7AE741DF090C7E0E4F0A3F09000
:10774000C7AC04F090C7DEF090C7ADF090C7DFF093
:1077500090C7A9743FF0A3F090C781F19690C788B5
:107760007430F0A3F19690C7E27418F090C7F0E47B
:10777000F090C7F87408F090C7E37404F0C2BBD26D
:10778000BC90C7AB741FF07F0190C7D7EFF02440C7
:10779000F00FBF06F4227410F0A37420F0A374302D
:1077A000F0A37440F0A37450F022C1678F25E4F574
:1077B00026F527C3E5279525E5269400501BF1AA59
:1077C000E4FFFE000FBF00010EBE05F7BF7BF4050E
:1077D00027E5277002052680DA2290C7D6E0440804
:1077E000F022127E43F18775360590C7B47412F00B
:1077F00022E4F53690C7B47411F02275360590C7AF
:10780000B47410F02290C7B6E0705390C6C0E0F593
:107810003090C680F090C6C1E0753200F53190C658
:1078200081F090C6C2E0423290C682E532F090C646
:10783000C3E0F533D3941C400375331C90C683E436
:10784000F07528017529C6752AC4F52B85332CFBE4
:107850007A00790871BF315990C7B77420F0809BC6
:10786000C2C490C7A8E012747078A00078AA047807
:10787000B10878B80C78BF1078C91878E91C79106D
:107880002079102479102879302C7910307930340F
:1078900079103879303C7910407930440000794FC4
:1078A000E4F53690C7AB04F0813C90C7AB7402F0AE
:1078B0002290C7AB7404F02290C7AB7408F02290FA
:1078C000C7AB7410F07539012290C7A97401F0E5B7
:1078D0003624FD60062402700981DA90C7B4741062
:1078E000802990C7B47411802290C7AA7401F0E572
