:0A0000000203BA0080FD05264A2223
:07000B0080FE75B5FF8025A2
:0700130080FE80200217F6B9
:10001B0080FEE4F5640230DC80FEE5755401FF22BE
:10002B0080FE456E7465722049435000E4F5AB7554
:06003B00AC2075AD0822A7
:0F00430080FE12566102127B80FE7F38021B2E58
:0200530080FE2D
:03005B000228C2B6
:030063000239302F
:03006B0002287DEB
:10007300046DC52B1208003003D403D803EAFFFF35
:100083000404BB010689828A83E0225002E722BB73
:10009300FE02E32289828A83E49322BB010CE58278
:1000A30029F582E5833AF583E0225006E92582F8B3
:1000B300E622BBFE06E92582F8E222E58229F582E3
:1000C300E5833AF583E49322BC000BBE0029EF8D50
:1000D300F084FFADF022E4CCF875F008EF2FFFEECB
:1000E30033FEEC33FCEE9DEC984005FCEE9DFE0FD9
:1000F300D5F0E9E4CEFD22EDF8F5F0EE8420D21C34
:10010300FEADF075F008EF2FFFED33FD400798507B
:1001130006D5F0F222C398FD0FD5F0EA22C5F0F818
:10012300A3E028F0C5F0F8E582158270021583E09C
:1001330038F022A3F8E0C5F025F0F0E582158270CF
:10014300021583E0C838F0E822EB9FF5F0EA9E42FF
:10015300F0E99D42F0E89C45F022E8600FEFC333DD
:10016300FFEE33FEED33FDEC33FCD8F122ECF60861
:10017300EDF608EEF608EFF622ECF0A3EDF0A3EEB1
:10018300F0A3EFF022A8828583F0D083D0821201FE
:100193009F12019F12019F12019FE473E493A3C571
:1001A30083C5F0C583C8C582C8F0A3C583C5F0C5A0
:1001B30083C8C582C822D083D082F8E493701274B6
:1001C3000193700DA3A393F8740193F5828883E4DC
:1001D300737402936860EFA3A3A380DF8A83898289
:1001E300E473EF4E6012EF60010EEDBB010B8982E9
:1001F3008A83F0A3DFFCDEFA2289F05007F709DFD8
:10020300FCA9F022BBFEFCF309DFFCA9F022E709FD
:10021300F608DFFA8046E709F208DFFA803E8882B3
:100223008C83E709F0A3DFFA8032E309F608DFFAEB
:10023300806EE309F208DFFA806688828C83E30923
:10024300F0A3DFFA805A89828A83E0A3F608DFFAF3
:10025300804E89828A83E0A3F208DFFA804280D24B
:1002630080FA80C680D4805580F28029801080A6D1
:1002730080EA809A80A880DA80E280CA8029888414
:100283008C8589828A83E493A30592F0A31592DF78
:10029300F5DEF3800B89828A83E493A3F608DFF902
:1002A300ECFAA9F0EDFB2288848C8589828A83E0AD
:1002B300A30592F0A31592DFF6DEF480E389828A28
:1002C30083E493A3F208DFF980D688F0EF60010E90
:1002D3004E60CD88F0ED2402B4040050C3F582EBE8
:1002E3002402B4040050B92323458223900261738E
:1002F300780030AF04C2AF78018FE5C2C030C0FDD3
:10030300E86002D2AF22780030AF04C2AF78017543
:10031300E5FFC2C030C0FDAFE5E86002D2AF22ED19
:10032300601D780030AF04C2AF78018E838F82E006
:10033300F5E5C2C030C0FDA3DDF5E86002D2AF220F
:10034300ED6020780030AF04C2AF78018E838F82D6
:1003530075E5FFC2C030C0FDE5E5F0A3DDF2E8605E
:1003630002D2AF228E838F82A3E08E838F82541FAB
:1003730070047F04800BD3941050047F0980027FA4
:10038300157E00E02EFEA3DFFAF404F0228E838FA5
:1003930082A3E08E838F82541F70047F05800BD36A
:1003A300941050047F0A80027F167E00E02EFEA385
:1003B300DFFA70027F012278FFE4F6D8FD90800017
:1003C3007F007E08E4F0A3DFFCDEFA75817F02077D
:1003D300560403090412034C006F0067006900749C
:1003E300006500630068001A0355005300420020B3
:1003F30000520065006300650069007600650072C5
:10040300001E03520051005200310032002E003012
:100413000038005F0042003000300033003000300D
:100423007F32E0001D32E0001D37F53813001D3B1D
:100433002031F933F53364001D001D001D001D80BC
:1004430000FF00FF0080008000800080FFFFFF05A9
:10045300010906A101950875011500250105071974
:10046300E029E78102810395050508190129059112
:100473000295017503910195067508150026FF0085
:10048300050719002AFF008100C005010902A10127
:1004930085020901A10095107501150025010509C3
:1004A3001901291081029502750C1601F826FF0720
:1004B3000501093009318106950175081581257FEC
:1004C300093881069501050C0A38028106C0C0056A
:1004D3000C0901A101850395027510150126FF0280
:1004E30019012AFF028100C005010980A1018504C9
:1004F300950175021501250309820981098381008C
:1005030075068103C006BCFF0988A1018508950112
:100513007508150126FF00190129FF8100C0060097
:10052300FF0901A101851095067508150026FF0036
:100533000901810009019100C00600FF0902A10120
:10054300851195137508150026FF0009028100091E
:10055300029100C00600FF0904A1018520950E75D4
:1005630008150026FF0009418100094191008521FA
:10057300951F0942810009429100C0120100020047
:100583000000086D042BC508120102000109025482
:1005930000030104A0310904000001030101000963
:1005A3002111010001223B0007058103080008090E
:1005B3000401000103010200092111010001229439
:1005C300000705820308000209040200010300007A
:1005D30000092111010001225D00070583032000AA
:1005E300020452003B048D00940521005D021208B1
:1005F3000030880204010000000000000003010233
:1006030003040106060000000000000000200108AA
:100613004001040001000000000000000021020866
:100623004002040001000000000000000022030853
:100633004003040001000000000000000023040840
:10064300400404000100000000000000002405082D
:10065300400504000100000000000000002506081A
:100663004006040001000000000000000030010209
:1006730003040000000000000000000000001D341F
:100683003033D93413001D001D001D001D001D4013
:10069300B0338B31B6001D001D001D001DFF80808F
:1006A30080FFFFFFFFFF000000FFFFFFFF11FF0AB6
:1006B3000000000000000000000000000000000037
:1006C3000005080B0E1114171A1D202326292C2FA1
:1006D3003235383B3E4144474A01040506010203D3
:1006E3000A0B0C0D0E090A0B120D0E0F1617181319
:1006F3001415200620072008200A200B200C200DAB
:10070300201020112012201520174002400F401204
:10071300402A41020000000000000000010A0B0013
:100723000D0E000000001415001718000000000053
:10073300020400050175A380C2B9C290C2B875E670
:1007430010D29222110DF138758038E4F595F5C970
:10075300F59422C2AF759002758E02125A3FF1478B
:100763001227ED7F0F121008121067E5B130E00574
:100773007FEB120FFB121D1A90C7D6E020E309E0AE
:100783004408F07FFA1210087F0112292090C7D67F
:10079300E054F7F0D2AF12107BE57F30E505E4FFBC
:1007A300122920E57F30E108537FFDE4FF12436304
:1007B300E55030E112E563700E9083C9E07008E5FF
:1007C3007220E603122848E57F30E206537FFB12CE
:1007D3001067E57F30E306537FF712563FE550304D
:1007E300E5B4124EDC12306C125764EF600AE57107
:1007F30030E3A31213C3809EE57130E30291B91174
:10080300068093E52330E21C5323FBE4908370F0CE
:10081300F1C99403500E31D9245AF8E67002517489
:10082300F1D180ECE4908370F0F1C99403502D3141
:10083300D9FF245AF8E67020047E00A80708800533
:10084300C333CE33CED8F9FF9081F5E0FDEF5D6081
:1008530007908370E0FF118BF1D180CD9082A9E0E6
:10086300B4010DE4F0FFEFF1DFE4F00FEFB406F6AF
:10087300E57960131214EDEF30E00C7FE1121356AB
:10088300E4F57AF578F57922AD07E579600221A0E0
:10089300EDC39403400221A0E57A75F015A4FC741E
:1008A3001C2D31DC1259FE31A8EF31A1740F31A197
:1008B3007405F0ED1259FE31A8EFF0ED1460141435
:1008C300601C2402600221A031A2742731A174D4D8
:1008D300F0801431A2743631A174E4F0800931A29E
:1008E300744531A174F4F0E57230E30A74002C31DD
:1008F300A87401F0800774002C31A8E4F0741C2D57
:1009030031DC1259D18005C333CE33CED8F9FF90F1
:1009130081F5E0F9FBEF5B601C741C2D31DCF1ED1C
:100923008002C333D8FCF4599081F5F074002C3164
:10093300A8E04402F0741C2D31DC1259D18005C3A8
:1009430033CE33CED8F9FF90827BE0F9FBEF5B60C7
:100953001C741C2D31DCF1ED8002C333D8FCF45937
:1009630090827BF074002C31A8E04404F00C741CDA
:100973002D31DC125919FF74002C31A8EFF00C74DF
:100983001C2D31DC1258F974002C31A8124E7A4018
:1009930003E4F57A124FB5B57A0375790122F0AF06
:1009A300040C74002FF582E43480F58322E57A7514
:1009B300F015A4FDEE04FEAC050D74002CF582E4E5
:1009C3003480F583EEF0AE050D74002EF582E43429
:1009D30080F583740EF0741C2FF582E43482F58362
:1009E300E022908373EFF012517E908374EFF0E076
:1009F300FE241C31DC711E7403F0A374E8F0741C34
:100A03002E31DC913FE4F0A3F0908374E0FE241CCC
:100A130031DC245AF87601908373E0FD741C2E12A6
:100A23005A1FEDF0ED12582DE0FCA3E0FD90837307
:100A3300E0FE711EECF0A3EDF0EE711EE0FCA3E00E
:100A4300FDEE913FECF0A3EDF0EFC39403500EEEF7
:100A5300F19AFD908374E0240BFF1217DC908374EA
:100A6300E0FF118B908374E0FF5174908374E0FF77
:100A730022E579702131D9FE12267A30E61831B099
:100A830012589C31A8124E7A4003E4F57A124FB5FE
:100A9300B57A0375790122908372EFF0E4FA741C3E
:100AA3002A31DCFFF19AFE908372E0FDEE6D70292E
:100AB300F18D30E0248A7D741C2A31DCF57E710AC5
:100AC300EEF0A3EFF0711C9138EEF0A3EFF0AF025C
:100AD300118BAF0251747F01220AEA640370BFE4F1
:100AE300FFEFF19AFE908372E0FDEE6D60050FEF6C
:100AF300B406EEEFC39406500B31E58F7D31D9F583
:100B03007E7F01227F002275F01CA42418F582E465
:100B13003481F583E0FEA3E0FFE57E75F01CA42499
:100B23001AF582E43481F58322E4908371F0E57D44
:100B3300B4FF197E817FAC120390EF70028132F112
:100B4300C2641F60028132124B638132E57D64030C
:100B53007027E57230E2227E817FAC120390EF7042
:100B6300028132F1C2FFBF0F031250FCF1C2641FB6
:100B73006002813212515A8132E57D6403701BF1A8
:100B8300C2FFBF0F07A3E0B4070281329081ACE03C
:100B9300FF519A908370EFF08002F1F4908370E03C
:100BA300700281327E817FAC120390EF700281323A
:100BB300E57DC394035078122334908371EFF09052
:100BC30081ADE030E723E57E710AEEF0A3EFF0E5B7
:100BD3005030E107913D1247338009711C9138EE83
:100BE300F0A3EFF04350018009711C9138EEF0A39C
:100BF300EFF012599F401FEF601C749D257EF1900A
:100C030030E013E57130E00A746A257EB17BE0447D
:100C130001F0AF7D517412599F4012EF600FF1DD67
:100C2300E0600A746A257EB17BE04404F0E4F69048
:100C33008371E0FF22E0FEA3E0FFE57E75F01CA4D4
:100C4300241CF582E43481F58322E57F20E066E409
:100C5300FF31D9F9913FE0FCA3E04C7052745A295B
:100C6300F8E6704BE57664036039F1F4E4FEEF6E69
:100C73006020741C2E31DC711EE0FCA3E0FDE971E1
:100C83001EE0FAA3E0C39DEA9C4007E4908370F062
:100C930080050EEEB403D7908370E060067576038B
:100CA300757701E9711E124733745A29F876010FDB
:100CB300EF6403709C22E576B4051BE5776403605B
:100CC30002A1757F07124338EF20E602A1751217C0
:100CD300F07FE2021356124C1FE57624FE607A146D
:100CE300607A14607C24046002A170123E25600ABD
:100CF300123FD26005E4F576F577E578657A6031E1
:100D03001214EDEF20E02A12579CC002C00178D1E3
:100D13007C817D01D001D00212578AE578124FDD24
:100D230031A8E0FF124BB51257914003E4F578D296
:100D3300AFE57F20E0217F01E4FE741C2E31DC242B
:100D43005AF8E6D394C85004E4FF80050EEEB403CA
:100D5300E9EF60031246CC814D023D0A914D0246F4
:100D6300D3E57F30E004E4F57622023E7FE4F576B6
:100D7300F5772276FF746A2FF582E43483F58322B4
:100D8300E4908370F0F1C99406506CF18D30E06308
:100D9300908370125A2FF582E43481F583E0FE903C
:100DA3008325E0FDEE6D704BEF75F01CA42411F567
:100DB30082E43481F583E0FF908326E0FEEF6E70DA
:100DC30032908370E0FF125919FE908327E0FDEE05
:100DD3006D7020EF1258F9908328E0FEEFB50613EB
:100DE300908370E0FF246AB17BE04402F18C4404F9
:100DF300F08004F1D1808E908370E06406704BFF25
:100E0300F18D20E007908370EFF080050FEFB406BB
:100E1300EF908370E06406703190830EE030E0233E
:100E2300E4FF908103E0FEE4908370F0EFF19AFD1C
:100E3300EED39D4007AE05908370EFF00FEFB4063D
:100E4300EB80079083C97401F022E49083C9F0F525
:100E530076F577908317E020E002E117125345906F
:100E630080FCE0FF90837012535BF583EFF090807A
:100E7300FDF1851255B1EFF09080FEF185125526F4
:100E8300F583EFF09080FFF18512552EF583EFF097
:100E9300908312F185125536F583EFF0908313F1A9
:100EA300851255BEEFF01255A2F5837488F0EEC497
:100EB30054F01255837402F0908321F18512553E4C
:100EC300F583EFF0908322F185125546F583EFF019
:100ED300908323F1851255CBEFF0908324F1851293
:100EE300554EF583EFF090831DF185125556F5832A
:100EF300EFF090831EF1851255D8EFF090831FF128
:100F03008512555EF583EFF0908320F18512558DA0
:100F1300EF125368908310E0908102F01255F19024
:100F23008370E0FF7D011255667D021255667D03D5
:100F33001254B590833EE0600A908370E0FF7D0415
:100F43001254B55372FE908370E0FF249DF19044D8
:100F530002F0745A2FF8E4F6E57130E014908370D0
:100F6300E0246AB17BE04401F0E49082AAF04323D9
:100F730002908370E0FFF1DFE06006B178E04404A3
:100F8300F022E0FFEEC454F022F0749D2FF582E4CA
:100F93003482F583E022E075F01CA42403F582E497
:100FA3003481F583E0227E007F207D007B017A82FD
:100FB300797D1201E59081ADE0541F90827FF0901E
:100FC30081ADE0541F22908370E0FFC322F0908331
:100FD30070E004F022AF7D1224F0E57E75F01CA4CE
:100FE300241EF582E43481F58322FF7401A80708E7
:100FF300229083707401F0221210087FFA11087F87
:10100300FA11087FFA908374EFF0E4A3F0A3F09051
:101013008374E0FFC3908376E09F908375E0940030
:101023005022120015E4FFFE000FBF00010EBE05A3
:10103300F7BF7BF4908376E004F07006908375E04D
:1010430004F080CB22C2AF125A3F11677FFA120F0E
:10105300FBE4F5F5FFEF90002D93F5F20FEFB40AE3
:10106300F4027400D291125668C29022437F081290
:10107300420C124218124153120015AF8CEFFCAF11
:101083008AEFFDECFFEFB58CF2C3ED9568FDEC95AF
:1010930067FC31CF500221CE12282974CB2DFD7469
:1010A300FA3CFCE569D3940040021569E55020E160
:1010B30020E4FF1209D9FE120C3FE0FAA3E04A60D4
:1010C3000BEE120C3F74FFF5F01201200FEFB40387
:1010D300E2E55960021559E56360021563E4FF74A4
:1010E3005A2FF8E6FE6004F46001060FEFB406EF32
:1010F300908390E004F031CF509EE5697057756995
:1011030004E56A94004002156A121FF9EF60249007
:1011130083C9E0701E9083C8E07018E57F20E01358
:10112300A3741EF0E49081F4F090830EE04401F088
:10113300122025E4FF74542FF8E6600874552FF845
:10114300E66001160FEFB401EC908354E0D3947D75
:101153005003E004F0E56A7014756A19E56BD394E3
:10116300004002156B9083C8E0600214F0E56B70D9
:101173005A756B0A9083C6E030E008E57F30E003E0
:1011830012422D9083C9E0602014F0B283E07019FD
:1011930090830EE054FEF0E57130E00343230253E5
:1011A30072FBE4F576F577F1D89083C9E07002D24B
:1011B300839082A9E0D394014003E014F09083A3C9
:1011C300E0600814F0E0700312575122D3ED94004D
:1011D300EC6480948022908373123CAAA374C8F0B9
:1011E300E4A3F0A3F091B87FE1715612595E9083A6
:1011F30075E0601D125883FF1202F3908375E014AB
:10120300F0908374E004F07006908373E004F08040
:10121300DD12596591ED908377EFF0908376E014BA
:10122300F07F6491CA120015117B908377E020E56B
:101233000920E406908376E070DA7D307F07517BE6
:10124300908376E0600BA3E030E606A37401F080A0
:1012530005E4908378F0E4908390F0908378E0FF46
:1012630022FD7F06517B7D707F07517B7FE27156A4
:101273007FE171567D037F03C290B1D5D290229155
:10128300B812472C7D1F7F01517B9083C9E0600416
:101293007D1F80027D1E7F02517B5177E4FD7F0419
:1012A300517B908100E0FF125661517BE57F30E076
:1012B300047D0980027D0F7F06517B756CBB756DC4
:1012C3000A756EDC756FA57570757D6C7B057F0A7D
:1012D30012430B124B3B90821C120F99F570124371
:1012E3000590821D120F99FD7F0C517B90821E1277
:1012F3000F99FD7F0D517BE4FD7F0E517B7D067FB2
:101303001D517B7D1F7F1C517B7FE271567FE171F5
:1013130056F1F0B1FFD29022908375EFF0A3EDF078
:10132300D29191B87D3CE4FF517B7D017F01517BDC
:1013330090837691E77D0F5165125A107D3F7F04AC
:10134300517BC2917F30D18BC2917F2AD18BB1FF68
:10135300D29022C290C2911202F3D291D2902291E2
:10136300B87D7291DA9083C5E044195164C2917FCC
:10137300301257E7D29112595E9083797401F07F4E
:10138300FF1202F3121FC8E0C3942140F212596501
:1013930091EDEF20E50512001580F5F1F0D2907F75
:1013A300E380B091B87D7391DA125A109083C5E04F
:1013B30044095164C2917F2A1257E7D291D29022F5
:1013C30090838EE024FE605214606B147002817A65
:1013D3002403600281B77E837F707D01B1F3605285
:1013E300D1B99081ADE020E40281B778917C837D0F
:1013F300017B017A8179AD121E4E9080FCE0B4DE50
:1014030014A3E0B4AD0FA3E0B4DF0AA3E0B40A056C
:101413001257BA81B11257AF807B7E837F70E4FD90
:10142300B1F3600ED1B99083A2E020E1031257AF6C
:101433008063D123611BE578657A602A91EDEF2003
:10144300E0249083A37406F012576E9081D4E024B5
:101453000F600B240F705DD13AEF7058805090816C
:10146300D5E0FF02504491EDEF20E048908390E0F7
:10147300D39448403F803790838DE0C39415500246
:101483008001C35017D123711BE52220E226125994
:10149300896021D1FC90838E7403F02212001743DC
:1014A30022107F091247D8125745D12E711B908302
:1014B3008E7402F022C2907F0191CA30C1087FFA74
:1014C30091CA7FFA91CA22E4FEEEC39F500800003E
:1014D3000000000E80F322E4FF517BE4FD7F015105
:1014E3007B9083C7E0FD7F05417BC291120309D244
:1014F3009122908373EEF0A3EFF0E4908377F020D2
:10150300C107E57120E402A1CFB1E2E0FF540EFE72
:10151300C313908378F0EF20E605E06407605B90E7
:101523008378E0D3940450527D407F07B1D512569F
:1015330079908376EFF070028014908376E0D394F1
:101543002440117424F01259E37D24123C8A7FE273
:101553007156800B1259E3908376E0FD123C8A901A
:101563008378E014F0E0FFF57DC39403500512097E
:10157300D9F57E908377E04401F0908375E030E500
:10158300077D20B1EA4402F0908375E030E4077DE3
:1015930010B1EA4404F07F0020C1027F01908379F7
:1015A300EFF0B1E27F0020C1027F01908379E06F09
:1015B3006002B1E2908375E0540EC313908378F018
:1015C3006407600543711080035371EF908377E0E4
:1015D300FF2290837BEDF012595390837BC1B1912D
:1015E300ED908375EFF0227F07B1D5908377E022EA
:1015F300D10F7E837F707D0231D9EF22E4FF124346
:1016030038EF4402FDE4FF517BC284228F828E8334
:1016130074E2F0ED7F0060027F10EF4408A3F02234
:101623009083A1E0FF90838DE004F075F00384E5DF
:10163300F090000693FD229083727401F090838FE3
:10164300E0FF9081D2E06F701FE52220E23412594F
:10165300896004D1FC802B90838DE075F00384E5D1
:10166300F0F0A37404F0801A4322107F031247D8CA
:101673009083A1E0FF90838DE0D12E711BE49083D2
:1016830072F0908372E0FF221202F3908375E0FF01
:101693001202F39080FFE0FF1202F39080FEE0FF5E
:1016A3001202F39080FDE0FF1202F39080FCE0FF52
:1016B3001202F3D29122E57120E517E524C39403C6
:1016C3005010E52220E30BE52320E30620E5033059
:1016D300E40DE5536009908354E0C3947D40197E83
:1016E300819081AC7F24E4F0A3DFFB7E817FAC910A
:1016F300F5EF30E00343750122D1B91250EF75368F
:10170300829081ACE0F537A3E0F538E4F539125067
:10171300385322EF22E53824FE7002E1D12402601F
:1017230002E1D7E539146070147002E1B614700257
:10173300E1C024036002E1D7E53A701275760575BE
:1017430077019083C6E054FEF054FDF081B8E53A8A
:10175300B4010F7576057577029083C6E054FDF0EA
:101763006162E53AB4020F7576057577039083C617
:10177300E04402F061A6E53A64037058F576F57724
:1017830090811AE0FFA3E0A3CFF0A3EFF0E4F55AB2
:1017930090821CF0537FFE22E53A9083C6B4FF0586
:1017A300E04401F022E054FEF0A3E53AF0E0FD7FCF
:1017B30005801F124340E53A125909417BAF3A12A3
:1017C30047E1EF70047F018002AF3A020045AD3A72
:1017D300AF39F1DC227D1E7F02908379EFF0A3ED18
:1017E300F091B8908379E0FFA3E0FD417B7D707FAA
:1017F30007417B9083A2E054FDF04401F0227F0077
:101803002085027F0122E5371201B9184A001878B2
:1018130001188702189F0318B1D018BFD4192FE4F9
:10182300193EE61830F0194DF1000019ACE4F53813
:10183300F539F53A125764EF700221B175384C75DA
:10184300395490838F2103E4F538F539F53AE5717E
:1018530054014239AF72EF1313125994AF72EFC4AC
:101863005401C454F04239AF72EFC4135401C4336A
:1018730054E0423922E4F538F539F53A90830EE025
:10188300C3025994E4F538F539F53AF539FF120FE7
:101893008D30E00205390FEFB406F322E4F538F595
:1018A30039F53A90827BE0F538A3E0F53922E4F587
:1018B30038F539F53AE57F5401F538221258E985B0
:1018C3003838853939C3E09410908370E094005020
:1018D3001A7F7C31B2EF4E700221A8908370E0FC36
:1018E300A3E02FF582EE3CF58380151258DFEE94CA
:1018F3006C4011D3EF94FFEE946F50088F828E8368
:10190300E0F53A221258DFEE94FE401ED3EF94FF27
:10191300EE94FF5015E02400F0908370E03402F061
:10192300D2FB125886F53AC2FB228079E57F30E07C
:101933007811018F38E4F539F53A22E4F538F539B1
:10194300F53AE573F53885743922E53824FE6011DC
:1019530014601514602E2403704B753912753A0800
:1019630022E4F539753A3022907FB0740193F47014
:1019730003E493F4600C907FB21238BAECF5398D1E
:101983003A228021907FB0740193B46D16E493B42E
:101993000411907FB4740193F539907FB674019369
:1019A300F53A2280007F0380027F021247AE229025
:1019B300837FEFF0E4F57BF57CFF906C00E0FEB4F1
:1019C3003F047F108006EEB47F027F20906E00E01C
:1019D300FEB43F06EF4401FF8008EEB47F04EF44FA
:1019E30002FFEF1201B91A56001A14011A34021A2F
:1019F30008101A16111A3E121A0A201A22211A6501
:101A03002200001A78804090837FE0FDF4706680A6
:101A13003C801790837FE0FDE4FF125605800B9016
:101A2300837FE0FDB4FF03E4802390837FE0FD80A8
:101A33001290837FE0FDF4703C800890837FE0FD8B
:101A4300B4FF047F01800790837FE0FDE4FF12561B
:101A5300058022E4FF125971D1041258CFF4701596
:101A6300800DF1D6125971D1041258CFB4FF067507
:101A73007B6C757C10AE7BAF7C229083A4E090835B
:101A83007CF0906C00E0643F7004F1B4800A906EC7
:101A930000E0643F700AF1AC7F7FD155D11B800613
:101AA300B1FCD155C11B90837B7401F090837BE023
:101AB300FFD3945F5031A3E0FEEF6E602290837BEF
:101AC300E0D1614E601990837DD16FC002C001786F
:101AD300A47C837D01D001D002D14ED15FD11B9074
:101AE300837BE004F080C57F7CD1614E60199083D5
:101AF3007DD16FC002C00178A47C837D01D001D069
:101B030002D14ED15FD11B906C00E0B47F08D104A9
:101B130071FA7F018009906E00E0B47F04F1BD711A
:101B23002522EF60047F3780027F36EFC39436406F
:101B33001BEFD3943950157E0030AF027E01F1EED6
:101B43008FFA20FCFDC2FDEE6002D2AF22906C0042
:101B5300E0B43F04F1B4800A906E00E0B43F09E4BE
:101B6300F1AC7F7F71FA8004B1FC61FA7F01F1A6C9
:101B7300D17E6014D16CC002C00178A47C837D0146
:101B8300D001D002D14ED10B7F02F1A6D17E6014D9
:101B9300D16CC002C00178A47C837D01D001D00246
:101BA300D14ED10B7F03F1A6D17E6014D16CC0025C
:101BB300C00178A47C837D01D001D002D14ED10B2A
:101BC3007F7CF1A6D17E6014D16CC002C00178A4E1
:101BD3007C837D01D001D002D14ED10B906C00E00B
:101BE300B47F08D10471FA7F018009906E00E0B4DC
:101BF3007F04F1BD7125229083A4EFF0AE04AF05FD
:101C03007D01908381123CAA9083867401F0A374B2
:101C130083F0A374A4F0908381E0FEA3E0FD90839E
:101C230084EEF0A3EDF0C3EE946C404BD39083822B
:101C3300E094FF908381E09473503C7F0030AF02C7
:101C43007F01F1EE908383E06026908386E0FBA31F
:101C5300F1E7A9F0FA120085FE908384F1E785F09D
:101C630082F583EEF020FCFD908383E014F080D4B2
:101C7300C2FDEF6002D2AF22908374EFF0906C004C
:101C8300E0B43F04F1B4800A906E00E0B43F09E48D
:101C9300F1AC7F7F71FA8004B1FC61FA90837874B0
:101CA30001F0908378E0FFD3945F503A908374E01F
:101CB300FE241F6F6028EE242FFE908378E06E6071
:101CC3001D908374E0243F6F6014124A516B7008B7
:101CD300E965827003EA65836004D13DD10B90838B
:101CE30078E004F080BC7F7C124A516B7008E96590
:101CF300827003EA65836004D13DD10B906C00E0F0
:101D0300B47F08D10471FA7F018009906E00E0B4BA
:101D13007F04F1BD712522906C00E0643F600C905C
:101D23006E00E0643F6004F1D67125906C00E0B46E
:101D3300FF0B906E00E0B4FF04D10471FA906C00C5
:101D4300E0B43F0B906E00E0B43F04E4FF712590D4
:101D53006C00E0B47F04E4FF7125906E00E0B47F73
:101D6300047F0171257F0231B2EF4E60378F828E7F
:101D730083A3E064126006B1FC71FA8018E49083D7
:101D830074F0908374E0FD9005F093FCEF2D122521
:101D9300F8E06C6005E4FEFF800A908374E004F0D1
:101DA300E0B410DEEF4E700F1259F57A0579F0FEAC
:101DB3007F101202CDD10B7F0331B2EF4E70391277
:101DC30047F0908374EFF0C2FB602D1259F57A0649
:101DD3007900D14ED2FB90000BE09083A5F09000E8
:101DE3000CE09083A6124B239083A7F090000EE0A3
:101DF3009083A8F0C2FBD10B22E4FF71257F017110
:101E0300257D007C6C7F3F227FFFD1797002417D6D
:101E1300908379E0FEA3E0FF90837FEEF0A3EFF0E1
:101E23009083A4E044801259AA7D1091059083A465
:101E3300E0547F1259AA7D01810578A47C837D013A
:101E4300908375E0FBA3E0FAA3E0F97E007F100224
:101E530002CD71FA90837CE09083A4F07FFF31B2CE
:101E630090837DEEF0A3EFF022908374E0FEA3E075
:101E7300AA06F97B012231B2908379EEF0A3EFF049
:101E83004E227F03D179700C9083797406F0A3748A
:101E930001F08006F1CF7002F1C8908379D16F7899
:101EA300FC7C807D01125629E49081ABF090837B0A
:101EB300F01259EC4002E153EF2420FFD179701D59
:101EC300A3E0FFC454F02411F582E43406AD8290FC
:101ED3008379F0A3ED120F8C54FEF08018F1CF70CC
:101EE30002F1C890837BE0249D120F904401F0908F
:101EF30081ABE004F0908379D16FC001A3E075F06A
:101F03001CA42403F97481125A17D0017E007F0D9B
:101F1300125A27FF75F01CA42404F582E43481F5DA
:101F230083E0240CFDE433FCEF12582DF1DDFF12A6
:101F3300582DE0FCA3E0FDEF120B1EF1DDFF120BA9
:101F43001EE0FCA3E0FDEF120C3FF1DD04F0C1B491
:101F5300E490837BF01259EC5038EF2430FFD179B1
:101F6300700C9083797406F0A37471F08006F1CF3E
:101F73007002F1C8908379D16FC001A3125A2FF96F
:101F83007481125A17D0017E007F08125A2704F079
:101F930080C3908100E0FF1247E1EF70059081005C
:101FA30004F02231B290837422FF71257D007C6C92
:101FB300227F0171257D007C6E227D007C6E7F3F38
:101FC30071FAE4FF22908379E004F02290837AE0AF
:101FD30004F022E4FF71257F0122ECF0A3EDF090E1
:101FE300837BE022E475F001020136C2AF75FAAAE1
:101FF30075FA55D2FD221101EF600E9083CAE0D32A
:10200300941F5010E004F0800B9083CAE0D3940037
:102013004002E4F09083CAE0C3941F7F0040027F34
:1020230001221214B87D1F7F021217DCD290E571D2
:1020330030E00343230122E5371201B92061002078
:10204300970120AB0220CF0320DBB2218CD021C229
:10205300D121D0D4223BD72277F0000022C7E53923
:1020630030E00543710180035371FEE53930E30528
:1020730043720880035372F7E53930E40543721065
:1020830080035372EFE53930E50543722041CC53A9
:1020930072DF41CCE53990830E30E306E04402F071
:1020A30041CCE054FDF041CCE53820E10241CCE5E0
:1020B3007120E00241CCE4FF120F8D30E007120DD6
:1020C30078E04401F00FEFB406EE41CC90827BE55B
:1020D30038F0A3E539F041CCE57F30E0022188E513
:1020E3003864016006E538640670419081ABE0C353
:1020F3009406400790830EE030E02DE53A9083C9C3
:102103006005E53AF08003741EF0E538B4060890E4
:1021130081F47401F08005E49081F4F0E49082206E
:10212300F011259082AA800C7F0541C9E538B402DD
:10213300089083C97401F041CCE53864037042E52B
:1021430039D394065004E53970047F0341C9E53956
:1021530014FF51DAAF39121C7B121E85124349AFAB
:102163003974692FF582E43483F583E04402F0AFD8
:1021730039749C2FF582E43482F583E04404F04102
:10218300CC7F0341C97F0241C9E5386401702B4309
:102193007F01FE7F01FD7B017A8379C61201E5E4AD
:1021A300F576F5777FE11213569083C9E07002410B
:1021B300CCE41258901217D841CC537FFE415DE511
:1021C3007F30E00512171841CC7F0241C9E57F300B
:1021D300E0621258E91258DF9410EE94005051EF68
:1021E3009400EE940040497F7C1219B290837212DE
:1021F3001E7E700FFE7F10FD1255E89083A4747C41
:10220300F08017908372121E6FC002C00178A47C05
:10221300837D01D001D002121E4E908370A3E0246F
:10222300A4F582E43483F583E53AF0121E0B41CC26
:102233007F0341C97F0241C9E57F30E033E5387050
:102243000241CC24FC601024FE601C2405701D1286
:102253001FD6121B258072121D1A121E851229F514
:102263007F011243638062121B50805D7F0380569F
:102273007F028052E538B4490FE539B4430AE53AA1
:10228300B45005437F108041E538B44C1FE539B4A1
:10229300541AE53AD394004007E53AD3940640052F
:1022A300E53AB47507AF3A125686801DE538B4583F
:1022B3000FE539B4490AE53AB45405125751800978
:1022C3007F0380027F021247AEE536648F6007E426
:1022D300F538F539F53A22EF712530E107F11FE4BE
:1022E300F0432102EF712530E20A125946F137E437
:1022F300F0432108EF7125FE30E303432120EE3044
:10230300E403432180D1D230E60CE57230E40712B6
:102313000D78E04408F0EFD17A30E0034322022243
:10232300E57E75F01CA42414F582E43481F583E082
:10233300229083727401120FC11201B9236D00231D
:102343007201237402239B0323AF0423C30823D7FF
:102353000E23E30F23EF1023F41124031323881513
:1023630024471623F91F00002460124FE4816E8175
:1023730069712320E2028169120FD8E0600281565D
:10238300124CC9816E712320E2028169120FD8E0D9
:1023930060028156F1A8816E712320E302816912E4
:1023A3000FD8E060028156123BEC816E712320E46A
:1023B300028169120FD8E060028156125008816EC3
:1023C300D17820E0028169120FD8E06002815612B1
:1023D3005014816ED17820E6028169120009816E62
:1023E3001250FCE57220E202816E807A1250208046
:1023F3007A1250888075E57230E20312515A806672
:10240300712330E108E57E12593720E0028057AF8F
:102413007D91F0F166120FDDE06050E52130E04B75
:102423005321FE9081ADE054E04401F0E49081B586
:10243300F0A312018800000000E49081BA1258034F
:10244300A3F0800FE57ED1D320E6028019120FDDC1
:10245300E06005123C108013123C1C800E120FDD4D
:10246300E06003123C10E4908372F09081ADE030A1
:10247300E558E524C394035051E0541F700C908336
:10248300737481F0A374B1F0801E120FC2D3941041
:10249300500C9083737481F0A374B6F0800A908318
:1024A300737481F0A374CCF0E57E04125A372425AB
:1024B300F8A607125883FCA3E0FDA3E0FEA3E012F5
:1024C3005A372426F81201700524120FC26018E04F
:1024D300541F640F6011E0541F641F600A741625B3
:1024E3007E124747E004F0908372E0FF22B11EE0C2
:1024F30064016026E4FEEEB5070924ABB121740143
:10250300F0801274AB2EB121E06403600874AB2E2B
:10251300B121E004F00EEEB403DC2274AB2FF5829C
:10252300E43482F58322A905E4FDEF2DB1F8E4F04C
:102533000DEDB40FF58F828E837420F0A3A3744145
:10254300F0E9D39406400E8F828E83A3E4D1ECA3EB
:102553007402F08064E904124084E57230E008D12B
:10256300EDA37401F08005D1EDA3E4F0E912580F57
:10257300FDEF2404B1F8EDF0E912581EFDEF240538
:10258300B1F8EDF0E97125FDB1F5EDF0E9D17AFD92
:10259300EF2407B1F8EDF0E9D1D3FDEF2408B1F84A
:1025A300EDF0E975F01CA42417F582E43481F5837A
:1025B300E0FDEF2409B1F8EDF07F0F228F828E83C7
:1025C300E534F0A3E535F08F828E83A3A3E536F0DF
:1025D3008F828E83A3A3A3E537F0EF2404F582E46F
:1025E3003EF583E538F0EF2405F582E43EF583E517
:1025F30039F0EF2406F582E43EF58322753411B1F8
:10260300BFE53AF0EF2407B1F8E53BF0EF2408B15A
:10261300F8E53CF0EF2409B1F8E53DF0EF240AB109
:10262300F8E53EF0EF240BB1F8E53FF0EF240CB1F1
:10263300F8E540F0EF240DB1F8E541F0EF240EB1D9
:10264300F8E542F0EF240FB1F8E543F0EF2410B1C1
:10265300F8E544F0EF2411B1F8E545F0EF2412B1A9
:10266300F8E546F0EF2413B1F8E547F053229F5302
:1026730022FB7F1422E57E75F01CA42415F582E469
:102683003481F583E022EF712530E107F11FE4F097
:10269300432102EF712530E20A125946F137E4F083
:1026A300432108EF7125FE30E303432120EE30E49C
:1026B30003432180D1D230E60CE57230E407120DDA
:1026C30078E04408F0EFD17A30E00343220222EFAE
:1026D30075F01CA42416F582E43481F583E0228F7F
:1026E300828E837420F0E904A3F08F828E83A3A3E8
:1026F300228F828E83E508F0A3E509D1ECE50AD1A8
:10270300ECA3E50BF0EF2404B1F8E50CF0EF24059E
:10271300B1F8E50DB1F4E50EF07F0722742D2FF526
:1027230082E43482F5832274212FF582E43482F526
:1027330083E0421074272FF582E43482F58322A9C3
:1027430005E4FDEF2DB1F8E4F00DEDB40FF5D1E2A2
:102753007442F0745A29F8E66006D1EDA37401F0CF
:102763007F0F22E57E125630124A7D12441090816B
:10277300B5E064C97026120FDDE0701C1259B4F184
:1027830022EFF0E4F51AFFF11FE0421A0FEFB4064F
:10279300F6781B7C00125860432101220574E5740E
:1027A3007002057322124D68F13A123FDAF12AE002
:1027B300420F0FEFB406F69081B1E0FE9081B0E0D6
:1027C300FDAC067F13124C799081B3E0FE9081B289
:1027D300E0FDEEFC124D619081B4E0FD124D2C0F33
:1027E300A3E0FD124D2C43210422758911758855F0
:1027F30075C81075CD0075CC0175CB0075CA01D2B3
:10280300C8756903756A18756B09AF8CEF75680035
:10281300F567AF8AEF4268E567FFEFB58CEC1129E6
:10282300E49083C9F02274352568F568740535672B
:10283300F5672275B5FF75A520D2BDE4F5AB75AC80
:102843000475AD0A221210675350FE5375FE53717F
:10285300DFE4F5245322F75323DF5323EFF576F513
:102863007775D901C292113675A52A75A401D29242
:1028730022E4F5ABF5AC75AD0B22C0E0C083C0829A
:10288300C085C084C0925392FE1174E57220E62283
:10289300E55820E0069083CB740CF09083CBE07076
:1028A3000B740CF0756318437F0880069083CBE0AC
:1028B30014F0D092D084D085D082D083D0E032C0BF
:1028C300E0C0F0C083C082C085C084C0925392FE32
:1028D300C0D075D000C000C001C002C003C004C096
:1028E30005C006C00775A04011745350FE5350FD38
:1028F300756300437F085372BF75A000D007D006ED
:10290300D005D004D003D002D001D000D0D0D092D3
:10291300D084D085D082D083D0F0D0E03290837041
:10292300EFF0124163121067121E85F1ED124B8511
:1029330012536B31F5908370E0FF1243633162539E
:1029430072F75371DF5371FEE490827BF0A3F09032
:1029530081F5743FF05371F79083C8740FF0227EB2
:10296300007F037D007B007A0079211201E5E4F505
:1029730024FE7F07FDFB123B957E007F087D007BD5
:10298300007A00790F1201E5123BD831DF7A83799F
:102993004D31DF7A83795531DF7A83794C31EB7BA3
:1029A300007A00793431EB7B017A8379561201E5A1
:1029B300125A077A0079081201E57E007F047D0030
:1029C3007B007A0079711201E5E4FF74172FF8E4B4
:1029D300F674522FF1E30FEFB403F0221201E57EF8
:1029E300007F017D007B01221201E57E007F147DC3
:1029F3000022E4FF741C2F125A1FEFF00FEFB403F1
:102A0300F3E4FFEF120FDFE4F00FEFB406F5E49009
:102A130082A9F022E52130E70E53217F31E27A8348
:102A2300794D1201E58005E52130E6087F007EC679
:102A330051388F18225321BF8F828E837404F090F4
:102A4300834D1240837F0222E52230E10E5322FDA3
:102A530031E27A8379551201E58005E52230E009F8
:102A63007F007EC61240718F1822E57F30E40BE5AC
:102A73002220E206537FEF121048E4908370F01295
:102A83000FC994035024EF2481FF12329490837072
:102A9300E0FE2471D181EFF074712ED181E06005E5
:102AA30074522EF1E3120FD180D5908371E0600749
:102AB300E5177003123B3F908372E06007E51870DF
:102AC30003123E2D908372E0600BE5187007E55208
:102AD3006003123BBB908372E0600AE5187006E561
:102AE3005260025117908372E0600AE5187006E5A0
:102AF300526002514B908373E0600AE5197006E55A
:102B03005360027160908373E0600BE5197007E511
:102B1300536003123EA2908373E0600AE5197006C6
:102B2300E5536002D189E4908370F0120FC99403D6
:102B3300502A74172FF8E6FD601DE025E0FFE4330B
:102B4300FEEF24B7FFEE34C78F82F583EDF0908359
:102B530070E02417F8E4F6120FD180CF22E524C3E6
:102B63009402404E90C5807411F0A374FFF0A374D7
:102B730049F0A3E524F0A3E5251258BEF0A3E52A06
:102B8300F0A3E52BF0A3E52CF0A3E52DF0A3E52EB0
:102B9300F0E52494034014A3E52FF0A3E530F0A35C
:102BA300E531F0A3E532F0A3E533F0E4F52475193C
:102BB3001422E52330E00E5323FE1259BEE4F50B35
:102BC300430B01C142E4908374F0D1705025120D80
:102BD30078E0FFC31330E013D179120D7BEF54FD7E
:102BE300F1DA750A40750B02E4C142908374E00484
:102BF300F080D7E4908374F0D1705067120D78E0C1
:102C0300FF30E057D179120D7BEF54FEF1DA750AEC
:102C130041750B04908374E0FF125928540FF50C8F
:102C2300745A2FF8E66005430C408008120FC26007
:102C330003430C80908374E012593730E003430C54
:102C430020E57230E303430C10908374E0FF1258C5
:102C53001EF50EEF12580FF50DC148908374E00472
:102C6300F08095E4908374F0D1705033120D78E0C6
:102C7300FF1313543F30E01FD179120D7BEF54FB48
:102C8300F0EE120FDFE0600F908374E0FD7F807E33
:102C9300C51227428F1922908374E004F080C9E49F
:102CA300908374F0D1705033120D78E0FFC4540F49
:102CB30030E020D179120D7BEF54EFF075081075D9
:102CC30009FF750A4CEE04F50B750C01E4F50DF5DF
:102CD3000EC148908374E004F080C99083A2E03071
:102CE300E05C54FEF075081090838FE0FFF50975E2
:102CF3000A41750B05908392E0FE540FF50C908307
:102D0300A2E020E105EE4440F50CEF6475602890E5
:102D1300838FE0FF75F01CA424E9F582E43480F589
:102D230083E0F50EEF75F01CA424EAF582E4348009
:102D3300F583E0F50D8005E4F50EF50DC148E4904B
:102D43008374F0D1705023120F8DFF1313543F304F
:102D5300E01012585054FBF07F807EC51240978FCD
:102D63001922908374E004F080D9E4908374F0D145
:102D7300705019120F8DFFC31330E00812585054CE
:102D8300FDF08019908374E004F080E3E57130E78F
:102D930016908374E0B4060F53717F7D077F807EA6
:102DA300C51225298F1922E52330E1305323FD90E5
:102DB3008220E070221259BEF50B530BFE9082AABB
:102DC300E0F50CE4F50D90821FE0FFB4FF05E4F598
:102DD3000E80028F0E806EE4908220F0E52230E2B6
:102DE30014C4135403700E7F807EC512408B8F1959
:102DF3005322FB8014E52230E216C41354036010FF
:102E03007F807EC51225FF8F195371FB5371DF221B
:102E1300E52330E51B5323DF12597D750B03120B9A
:102E23001CE0FCA3E0FDECF50C8D0DE4F50E801524
:102E3300E52330E41A5323EF12597D750B04E4F5AF
:102E43000CF50DF50E7F807EC51226F48F1922E551
:102E5300246401701790C5807410F0A3E525F0A3D6
:102E630074491258BEF0E4F524751907229083744F
:102E7300E0FFC3940622908374E0FE246A22F58265
:102E8300E43483F58322E4908374F0D170503712D5
:102E93000D78E0FF131313541F30E022908374E086
:102EA300246A120D7BEF54F7F07E007F207D007BB8
:102EB300017A82797D1201E5908374E08012908318
:102EC30074E004F080C5E52330E30F5323F7E57E78
:102ED30004FF7D807CC5D1DE8F19228D828C8374A3
:102EE30011F0A3EFF0F1CB7466F1C61259C82404B4
:102EF300F1BD1259DAF1BD90828AF1D2908283E05A
:102F0300540F4FF159908292F1D290828BE0540F7B
:102F13004FFFED240DF1BD90828CE0FFED240EF107
:102F2300BD90828DE0FFED240FF1BD90828EE0FF16
:102F3300ED2410F1BD90828FE0FFED2411F1BD90DF
:102F43008290E0FFED2412F1BD908291E0FFED2429
:102F530013F1BD7F1422FFED2406F582E43CF583D3
:102F6300EFF0908284E0FFED2407F582E43CF583E3
:102F7300EFF0908285E0FFED2408F582E43CF583D1
:102F8300EFF0908286E0FFED2409F582E43CF583BF
:102F9300EFF0908287E0FFED240AF582E43CF583AD
:102FA300EFF0908288E0FFED240BF582E43CF5839B
:102FB300EFF0908289E0FFED240CF582E43CF58389
:102FC300EFF022F0908280E08D828C83A3A322E035
:102FD30054F0C454F0FF22F0750810EE04F50922F2
:102FE300F582E43483F583E4F022E49083C9125834
:102FF300909083A2E054FBF0E490838EF0F57AF591
:1030030078F579F57D90821CE0F57EE4F5599081A1
:1030130000E0F560E4F517F518F519908352F0A375
:10302300F0A3F0FFEF04FE12251EEEF00FEFB40342
:10303300F3537FFE537FFD537FFB537FF7537FEFA4
:10304300537FDFE4FF745A2FF8120D76E054FEF03D
:10305300120D78E054F7F00FEFB406E95375FD5302
:1030630075F75375FB5375FE22E55030E10A30E0E6
:103073000A12106F5350FE22122A6D2290C700E4E9
:10308300F0A3F0E548541F14601214601A24027070
:1030930045E558540125E090C7008033715A5036F6
:1030A300E55030E5318029E54C702BE54D547F70B8
:1030B300057F02FE801EE55030E51BE54D30E71627
:1030C300547FC39404500FAF4D11E390C700EFF04A
:1030D3007F027E0061AA02001D90C7B47411F02222
:1030E300714E401BEFD394055015ED20E70A51B400
:1030F300310E20E00A1C8007310520E002E4FCAF1A
:103103000422ED547F75F002A424B4FFE5F034C724
:103113008F82F583E022AD07ED547FFF701D90C7CA
:10312300ACE04401F090C7DEE04401F090C7ADE0AD
:103133004401F090C7DFE04401F022EFD39405503F
:1031430054ED20E72690C7DFC083C0823199800207
:10315300C333D8FC4FD082D083F0ED51B4310E5439
:10316300FEF090C7D7EDF02420F022ED547FFD90C0
:10317300C7DEC083C08231998002C333D8FC4FD0ED
:1031830082D083F0ED310854FEF0ED241090C7D7C0
:10319300F0ED2430F022E0FF7401A80508227451F9
:1031A3002FF8A64BEF2481FF3119517C908389E0DE
:1031B30004F022715A503BE55030E536E54D60048A
:1031C3006401702EE54B600464017026E548541FCA
:1031D300FFBF010FE4908389F051869403501631A9
:1031E300A180F6E4908389F051869403500731A1BE
:1031F30080F612001D22E548541F700BD3E54B9453
:1032030001E54A9400400302001DE54B6052518DD5
:1032130051869404500AEF2480FF311931AF80F0B6
:10322300755020E4FFEF700875547D75557D800C53
:1032330074542FF8E4F674552FF8E4F60FEFB40145
:10324300E4437F08437F02518D908389E0FFD39449
:1032530005502690C7D7EFF0EF2440F031AF80E957
:10326300518D51869404500BEF2480FF1241243179
:10327300AF80EF755010437F0475640590C7B47435
:1032830012F022908389E0FFC3229083897401F0B6
:1032930022714E4019EFD394055013ED20E70951E5
:1032A300B4310E60091C800631056002E4FCAF04F2
:1032B3002275F002A424C422EF547FFE700201DCC5
:1032C300EED394055016EF20E70451B48009EF5470
:1032D3007F75F002A424B4310E4401F022E5485472
:1032E3001F24FE601B2402705FE54B6401454A7096
:1032F30057E549B401055358FE804B4358018046B6
:10330300E54C7044E54B454A703EE5496401701F46
:10331300E54D547F7002802EE55030E52BE54D30AE
:10332300E726547FC39404501FAF4D31198017E52E
:103333005030E514E54D30E70F7153400BEF940423
:103343005006AF4D51BB417C02001DAD077C01ED22
:10335300547FFFD3940022C3E54D9403E54C9400BE
:1033630022E548541F6401701CE54B454A701671F1
:103373005A5012E55030E50DE54F7009E54D2481B3
:10338300FF3119417C02001D715A5018E55030E598
:1033930013E4FFE54D7008854A54854A557F01EFD4
:1033A3006002417C02001D8E658F66E54E6006E477
:1033B300F54E754FFFB12750048E658F66B11D40E2
:1033C30005756401800375640390C7B5E566B1159F
:1033D300E4F565F56622715A5015E55030E510E5C0
:1033E3004D700C90C700E554F07F017E0080B80259
:1033F300001DE548541FFFBF0113715A500FE550DC
:1034030030E50A90C700E4F07F01FE809A02001DB8
:10341300715A5016E55030E511E54D6003B4010AC9
:103423007451254DF8E691E761AA02001D715A40D7
:103433000281E4E55020E50281E490C700E54BF00A
:10344300A3E4125803A3F0E54A6401600281D3E5C3
:103453004D7005123FE38028E54D64017012E5527B
:10346300700512400A8019E54BB40204B13B801089
:10347300E54DB4010FE54BB4030AE55260067F0541
:103483007E00805BE54DB4010FE54BB4040AE552C1
:1034930060067F027E008047E54DB4010FE54BB423
:1034A300080AE55260067F027E008033E54D640220
:1034B300702FE553602BE54BB410067F077E008029
:1034C3001EE54B6411701A7C067DB07F14FE801DCF
:1034D300E54AB4020CE54D700890834CE091E76136
:1034E300AA02001D90C700F07F017E00228E658F27
:1034F30066AE04AF058E618F62B12750048E658F6F
:1035030066B11D40057564018003756403123AD8E2
:103513008001F090C7B47402F022C3E5669408E515
:1035230065940022E54EFE7C00E4254FFFEC3EFE51
:10353300C3EF9566EE9565227B007AC7B18DE50FE3
:10354300F07F13F186908389EEF0A3EFF07F15F1FE
:1035530086A3EEF0A3EFF0908389A3E0B19BA3F0E1
:1035630090838CF1D0908389F1C5D106EFF09083DD
:103573008BE0FEA3E07804CEA2E713CE13D8F8B114
:10358300E8E512F0E4F5127F08225321FB8B828ACF
:10359300837402F0A3E510F08B828A83A3A322AB8A
:1035A30007AA06B18DE50FF07F13F15E123F737F1B
:1035B30015F15EA3EEF0A3EFF0908374A3E0B19B4B
:1035C300A3F0908377F1D0908374F1C5D106EFF027
:1035D300908376E0FEA3E07804CEA2E713CE13D85F
:1035E300F8B1E8809CFFEB2405F582E43AF583EF1C
:1035F300F0EB2406F582E43AF583E511F0E4F511E6
:10360300EB2407F582E43AF5832290838B74C6F0AA
:10361300A374C0F0EF24FFFBE434FFFAEB2DFDEAC3
:103623003CFCEFD39400402490838BE0FAA3E02F7B
:10363300D106E58224FFF582E58334FFF583E08D2F
:10364300828C83F0ED1D70011C1F80D62290C6C0B2
:10365300E0908389F090C6C1E090838AF0E5561428
:10366300B409004002E15090367875F003A4C58395
:1036730025F0C583730236930237500236B50236FE
:10368300E40236F902370602375002372802373D83
:10369300F154908389E090834CF0E4FF908389E0B8
:1036A300FE74A32FF1DDEEF00FEFB406EF43230416
:1036B300E150908389E0641070237C837D567F07FB
:1036C300D10DF154432280F1A05002E150E0D39494
:1036D30006507AE52220E475124E848070F15480FE
:1036E3006C908389E0641170647C837D567F08D17C
:1036F3000D75560580427C837D5E7F08D10D75561E
:103703000680357C837D667F04D10D755607F154A1
:10371300432280F1A04039E0D394065033E52220C0
:10372300E42E024E84908389E0642070207C817DA6
:10373300F67F08D10D755609807E7C817DFE7F075B
:10374300D10D75560BF154437202024DABE4F5569D
:103753002275640590C7B47410F022F1A87003FEBB
:10376300FF22F1B1400302586F1258AD5005F1E545
:103773007F0122E6FC08E6FDA807E4F608F6AE049E
:10378300AF0522F1A87003FEFF22F1B140030258F6
:103793006F1258AD5005F1E57F012280D690835713
:1037A300E0C3940122A807E6FC08E6FD4C22D3ED12
:1037B30094FFEC648094872275640490C7C574FFFA
:1037C300A115E0540FFFEF4DFFEB240422E0540F4B
:1037D300C4F8540FC868FFAD0722F582E43482F5BC
:1037E30083220874FF26F618740736F64321047EF5
:1037F300F822E548541F7017C3E54B9480E54A94BB
:1038030000500CE55030E50475502022755010220D
:10381300E548541F704DE54A24FE600F14601424DC
:1038230002600201B77C057D7E80247C057D907F4C
:10383300548054E54B14601314601824FE601C2458
:103843000470717C037DD47F04803C7C037DD87F2E
:103853001280347C037DEA7F1A802C7C047D047FF4
:103863001E8024E548541F6401704912335A5044A2
:10387300E54AB42116E54D75F019A424A2F582E4B6
:103883003405AD82FC7F097E008026E54AB42224FC
:10389300E54D25E025E024E6F582E4340511C2FF79
:1038A300E54D25E025E024E4F582E43405F58311B4
:1038B300BA0234F002001DE493FC740193FD22F577
:1038C30083E493FE74019322E4F556E5485460249F
:1038D300E0602524207053E54954F0704DE549908C
:1038E300044293FFE54854806F703FE54925E02487
:1038F30022F582E43404802AE54954F0702CE5492A
:103903009006A093FFE5485480B5071EE548541F71
:10391300FFBF011675F002E549A42480F582E5F0A6
:10392300340611C2AA06F90201DF02001DC0E0C07D
:10393300F0C083C082C085C084C0925392FEC0D0C1
:1039430075D000C000C001C002C003C004C005C0E0
:1039530006C007C2C490C7A8E01201B9399600395E
:10396300C90439D30839DB0C3A1C103A29183A48F0
:103973001C3A69203A87243A69283A872C3A6930F5
:103983003A87343A69383A873C3A69403A8744007F
:10399300003AA390C7E8E0F548A3E0F549A3E0F5B2
:1039A3004BA3E0F54AA3E0F54DA3E0F54CA3E0F506
:1039B3004FA3E0F54E75640090C7A97401F0A3F01E
:1039C300A3F011CB41A351CD54FDF05350FB41A3C0
:1039D30090C7AB7404F041A390C7AB7408F0E550F3
:1039E30020E21330E510E57F9083CB20E005745E81
:1039F300F08003740CF0E55020E10E30E50B7563A5
:103A030000E57220E603437F025350FE4350024316
:103A1300500451CD4402F041A390C7AB7410F0435E
:103A23007F20F550807A90C7A97401F0E56424FDE6
:103A330060082402702851D8806675640090C7B46A
:103A43007410F0805B90C7AA7401F0E56424FC60F5
:103A53000814700A12375480471236508042756436
:103A6300001230DC803A90C7A8E024E851C4CEC3EA
:103A730013CE13D8F9120FED8002C333D8FC90C7CD
:103A8300A9F0801C90C7A8E024E451C4CEC313CE90
:103A930013D8F9120FED8002C333D8FC90C7AAF0F4
:103AA300D007D006D005D004D003D002D001D00077
:103AB300D0D0D092D084D085D082D083D0F0D0E043
:103AC30032FFE434FFFEEF78032290C7AB7402F0B9
:103AD30090C7AEE022E4FFE5664565602C0562E52C
:103AE30062AC617002056114F5828C83E493FEEF8E
:103AF3002400FDE434C78D82F583EEF0E566156698
:103B0300700215650FEFB408CE90C7B5EFF0E56608
:103B130045657008EF6408600375640322E5485443
:103B23001F7016E55090C70030E5057401F0800260
:103B3300E4F07F017E000233AA02001DE52130E19B
:103B4300175321FD125A077195E4FF12271FE04214
:103B53001A0FEFB406F5800DE52120E008E5546067
:103B63000CE55570087F807EC671718F1722532133
:103B7300FE8F828E83E51AF0A3E4F0EF2402719C9A
:103B83007B007A00791B125868E5546002F5557F73
:103B930008227A00791A0201E5FFE43EA807FC7DBA
:103BA30001228F828E835321EF7403F0EF2401717E
:103BB3009C71DE71E57F0522E52130E50A5321DFA3
:103BC30071D81201E58005E52130E4087F007EC647
:103BD30071A58F18227E007F047D007B017A837993
:103BE3004E227E007F040202CD784E7C83910771C2
:103BF300E543211022FF912DEF24FDFFE434FFFE66
:103C030078807C827D017B017A8179AE22120FA9B3
:103C130071F81202CD43220822E57230E40B120F31
:103C2300A971F81202CD43230822EF70047E0580A8
:103C33000AEFD394107E1650027E0AAF06229083B9
:103C430076EDF0F173F5828E83A3E0541FFF912D7F
:103C5300AD079083749182FB90837791AAA3EBF0D5
:103C63001214B8C29190837AE0540744A8FF120259
:103C7300F39083779182FD120322D291D29022E0B6
:103C8300FEA3E0FFA3E02290837A91AAD39420407D
:103C9300037420F0C2917F611202F390837A9182C0
:103CA300FD120343D29122EEF0A3EFF0A3EDF02235
:103CB300783E7C837D017B017A8179AF7E007F0E24
:103CC3001202CD91D1D163120367B1F1914175769F
:103CD30002E4F577229081B0E090832FF0E4FF7443
:103CE300B12FF582E43481F583E0FE74302FF58241
:103CF300E43483F583EEF00FEFB40EE3D1631203E4
:103D030067B1F1914180C7E57714601A14601A1402
:103D1300601914601814601724057024D1256020DD
:103D23005375FE020B2C024829801680A88081124D
:103D33000D83125891121E8512536B7F0112436338
:103D4300221217D8E4FFD100E0FE74212FF582E49C
:103D53003483F583EEF00FEFB404EB124B4E9083F4
:103D63001DB1F8A3B1F8E4FF741D2FF582E4348389
:103D7300F583E0FE74D32FF582E43481F583EEF00E
:103D83000FEFB404E3E4FFD11874252FF582E43474
:103D930083F583EEF0D11874D72FF582E43481F5DF
:103DA30083EEF00FEFB404DFE4FFD10B74292FF59A
:103DB30082E43483F583EEF0D10B74DB2FF582E4D8
:103DC3003481F583EEF00FEFB404DF9081BBE09014
:103DD300832DF0124B2D7402F090832DE09081DF40
:103DE300F07E817FD0120367B1F1914181D17E8151
:103DF3007FD07D0422E5F3F0A3E5F3F02274AF2F27
:103E0300F582E43481F5832274B72FF582E434819B
:103E1300F583E0FE2274B32FF582E43481F583E069
:103E2300FE221216B9120025EF22E52130E31653C4
:103E330021F7F1DC12272AE0420F0FEFB406F5E574
:103E43005270138009E52130E215E5527008FF7EB8
:103E5300C6F17C8F18227F007EC61235A28F1822EE
:103E63009081ACE09081D0F0A3740FF0A37406F0BE
:103E7300A37402F0A304F07E817FD022E57724FEB1
:103E83006008047019D1B3057722D125600AF1D2F5
:103E9300600CE4F576F57722E5597002D1B322E59B
:103EA3002230E30B5322F77F807EC5D1C78F1922BF
:103EB300908100E090071F93FF908100F01200456E
:103EC30075591822F17390827FE0FF912DEF6416EC
:103ED3007038F1517421F15EA3E0F149F0E4FF740D
:103EE300802FF582E43482F583E0FEEF2403FDE4C2
:103EF30033FC908374E0FAA3E02DF582EA3CF5836A
:103F0300EEF00FEFB41DD87F2022F1517420F15E43
:103F1300A3E0FDF149122FC61259C82404122FBD84
:103F23001259DA122FBD908283E0122F5990828AA0
:103F3300E0FFED240D122FBD90828BE0FFED240EE8
:103F4300122FBD7F0F22F5828C83A3A3EF229083D0
:103F530074E0FEA3E0FFF5828E8322F0E57E048FFA
:103F6300828E83A3F090827FE0FF908374E0FC2233
:103F7300908374EEF0A3EFF022AD07AC065321FB60
:103F83008D828C83E510F0AF14AE13F1B5A3EFF07F
:103F9300AF16AE15F1B5122FCBEFF0122FCBA3E571
:103FA30011F0E4F513F514F515F516F511F5127F77
:103FB3000422D3EF947FEE6480948040037F7F22BA
:103FC300C3EF9481EE6480947F50037F8122225358
:103FD30075FE120B2CEF22EFF0E4F510F50FFF2224
:103FE3005321FE90C700E51AF0A3E4F0A3E51BF00C
:103FF300A3E51CF0A3E51DF0A3E51EF0A3E51FF068
:10400300A3E520F07F08225321FB90C700E510F0C1
:10401300D3E514947FE513648094804006A3747FF2
:10402300F08018C3E5149481E5136480947F90C7EE
:104033000150057481F08003E514F0D3E516947FF5
:10404300E51564809480400890C702747FF080185F
:10405300C3E5169481E5156480947F90C7025005EB
:104063007481F08003E516F090C703023FA2532248
:10407300FE8F828E837408F090835511837F022212
:10408300E08F828E83A3F0227534101225BFE53AA8
:10409300F07F0722A905E4FDEF2D1225F8E4F00DCA
:1040A300EDB40FF41226E27440F07F0F2212335A5C
:1040B3005069E55030E564E54A6402705EE54D7091
:1040C3000DE54F6401454E70057556018047E54D7A
:1040D30064027028E5536024E54BB4100DE54F648A
:1040E30007454E7005755603802BE54BB4110DE55E
:1040F3004F6414454E70057556048019E54DB4029E
:104103001AE54BB42015E5536011E54F640F454E96
:104113007009755608854F570237BBE4F556020000
:104123001DEF547FFE7401A806088002C333D8FC38
:10413300543EF4FEEF20E70B90C7ADE05EF090C76E
:10414300DF800990C7ACE05EF090C7DEE05EF0224E
:104153007F0190C7D7EFF02440F00FEFB406F322AE
:10416300E4FE74502EF8E4F60EEEB409F5E4F554CB
:10417300F555FE74512EF876010EEEB403F5EF609B
:1041830005E4F550800FE550C394105005755008B1
:104193008003755010E4F564510C90C7AE741DF0A4
:1041A30090C7E0E4F0A3F090C7DDF090C7AC04F053
:1041B30090C7DEF090C7ADF090C7DFF090C7A97449
:1041C3003FF0A3F090C78131F890C7887430F0A313
:1041D30031F890C7E27418F090C7F0E4F090C7F894
:1041E3007408F090C7E37404F0D2BBD2BC90C7ABA1
:1041F300741FF021537410F0A37420F0A37430F0F3
:10420300A37440F0A37450F02275A0407F011210F4
:1042130008E4F5A02290C7D67402F0000014F07FE2
:104223000712100890C7D6E4F0229083C7E0C39426
:104233000550057451F080079083C7E024FBF0908C
:1042430083C6E030E1030213A6021362E53824209B
:10425300606124DC600241FB9080FCE539F0A3E55A
:104263003AF0A3E53BF0A3E53CF0908103E53DF094
:104273001214B87D397B057F0B710BD290AF3FEFE2
:10428300FDAF3E51FC908118F0A3EFF0AF41EFFD7D
:10429300AF4051FCA3F0A3EFF0908100E542F0E0C2
:1042A300FFF1E1EF700590810004F0908100E0FFE1
:1042B3000200459080FCE53DF0A3E53CF0A3E53B1F
:1042C300F0A3E53AF0908103E539F0124B3B90817E
:1042D30003E0F5701214B87105D2909083C7E53EE0
:1042E300F0E0FD7F051217DC7140E53F125909121A
:1042F300127B75760575770322EFFEED240CFFE440
:104303003E227D6C7B057F0B90837AEDF0A3EBF06F
:10431300C29012595390837BE0601514FF90837A07
:10432300E02FF8E6FF1202F390837BE014F080E5C0
:10433300D291D29022F13B120309D291227F0671CE
:1043430038EF54F9FD221214B8D291F12CE4FF7125
:1043530038BF1D0543710880045371F7220212828E
:10436300908379EFF0D1CCE4FF745A2FF876FFEF06
:10437300120B1EF133EF120C3FE4F0A3F0F144E40F
:10438300F00FEFB406E37149908379E06002719412
:10439300227E007F487D007B017A8279331201E51A
:1043A300E4FDED125928FF6401600AEF6403600520
:1043B300EF64077047ED75F00CA4D1C27401F0ED02
:1043C30012581EFEED12580FFBEBFFE4FCEC25E048
:1043D30024F5F582E43406F583E493FA740193FB40
:1043E3004A6019EBB50710EAB5060CED75F00CA49D
:1043F30091067408F080050CECB415D10DED64063C
:1044030070A022243CF582E43482F58322D12AD1A0
:10441300C2E07002A1EDE490837DF09081B5E06489
:10442300C96002A18C9081B7D131781012015DC0AF
:1044330004C005C006C0079081B6D13178181201B7
:104443005DD003D002D001D000D17CFCC004C005F4
:10445300C006C0079081B8D131780812015DD0033E
:10446300D002D001D000EF4BFBEE4AFAED49F9EC54
:1044730048F8A3D1A590837512017C9081B7D131FF
:10448300780812015DA804A905AA06AB079081B6B6
:10449300D1A5C004C005C006C0079081B8D131784A
:1044A3001012015DD003D002D001D000D17CFCC03A
:1044B30004C005C006C007A3D131781812015DD02E
:1044C30003D002D001D000D17CFC90837912017C0F
:1044D300D12AD174D154908375D1386045D12AD172
:1044E30074D154C007D12A9106E0FBD007D1B19013
:1044F3008375E0F8A3A3D1406028D147908379D195
:1045030038601FD147C007D12A9106E0FBD007D1FD
:10451300B1908379E0F8A3A3D140600690837DE056
:1045230004F0908375D11FD174F58312017C9083BD
:1045330079D11F2437F582E43482F58312017CE4B8
:10454300FF90837EF090837EE0FEC39406500E744A
:10455300AF2E123E03E060010FD16D80E8D12AD166
:1045630091E0FE2401FDE433FCEFD39DEC6480F87D
:10457300748098400CEE04FEEF9EFE90837DE02E47
:10458300F0D12AD191EFF0800690837DE004F0D141
:104593002AD19BE0FFFE90837DE0FD7006EE601163
:1045A3001E800EED75F014A42EFED3945040027EAF
:1045B30050EED3943C402CE57230E511EFD3943C9C
:1045C300500B746A257E120D7BE04410F0E4908159
:1045D300AEF090837EF0D1885009123E00E4F0D112
:1045E3006D80F3D12AD19BEEF0229081AEE054117D
:1045F300702990837EF0D1885021123E00E0C3944D
:1046030004401490837EE024AF123E03E0D3941D54
:104613005005123E00E4F0D16D80DB22E0FCA3E004
:10462300FDA3E0FEA3E0FFE57E75F00CA422E0FF0E
:10463300E4FCFDFE22E0F8A3E0F9A3E0FAA3E0FB2B
:10464300C302014CE57E75F00CA42437F582E434F3
:1046530082F583E0FCA3E0FDA3E0FEA3E02401FFD9
:10466300E43EFEE43DFDE43CFC2290837EE004F066
:10467300222433F582E4348222EF4BFFEE4AFEED2F
:1046830049FDEC482290837EE0FFC3940622243D3B
:10469300F582E43482F58322243EF582E43482F504
:1046A3008322E0FFEB4FFFEAFEE9FDE8FC22C3EFC4
:1046B3009BFFEE9400FEED9400FDEC9400FC22249D
:1046C3003BF582E43482F583227576047577012203
:1046D300E577B4010C908100E0FFF560F11E0577EA
:1046E30022123E2560195375FE7E817FAC12039022
:1046F300EF6020120B2CEF601AE4F576F57722E5D4
:104703005970100577E577B4060280BD908100E00B
:10471300FFF11E22EF9006DC93FF22F11790810038
:10472300EFF012004575590C227D1DE4FF02127B48
:104733007407F0A374D0F022C291EF541FFF02025A
:10474300F374162FF582E43482F58322E537244D82
:10475300603324FE7053E538D3947F5024AF38126E
:1047630019B2EF4E70028019AA06A9077B01C00295
:10477300C00178387C007D00D001D002121E4E802B
:10478300217F0380267E007F107D007B007A0079E5
:10479300381201E5E4FFF14412533EA6060FEFB4CD
:1047A30006F4432260432204227F0212583B432231
:1047B3000422E536247F600D24FE60132403701168
:1047C30012203A800312180953229F43220422E144
:1047D3004F7F0180D6F1AE4371045322EF22EFD312
:1047E30094185006EF60037F01227F0022D2FB7FE3
:1047F3000BFE12481C4DFDA3A3E0FC4DFD1226ED5C
:10480300A3E0FB4D6010111C5DFDEC5DFDEB5DF461
:1048130060047F0180027F00228F828E83A3E0FDEC
:104823008F828E83E0224372047E007F3D7D007B76
:10483300017A83790F1201E59081BAE030E210909A
:1048430081B7E0B404099081B4E0C394085009909F
:10485300830EE020E10241459081BAE030E31790F6
:1048630081C0E090821FF0E070129083C904F09041
:1048730082AA7405F02290821F74FFF09083C9749A
:1048830002F09082AA14F07F031219B2AA06A907B4
:104893009083717401517590837151676B7008E94E
:1048A30065827003EA6583600221301247F09083CA
:1048B30070EFF0C2FB6023D2FB90000BE09080FC12
:1048C300F090000CE09080FD71239080FEF090004A
:1048D3000EE09080FFF0C2FB8018714EE5F39080EC
:1048E300FCF0E5F3A3F0E5F3540F4490A3F0E5F3F4
:1048F300A3F0713B7570011243058031E4FFFEEEB6
:10490300120F9AFD908102E0B505047F0180050E28
:10491300EEB406EBEF7016908102E0FF600FC394D4
:10492300014006EFD394064004EFB475089081026A
:10493300E004F080C79081ACE090830FF090810297
:10494300E0908310F09081B4E0908311F09081B5F2
:10495300E0908312F09081B6E0908313F09081B7DA
:10496300E0908314F09081B8E0908315F09081B9C2
:10497300E0908316F0E4908370F0908370E0FF245E
:10498300BAF582E43481F583E0FE74172FF582E4EF
:104993003483F583EE120FD0E0B406DE712D74017B
:1049A300F09080FCE09081D3F09080FDE09081D482
:1049B300F09080FEE09081D5F09080FFE09081D66A
:1049C300F0908310E09081D7F0908311E09081D82C
:1049D300F0A37488F0A37402F0A37404F0A3740129
:1049E300F0908316E09081DDF0E4908370F0120F75
:1049F300C99406501074DE2FF582E43481F583E404
:104A0300120FD080E9908317E0542F9081DEF0904D
:104A130081F4E060079081E3E04401F07E817FD080
:104A2300120367908220E0FD7E817FD060028002C6
:104A3300E4FD123C41908310E0FD7F0E1217DC026F
:104A43003CD19083C97401F09082AA04F022121918
:104A5300B2AA06A9079083757401F0A3EAF0A3E94B
:104A6300F0908375E0FBA3E0FAA3E0F974019000F2
:104A73000022F0A3EAF0A3E9F022908375EB5175CD
:104A83009081B6E09083BCF09081B7E09083BDF055
:104A93009081B8E09083BEF09081B9E09083BFF03D
:104AA30075E810E4F5F5F5F67F10EFD39400402593
:104AB3001F908375E0FBA3E0FAA3E0F98F8275836F
:104AC3000012009EF5F174B52FF582E43483F5836B
:104AD300E0F5F380D5D2E820E8FD711A711A9081D0
:104AE300B5E065F3F09081B4E065F3F09081B3E055
:104AF30065F3F09081B2E065F3F09081B1E065F386
:104B0300F09081B0E065F3F09081AFE065F3F09051
:104B130081AEE065F3F022AFF3AFF3AFF3AFF3226F
:104B2300F090000DE0540F4490229081ACE090810E
:104B3300D0F0A3741FF0A3229080FCE0F56CA3E0F7
:104B4300F56DA3E0F56EA3E0F56F2275E810D2E8EA
:104B5300858CF3858AF385CDF385CCF320E8FD229C
:104B63009081AEE01460050470174145E57DB4FF04
:104B730003E48003E57D04908220F0757602757767
:104B830001229083B57404F0A37414F0A3741D710F
:104B9300347427F0A304F0A3740DF09083C0740A57
:104BA300F0A3740DF0A37413F0A37426F0A3740E92
:104BB300F022908370EFF0E014F0E0245AF8E670EE
:104BC3005A9081D0F0A3E054BFF0E4908371F09049
:104BD3008371E0FFC3940350421209D9FF9083709D
:104BE300E0FEEF6E702D9081D1E0541F64106007DA
:104BF300E0541FFEBE1108EF120F9A9081D2F07E8F
:104C0300817FD01203677E817FD0908371E004FDA2
:104C1300023C41908371E004F080B422E4908370FD
:104C2300F0120FC99406504D745A2FF8E6FFC3943F
:104C3300C8403DEFF46039E0249D120F9030E0301E
:104C430076FFE57130E00D908370E0246A120D7BEE
:104C5300E04401F0908370E0FF120FDFE06009127F
:104C63000D78E04404F08008908370E0FF1222DAAC
:104C7300120FD180AC22EC30E714C374019DFB7496
:104C8300F891AED391BA401A76F808760122C3742C
:104C9300FF9DFB740791AEC391BA50067607087661
:104CA300FF2208ED26F618EC36F6229CFAA807E652
:104CB300F58308E6F58222EB9582E5836480F8EAC2
:104CC300648098A80722B16812273A123FDA1227A4
:104CD3002AE0420F0FEFB406F59081B1E0540FFEC6
:104CE3009081B0E07C002400FFEC3EAD07FC30E394
:104CF3000344F0FC7F1391799081B1E054F0C454E4
:104D03000FFD7C00A3E075F010A42DFDEC35F0FC45
:104D130030E30344F0FCB1619081B3E0FDB12C0FAB
:104D2300A3E0FDB12C43210422ED30E711A807E6EF
:104D3300FEC374819DFCD3B1564014768122A8072B
:104D4300E6FEC3747F9DFCC3B1565003767F22ED0C
:104D530026F622EE6480F8EC648098A807227F157B
:104D630091797F11229081AEE0FF7421257EF58237
:104D7300E43482F583EFF09081AFE0FF7427257E62
:104D830022E57970221209D9FE12267A30E618122A
:104D930009B012589C1209A8D17A4003E4F57AF1BC
:104DA300B5B57A0375790122E57220E102C1795321
:104DB30072FD9081F7E0F9F46002C152A3E0247F11
:104DC300605E14607C24026002C1799081FAE0FF86
:104DD300F46003EF70079082A9EFF08006EF049070
:104DE30082A9F0E4FB74017E00A803088005C333A5
:104DF300CE33CED8F9FF9081F9E0FDEF5D6015EB7E
:104E0300120FDFE07014EB120FDF7401F0AF031227
:104E130026898006EB120FDFE4F00BEBB406C62203
:104E2300437201E4FB749D2B120F90FF30E0097471
:104E33009D2B1258574402F00BEBB406E8437180E4
:104E4300229081F9E06004437240225372BF2290A2
:104E530081F8E024F2701FE914FB9081F9E0FF74FC
:104E6300A32B1237DDEFF0E4FF1209D9B50302A13A
:104E7300840FEFB403F322EFF0057AE57AC3940CC1
:104E830022908357E02459F8E67032E579702EF1C9
:104E9300CEB41006D1C17F07800C908356E0641115
:104EA300701BD1C17F141202CDF1D61209A8D17A99
:104EB3004003E4F57AF1B5B57A0375790122E57A11
:104EC30075F015A42401F9748035F0A801FC7D0167
:104ED3007B017A8379567E0022E52220E702E1B442
:104EE300432210908357E0F47054E52230E202E14C
:104EF300B153227FE57130E210F1C7D1D37F07129E
:104F030002CD7F071247AEE1B1908356E0B4100E95
:104F1300F1C7D1D37F071202CD1247B5E1B1908318
:104F230056E064116002E1B178347C00FD7B017AC4
:104F3300837956FE7F141202CD1251B1807012375D
:104F4300A04006E0D394064008908357E064757050
:104F530058908357E064756007E02459F8E6600AC7
:104F63009083A2E030E23E30E13BE5797033F1CE4D
:104F7300B41006D1C17F07800B908356E0B41109AA
:104F8300D1C17F141202CD80028023F1D61209A869
:104F9300D17A4003E4F57AF1B5B57A1275790180D7
:104FA3000D7F0780067F0980027F081251905322EC
:104FB300EF22E57824FFFFE434FFFE7C007D0C1232
:104FC30000CBED2278347C007D002253227F908336
:104FD30056E022908357E0FFE57A75F015A424008C
:104FE30022F1F9120B1CEEF0A3EFF0F1F9120C3DD4
:104FF300EEF0A3EFF0229081AFE0240CFF9081AE9E
:10500300E03400FE229081AEE090834DF0432140D6
:10501300229081AEE0908355F0432201229081AF2C
:10502300E0B44B05E57130E00B11CDE0113843716D
:10503300205322EF22F53A53229F43220443710463
:105043002211EF7536817537F18F38EF24FE60102A
:1050530014601C24027025908394E0F539A3801515
:10506300908396E0FCA3E0FDECF5398D3A8009E4EA
:10507300F539908393E0F53A113A80057F0312479F
:10508300AE5322EF2211CDE0F53AA3E0F53BA3E0C6
:10509300F53CA3E0F53DA3E0F53EA3E0F53FA3E037
:1050A300F540A3E0F541A3E0F542A3E0F543A3E017
:1050B300F544A3E0F545A3E0F546A3E0F547432215
:1050C30060113D4371205322EF224322109081ADA2
:1050D300E0F534E57E04F5359081AFE0F536A3E0E5
:1050E300F537A3E0F538A3E0F539A3224322107581
:1050F300341090838FE0F535229081AEE024FD607B
:105103002724FD60352406703E314B120B1CEEF054
:10511300A3EFF0314B120C3DEEF0A3EFF09081AD15
:10512300E030E52343232022120C3DE4F0A3F0906A
:1051330081ADE030E511432310229081AFE0B4014B
:1051430006757602757705229081B0E0240CFF90F6
:1051530081AFE03400FE229081AEE024FD600E14A6
:105163006012240270147576027577022275760236
:105173007577032275760275770422E4FF12251EE4
:10518300E0B40301220FEFB403F37F002290837096
:10519300EFF0E52220E21653227F124FC7124ED3BF
:1051A3007F071202CD908370E0FF1247AE22E536EF
:1051B300247E700280057F010247AEE537242F70FD
:1051C300026115241C60026123E57F20E002611166
:1051D300E538D3947F501AE5386402601478A47CD0
:1051E300837D017B007A007938121E4E121E0B61FB
:1051F30028E538C394F05002610DE538D394F540A7
:1052030002610D7145E538540F908370F0E0FF7132
:105213005DF583E539F0EFB1AEE53AF0EFC454F054
:10522300B126F583E53BF0EFC454F0B12EF583E5E9
:105233003CF0EFC454F0B136F583E53DF0EFB1BB7C
:10524300E53EF0EFB1A3F5837488F0EFC454F0B1F9
:10525300837402F0EFC454F0B13EF583E53FF0EF01
:10526300C454F0B146F583E540F0EFB1C8E541F031
:10527300EFC454F0B14EF583E542F0EFC454F0B1FE
:1052830056F583E543F0EFB1D5E544F0EFC454F0B0
:10529300B15EF583E545F0EFC454F0B18DE5467199
:1052A30068908370E0FDB177AB07FA0BEBAE027049
:1052B300010A14F5828E83E06D60028044120FF4BC
:1052C300120FC9940750190BEBAC0270010A713924
:1052D300E66E60077F091247AE8005120FD180E0AA
:1052E30074022BFBE43AFA9083707407F0120FC92F
:1052F300940F50310BEBAC0270010A7139E66E600A
:10530300047F09801D120FD180E37F0380147F0285
:105313008010E57F30E00512424F80097F02800252
:105323007F021247AEE536648F6007E4F538F5393E
:10533300F53A4322042214F5828C83E0FE74382F5D
:10534300F822E4908371F0908371E0FD715DAF8288
:10535300FE9147B19740F022E0FEC454F024AEF52D
:1053630082E4348222F09177E4908381F090838108
:10537300E0FDC39406400281467E837F719147908E
:105383008378E0FF908381715BF583EFF090837204
:10539300E0F4FFEEB1AEEFF0908371120F85B1260A
:1053A300F583EFF0908374120F85B12EF583EFF040
:1053B30090837B120F85B136F583EFF0908373E012
:1053C300F4FFEEB1BBEFF090837AE06455FFB1A236
:1053D300F583EFF090837F120F85B183EFF0908315
:1053E30079120F85B13EF583EFF0908377120F8525
:1053F300B146F583EFF090837DE0F4FFEEB1C8EFA3
:10540300F0908376120F85B14EF583EFF090837E93
:10541300120F85B156F583EFF0908380E06455FF5A
:10542300EEB1D5EFF0908375120F85B15EF583EF82
:10543300F090837C120F85B18DEFF0908381E004AF
:10544300F0617022908382EEF0A3EFF0EDB177FE6E
:105453000FBF00010EAA06A9077B01C00290838239
:10546300E0FEA3E0AA06F8AC027D01D0027E007F35
:10547300100202CD12004DE4908371F07E007F1183
:10548300B1E6908371E0FF9083A4F0EFD130C002C6
:10549300C00191AED001D002121E4E908371E0FF85
:1054A300B16EB19740D6229083A4F078A57C837D1A
:1054B3000122908371EFF0A3EDF0B1E2908372E0EB
:1054C30024FE601E14602F146040240370549083E4
:1054D30071E0242091AA7B017A8379107E007F0DED
:1054E300803A908371E0243091AA7B017A837925F5
:1054F3007E007F098026908371E0244091AA7B017E
:105503007A83792F7E007F0F8012908371E024507D
:1055130091AA7B017A83793E7E007F0E1202CD121F
:105523001E0B2224B0F582E434822224B1F582E4F6
:1055330034822224B2F582E434822224B6F582E452
:1055430034822224B7F582E434822224B9F582E43A
:1055530034822224BAF582E434822224BCF582E424
:1055630034822291B5908370E0FF22EFB177FE7D04
:1055730011021C0575F020A42400FFE5F03470220D
:1055830024B5F582E43482F5832224BDF582E43424
:1055930082F58322908371E004F0E0C3940622EE47
:1055A300C454F024B4F582E4348222C454F024AF0A
:1055B300F582E43482F58322C454F024B3F582E403
:1055C3003482F58322C454F024B8F582E43482F59E
:1055D3008322C454F024BBF582E43482F583227E13
:1055E300007F107D007B017A8379A40201E5B1E29B
:1055F3009083A4740391AD7B017A8079FCD1290255
:105603001E0BEF7A6C60027A6E7B007F1F74102B87
:10561300FBE43AFA8B82F583E0B505078A7B8B7C42
:10562300F46002DFE8227E007F070202CD75F010EE
:10563300A424AEF9748235F0FA7B0122D2911215BB
:10564300FFD2902290837AEFF01247E1EF7005903A
:10565300837A04F090837AE09006C393FF22D147C4
:10566300AD077F0522E4FF124338EF54FDFDE4FF4D
:1056730012127BD28422C2917F601202F3120309B9
:10568300D29122AD079083A37406F090838EE060DD
:1056930002E1449083A2E04404F054FDF090838F30
:1056A300EFF0BF75219083A17475F09080FC74DED8
:1056B300F0A374ADF0A374DFF0A3740AF0E4908355
:1056C3009AF0A3F0800C90838FE014120F9A9083CA
:1056D300A1F0E4908374F0122E70504390838FE016
:1056E300146F6033908374E0245AF8E67029120F24
:1056F3008D30E023120D76E04401F0908374E0FFD7
:10570300120FDFE06009120D78E04404F080089086
:105713008374E0FF1222DA908374E004F080B8E42B
:10572300FF74912FF582E43483F58374FFF00FEF58
:10573300B410EEF14512162E12131B90838E7401D2
:10574300F022E490838DF09083A1E0FFE422121E07
:1057530085122FED7F01124363E49083A3F00217B8
:10576300F690838EE07F017001FF22F19CC002C09E
:105773000178D17C817D01D001D002F18AF1914081
:1057830003E4F578D2AF227E007F140202CDE4F564
:10579300790578E578C3940C22C2AFE57875F015E6
:1057A300A42401F9748035F0FA7B01229083A2E0EE
:1057B3004402F04401F02290839CE09080FCF0903E
:1057C300839DE09080FDF090839EE09080FEF090BA
:1057D300839FE09080FFF09083A0E0FFA3F0121678
:1057E3002802131B1202F37FFF1202F37FFF120240
:1057F300F37FFF1202F37FFF1202F37FFF0202F334
:10580300F0A3F0A3F0A3F0A3F0A3F02275F01CA47F
:105813002406F582E43481F583E02275F01CA42488
:1058230005F582E43481F583E02275F01CA4241885
:10583300F582E43481F58322E4F53A8F39853738EC
:1058430085363775341075368F53229F22908374B3
:10585300E0FD249DF582E43482F583EF227D007B15
:10586300017A8179AF7E007F060202CDA807087412
:105873000126F61874F836F64321047E077FFF22CB
:10588300908373E0FEA3E0F5828E83E022F09083A1
:105893000EE054FEF05372FB2224A3F582E434821B
:1058A300F583E0FFAE0574002E22A807E6FC08E6A8
:1058B300C39401EC64809478A80722F0A3E526F052
:1058C300A3E527F0A3E528F0A3E52922121BFA900C
:1058D3008380E09083A4F090837FE022908370E044
:1058E300FEA3E0FFC322AF39EFFFAD38ED90837025
:1058F300CFF0A3EFF02275F01CA42413F582E43457
:1059030081F583E0FF2225E054069083C5F0E0AEE5
:10591300054EFD7F062275F01CA42412F582E434A3
:1059230081F583E02275F01CA42409F582E4348117
:10593300F583E02275F01CA4240AF582E43481F592
:1059430083E02274212FF582E43482F583E4F0228C
:10595300C291EF541F4420FF0202F3C2917FA002C1
:1059630002F3D291D2907F0A1214CAC29022121B60
:10597300259083A4E0908380F022750810E57E04CF
:10598300F509750A49227E817FD47D151211D9EF5D
:105993002213540133333354F8423922745A257E87
:1059A300F8E6FFC3943022F090837FE0FEA3E0FF8C
:1059B300229081AEE0FF742D257E227508107509B3
:1059C300FF750A4A22A3F0908281E0FFED22FF7463
:1059D300017E00A8070822908282E0FFED240522C1
:1059E300908373E0FEA3E0FF2290837BE0FFC394E8
:1059F300062278A47C837D017BFF2204FFAE040C86
:105A030074002E227E007F077D007B00227D017FB4
:105A13000202127B35F0A801FC7D0122F582E434F9
:105A230082F583221202CD90837BE022E075F01C85
:105A3300A4241022FFE52475F005A42290C7D6E024
:045A43004408F02201
:0267FE0010A1E8
:1074000002756EBB010689828A83E0225002E72260
:10741000BBFE02E32289828A83E49322BB010689B0
:10742000828A83F0225002F722BBFE01F322C2D5EA
:10743000EC30E709B2D5E4C39DFDE49CFCEE30E7F7
:1074400015B2D5E4C39FFFE49EFE12749CC3E49D75
:10745000FDE49CFC800312749C30D507C3E49FFFBD
:10746000E49EFE22A42582F582E5F03583F5832291
:10747000D083D082F8E4937012740193700DA3A3AB
:1074800093F8740193F5828883E4737402936860BF
