:020000040000FA
:1000000002010A020403FFFFFFFFFF02040BFFFFD0
:10001000FFFFFF020413FFFFFFFFFF02041BFFFFB0
:10002000FFFFFF020423FFFFFFFFFF02042BFFFF80
:10003000FFFFFF020433FFFFFFFFFF02043BFFFF50
:10004000FFFFFF020443FFFFFFFFFF02044BFFFF20
:10005000FFFFFF020453FFFFFFFFFF02045BFFFFF0
:10006000FFFFFF020463FFFFFFFFFF02046BFFFFC0
:10007000FFFFFF020473FFFFFFFFFF02047BFFFF90
:10008000FFFFFF020483FFFFFFFFFF02048B00005E
:100090000080FB120113B90003020104E4794078E7
:1000A00008B800028004F709D8FCE4795F783FB80B
:1000B00000028004F709D8FCE4900005788D7901EE
:1000C0008002F0A3D8FCD9FA78489001167A17BAC2
:1000D00000028007E493A3F608DAF9900091AA825F
:1000E000AB8390012D780579018015E493A3AC8250
:1000F000AD838A828B83F0A3AA82AB838C828D83AB
:10010000D8E9D9E71276C912008E75D0007581BF83
:100110000200937901220004003101B901D201E209
:1001200001FEC0ADDE7FF0CCAAFFFFFFFFFEC0AD39
:10013000DE12010002000000206D04ACAA010301E0
:1001400002000109022200010104803109040000BB
:100150000103000000092111010001221900070517
:1001600081032000010403090412034C006F00679F
:1001700000690074006500630068001E03550053A9
:10018000004200200042006F006F0074004C006FBE
:1001900000610064006500720002031E0342004F0C
:1001A000005400300033002E00300031005F004268
:1001B00000300030003000380006B0FF0901A10116
:1001C00075089520150026FF00090181000901919D
:1001D00000C022000000B9011900210000005501F3
:1001E0000900E066701008A3E066700A08A3E066E4
:1001F000700408A3E06622BB0102E722C082C0832C
:1002000089828A83BB0003E08002E493D083D0829A
:1002100022BB000EC082C0838A838982F0D083D043
:100220008222BB0101F722E6F008A3E6F008A3E66C
:10023000F008A3E6F022600C08C6C313C618C61364
:10024000C6D5E0F422700422600D18C6C333C60878
:10025000C633C6D5E0F41822E473CFF608EEF608EC
:10026000A62008E9C0E07908E7F60809DFFAD0E03F
:10027000F922CAC0E0E9C0E0E6FF08E6FE088620F1
:10028000087908E6F70908DAFAD0E0F9D0E0FA22AE
:10029000D083D082C5F0E493A3C5F0C395F0F5F008
:1002A000E493A3C395F04005E5F0048001E475F004
:1002B00002A42582F582E5F03583F583E493A3C09B
:1002C000E0E493C0E022D083D082CCC0E0E493A3EA
:1002D00060061202F01470FAE493A3600612030F92
:1002E0001470FAD0E0FCE493A3C0E0E493C0E022F1
:1002F000C0E0E493A3D39C5010E493A3C39C400AB2
:10030000D0E0D0E0D0E00202E3A3A3A3D0E022C07B
:10031000E0E493A36C7009D0E0D0E0D0E00202E307
:10032000A3A3D0E022424F5430332E30315F42300D
:10033000303038FFFFFFFFFFFFFFFFFFFFFFFFFF32
:10034000FFFFFFFFFFFFFFFFFFFFFFFFFFFFFFFFBD
:10035000FFFFFFFFFFFFFFFFFFFFFFFFFFFFFFFFAD
:10036000FFFFFFFFFFFFFFFFFFFFFFFFFFFFFFFF9D
:10037000FFFFFFFFFFFFFFFFFFFFFFFFFFFFFFFF8D
:10038000FFFFFFFFFFFFFFFFFFFFFFFFFFFFFFFF7D
:10039000FFFFFFFFFFFFFFFFFFFFFFFFFFFFFFFF6D
:1003A000FFFFFFFFFFFFFFFFFFFFFFFFFFFFFFFF5D
:1003B000FFFFFFFFFFFFFFFFFFFFFFFFFFFFFFFF4D
:1003C000FFFFFFFFFFFFFFFFFFFFFFFFFFFFFFFF3D
:1003D000FFFFFFFFFFFFFFFFFFFFFFFFFFFFFFFF2D
:1003E000FFFFFFFFFFFFFFFFFFFFFFFFFFFFFFFF1D
:1003F000FFFFFFFFFFFFFFFF6D04ACAA0103080032
:10040000020505021FD2FFFFFFFFFF021FD2FFFF01
:10041000FFFFFF021FD2FFFFFFFFFF021FD2FFFF00
:10042000FFFFFF021FD2FFFFFFFFFF0222C3FFFFFC
:10043000FFFFFF02554FFFFFFFFFFF021FD2FFFF2D
:10044000FFFFFF021FD2FFFFFFFFFF021FD2FFFFD0
:10045000FFFFFF021FD2FFFFFFFFFF021FD2FFFFC0
:10046000FFFFFF021FD2FFFFFFFFFF021FD2FFFFB0
:10047000FFFFFF021FD2FFFFFFFFFF021FD2FFFFA0
:10048000FFFFFF021FD2FFFFFFFFFF021FD200008E
:100490000080FB120514B900030204FFE4792178FF
:1004A0004FB800028004F709D8FCE47970781AB8D4
:1004B00000028004F709D8FCE47980787DB8000256
:1004C0008004F309D8FCE4900005789D790480024B
:1004D000F0A3D8FCD9FA9003A1AA82AB83900517A8
:1004E000780D79018015E493A3AC82AD838A828B69
:1004F00083F0A3AA82AB838C828D83D8E9D9E712DB
:100500001FD612048E75D0007581BF75108075934B
:10051000060204937901222305D9050A073A073A0E
:1005200007000012010002000000206D042BC5032B
:10053000240102000109025400030104A03109044E
:1005400000000103010100092111010001223B000B
:1005500007058103080008090401000103010200E6
:1005600009211101000122940007058203080002FD
:100570000904020001030000000921110100012209
:100580006200070583032000020403090412034CE0
:10059000006F006700690074006500630068001A5E
:1005A00003550053004200200052006500630065BF
:1005B00000690076006500720002031E03520051BC
:1005C000005200320034002E00300033005F004241
:1005D00000300030003200370005010906A1010596
:1005E0000719E029E71500250175019508810281A9
:1005F00003950505081901290591029501750391D7
:100600000195067508150026A400050719002AA4FF
:10061000008100C005010902A10185020901A100B4
:100620000509190129101500250195107501810290
:1006300005011601F826FF07750C950209300931EE
:1006400081061581257F7508950109388106050CFD
:100650000A380295018106C0C0050C0901A1018577
:1006600003751095021501268C0219012A8C02814E
:1006700000C005010980A1018504750295011501DD
:100680002503098209810983816075068103C006FB
:10069000BCFF0988A1018508190129FF150126FF62
:1006A00000750895018100C00600FF0901A10185C0
:1006B0001075089506150026FF0009018100090143
:1006C0009100C00600FF0902A1018511750895136C
:1006D000150026FF000902810009029100C00600F2
:1006E000FF0904A10185207508950E150026FF005D
:1006F00009418100094191008521951F150026FFC0
:10070000000942810009429100C022000000D90581
:100710003B00220000011406940022000002A806FB
:10072000620021000000470509002100000160056A
:10073000090021000002790509003E050000570567
:10074000000070050000E066701008A3E066700A03
:1007500008A3E066700408A3E06622BB0102E7225A
:10076000C082C08389828A83BB0003E08002E49355
:10077000D083D08222BB000EC082C0838A8389824C
:10078000F0D083D08222BB0101F72270090808084B
:10079000226016181818C6C333C608C633C608C662
:1007A00033C608C633C6D5E0EA22E326F30809E3D8
:1007B00036F30809E336F30809E336F322E056F688
:1007C00008A3E056F608A3E056F608A3E056F62282
:1007D000E49346F60874019346F60874029346F6CD
:1007E0000874039346F622E3F60809E3F60809E3E2
:1007F000F60809E3F622E0F608A3E0F608A3E0F61F
:1008000008A3E0F622E493F608740193F608740254
:1008100093F608740393F622C9C0E0E7F20809E7EB
:10082000F20809E7F20809E7F2D0E0F922E6F00859
:10083000A3E6F008A3E6F008A3E6F022CAC0E0E6CB
:10084000F30908DAFAD0E0FA22CAC0E0E2F30908B4
:10085000DAFAD0E0FA22C3E498F8E499F91208979A
:100860008026C3E49AFAE49BFBE920E7E9120897A3
:10087000E498F8E499F922C3E498F8E499F91208A5
:1008800097E498F8E499F9C3E49AFAE49BFB22EB25
:1008900020E7CFE920E7E0B90010BB0008E88AF0C4
:1008A00084F8AAF022E4FBC8FA22EB70227B10C87D
:1008B00033C8C933C9335007C39AC3DBF280069AE1
:1008C00050012ADBEAC833F4C8C933F4C9FA2275E7
:1008D000F008E4C833C8C933C933C99AC99B500466
:1008E000C92AC93BD5F0ECFBC833F4C8E4C9FA22E5
:1008F000600D08C6A2E713C618C613C6D5E0F322DA
:10090000600C08C6C313C618C613C6D5E0F422701F
:100910000422600D18C6C333C608C633C6D5E0F43A
:100920001822E473D083D0822510F8C510C3982410
:10093000FBCEF208E520F208E9C0E07908E709F209
:1009400008DEFAD0E0F9EFF208D0E0FED0E0F208DD
:10095000EEF208E473A810E2FE08E208F520E9C010
:10096000E07908E208F709DFFAE208FFD0E0F9E2EF
:1009700008C0E0E208C0E0881022C0D0C0F088F0D3
:100980002510F8C510C39824F3C0E0E5F0F208E99B
:10099000F208EAF208EBF208D0E0FB7908E709F286
:1009A00008DBFAE582F208E583F208D0E0F208D02D
:1009B000E0F208E520F208ECF208EDF208EEF208A9
:1009C000EFF222A810E208C0E0E208C0E0E208FA74
:1009D000E208FB7908E208F709DFFAE208F582E2AB
:1009E00008F583E208F5F0E208F5D0E208F520E228
:1009F00008FCE208FDE208FEE208FF8810D0E0F9FA
:100A0000D0E0F8D0E0327403800474028000C9C0E2
:100A1000E0E510C399F510C912083CD0E0F9227442
:100A2000038000C9C0E0E510C399F510C912084958
:100A3000D0E0F922D083D082C5F0E493A3C5F0C3FF
:100A400095F0F5F0E493A3C395F04005E5F004803C
:100A500001E475F002A42582F582E5F03583F58383
:100A6000E493A3C0E0E493C0E022D083D082CCC062
:100A7000E0E493A36006120A941470FAE493A3606E
:100A800006120AB31470FAD0E0FCE493A3C0E0E4C9
:100A900093C0E022C0E0E493A3D39C5010E493A35E
:100AA000C39C400AD0E0D0E0D0E0020A87A3A3A311
:100AB000D0E022C0E0E493A36C7009D0E0D0E0D095
:100AC000E0020A87A3A3D0E02205264A0E00000018
:100AD0003F003F003F0000003F00001024030027BC
:100AE0008808040100000000000000000102030467
:100AF000010606000000000000000000010840019F
:100B00000400010000000000000000000208400294
:100B10000400010000000000000000000308400382
:100B20000400010000000000000000000408400470
:100B3000040001000000000000000000050840055E
:100B4000040001000000000000000000060840064C
:100B50000400010000000000000000000102030486
:100B6000000000000000000000000000010A0B006F
:100B70000D0E000000001415001718000000000002
:100B8000020400050105080B0E1114171A1D20237D
:100B900026292C2F3235383B3E4144474A01040573
:100BA000060102030A0B0C0D0E090A0B120D0E0FA3
:100BB00016171813141511FF0A000000000000009A
:100BC000000000000000000000007FF0CCAAB80B7D
:100BD00000008001000000FFFFFF00000000FFFF99
:100BE0007587010022EB900015F0EA900016F07571
:100BF000D60100000000000000000075B345E5B319
:100C0000A2E350FA227400900015F07405900016CB
:100C1000F0740090001FF07425900020F075D6034A
:100C200000000000000000000000000000000000C4
:100C3000000075B341E5B3A2E350FA227400F5D584
:100C400075D4157400F5D375D21D7470900017F02B
:100C500074B1900018F0E4900019F0741090001A2C
:100C6000F0741D90001BF0744190001CF0747090A3
:100C7000001DF074B290001EF0E4900021F074109A
:100C8000900022F0741E900023F07411900024F064
:100C9000120BE578B0E290000CF008E290000DF045
:100CA00008E290000EF008E290000FF0120C0590A0
:100CB000002CE0FA78AFE26AF290002B120CE4907C
:100CC000002A120CE4900029120CE4900028120C67
:100CD000E4900027120CE4900026120CE49000250A
:100CE000120CE422E0FA18E26AF22274F5120924E6
:100CF000E51024F0F510750B007401900108F074F4
:100D000060250B120E3C850B0A850A0C750D0074CC
:100D100004780C12090FE50C2435FEE50D3400FFB4
:100D2000EA7001EB6015750A007808120A067C105B
:100D30008E828F83A982AA83121F177A008A08EEF7
:100D40002508F582EF121318C0E0E5102AF8D0E06C
:100D5000F20AEAC3941040E5E5102407F8E28E8217
:100D60008F83F0E51004F8E2F4A3F018E28E828F8E
:100D700083A3A3F0080808120E53F0E510240A120A
:100D80000E49F0E5102402120E5CF0E5102409F87B
:100D9000E264558E828F83A3A3A3A3A3A3F0E510DF
:100DA000240E120E49A3A3A3F0E5102408F8120E96
:100DB00069F01818120E69A3F0E510240C120E5CED
:100DC000A3A3A3A3A3F0E5102405F8E2C0E0EE245A
:100DD0000BF582EF124214D0E0F0E510240DF8E29A
:100DE000C0E0EE240CF582EF124214D0E0F00808C7
:100DF000E26455C0E0EE240DF582EF124214D0E01B
:100E0000F0E5102404F8E2C0E0EE240EF582EF12C3
:100E10004214D0E0F0E510240BF8E2C0E0EE240F1D
:100E2000F582EF124214D0E0F0050BE50BC39406F7
:100E30005003020CF9E51024100226CEF9120E41DF
:100E4000221223B28A088B0922F8120E4E22120EA9
:100E500053A322E28E828F83A3A3A322F8E2F48E0F
:100E6000828F83A3A3A3A3A322120E4EA3A3A3A3A3
:100E700022EEC0E0E9FE754F107881E2F550755121
:100E8000817552F18E53EE120A340102B80E940E9F
:100E9000A20EAD0E900098E0F554900099120EC18C
:100EA000801B90009BE0F55490009A80F0755400F0
:100EB000900097120EC180057903121803D0E0FE4E
:100EC00022E0F555120EE622754F107881E2F550BA
:100ED00075518278A6E2F55208E2F5537554007513
:100EE0005500120EE6225367DF4367042274E28A3C
:100EF000828B83F0E960047C1080027C00EC440863
:100F0000A3F0227880E27003790022790122532134
:100F1000FBE47880F2122BBEE49000A6F074FD553D
:100F2000214401F5212274FA120924E9FE74069085
:100F300000A6F07880E26003020FD374FD552144CF
:100F400004F521EE08F2FA74756A70267475900043
:100F5000A8F074DE900115F074AD900116F074DF06
:100F6000900117F0740A900118F090009EE4F0A32D
:100F7000800974FF2A1217D49000A8F07F008F8296
:100F8000AA827881E2F874FF281874FF3400F9E827
:100F90006A7001E9601AEA123BA67004A3E064FFDC
:100FA000600E742F2FF8E6A2E05005EFF9122EFB29
:100FB0000FEFC3940640C77D107CFF79957A007BC4
:100FC00000122AB7E49000A7F07A051211A5740167
:100FD0007880F2023ED474F412092415101510859D
:100FE0009309AE10AF937880E2120A3400047311B3
:100FF0007311FA0F83109210391179011211766072
:101000007978A7E2A2E440030211738808750A0008
:101010007808120A067C1079957A00121F17900141
:1010200015E064DE7049900116E064AD70419001F6
:1010300017E064DF7039900118E0640A70319000A5
:10104000A0E0900115F09000A1E0900116F0900052
:10105000A2E0900117F09000A3E0900118F090003A
:10106000A4E09000A8F09000A7E004F002111B4358
:10107000210374037880F20211739000A712118883
:10108000021173790012117660F0E521A2E140E2CD
:1010900080DDE5376538700302112E74069000A6D6
:1010A000F0E53775F016A424FAF50CE5F03401F5F7
:1010B0000D750E00780C120A067C147983AA93121F
:1010C0001F1785370A123C5112088FEAF5377886C8
:1010D000E2120A6A0002E2DE10F1261173111818FA
:1010E000E2FA7881E26A702AE567A2E2500302110F
:1010F0007379157A86AB091242ABE96005120EC806
:1011000080719000A7E075F00384E5F0F0740402AC
:10111000107479031218039000A7E01211921211B3
:10112000A5740202107408E2F9120E718045900055
:10113000A5E0C39449403C80E89000A7E0C3941523
:10114000501B121188E567A2E2402879157A86AB18
:10115000091242ABE9601C120EC802107274FD55F0
:10116000214401F5217909121803E49000A7F07ACF
:101170000580AB0240E7EEFAEFFB120EED7902EECE
:10118000FAEFFB1242ABE922E004F01211921211C5
:10119000A52275F00384E5F024C9F582E4340AF54C
:1011A00083E493FA229000A8E0F9124219227D0606
:1011B0007C0079A97A001211D979AF7A001211D97D
:1011C00079B57A007B00122AB7743F9000BBF0E437
:1011D0009000BCF09000BDF0227B00122AB77D0683
:1011E0007C0022EEC0E0E9FEF8E6FC08E6FD748033
:1011F0005BF9E47001E960297401C39AF874F89B03
:10120000F9C3EC98ED99A2D265D0335009EEF87687
:10121000010876F88027EEF8EC2AF608E63BF6801F
:101220001C74FFC39AF874079BF9C3E89CE99DA25C
:10123000D265D03350E0EEF876FF087607D0E0FEB6
:101240002274FA120924E7FE3395E0FFEAFC339595
:10125000E0FDEAA2E7501F7481C39CFC74FF9DFD72
:10126000C3EE9CEF9DA2D265D03350047781801CE1
:10127000EAC727F78016747FC39CFCE49DFDC3EC8E
:101280009EED9FA2D265D03350E6777F023ED474A4
:10129000F9120924E9FE8E82A882124C922419FCCC
:1012A000EB3400FD8C828D83E0A2E15009E8123519
:1012B000E4E4F04366028C828D83E0A2E2500FE802
:1012C0001213B1E4F0E81213A2E4F04366088C8232
:1012D0008D83E0A2E35003436620A2E450034366FB
:1012E00080EA241A1213225003436702EA241B12D5
:1012F0001315A2E65019E523A2E3501375080175F2
:101300000900EE780812090F9000BDE04508F002D0
:101310002A5EEA2421F582EB12131C223400F583A5
:10132000E022F582EB12131CA2E022C008C009AA39
:101330003678A8E2C0E01213B0D0E0F008E2C0E0D6
:101340001213A1D0E012142F12140040FB78AA123D
:10135000449DF8740F58FB74085BF9E47001E96070
:101360000474F04BFB794B1211E378ABE2C4540FD9
:10137000FA0812387F12090FE5082AFAE509340045
:10138000FB74085BF9E47001E9600474F04BFB79CD
:101390004D1211E378AD12141C78AE121424023CE5
:1013A000FEEA1213A62224AFF582E43400F583226C
:1013B000EA1213B52224A9F582E43400F58322AAA7
:1013C0003678A8E2C0E01213B0D0E0F008E2C0E046
:1013D0001213A1D0E012142F12140040FB78ABE2DC
:1013E000FB18E2FA794B1211E378ADE2FB18E2FA4E
:1013F000794D1211E378AE12141C78AF1214242226
:101400008A82A882E81213B5E04548F548E812132D
:10141000A6E04547F5470AEAC3940622E2FA79496D
:1014200012124122E2FA794A12124143660422F072
:101430007548007547007A0022C008C009E523A25C
:10144000E340030214F97411900389F07401253606
:1014500090038AF0746690038BF078A8E290038C76
:10146000F008E290038DF008E290038EF078B2E28B
:10147000C454F0C0E078ABE2540FFAD0E04A9003D5
:101480008FF008E2900390F008E2900391F008E2F8
:10149000900392F008E2900393F008E2900394F036
:1014A00008E2900395F078BAE2C454F0C0E078B353
:1014B000E2540FFAD0E04A900396F008E2900397C6
:1014C000F008E2900398F008E2900399F008E290A7
:1014D000039AF008E290039BF008E290039CF075F9
:1014E0000801750900E536780812090FE508F4FAD5
:1014F0009000BDE05AF0436710023CFE74F81209F8
:101500002474200245D674F812092474210245D6A9
:1015100074F7120924E568A2E250185368FB7E00B4
:101520008E08E508122D40EEF9123AAF0EEEC39484
:101530000640EDE522A2E350065322F712157EE5A0
:1015400022A2E55036E567A2E240305322DF900B3D
:10155000CA7808120805900001780812082DC2AF59
:10156000E490620F121FC990620FE0A2E740F87A80
:10157000EE7B02122293121F2D80FE023B2974F98A
:101580001209249000C0E0FA9000BFE0FB74FF6BEA
:101590006003021621EA120A3480023A16A315F4F7
:1015A0001511169000C2E0FA74FF6A6003EA700336
:1015B000EA800374012A9000F5F07E00800BE7C2F8
:1015C000E1F70EEEC394065071742F2EF9750801E1
:1015D000750900EE780812090F9000C1AA08E05AB8
:1015E00060DCE7A2E140DBE9F8E6D2E1F6EEF912D1
:1015F000128F80CE4322047E00742F2EF8E6A2E0E4
:101600005003D2E6F60EEEC3940640ED432202806C
:10161000299000C1E06005432304801E5323FB8012
:1016200019740E6A701474FF2BFE9000C1E0FAEE7C
:10163000124476EAF0EEF9123AAF022A5E74F3121F
:101640000924E51024FBF510E567A2E64003021724
:10165000CF5367BF900363E0FAE5102402F8746289
:10166000F208740312448474FF6A706FE567A2E2A3
:1016700050030217CF900362E06410703A181812FA
:101680000A1F7C07794F7A007B01121F19E551125E
:101690000A348003B2169E16A716B216AC1612189C
:1016A00017120EE60217CF121AAA80F5121C3B027F
:1016B00017CF79010217CCE0641160030217CF182D
:1016C00018120A1F7C14794F7A007B01121F1974BB
:1016D00082655170DD121CB40217CF74FF2AF50B1E
:1016E000C39406400874756A60030217ABAA388A6F
:1016F00082AE82EE75F016A424F9FAE5F0340112F8
:1017000017E8120F03E9603F900362E0120A3410F9
:1017100001CF171717171774012E123C5512088F97
:101720008A0EE537650E7001EB6017E5102402F8AC
:10173000120A1F1217F1123B6712088FEAF53802DE
:1017400017CF750B078067AE0B900362E0120A3467
:101750001001CF1758175817EEC39406504DEEF9E5
:10176000123B78E9FF703DA810E2F58208E2F583AC
:10177000EEF008120A1F1217F1AA388A82A882EE28
:101780001217D4C0E0E875F016A424FBF582E5F04A
:101790003401F583D0E0F074012808123C56120899
:1017A0008FEAF5388F0BEF70058024750B08E5671D
:1017B000A2E2401B5367BFE5102402F8120A1F7C07
:1017C00007794F7A007B01121F19A90B1218030524
:1017D00010025A621217D82275F01DA4241DF5823A
:1017E000E5F03401F583E022FBA810EAF208EBF201
:1017F000227C14E5102403F8125A4DA982AA831200
:101800002A35227555008954855253855152754F9A
:101810001075518F020EE274F71209241510E55469
:10182000FAE553F508E552120A6A000B004F180159
:10183000921802A11803C918B2D118D08019D194F6
:1018400019D4AD19D70D1AF04B1AF29D1AA51AEA40
:10185000A2E0500543220180035322FEA2E350057B
:1018600043221080035322EFA2E450054323088053
:10187000035323F7A2E25015432310748F65516080
:1018800009755300755400755500023B275323EF2B
:1018900080E9EAA2E35005432C0180DF532CFE804F
:1018A000DAE553A2E150D4E522A2E050CEE4A8103C
:1018B000F2E2242FF8E6A2E05003D2E2F6A810E20A
:1018C00004F2C3940650B480E8E5089000BCF080B0
:1018D000AAE522A2E65003021AA574016553600628
:1018E000740665537047AA10AB93123661E9640120
:1018F00070337406655370047A0180027A00E555EE
:10190000700375551E74019000F4F0855535EA900A
:101910000359F0123F1AE522A2E0400302187B436C
:10192000680102187B790512180302187B7402659E
:10193000537006122EEB02187B740365536003028A
:101940001A46EAC394074003021A46EA7003021AD1
:101950004674FF2AA810F2F912128F750801750952
:1019600000A810E2780812090FAA08AB0912248710
:10197000122BBEA810E2242FF8C64428F602187BCA
:10198000740165087005432240800353223F122AE8
:10199000EC02187BE522A2E64003021AA51220738E
:1019A000E96401700302187B790B021927E522A272
:1019B000E64003021AA5EAAE08FFC3EE9410EF94C6
:1019C000004003021A46797C120E3D79F87A007BBA
:1019D00000E5087002E50970097D107C00122AB745
:1019E000800C8B0A7808120A067C10121F19E55524
:1019F000C0E0EE24F8F582EF3400F583D0E0F07C0F
:101A0000107AF87B00797C12240102187BE522A26F
:101A1000E64003021AA5E508120A340006461A7BBE
:101A2000182D1A461A331A361A461A3C1A1225FF6E
:101A300002187B1225FF1228B502198E7AFF7BFF50
:101A400012248702187B79030219277449650870EC
:101A5000127443655470EF7450655570E943222049
:101A600002187B744C6508701C7454655470D7E57B
:101A700055F974FF29C39406400574756970C7123F
:101A80000F2602187B7458650870BB744965547042
:101A9000B57454655570AF120F0E02187B74016552
:101AA0000870A380FE790202192774F9120924E54F
:101AB00053F508E552120A6A000900F71A012C1BB7
:101AC00002431B03651BD0771BD4891BE6B81BF0B0
:101AD000D71AF1C71B281C755300755400755500A3
:101AE000120F03E97003021C2D75534C7554547882
:101AF00081E2F555021C2D75530075540075550093
:101B0000E523A2E3E492E0C4C0E0E522A2E4E4928B
:101B1000E033333354F8C0E0E522A2E0E492E0FA87
:101B2000D0E04AFAD0E04AF554021C2D75530075F6
:101B30005400755500E52CA2E0E492E033333354B1
:101B4000F880E47553007554007555007A00742FC1
:101B50002AF8E6A2E0500205540AEAC394064003BC
:101B6000021C2D80E97553007554007555009000D6
:101B7000BCE0F553021C2D755300755400755500DB
:101B8000E522A2E6E492E080E9E554AE08FFC3EE68
:101B90009410EF94005019797C121F067001E970BF
:101BA00003021C24E82EF582E93FF583E0021AF2D5
:101BB0008E828F83E0021AF2A92EE9F553A82DE850
:101BC000F5547555008066E508120A340104241C9A
:101BD000DA1BE21BEA1B011C191C75542475550302
:101BE000804B75540075552780439003FA121C30C2
:101BF000700374FF69602D740193F554E493021A25
:101C0000F29003FC121C30700374FF696016E493B9
:101C1000F5549003FEE493809C90624AE0F5549062
:101C200062498088790380027902121803022A5ED1
:101C3000E493F8740193F974FF682274F71209248D
:101C4000E552120A34B302AC1C7B1CAC1C4F1CE5E1
:101C500053F9C394805008122A237001EB70047961
:101C600003804B750A007808120A067C0F79547AB3
:101C7000007B01121F1943672480367D107C007998
:101C8000537A007B01122AB77B00EB75F01DA42468
:101C900033F582E5F03401F583E0C0E074532BF8AE
:101CA000D0E0F60BEBC3940640E080CA790212182C
:101CB00003023B2974F8120924E552120A6A000251
:101CC000B5C81CD1ED1E021FE522A2E64003021F8B
:101CD00002E553FAC39480503C74026A6037750879
:101CE00054750900750A017808120A067C0F79F804
:101CF0007A00121F177C0F7AF87B00A95312240177
:101D0000748F655160097553007554007555004313
:101D1000670402460574102AC394064003021EE9B4
:101D2000740F5AFE8E087509007404780812090FA2
:101D3000E5082435F8E43400F9E55488828983F015
:101D4000E555A3F0E55688828983A3A3F0E557887B
:101D5000828983A3A3A3F0E55888828983A3A3A3E0
:101D6000A3F0E55912388AE55A88828983A3A3A390
:101D7000A3A3A3A3A3F0E55B88828983A3A3A3A362
:101D8000A3A3A3A3A3F0E55C88828983A3A3A3A351
:101D9000A3A3A3A3A3A3F0E55DC0E012420ED0E08D
:101DA000F0E55EC0E0E8240C124211D0E0F0E55FFF
:101DB000C0E0E8240D124211D0E0F0E560C0E0E898
:101DC000240E124211D0E0F0E561C0E0E8240F12C9
:101DD0004211D0E0F0EEF9122A417401900108F0AE
:101DE00074602EF9121F067001E97003021EE1886B
:101DF000828983E065546003021EE1A3E0655560BB
:101E000003021EE188828983A3A3E0655660030272
:101E10001EE188828983A3A3A3E065576003021EA5
:101E2000E188828983A3A3A3A3E065586003021E0F
:101E3000E188828983A3A3A3A3A3E0655960030279
:101E40001EE188828983A3A3A3A3A3A3E06488607F
:101E500003021EE188828983A3A3A3A3A3A3A3E013
:101E60006408707D88828983A3A3A3A3A3A3A3A3EB
:101E7000E0655A706C88828983A3A3A3A3A3A3A35C
:101E8000A3A3E0655B705A88828983A3A3A3A3A35D
:101E9000A3A3A3A3A3E0655C7047E8240BF582E944
:101EA000121318655D703AE8240CF582E9121318D4
:101EB000655E702DE8240DF582E9121318655F70D8
:101EC00020E8240EF582E912131865607013E824E7
:101ED0000FF582E912131865617006120CEB021DF2
:101EE000007909121803021D00790380F6E522A289
:101EF000E6500F12212FE964017003021D00790BD7
:101F000080E1790280DD120E41A808A909E8228C3F
:101F1000F0123C47A908FA7B00122A372275C680C6
:101F2000744055C6FA7440559E6A70F42243C9A0A5
:101F3000E5C943C950E5C92274F712092474035551
:101F400023FA6070E56FA2E050247878E6640470AC
:101F50001D74016A7005900BCE8003900BD2780837
:101F6000120805AA08AB09AC0AAD0B12221E123DDD
:101F70001290620FE0C2E1121FC990620FE0A2E767
:101F800040F875BE85120BE0121F1D12465D90626F
:101F90000FE0A2E750F87524185323FC7878E66424
:101FA000047011123D2B900119E0121FB76005EE6D
:101FB000900119F0023B29246CF582E4340BF5837F
:101FC000E493FEF9123F73E922F090624BE0D2E213
:101FD000F022C0D080FE75C909121F1D75FDFF7566
:101FE000800075900090624BE0D2E2F090620FE0CA
:101FF000C2E3F01247D11211AE122AEC7418559DAB
:1020000060077AE87B0312229312460A75E4097589
:102010002703752818752909E5E2F508E5E3F9A80D
:102020000874E828F8740339F988258926801C1279
:102030002C091222CA78F9E264017003121F387861
:10204000FAE264017005E4F25323FB121F2D1246DD
:102050006C7878E6640470DA12163D12151078F97F
:10206000E264016003124D2F120F03E960C1120FE9
:10207000D680BF74F9120924E553120A3400021104
:1020800021872011211121E554120A340003112166
:10209000982002210A2111219000F7E0C454F04455
:1020A00005FEE555120A3400041121B520BF20CBEE
:1020B00020EB20F320123D1243228079018054123C
:1020C00021167A01790012219780ED53227F123D6B
:1020D0002B123D129000F7E0C454F0440590618645
:1020E000F09000F6E0F9123F6A80D0752A00532282
:1020F0003F80C84322801221167A0079001221976E
:1021000080B9E5559000F6F080B1E5559000F78074
:10211000F67900022A5E9000F6E0F508123D12EE14
:10212000906186F074602508FC74093400FD227407
:10213000F9120924740465537058E554900115F0A0
:10214000E555900116F0E556900117F0E55790011E
:1021500018F0E55890011DF0123D2BE55BF9E55CA8
:10216000F8740C28F8E439F9900136E8F0A3E9F0A6
:10217000900138E4F0A3F0E55D900119F0FEC394FE
:10218000195003EE70037401F0E0F9123F56790123
:1021900080027900022A5EEEC0E0E9FBEC24B5FE85
:1021A00074016A700974016B70077900806CEA60D1
:1021B00018EE906184F0906190E0D2E5F0740A909E
:1021C00061A6F0E49061E9803BEB7021C3EC948A56
:1021D000ED9409EC500D24B6906184F07425906163
:1021E000A6800E24B4906184F0740F80F1EE9061AB
:1021F00084F0906190E0C2E5F074039061E9F074BE
:10220000FF9061E8F0EB700975E104E5BF709B8019
:102210000775E103E5BF70927901D0E0FE2274F703
:102220001209241240F08C0A8D0BE595A810F2E5F6
:102230009608F2E597081244847405780812078B13
:10224000A91078081207AAE5102402F8E2F59718F9
:10225000E2F59618E2F595C2C7D2AD051005100556
:1022600010023B27EBC313FBEA13FAEAF8EBF9740D
:10227000FF28FA74FF39FB7400687003740069600A
:10228000110000000000000000000000000000003D
:1022900080D92274FA120924EAFEEBFFEEF8EFF976
:1022A00074FF28FE74FF39FF7400687003740069BE
:1022B000600C121F2D7AE87B0312226480DE7F01FE
:1022C000020955C2C7C2C7C2AD3274F9120924E56A
:1022D000E2F508E5E3FB7825E508C396FEEB0896F2
:1022E000FFC3EE9401EF123A6E50030223AF78253C
:1022F000E624E8F608E63403F6EE2418FEEF34FC94
:10230000FFE5276002152778F9E26401701AE523DA
:10231000A2E24014E52460191524E524701374FC2E
:1023200055234402F5238009120F03E97003122D8F
:10233000469000A5E004F0C3EE9401EF123A6E500F
:10234000ADE527701F752704E52860021528E56CA8
:102350006006E56D6002156D900378E0C3947E50D1
:1023600003E004F0E5287009752819E529600615D1
:1023700029E529703A75290A78F9E264016030127A
:102380000F03E96401700D9000A6E0600714F0707F
:1023900003120F0E9000F5E0601514F070117A0032
:1023A000742F2AF8E6C2E1F60AEAC3940640F10265
:1023B0002A5E74F9120924E9FE900108E0700D7498
:1023C000705E646070067A007B00801FE4F090EC21
:1023D00000E0643F70187A047BEC122664EA700116
:1023E000EB60E3EA2404FAEB3400FB022A5E90F08F
:1023F00000E0643F70067A047BF080DE1225A38043
:10240000C574FA120924E9FEECFF750800850882FC
:10241000AC82EC24F8F8E43400F9ECC39F5007EAEE
:102420002C1213158001E488828983F00508E508E1
:10243000C3941040D890EC00E0643F702075820493
:102440007A00E064FF7023AA82AB83EA7001EB603C
:102450002B7CF87D00EEF912268C023ED490F00021
:10246000E0643F60D81225A38012E5822414F5822F
:10247000E5831242140AEAC3943340C67AF87B001B
:10248000EEF91226D580D374F3120924E51024FA4C
:10249000F5102404F81217EB90EC00E0643F70157F
:1024A000181818E4F20874ECF2750FF0791C122871
:1024B000147F1B802290F000E0643F700D18181804
:1024C000122599791B122814800B1225A3E51024DC
:1024D00002F81225997F1C797F7A00AB0F12260A29
:1024E000758200850F83A3A3A3A3A810E582F20839
:1024F000E583F27E00750801750900740F5E7808A7
:1025000012090FAA08AB091227B4E4935AF8A3E4FE
:10251000935BF9E87001E9605F74F05EFC74206C15
:10252000600F74306C600A74406C600574606C708D
:1025300012E5102404F8E25AFA08E25BFBEA7001A3
:10254000EB70351228008A0C8B0DEA7001EB6028C5
:102550001227C4120A061227D4850C82850D83E047
:10256000F9A8101244A512268CA810E22414FA0827
:10257000E23400FB181217EB0EEEC39480500302F6
:1025800024F5793F7A00AB0F12260AEFF9122814CE
:10259000E5102406F510025A6AE4F20874F0F275A8
:1025A0000FEC2290EC00E0643F602C90F000E064BF
:1025B0003F60031225FF90EC00E064FF701190F083
:1025C00000E064FF7009793F7A007B6C12260A9064
:1025D000EC00E0643F700D90F000E0643F7005791E
:1025E0001B12281490EC00E0647F7005791B122800
:1025F0001490F000E0647F7005791C122814227991
:102600001B122814791C1228142274F6120924EAC9
:10261000F58274804BF583C082C0838908750900F8
:10262000750A00750B00900BD678081207D0D0837E
:10263000D08278081207BD900109E508F0A3E509EA
:10264000F0A3E50AF0A3E50BF0750804750900781E
:1026500008120A0A7C097D0112282C051005107F3A
:102660000502095574FA120924FCFD7E338A828B17
:1026700083E0697004EAFCEBFDEA2414FAEB340011
:10268000FB1EEE70E8ECFAEDFB023ED474F5120985
:1026900024EAFEEBFF890A8C088D097480450AF94B
:1026A00012260A750C10750D00780C120A0AAC0877
:1026B000AD0974042EFAE43FFB12282C0510051016
:1026C000747F550AF9EEFAEFFB12260A8002F51024
:1026D0007F0602095574F3120924E51024FCF51055
:1026E000890B8A088B0990EC00E0643F701DE510AF
:1026F0002402F8E4F20874ECF2181818E4F20874F2
:10270000F0F2791C1228147F1B801A90F000E0640C
:102710003F700A1227E2791B12281480061225A3A3
:102720001227E27F1C797F1227F7A810E22404F514
:102730000C08E23400F50DAC08AD09A90BAA0CFB9E
:102740001227A47E00E50B6E60461227B4750801BF
:10275000750900740F5E780812090F935508F8A3E5
:10276000E4935509F9E87001E960251228008A0E02
:102770008B0FEA7001EB60181227C4120A061227A9
:10278000D4850E82850F83E0F9AA0CAB0D1227A425
:102790000EEEC3948040AE793F1227F7EFF912286E
:1027A00014025A6212268CE50C2414F50CE50D3443
:1027B00000F50D22EEC4540FC33324CCF582E4346B
:1027C0000AF58322EA2404F508EB3400F509750ABA
:1027D000007808227C1079F87A00122A357CF87D7E
:1027E0000022E5102402F8E4F20874F0F218181838
:1027F000E4F20874ECF222A8101244A912260A226C
:10280000EEF9E5102402F8E22404FA08E23400FBB1
:1028100012266422C0A8C2AFE9906272F090627082
:102820001242A600E0A2E740FBD0A82274F91209E8
:1028300024E5102407F8E2FE08E2FF7401F5D575DF
:10284000D40DD2B8ED90010DF0EC90010EF0746251
:1028500090010FF07473900110F0EF900111F0EE01
:10286000900112F07412900113F07442900114F070
:1028700053D1FE75D6010000000000000000007476
:10288000FF5AF508747F5BF5097402780812090095
:10289000E508906271F0E509906272F01228A202D8
:1028A0002A5EC0A8C2AF906270E0D2E1F0E0A2E779
:1028B00040FBD0A82274F8120924900108F01225D8
:1028C000A379021223B2EA7001EB60247D00800735
:1028D0000DEDC3941050248D82A882EA281213159E
:1028E000FCE824DCF582E4340AF583E4936C60E0D0
:1028F0007C107ADC7B8A790212240179031223B2DC
:10290000EA7001EB703E7508EC75090A750A80786B
:1029100008120A067C1079F87A00121F17E53C901D
:1029200000F8F0E53D9000F9F0740F553E449090AA
:1029300000FAF0E53F9000FBF07C107AF87B00791C
:102940000312240102460574F4120924151015100F
:102950007903122A237001EB70067508DC75098A69
:10296000750A007808120A067C0879157A01121F88
:10297000177E0074202E120E3C74302EF91223B2F2
:102980008A0C8B0D74402EF91223B28A0A742F2EF2
:10299000FC8E82AA82E5087002E509600FE50C70E2
:1029A00002E50D6007E50A7001EB702B8A087509D6
:1029B000007404780812090FE50824FCF8E50934CE
:1029C0000AF9E8F508748049F509750C5C750D8BFA
:1029D000ECF8E6C2E08005ECF8E6D2E0F6EA75F045
:1029E0001DA42415FAE5F034011217E8750A0078E1
:1029F00008120A067C0DE5102403F8E22408122AC6
:102A000028750E00780C120A067C09E5102403F8DC
:102A1000E22415122A280EEEC394065003022973ED
:102A20000240E7120E41EA22F50808E23400A90844
:102A3000FA122A35227B00122A63051005100510B0
:102A40002274F9120924E9FE7C108E0875090074BD
:102A500004780812090F1235F274601238467F02AA
:102A600002095574F812092489088A098B0AECFFB7
:102A7000E5102408F81244A2AC08AD09AE0A890892
:102A80008A098B0A802B1FA908AA09AB0A12075BC7
:102A9000C0E0ECF9EDFAEEFBD0E0120775E5082492
:102AA00001F508E5093400F509EC24010CED3400CA
:102AB000FDEF70D202460574F812092489088A09CC
:102AC00080131DECA908AA09120775E92401F5086D
:102AD000EA3400F509ED70EA024605E9700379046D
:102AE00022C3941150037909227915227539007592
:102AF0003A0075350075370075380074049000058C
:102B0000F07414900006F0741D900007F0741F908C
:102B10000008F07427900009F0742890000AF074FF
:102B20000D90000BF0740A900010F0740D900011DD
:102B3000F07413900012F07426900013F0740E904D
:102B40000014F0120CEB7D807C0079007A607B0031
:102B5000122AB7759C7774019061B1F0E49061A07E
:102B6000F0906184F0E5E170FC75E1029061BFE0F6
:102B700060FAE0F5BCE0F5BC7A00122BB1122BB183
:102B8000743C2AF8A6BC0AEAC3940440EDE5E1705F
:102B9000FC75E1011228B57D037C00792C7A007B5D
:102BA000011211DB792F7A007B01122AB7122BBE9A
:102BB00022E0F5BDE0F5BDE0F5BDE0F5BD227DB656
:102BC0007C0079157A017B00122AB71229477B0015
:102BD000EB122EDB12421174FFF0A3123EE474FFDD
:102BE000F0A3F0E8241E123ED9241F123ED924205F
:102BF000124211EBF00BEBC3940640D4752A037517
:102C00002B00753B18123D2B2274F9120924E52282
:102C1000A2E75003022D3D1238B0E97003022CCE1A
:102C2000E536120A340601B82C3F2C2D2C78A7E289
:102C3000541F641F6003022CCE122F27022CCEE5F6
:102C40002A120A340003CE2C712C502C712C712CBA
:102C500078A7E2541FFA741F6A60DE740F6A706E00
:102C600008E26406706808E26401706212367E80D1
:102C70005D78A7E2541F640F700608E26407604E97
:102C800078A6E2FC7B0012311C7024742F2BF8E62E
:102C9000A2E0501B8B36A936123BAD790112391CCC
:102CA0001231FCE536122D40A936123AAF801C0BCA
:102CB000EBC3940640D08016E52A120A6A0102038B
:102CC000C82C0100C82CCE2C1231FC752A00E53727
:102CD00065386069E52A120A6A010203E42C0100E2
:102CE000E42C3D2DAA37EA123C3E850882F583E0AC
:102CF000FCFF742F2FF8E6A2E05036EF123BA670CF
:102D000004A3E064FF602AECF9124122E9702E85E9
:102D10000882850983E0FEA3E0541FF9122ADBEE46
:102D2000FCAA08AB09123FDD85370874012508802D
:102D30000374012A123C5512088FEAF537022A5E05
:102D400012447AE0FA2274F9120924E522A2E6502C
:102D500003022ED87F017E00EE122EDBFAE934004A
:102D6000FB8A828B83E064FF7004A3E064FF70033E
:102D7000022E317F00E82423F8E9123A872401F07B
:102D8000A3E03400F088828983E0FCA3E0FD8A821E
:102D90008B83E06C7003A3E06D707078FF79FFE5C2
:102DA0002A120A6A010104312E0100AF2D312E8F43
:102DB00009E50975F01DA485F0082436F582E508BB
:102DC0003401F583E0FCA3E0FDC3E89CE99D4004E9
:102DD000ECF8EDF90509E509C3940640D48A828B25
:102DE00083E0687003A3E0697047900119E0249DB7
:102DF000F582E4340BF583E493F9900119F0123F66
:102E000056753B0D752A028F2B802688828983C0D8
:102E100082C0838A828B83E024C8F8A3E03400F95F
:102E2000D083D082C3E098A3E0994005EEF9122E3A
:102E3000FB0EEEC394065003022D58900119E0F8E2
:102E4000E52A120A340004B52EAA2EB52E532E8F71
:102E50002EB52E153BE53B705C052BE52BC394048A
:102E6000E84016121FB7600AEE900119F0753B1882
:102E7000803D753B01152B803C249DF582E4340B8D
:102E8000121FBE60EDEE900119F0753B0C80261507
:102E90003BE53B7020E8121FB7600AEE900119F085
:102EA000753B188010753B01800B74016F700675BF
:102EB0002A03752B0078391235DAC3E53994E9E530
:102EC0003A94034013753900753A00E535600915E9
:102ED00035E5357003122EEB022A5E75F01DA42431
:102EE00015F8E5F03401F9E8242122753500E522D2
:102EF000A2E05003436802122BBE22EEC0E0E9FEBE
:102F0000124C9B74FFF0A3123AA65017E522A2E0E0
:102F10005004E6D2E2F6E6A2E15005D2E4F68003E0
:102F200012128FD0E0FE2274F912092478A8E2125E
:102F30000A340102A12F3C2F552F5D2FE536900357
:102F40005AF0122FA4E96008752A01752B028051EE
:102F5000123642804C123122432B0480440808E28E
:102F60009001EAF07A0074AB2AF8E2C0E08A08E542
:102F70000824EBF582E43401F583D0E01244AF94E9
:102F80000E40E378A6E27882F2740F08F274060825
:102F9000F2740208F2740308F2790F1231E4432B41
:102FA00008022A5E74F91209247D2EFC79CB7A017D
:102FB000FB122AB778B4E2A2E25011181818E264A2
:102FC000047009181818E2C394085009E52CA2E00F
:102FD000400302311178B4E2A2E3500E78BAE290D5
:102FE00000F3F0700B740502311374FF9000F3F0DE
:102FF00075350274019000F4F079031223B2EA707F
:1030000001EB701BE53C900115F0E53D900116F0D9
:10301000E53E900117F0E53F900118F0123F359022
:10302000011BE004F0FC60F774FF2CC3940640EF32
:1030300074756C60EA7D007B0012311C70027D01AA
:103040000BEBC3940640F2ED70D578A6E29001CB6D
:10305000F0EC9001CCF078AEE29001CDF008E29077
:1030600001CEF008E29001CFF008E29001D0F00824
:10307000E29001D1F008E29001D2F07A0074B42A13
:10308000F8E2C0E08A08E50824D3F582E43401F5CB
:1030900083D0E01244AF940640E31231F17401088A
:1030A000F2900115E008F2900116E008F290011785
:1030B000E008F2900118E008F29001CCE008F290EC
:1030C00001CDE008F2748808F2740808F27404086C
:1030D0001236009001D2E008F27A0074902AF8E4E7
:1030E000F20AEAC3940640F39001D3E0542F78909B
:1030F000F2900359E060067895E2D2E0F2123A903D
:10310000AB93123FDD9001CCE0906062F0790180DA
:103110000874029000F4F07900022A5EEB1217D8CE
:103120006C2274F7120924123EFD7A0074A92AF861
:10313000E2C0E08A08E50824DDF582E43401F58385
:10314000D0E01244AF940440E3E597653C9001D988
:10315000F0E595653D9001DAF0E596653E9001DB7E
:10316000F0E597653F9001DCF07A008A08E50824D5
:10317000D9F582E43401F583E0C0E074852AF8D003
:10318000E0F20AEAC3940440E279AD78081207E756
:103190009001E1780812082D78AD7989740412083D
:1031A000497A0074B12AF8E2C0E08A08E50824E50B
:1031B000F582E43401F583D0E0F0C0E0E92AF8D0EC
:1031C000E0F20AEAC3940440DA78B5E2FA9001E941
:1031D000F01231F1740208F2EA7891F2791F12319B
:1031E000E4023B29122ADB7C067A82AB93123FDD94
:1031F0002278A6E27882F2741F08F22274F712098C
:1032000024E53675F01DA42415FCE5F03401FDEC31
:103210002421FEED3400FFEC241EF8ED3400F98883
:10322000088909EC2419FAED3400FB742F2536F9CE
:1032300078A7E2541F120A6A000C006032025B3366
:1032400003B03304DC3308FD330F1C33102034117A
:103250006334139F341578331695331F90344A35F1
:1032600008123606E536124C922421F8EB3400F9A8
:10327000E8FCE9FD8C828D83E064FF7004A3E064C8
:10328000FF701EE536FE742F2EF8E6A2E05012E520
:1032900022A2E05004E6D2E2F6E6A2E15003D2E434
:1032A000F612384C78A7E2A2E740030235698A8219
:1032B0008B83A3A3A3A3A3A3A3A3A3E0F8740C28C5
:1032C000FAE43400FB8C828D83E06A7003A3E06B28
:1032D0006009742F2536F8E6D2E7F68C828D83EAF2
:1032E000F0A3EBF078F9E264016003023582E56F48
:1032F000A2E04003023582C2AFE4123600906201C0
:10330000E0D2E2F07A0A7B00122293906201E0C2DE
:10331000E2F0758B00C2E8D2AF02358208E2120AF1
:103320006A0002002B330346336432E9F8E6D2E741
:10333000F678A912360678A7E2A2E54003023264C5
:10334000436810023264A936122EFB78A7E2A2E588
:1033500040030232644368080232648A828B83E04D
:10336000A2E2400302326412362750061214FC0215
:10337000326412132B0232648A828B83E0A2E24011
:103380000302326412362750061215060232641206
:1033900013BF023264EC241BF582ED121318A2E66F
:1033A000400302326412362740DF121439023264BD
:1033B0008A828B83E0A2E340030232641236274004
:1033C000AB78A890035CE2F008A3E2F00890035EFB
:1033D000E2F008A3E2F04366100232648A828B8333
:1033E000E0A2E44003023264123627500302336C39
:1033F00078A8E2900360F0436640023264EC241A3D
:10340000F582ED1213254003023264123627500371
:1034100002336C78A8E2900361F0436701023264E2
:10342000850882850983E004F00808E2FA744B6A93
:103430007009E522A2E040030232641818E2F54F59
:1034400074012536F5508A51080808E2F55208E261
:10345000F55308E2F55408E2F5555367DF436784F6
:10346000023264850882850983E004F08808859328
:1034700009750A007808120A067C14794F7A007BD5
:1034800001121F1974012536F5504367A4023264F6
:10349000850882850983E004F0122F270232648AAE
:1034A000828B83E0A2E14003023264EC240FF582B8
:1034B000ED1213254003023264123633AA368A8293
:1034C000AE828E087509007404780812090F12354F
:1034D000F2120C3C78AFE264C9706778A7E254E05E
:1034E0004401F2E478AFF2900BDA7808120805781C
:1034F000B07408120818E408124654F208F208F2F0
:10350000742F2536F8E6A2E1500302336C78A8E266
:10351000C0E0EE1235E4D0E0F07540007A001248C9
:10352000C340FB7508A9859309750A007808120A3B
:10353000067C0679417A007B01121F19436601025D
:103540003264782D1235DA02326485088285098367
:10355000E004F0E7A2E14003023264123A9EE9641B
:1035600015600302336C0233898C828D83E064FF23
:103570007004A3E064FF700A8C828D8374C8F0A38A
:10358000E4F078A7E2A2E5504E900379E0C39403FB
:10359000504574012536C0E0E075F005A4247AF5A5
:1035A00082E5F03403F583D0E0F07870E624A7F5E7
:1035B00008859309750A007808120A067C049003AE
:1035C00079E075F005A4247BF508E5F03403121FBB
:1035D00014900379E004F0023B29E62401F608E6A2
:1035E0003400F6221235E82224B5F582E43400F5E1
:1035F0008322E5082435FAE5093400FB22E478F952
:10360000F2740108F222E2FA08E2F8EAF9740C28EE
:10361000F8E439F98E828F83E8F0A3E9F0EC2423F3
:10362000F582ED12385622123633742F2536F8E61D
:10363000A2E122850882850983E004F0790012392D
:103640001C22E535601A753500123EFD752A00E52D
:1036500022A2E0500B90035AE06407700343680213
:1036600022E48A828B83F0E0242FF8E6A2E0400374
:10367000790122E004F0C3940640EC79002274F74B
:103680001209241510740E652B6003023826AA1047
:10369000AB93E48A828B83F0E0FD742F2DFCF8E677
:1036A000A2E04003023829ED75F01DA4242AF5821A
:1036B000E5F03401F583C082C0839001E1780812FF
:1036C00007F6D083D08278081207466003023829B3
:1036D000ECF8C64428F69001D3E0A2E0400302379C
:1036E0008CA81012387F12090FE5082435F8E50977
:1036F0003400F9900115123870F090011612385FFD
:10370000F090011712385FA3F090011812385FA3F0
:10371000A3F09001CE123864F09001CFE012388A05
:103720009001DD123864A3A3A3A3F09001DE123848
:1037300076F09001DF123876A3F09001E0E0C0E06F
:1037400012420ED0E0F09001D9E0C0E0E8240C1263
:103750004211D0E0F09001DAE0C0E0E8240D12421E
:1037600011D0E0F09001DBE0C0E0E8240E1242113D
:10377000D0E0F09001DCE0C0E0E8240F124211D06C
:10378000E0F0A810E2F9122A41120CEB9001CCE013
:1037900090011BF07C087A157B017903122401A8A3
:1037A00010E2FE7C0D7ACC7B0174201238467C0935
:1037B0007AE17B0174301238467C0F7AEA7B01741F
:1037C000401238465322FBA810E2242FF8E6D2E636
:1037D000F6A910E3123A768A828B83A3A3A3A3A34C
:1037E000A3A3A3A3E0FC740C2CFCE43400FDEA24A6
:1037F00021F582EB124214ECF0A3EDF012384C905C
:1038000000F4F0E522A2E0500FE6D2E2F690035A6F
:10381000E064077003436802E6A2E15003D2E4F6D5
:10382000753500122BBE023B278A828B83E004F0A1
:10383000C394065003023698123661E960030236DB
:10384000D612364280E02EF912240122EA2423F512
:1038500082EB123856223400F583E4F0A3F02212F2
:103860003870A32212386822123870A3A3A3A322AF
:10387000E08882898322123868A3A3A3A3A322E24B
:10388000F508750900740478082288828983A3A347
:10389000A3A3A3F0748888828983A3A3A3A3A3A36B
:1038A000F0740888828983A3A3A3A3A3A3A3F0220F
:1038B00074FA120924E567A2E74015900379E0C382
:1038C0009403500C74185567700674185568600D91
:1038D000E56B6009900378E0C3947D40277C3679DE
:1038E000247AA6AB9312414BE97870F6601678A75C
:1038F000E2541FFEE9C0E0EEF9122ADBE9FAD0E05B
:10390000C39A500479008011740765367009741FDA
:103910006E70F1E53560ED7901023ED474F512095F
:1039200024E9FF78007900E536123A76E8FCE9FDF3
:10393000EC75F01DA4FCAEF075F01DEDA42EFDECB1
:103940002434FCED3401FD8C828D83E0C0E0EA2458
:103950001F121315FED0E0C39E40098C828D83E0B8
:10396000600214F0E8240108E93400F9C3E8940681
:10397000123A6D40B2EA2420F8EB3400F9E8FCE991
:10398000FD8593098C828D83E0C394035003023A32
:1039900039750A057E007A007B00EAF8EBF9E875D4
:1039A000F01DA4F885F00B75F01DE9A4250BF9E8CE
:1039B0002415F8E93401F9E8241FF50CE93400F581
:1039C0000D850C82F583E0F50BE50AC3950B4019D4
:1039D000E82420F582E9121318C39403500B850CD8
:1039E00082850D83E0F50AEAFEEA24010AEB340041
:1039F000FBC3EA9406EB123A6E409FEE123D03F8C9
:103A0000EB123A87F50A8C828D83123870F08C8223
:103A10008D83E50A123AA6502512131264FF700432
:103A2000A3E064FF6018EEF9123C5FEEF9123B2E42
:103A3000800CA936123B2E801A74016F7015A936BE
:103A4000123C5FA936124122E970E7123A90AB09A5
:103A5000123FDDE53675F01DA42434F582E5F0341F
:103A600001F5837405F00226D0C3E89480E9940040
:103A7000A2D265D03322123A7A2275F01DA4241501
:103A8000FAE5F03401FB223400F988828983E022D0
:103A9000AC36ECFE7883123A9EEEFC7A8222E25437
:103AA0001FF9122ADB22F0742F2EF8E6A2E022740E
:103AB000F7120924E9FEEAFFEEC394065065EE759D
:103AC000F01DA4242FF582E5F03401F583E0A2E691
:103AD000504D123B78E9FA8A087040E53875F016C7
:103AE000A424F9F8E5F03401F9EE88828983F074B2
:103AF0000EA3F0EF88828983A3A3F07D067C008863
:103B0000828983A3A3A3A982AA837B00122AB785F3
:103B1000380A123C5112088FEAF538A90880067954
:103B20000980027908800205107F0402095574F8A3
:103B3000120924E9C394065029123B78E9FF701E4C
:103B4000750882859309750A007808120A067C16A2
:103B5000E538121F0F123B6712088FEAF538EFF9AC
:103B60008002790802460585380874012508F8E4C2
:103B70003400F97A107B002274F7120924E9123B11
:103B8000A67004A3E064FF6019123B6712088F8AD5
:103B90000AE537650A7001EB600479008006790751
:103BA000800279098083124C9FE064FF2274F41232
:103BB0000924890E1240FB750D00E537FFE5386FCB
:103BC00060798F82AC8274012C123C5512088FEA06
:103BD000FBEC75F016A424F9F582E5F03401F583C9
:103BE000E0650E704B8F0BEBFE750C00E5386E60D8
:103BF00032EE123C3E750A007808120A067C16E581
:103C00000B121F0F8E08123B6A12088FEAFE850BFB
:103C100008123B6A12088FEAF50B050CE50CC394F9
:103C20001040C9E53860041538800775380F8002E8
:103C3000EBFF050DE50DC3941040820240EB75F0DB
:103C400016123C47F50922A424F9F508E5F03401E1
:103C5000227401250AF8E43400F97A107B0022C0AE
:103C600008C009E97882F2740F08F2740508F2744A
:103C7000012908F2E9123D03121315120A34000457
:103C8000AC3C8C3C943C9C3CA43CA83C742708F283
:103C900074D4801C743608F274E48014744508F2FD
:103CA00074F4800C74D4800674E4800274F408F216
:103CB00008F2E408F2E522A2E450037401F2750868
:103CC00001750900E9780812090FAC08ECF4FD90C1
:103CD00000BBE05C6009E05DF07888E2D2E1F29040
:103CE00000BCE05C6009E05DF07888E2D2E2F2EAD4
:103CF00024171213157889F2EA2418123D09D00905
:103D0000D00822124C96242022F582EB12131C08B4
:103D1000F222E5E170FC75E10122E5E170FC75E15C
:103D20000BE591A2E650FA5391BF2274FA120924CE
:103D3000123D1274669061A2F0742990619AF07439
:103D40005A90619BF0747F9061A0F074079061BC01
:103D5000F0E522A2E650047405800274F5906186B5
:103D6000F0900119E0F9123FA9123FCA123F3574D1
:103D7000BB9061FBF0740A9061FAF074DC9061F919
:103D8000F074A59061F8F07443906180F0744890ED
:103D90006191F0740E906190F0746F9061A5F07471
:103DA000CC906192F0E49061E0F09061E1F07421D8
:103DB0009061E2F074109061E3F0E49061E9F090BA
:103DC0006001E054FC4402123EF0F0E0C2E6F0E094
:103DD000D2E7F09060021242A6E0D2E1123EF04437
:103DE00020F0E0543F4480F09060031242A6740239
:103DF000906004F0E4906008F0906009F074FF9027
:103E0000600AF090600BF0906012E4F0A3F0906014
:103E10007EF0E0D2E7F0E054CF4410F090601474EC
:103E20009CF0A37405F0906003E0D2E2F07F008F75
:103E300082AA82EA75F00CA4F8ACF0E42C3460F9A4
:103E4000E82418FCE93400FDE48C828D83F0E0D294
:103E5000E3F0E0D2E4F0E824191242117424F0E80F
:103E60002422124211E4123EE4E4F0E8241C123E43
:103E7000D9241D124211E4F0EFC394065018EA123F
:103E800017D4C0E0E8241A124211D0E0F08C828DE1
:103E900083E0D2E0802074066F700AE4906062F0E4
:103EA00090606080EC74076F700D747590606EF0B8
:103EB00090606CE0C2E1F00FEFC394085003023E43
:103EC0002FE5356005123F1A8005E4906194F07982
:103ED000081243517F01020955F582E93400F58348
:103EE000E4F0E822F0E82423F582E93400F58322A7
:103EF000F0E0D2E2F0E0C2E3F0E054CF2290606C58
:103F0000E0A2E15014123D1AE4906194F090606CCC
:103F1000E0C2E1F0790812435122123D1A790712EA
:103F200040FB7480906194F090606CE0D2E1F07995
:103F30000812435122900115E0906198F09001160B
:103F4000E0906197F0900117E0906196F090011871
:103F5000E0906195F022EEC0E0E9FE123D1AEEF924
:103F6000123FA9123F6AD0E0FE22123FCA7908121E
:103F700043512274FA120924E9FF9061C5E0A2E3DB
:103F800050047E00801E123D1A9061C5E0A2E350ED
:103F9000047E00800AEFF9123FA9123FCA7E017920
:103FA00008124351EEF9023ED4C008E9FAC394194D
:103FB0005003EA70027A018A08E5082484F582E455
:103FC000340BF583E493F9D00822741529547FC08B
:103FD000E0906000E05480FAD0E04AF02274F412DD
:103FE00009241240F0890B8C0EE49061C0F0EC754E
:103FF000F00CA4F8AAF0E42AF9E8FAE93460121700
:10400000E818E2241CF58208E2123D0C1818E2249C
:104010001DF58208E21213180808F2181818E22495
:104020001BFE08E23400FF8E828F83E0A2E6E4925A
:10403000E0FDE51024022DF8E26022ED70047D0120
:1040400080027D00E51024022DF8E26010A90E1216
:1040500040FB8E828F83E0A2E6E492E0FDE50EC392
:104060009402500474078004E50EC3139061C0F0FD
:104070008508828509837A007B008007E0CAC39A9D
:10408000FAA30BEBC3950B40F3EAF0050B8D82AE60
:1040900082750A007808120A06AC0B8E08750900B2
:1040A0007405780812090FE50EA2E0E492E0F50C21
:1040B000750D007406780C12090FA80CE50828F598
:1040C00008E5093460121F14E49061C0F0A810E202
:1040D0002EFA08E23400FB741C2AF582E43BF583D7
:1040E000E50BF005100510051005107F07020955B6
:1040F000E51024FCF5108A088B0922E5E170FC74B8
:104100003029F5E1E975F00CA4FAACF0E42C346048
:10411000FBEA241C12131570F8EA241D1213157003
:10412000F022E975F00CA4F8AAF0E42A3460F9E86A
:10413000241CF582E9121318600EE8241DF582E9AB
:10414000121318600379012279002274F7120924EE
:10415000EAFEEBFF89088C09E591F50A9061C5E05C
:10416000A2E3507F5391FEAD087C008E828F83A91D
:1041700082AA837B00122AB7E5D9FA70057900027A
:104180003B29740755D9A809F61A7B008019EBC39F
:1041900095085012E5D9C0E08B0AEE250AF582EFAA
:1041A000124214D0E0F00BEBC39A40E2E508C39A48
:1041B00040CB8E828F83A3E0A2E5500AEAC3940429
:1041C00040BB74FC2AFA8E828F837B00EA60AEFECD
:1041D000E0CBC39BFBA31EEE70F6EB70A074FF2A2E
:1041E000F9809CE50AA2E250035391FBA2E350033D
:1041F0005391F7A2E650085391BF7908124351E555
:104200000AA2E5400302417D5391DF02417DE8248B
:104210000BF582E93400F5832274FA120924E9FFD0
:10422000EAFE123D12123F35906001E0C2E2F090CA
:104230006002E0543FF09060127440F0A37406F006
:1042400074619061A5F0E490607EF0E054CF44107A
:10425000F0E0D2E6F09060167480F0A37406F0905F
:1042600060107480F0A3743BF0740F90600DF07BCD
:1042700000EB75F00CA42418F582E5F03460F583AA
:10428000E0C2E0F0E0C2E1F00BEBC3940840E29042
:1042900060181242A6E0C2E1F0EF90601AF0EEF969
:1042A000123FCA023ED4E0D2E0F02274F91209248F
:1042B000E9FE7FC8E5E170FC75E1F18ED97C0080F4
:1042C0000D8A828B83E0F5D90CA3AA82AB83ECC361
:1042D0009E40EE79091243511F7A647B00122264DA
:1042E000E591A2E64003EF70EFE591A2E54014905E
:1042F000601BE0FA74022A5406C0E074F95AFAD03E
:10430000E04AF09061C5E0A2E350415391FEE5D947
:10431000FA6039740755D970331A7B00801CEBC3DF
:1043200094245015E5D9C0E08B08A993E50824A68C
:10433000F582E439F583D0E0F00BEBC39A40DFEA75
:10434000C394255007EA6004790180027900022AAB
:104350005EC0A8C2AF759100E5E170FC89E1D0A80C
:104360002274F9120924787DE6FA600302441D12D2
:10437000449B64026003024417081257537001ED16
:1043800070230812575A7001EB6003024417787DBE
:10439000760278EA745BF20874031245C8E4F27599
:1043A0006E0102447374026C7001ED706AE56B601B
:1043B00066EA641070191244A474076A7001EB7005
:1043C000561244897407124484756E03024473EADA
:1043D000641170191244A474146A7001EB703812DD
:1043E00044897414124484756E04024473EA642090
:1043F00070251244A4740F6A7001EB701A787D76F0
:104400000278EA74BEF208740012448408740F1231
:104410004484756E08805C787D7604805674026AE8
:104420007051E56E120A6A000401374403544404D3
:10443000604408694473447A0090035BE0C0E08AFA
:1044400008E508124476D0E01244AF940640EA43EF
:104450006804801F78F1E26410701843674080138D
:1044600078F1E26411700C80F278F1E2642070035C
:10447000432208022A5E12447A2224EDF582E434B3
:1044800000F58322F208E4F222787D760278EA745D
:1044900062F2087403F208E4F2082278F1E2FA0802
:1044A000E222E2F9081244A922E2FA08E2FB22F031
:1044B0000AEAC32274F8120924787DE660030245F3
:1044C000C678F31258F3C3EC9403ED940040030252
:1044D00045C67878E6640460030245C612449BFE34
:1044E00074016E6003024596859309EC7001ED70CE
:1044F0001B787D7601124EC0E978ED12448478EA8B
:1045000074CAF208E5091244840245BB74016C7058
:1045100001ED7045E56A601CEA64027009787D76F9
:1045200001124EEC80D2EA64037012787D7601129B
:104530004FB780C4787D7601124F5580BBEA640482
:104540007009787D7601124FD680ADEA64087067F5
:10455000787D7601124FE7809F74026C7001ED70D8
:1045600056E56B6052EA64107012787D7601754FE3
:104570001078EA744F1245C87407808AEA64117093
:1045800036787D760178EA74B6F208740B1258F921
:1045900008741402450674026E701CEC7001ED7014
:1045A00016787D760178ED740112448478EA745BA4
:1045B000F2087403024506787D76041258FF50060F
:1045C00018ECF208EDF2803D1245CC22F208E4F23C
:1045D000087401F208229000CDF074012536900095
:1045E000CEF078A7E2541F9000CFF07508A885930D
:1045F00009750A007808120A067C1D79D07A001223
:104600001F174367087F0302095590053CE493A2F6
:10461000E6E56F92E1F56F12465D90620FE0A2E76A
:1046200050F890620BE0D2E1F078F7E4124654744F
:10463000FFF208F2F0906207F0743E906209F075A4
:104640008B00C2E843AC20439A0290620FE0D2E3B1
:10465000F0D2AF22F208F208F208F2082290620FBC
:10466000E04403F090624BE0C2E2F02278F7E254BB
:10467000046048E4F208F27D07FC7969FA7B0112D4
:104680002AB77A0074692AF876010AEAC3940340CB
:10469000F31211AE1247D1122AEC756C00756D0041
:1046A00078787602087600787D76001254E2788871
:1046B00076000876007401906201F078F7E25410F9
:1046C000600AE254EFF208E2F212524A78F7E2A2EC
:1046D000E0502154FEF208E2F2E523A2E250055335
:1046E00023FC800874FC55234401F52318E254FD93
:1046F000F208E2F22278F0E2120A34090266470573
:10470000474447094712436122787DE6705C78F19F
:10471000E254FEFA08E2FBEA7001EB70490808086F
:104720001257637001EB703E1247BD50397C007820
:10473000F1E2C0E074692CF8D0E0F60CECC394030D
:10474000502880EB787DE670211257617001EB7084
:10475000151818181257637001EB700A181818080A
:10476000E2F56CF56D22787D76042278F0E2120A8B
:10477000340102B8477B4798477F471244B42278F8
:104780007DE670381257587001EB702C1247BD50FF
:1047900027EA246978EA801C787DE6701F12575852
:1047A0007001EB70131818181257637001EB700842
:1047B00078EA746C1254AF22787D760422181818A7
:1047C0001256A1EA9402EB940022787D76042280AE
:1047D000F9C008C0097D037C0079667A007B01126C
:1047E0002AB7E4900379F07D07FC7940FA7B011247
:1047F0002AB77D087C0079477A007B01122AB77DB1
:10480000047C00795C7A037B00122AB77D017C006E
:1048100079607A037B00122AB77D017C0079617A86
:10482000037B00122AB77D147C00794F7A007B014C
:10483000122AB77D147C0079627A037B00122AB7B2
:104840007D077C0079717A007B01122AB77D027C9A
:104850000079227A007B01122AB77A0074632AF861
:104860007600124E961244AF940340F053677F02D5
:104870003CFE74F4120924750CCA85930DF50EE5FF
:1048800066A2E150195366FD7D077C0079407A00ED
:104890007B01122AB77A001248C340FB800CA2E0C9
:1048A0004008E56C601AE56D7016124EC0E9F563BC
:1048B000740190620EF0780C120A067A22124EA948
:1048C0000240EB8A08E5081235E8E04540F5400A69
:1048D000EAC394062274F8120924E56AFBE566A28D
:1048E000E3503C5366F77548007547007A00121490
:1048F0000040FBEB7005124F558003124EECE9F5BA
:1049000064740290620EF07508CA859309750A00F6
:104910007808120A06A9647A24124EA9024605A252
:10492000E250F9EB70D580CE74F5120924E510241D
:10493000EAF510900379E0C39402400B1250B6E9F7
:10494000F565E4900379F0E568A2E050225368FE33
:10495000787176100876FF08764A087601087600A6
:10496000087600087600124FF4E9F565024C817E66
:1049700000742F2EF8E6A2E35014C2E3F6787176A5
:104980001074012E08F608764008760280CF0EEEED
:10499000C3940640DC7E00742F2EF8E6A2E2507429
:1049A000C2E2F67871761074012E08F60876410896
:1049B0007604124C91240E121315540F08F612139C
:1049C0001264FF7004A3E064FF7005E6D2E6800C79
:1049D00078A7E2541F60067875E6D2E7F6EA240F5E
:1049E00012132250067875E6D2E5F6E522A2E450CD
:1049F000067875E6D2E4F68A828B83A3A3A3A3A3E9
:104A0000A3A3A3A3A3E07877F6EA240B1213151847
:104A1000F60249660EEEC3940650030249977E00E3
:104A2000742F2EF8E6A2E45031C2E4F6A2E1502A37
:104A3000124CAE7442F2EE123BA67004A3E064FF87
:104A40007004087401F2740390620EF07808120A80
:104A500006124EA575650F024C810EEEC3940640FA
:104A6000BFE521A2E050625321FE78717610788173
:104A7000E27872F6087641087605900096E0540FC9
:104A800008F6E521A2E14004E04440F67881E2FA2C
:104A900074756A602AEA75F01DA4A9F02402F582F3
:104AA000E93401F583E07877F67881E275F01DA4AA
:104AB0002403F582E93401F583E07876F6800778FF
:104AC0007776001876000249667E00742F2EF8E68D
:104AD000A2E5500BC2E5F6124CAE7440024A450EF8
:104AE000EEC3940640E57E00742F2EF8E6A2E65051
:104AF0000BC2E6F6EEF91250100249690EEEC394AD
:104B00000640E5E522A2E1500C74066E70075322C0
:104B1000FD79FF80E1E568A2E1502C5368FD7871D2
:104B200076100876FF08764A0876009000F4E008D0
:104B3000F60876009000F3E064FF700508760080C8
:104B400003E008F602496674245567FA75084F7544
:104B50000900750A0174046A7011754F1078081203
:104B60000A06124C8853677B024C8174246A7013C6
:104B7000754F117808120A067A14124C8A53675B33
:104B8000024C81E523A2E450397E00742F2EF8E612
:104B9000A2E75027C2E7F67871761074012E08F666
:104BA000087649087603E536124C9BE024F4FAA314
:104BB000E034FF08F6EA08F60249630EEEC39406F5
:104BC00040C9E568A2E4500D5368EF78717610741F
:104BD00001253680C9A2E350165368F77871761024
:104BE0007401253608F608764908760402495DE026
:104BF0006401702AA8107410F290037AE008F20899
:104C0000744912514CE510F508859309750A00782E
:104C100008120A06124C88E4900379F08063750844
:104C200089750903750A00E567A2E4500E5367EF22
:104C30007808120A0612513A0249697E00750C0181
:104C4000750D00EE780C12090FAA0C9000BDE05A09
:104C50006028EAF4FAE05AF07D147C0079897A033E
:104C60007B00122AB77411900389F074012E90030F
:104C70008AF0746690038BF080B60EEEC394064003
:104C8000BCE51024160226CE7A07125140E9F565DC
:104C900022EE124C9622123A7AEA22124C9F227588
:104CA000F01DA42436F582E5F03401F58322E510E9
:104CB0002407F508859309750A007D0F7C00F9AA81
:104CC000097B00122AB7E5102407F87420F274015A
:104CD0002E08F20822E9F8E6FC08E6FDEC7001ED8A
:104CE00070057A007B0022C3ED9408A2D265D03310
:104CF000401218EC2401F608E634F8F64366047A0C
:104D0000FF7B0722C3EC9401ED94F8A2D265D03367
:104D1000501218EC24FFF608E63407F64366047ACE
:104D2000017BF822ECFAEDFB18760008760022747D
:104D3000F8120924151015101510FA124EB5E0A23C
:104D4000E0B3E492E0C0E0E5102AF8D0E0F26004BD
:104D5000124E96F00AEAC3940340E0A810E26007FE
:104D6000E5637003124872E51004F8E27003024E26
:104D700022E56470031248D57508CA859309750A3F
:104D800000E5647039E56A7003024E22E566A2E52B
:104D900050125366DF7D047C00795C7A037B00123D
:104DA0002AB78004A2E4501A124FB7E9F5647402DE
:104DB00090620EF07808120A067A24124EA9E56471
:104DC000702EE56A605CE566A2E7500A53667FE4F0
:104DD000900360F08004A2E6501A124FD6E9F56401
:104DE000740290620EF07808120A067A24124EA914
:104DF000E564702EE56A602AE567A2E1500A536710
:104E0000FDE4900361F08004A2E05016124FE7E940
:104E1000F564740290620EF07808120A067A241281
:104E20004EA9E5102402F8E2604BE5657007E56BDA
:104E30006043124928E565703CE56B6038E567A280
:104E4000E350325367F7740390620EF07508CD7526
:104E50000900750A009000CDE064207808700A12FD
:104E60000A06124EA5740F800A120A067920124E05
:104E7000A77420F5657A0074632AF8E66008124E7C
:104E8000B51242A676000AEAC3940340EA0510056B
:104E90001005100246058A08E5082476F582E434F8
:104EA00003F583E422790F7A267B621255190510E7
:104EB000051005102274012A90620EF090621122F2
:104EC0005366FEE54078CAF2E408F2E54108F2E5EF
:104ED0004208F2E54308F2E54408F2E54508F2E548
:104EE0004608F2E56C6002F56D79082274F7120944
:104EF000245366FB740278CAF2E54808F2E54708D5
:104F0000F2794B124CD58A088B09AF09794D124CB6
:104F1000D58A0A8B0BE50878CDF2EAC454F0C0E0DC
:104F2000750800740F5FF509740878081208F0D04E
:104F3000E0450878CEF27404780A1208F0E50A78A1
:104F4000CFF2E54908F2754900E54A08F2754A00D2
:104F50007908023B295366FBE54878CAF2A84BA9B9
:104F60004C123A694004747F800A124FAA500474AC
:104F7000818001E878CBF2A84DA94E123A6940042D
:104F8000747F800A124FAA500474818001E878CCA3
:104F9000F2E54908F2754B00754C00754D00754EF1
:104FA00000754900754A00790422C3E89481E994A8
:104FB000FFA2D265D033225366EF740378CAF29011
:104FC000035C08E0F2A308E0F290035E08E0F2A3BD
:104FD00008E0F27905225366BF740478CAF29003A0
:104FE00060E008F27902225367FE740878CAF290F2
:104FF000036180ED74F8120924750871F509750ACA
:10500000017808120A067A077903125166024E8D5A
:1050100074F8120924E51024F1F510E9FEE510F505
:1050200008859309750A007D0F7C00F9AA097B00A9
:10503000122AB7A8107420F208087441F274FF6EA7
:10504000700918E4F208087402804774012E18F2FF
:10505000E522A2E20808500474018001E4F2124C37
:1050600091240B123D098A828B83A3A3A3A3A3A33C
:10507000A3A3A3A3E008F2EA24191250AC241A1245
:1050800050AC241B1250AC241C1250AC240C121334
:105090001508F2740390620EF07808120A06124E98
:1050A000A5790FE510240FF510024605F582EB12E5
:1050B000131C08F2EA2274F8120924E51024ECF516
:1050C00010A8107411F20874FFF2087449F29003EA
:1050D00079E008F290037AE00812514C90037FE0E7
:1050E00008F2900380E008F2900381E008F2900358
:1050F00082E008F2900383E008F2900379E0C39421
:1051000003401E900384E008F2900385E008F290CB
:105110000386E008F2900387E008F2900388E00835
:10512000F2E510F508859309750A007808120A0659
:1051300012513AE51024140250A77A141251402259
:10514000790312516605100510051022F290037BB9
:10515000E008F290037CE008F290037DE008F29012
:10516000037EE008F22274F8120924E9FFEAFEE562
:10517000102408F81255FA08E2F50AEF90620EF0D2
:105180007808120A06EEF9EFC333FAE433FBEA2497
:1051900020FAEB3462FB124EABEEF9024605E9FC55
:1051A000EAFD7A007B0080081890039EE01251EF20
:1051B00090039DE0F8A3E0F99003A3E0687003A3D7
:1051C000E069602A90039DE0240108A3E03400F91F
:1051D00088828983E4936C700D90039DE0FAA3E0CC
:1051E000FB181251EF22E4936D70BDED60BA22F509
:1051F000838882E493F890039DE028F8A3E03400CC
:10520000F990039DE8F0A3E9F02274F9120924E96A
:10521000FEEAFF9003A1E0F8A3E0F990039DE8F017
:10522000A3E9F0800E8A828B83A3A3A3A3A3E493B4
:105230006E60147A00790212519EEA7001EB6007E9
:10524000EE70E2EF1F70EC022A5E74F412092490F3
:10525000620EE0F50AE4F0906211E0FFA2E4501E55
:105260007480F0787D76077888E6700208E6600A38
:1052700078888682088683120922787D7600EFA2DC
:10528000E2500AE4906211F0787DF68071787DE654
:10529000FA74026A7051906216E0FE78EA120A1FF0
:1052A000EEF91254A18E0878ED1254BB1254C612B6
:1052B00057637001EB60047440800274489062117F
:1052C000F0EA7001EB70177888E6700208E6600A71
:1052D00078888682088683120922787D7600E50A1E
:1052E00090620EF00240EB74066A700A788886823B
:1052F000088683120922787DE660030253E9EFA253
:10530000E050DB750CEF85930D750E00780C120ADA
:105310000679081254A17888760008760078EFE2C2
:1053200054E0120A6A0006003B53203754402354CD
:1053300080B753A04E54C02D549D5308E2120A6A00
:10534000000501A35303955305535309AD530BB205
:10535000539D530808081257637001EB703F081201
:1053600057637001EB703612449B7031EA548070C1
:105370002CEA906200F078786012E664027002769F
:1053800003787DE66404705B74608059E6640370A2
:10539000F0760280EC79011256A8E970E4787D7607
:1053A0000480E579001256A8E970D680F0125A6F91
:1053B00080CF125AF780CA08E2120A6A000400CCB1
:1053C0005306D15308D6530A09549D5312560280EE
:1053D000B012576880AB18E2541F70C178EA747934
:1053E0001254AF7440906211F0E6FA74016A6003DF
:1053F00002548C7F0278ED1244A5C3EA9420EB940A
:10540000005062EAFE7F0A805E7878E66404708D60
:1054100078EFE2648170861256955081EA247A789A
:10542000EA80BD788876CA08764702539D788876E8
:10543000CF08764702539DE2541F64016003025374
:105440009D788876F50876461246F5025381E25437
:105450001F6401600302539D7888766B08764712BB
:10546000476B0253817E2078EA120A1FEEF97A20F8
:10547000124EA98E081254C61254BBEF906211F05E
:10548000EEC3942040030252DE0252C774056A60E4
:10549000030252DE7888868208868312092202522D
:1054A000DE7A207B621255030510051005102212CA
:1054B00045CCF208E4F2787D760122C3E29508F249
:1054C00008E29400F22278EAE2F9081244A9E925F8
:1054D00008F9EA3400FA1818E9F208EAF208EBF2DF
:1054E00008227A00747E2AF8760374012A90620EEC
:1054F000F074109062111244AF940540E7E490629A
:105500000EF02274FA12092412553A6009E01207CB
:105510007512552F70F7023ED474FA1209241255F1
:105520003A600912075BF012552F70F7023ED4E97A
:10553000240109EA3400FA1FEF228A828B83E9FFF3
:10554000E5102406F81258EBF9EDFAEEFBEF22C055
:10555000E074F112097A906206E0FCA2E25034781D
:10556000FBE290620BF0F50808E2F5097404780894
:10557000120900E508906207F078FB1255FA7409E9
:105580007808120900E508543E906209F090620123
:105590001242A68C0878F7E24508F208E2F290621F
:1055A00002E0F5088B097404780812090F78F7E215
:1055B0004508F208E24509F2906204E0F5088B091B
:1055C0007409780812090F78F7E2F208E24509F247
:1055D000ECA2E05007740108F2E408F274065C6083
:1055E000031235FDE58BA2E55006758BDF1235FD04
:1055F000758B00C2E87F020209C3E2F50808E2F5F4
:10560000092278EFE2549F120A348002925614560F
:105610004A565E56E56FA2E0E492E0C333F8E56FC8
:10562000A2E1E492E04890039FF0A3E4F0787DE6E5
:105630006404601578EA749FF208740312448408C5
:105640007402124484787D76012212569550437874
:1056500078E66404703C90039FE4F0A380CE78F376
:1056600012449D702DEA547FFC60EB7878E6640468
:105670007020ECC39404501AEA54806015747D2C99
:10568000F8E66403700478018002780090039FE8D4
:1056900080970247CA78F31256A1EA9403EB94006C
:1056A00022E2FA08E2FBC32274FA120924E9FE128C
:1056B00057617001EB70117878E66404601078F33C
:1056C0001257637001EB6006787D7604806978EF8D
:1056D000E2541F120A340002C856E056EA56FA563F
:1056E000080812575A7001EB60057900023ED4EEAB
:1056F000A2E0E56F92E0F56F803D78F312576354B6
:105700007FFF18181257527001ED70DEEB70DBEF5F
:10571000C3940450B3EF90620EF0747D2FF9EE60E5
:1057200013EF60C608E2548060C07410906211F0FC
:1057300077038017EF7004790180B108E25480602C
:10574000A97440906211F0E9F87600E490620EF0DE
:1057500080E5181258F3EC2278F51244A974016A16
:105760002278F51244A9EA2274F712092478EAF2A1
:1057700008F208F278EFE2541FFA600302581008AA
:105780000812449D120A340102CC589157AA57CEF0
:105790005779237A057B8078EAE9F2081217EB1231
:1057A000075B08F208E4F20258C378EA7435F2089D
:1057B00074051258F979377A05FB12075BF5080969
:1057C0007A0512075BFB08E508F208EB80D8EA12BD
:1057D0000A3400040958E057EA57F4570958FE57AD
:1057E00078EA7489F2087405801C78EA748DF208EE
:1057F0007405801278EA749FF2087405800878EACC
:1058000074BBF20874051258F978EA1244A2808F2A
:1058100074016A60030258CC7C009003A5E0FAA3EF
:10582000E0FB80787509007403780812090FEA25F7
:1058300008F8EB3509F9E8FEE9FF8E828F83E493DF
:10584000C0E078F108E2F508D0E06508704D081274
:1058500055FAA3A3E493A8096870408E828F83A3AE
:10586000A3A3E493650870338E828F83A3A3A3A3BD
:10587000E493F508740193F50978EAE508F208E580
:10588000091258F98E828F83A3A3A3A3A3A3E49341
:10589000FE740193FF08EEF208EFF20C8C089003FF
:1058A000A7E0F8A3E0F9E8C39AF50AE99BF50B74C1
:1058B00003780A120900C3E508950AE4950B500322
:1058C00002582478EA1258EB4D4E7006787D760423
:1058D0008016787DE66404600F1258FF500618ECBD
:1058E000F208EDF2787D7601023B291258F308E2C6
:1058F000FEEC22E2FC08E2FD22F2087480F222783B
:10590000F51258F378ED1256A1EC9AED9B2274F340
:10591000120924151015101217E918125A4460269E
:105920009003A9E0FEA3E08007EE2404FEEF34001C
:10593000FF8E828F83E493FA740193FB1257526AAD
:105940007002ED6B70E3750800803C7490906214F7
:10595000F07410125A5670037509408E828F83A31B
:10596000A3A3E493550A6006E509D2E0F509E50929
:10597000906215F0EA906213F0740A250FF8760031
:10598000E490620EF00508A810125A44FAE508C324
:105990009A4003025A427A00790512519E8A0A8B74
:1059A0000BAC0AAD0BEC7001ED60DAEC2402F8ED03
:1059B0003400F9880C890D8882F583E493540FF53F
:1059C0000E90620EF07509008C828D83A3A3A3A3B1
:1059D000E4932407F50AA3E4933400F50B740378E9
:1059E0000A120900AA0A7478250EF50F750A0175C6
:1059F0000B00E50E780A12090FEC2403F8ED3400D1
:105A0000F9850C82850D83E493A2E7400302594B8C
:105A10007448906211F07408125A56700375094068
:105A20008E828F83A3A3E493550A6006E509D2E032
:105A3000F509E509906212F0EA906210F07405022F
:105A4000597B8022125A4DA3A3A3E49322E2F5824C
:105A500008E2F583A322F088828983E493540364E7
:105A6000012205100510051005107F080209557464
:105A7000F71209247878E664026018125761700101
:105A8000EB701078F1E2FE08E27008181818E25482
:105A90001F6006787D7604805BEE604F7A00F91215
:105AA000520A8A088B09EA7001EB60E7787876047D
:105AB000EE08F6756C7D756D7D7E00850882850922
:105AC00083A3A3A3A3E493FAEEC39A5027747A2E78
:105AD000F876007A00790412519E8A828B83A3A300
