:020000040000FA
:1000000002010A020403FFFFFFFFFF02040BFFFFD0
:10001000FFFFFF020413FFFFFFFFFF02041BFFFFB0
:10002000FFFFFF020423FFFFFFFFFF02042BFFFF80
:10003000FFFFFF020433FFFFFFFFFF02043BFFFF50
:10004000FFFFFF020443FFFFFFFFFF02044BFFFF20
:10005000FFFFFF020453FFFFFFFFFF02045BFFFFF0
:10006000FFFFFF020463FFFFFFFFFF02046BFFFFC0
:10007000FFFFFF020473FFFFFFFFFF02047BFFFF90
:10008000FFFFFF020483FFFFFFFFFF02048B00005E
:100090000080FB120113B90003020104E4794078E7
:1000A00008B800028004F709D8FCE4795F783FB80B
:1000B00000028004F709D8FCE4900005788D7901EE
:1000C0008002F0A3D8FCD9FA78489001167A17BAC2
:1000D00000028007E493A3F608DAF9900091AA825F
:1000E000AB8390012D780579018015E493A3AC8250
:1000F000AD838A828B83F0A3AA82AB838C828D83AB
:10010000D8E9D9E71276C912008E75D0007581BF83
:100110000200937901220004003101B901D201E209
:1001200001FEC0ADDE7FF0CCAAFFFFFFFFFEC0AD39
:10013000DE12010002000000206D04ACAA010301E0
:1001400002000109022200010104803109040000BB
:100150000103000000092111010001221900070517
:1001600081032000010403090412034C006F00679F
:1001700000690074006500630068001E03550053A9
:10018000004200200042006F006F0074004C006FBE
:1001900000610064006500720002031E0342004F0C
:1001A000005400300033002E00300031005F004268
:1001B00000300030003000380006B0FF0901A10116
:1001C00075089520150026FF00090181000901919D
:1001D00000C022000000B9011900210000005501F3
:1001E0000900E066701008A3E066700A08A3E066E4
:1001F000700408A3E06622BB0102E722C082C0832C
:1002000089828A83BB0003E08002E493D083D0829A
:1002100022BB000EC082C0838A838982F0D083D043
:100220008222BB0101F722E6F008A3E6F008A3E66C
:10023000F008A3E6F022600C08C6C313C618C61364
:10024000C6D5E0F422700422600D18C6C333C60878
:10025000C633C6D5E0F41822E473CFF608EEF608EC
:10026000A62008E9C0E07908E7F60809DFFAD0E03F
:10027000F922CAC0E0E9C0E0E6FF08E6FE088620F1
:10028000087908E6F70908DAFAD0E0F9D0E0FA22AE
:10029000D083D082C5F0E493A3C5F0C395F0F5F008
:1002A000E493A3C395F04005E5F0048001E475F004
:1002B00002A42582F582E5F03583F583E493A3C09B
:1002C000E0E493C0E022D083D082CCC0E0E493A3EA
:1002D00060061202F01470FAE493A3600612030F92
:1002E0001470FAD0E0FCE493A3C0E0E493C0E022F1
:1002F000C0E0E493A3D39C5010E493A3C39C400AB2
:10030000D0E0D0E0D0E00202E3A3A3A3D0E022C07B
:10031000E0E493A36C7009D0E0D0E0D0E00202E307
:10032000A3A3D0E022424F5430332E30315F42300D
:10033000303038FFFFFFFFFFFFFFFFFFFFFFFFFF32
:10034000FFFFFFFFFFFFFFFFFFFFFFFFFFFFFFFFBD
:10035000FFFFFFFFFFFFFFFFFFFFFFFFFFFFFFFFAD
:10036000FFFFFFFFFFFFFFFFFFFFFFFFFFFFFFFF9D
:10037000FFFFFFFFFFFFFFFFFFFFFFFFFFFFFFFF8D
:10038000FFFFFFFFFFFFFFFFFFFFFFFFFFFFFFFF7D
:10039000FFFFFFFFFFFFFFFFFFFFFFFFFFFFFFFF6D
:1003A000FFFFFFFFFFFFFFFFFFFFFFFFFFFFFFFF5D
:1003B000FFFFFFFFFFFFFFFFFFFFFFFFFFFFFFFF4D
:1003C000FFFFFFFFFFFFFFFFFFFFFFFFFFFFFFFF3D
:1003D000FFFFFFFFFFFFFFFFFFFFFFFFFFFFFFFF2D
:1003E000FFFFFFFFFFFFFFFFFFFFFFFFFFFFFFFF1D
:1003F000FFFFFFFFFFFFFFFF6D04ACAA0103080032
:10040000020505021FD2FFFFFFFFFF021FD2FFFF01
:10041000FFFFFF021FD2FFFFFFFFFF021FD2FFFF00
:10042000FFFFFF021FD2FFFFFFFFFF0222C3FFFFFC
:10043000FFFFFF025552FFFFFFFFFF021FD2FFFF2A
:10044000FFFFFF021FD2FFFFFFFFFF021FD2FFFFD0
:10045000FFFFFF021FD2FFFFFFFFFF021FD2FFFFC0
:10046000FFFFFF021FD2FFFFFFFFFF021FD2FFFFB0
:10047000FFFFFF021FD2FFFFFFFFFF021FD2FFFFA0
:10048000FFFFFF021FD2FFFFFFFFFF021FD200008E
:100490000080FB120514B900030204FFE4792178FF
:1004A0004FB800028004F709D8FCE47970781AB8D4
:1004B00000028004F709D8FCE47980787DB8000256
:1004C0008004F309D8FCE4900005789D790480024B
:1004D000F0A3D8FCD9FA9003A1AA82AB83900517A8
:1004E000780D79018015E493A3AC82AD838A828B69
:1004F00083F0A3AA82AB838C828D83D8E9D9E712DB
:100500001FD612048E75D0007581BF75108075934B
:10051000060204937901222305D9050A073A073A0E
:1005200007000012010002000000206D042BC50529
:10053000240102000109025400030104A03109044E
:1005400000000103010100092111010001223B000B
:1005500007058103080008090401000103010200E6
:1005600009211101000122940007058203080002FD
:100570000904020001030000000921110100012209
:100580006200070583032000020403090412034CE0
:10059000006F006700690074006500630068001A5E
:1005A00003550053004200200052006500630065BF
:1005B00000690076006500720002031E03520051BC
:1005C000005200320034002E00300035005F00423F
:1005D00000300030003200390005010906A1010594
:1005E0000719E029E71500250175019508810281A9
:1005F00003950505081901290591029501750391D7
:100600000195067508150026A400050719002AA4FF
:10061000008100C005010902A10185020901A100B4
:100620000509190129101500250195107501810290
:1006300005011601F826FF07750C950209300931EE
:1006400081061581257F7508950109388106050CFD
:100650000A380295018106C0C0050C0901A1018577
:1006600003751095021501268C0219012A8C02814E
:1006700000C005010980A1018504750295011501DD
:100680002503098209810983816075068103C006FB
:10069000BCFF0988A1018508190129FF150126FF62
:1006A00000750895018100C00600FF0901A10185C0
:1006B0001075089506150026FF0009018100090143
:1006C0009100C00600FF0902A1018511750895136C
:1006D000150026FF000902810009029100C00600F2
:1006E000FF0904A10185207508950E150026FF005D
:1006F00009418100094191008521951F150026FFC0
:10070000000942810009429100C022000000D90581
:100710003B00220000011406940022000002A806FB
:10072000620021000000470509002100000160056A
:10073000090021000002790509003E050000570567
:10074000000070050000E066701008A3E066700A03
:1007500008A3E066700408A3E06622BB0102E7225A
:10076000C082C08389828A83BB0003E08002E49355
:10077000D083D08222BB000EC082C0838A8389824C
:10078000F0D083D08222BB0101F72270090808084B
:10079000226016181818C6C333C608C633C608C662
:1007A00033C608C633C6D5E0EA22E326F30809E3D8
:1007B00036F30809E336F30809E336F322E056F688
:1007C00008A3E056F608A3E056F608A3E056F62282
:1007D000E49346F60874019346F60874029346F6CD
:1007E0000874039346F622E3F60809E3F60809E3E2
:1007F000F60809E3F622E0F608A3E0F608A3E0F61F
:1008000008A3E0F622E493F608740193F608740254
:1008100093F608740393F622C9C0E0E7F20809E7EB
:10082000F20809E7F20809E7F2D0E0F922E6F00859
:10083000A3E6F008A3E6F008A3E6F022CAC0E0E6CB
:10084000F30908DAFAD0E0FA22CAC0E0E2F30908B4
:10085000DAFAD0E0FA22C3E498F8E499F91208979A
:100860008026C3E49AFAE49BFBE920E7E9120897A3
:10087000E498F8E499F922C3E498F8E499F91208A5
:1008800097E498F8E499F9C3E49AFAE49BFB22EB25
:1008900020E7CFE920E7E0B90010BB0008E88AF0C4
:1008A00084F8AAF022E4FBC8FA22EB70227B10C87D
:1008B00033C8C933C9335007C39AC3DBF280069AE1
:1008C00050012ADBEAC833F4C8C933F4C9FA2275E7
:1008D000F008E4C833C8C933C933C99AC99B500466
:1008E000C92AC93BD5F0ECFBC833F4C8E4C9FA22E5
:1008F000600D08C6A2E713C618C613C6D5E0F322DA
:10090000600C08C6C313C618C613C6D5E0F422701F
:100910000422600D18C6C333C608C633C6D5E0F43A
:100920001822E473D083D0822510F8C510C3982410
:10093000FBCEF208E520F208E9C0E07908E709F209
:1009400008DEFAD0E0F9EFF208D0E0FED0E0F208DD
:10095000EEF208E473A810E2FE08E208F520E9C010
:10096000E07908E208F709DFFAE208FFD0E0F9E2EF
:1009700008C0E0E208C0E0881022C0D0C0F088F0D3
:100980002510F8C510C39824F3C0E0E5F0F208E99B
:10099000F208EAF208EBF208D0E0FB7908E709F286
:1009A00008DBFAE582F208E583F208D0E0F208D02D
:1009B000E0F208E520F208ECF208EDF208EEF208A9
:1009C000EFF222A810E208C0E0E208C0E0E208FA74
:1009D000E208FB7908E208F709DFFAE208F582E2AB
:1009E00008F583E208F5F0E208F5D0E208F520E228
:1009F00008FCE208FDE208FEE208FF8810D0E0F9FA
:100A0000D0E0F8D0E0327403800474028000C9C0E2
:100A1000E0E510C399F510C912083CD0E0F9227442
:100A2000038000C9C0E0E510C399F510C912084958
:100A3000D0E0F922D083D082C5F0E493A3C5F0C3FF
:100A400095F0F5F0E493A3C395F04005E5F004803C
:100A500001E475F002A42582F582E5F03583F58383
:100A6000E493A3C0E0E493C0E022D083D082CCC062
:100A7000E0E493A36006120A941470FAE493A3606E
:100A800006120AB31470FAD0E0FCE493A3C0E0E4C9
:100A900093C0E022C0E0E493A3D39C5010E493A35E
:100AA000C39C400AD0E0D0E0D0E0020A87A3A3A311
:100AB000D0E022C0E0E493A36C7009D0E0D0E0D095
:100AC000E0020A87A3A3D0E02205264A0E00000018
:100AD0003F003F003F0000003F00001024050029B8
:100AE0008808040100000000000000000102030467
:100AF000010606000000000000000000010840019F
:100B00000400010000000000000000000208400294
:100B10000400010000000000000000000308400382
:100B20000400010000000000000000000408400470
:100B3000040001000000000000000000050840055E
:100B4000040001000000000000000000060840064C
:100B50000400010000000000000000000102030486
:100B6000000000000000000000000000010A0B006F
:100B70000D0E000000001415001718000000000002
:100B8000020400050105080B0E1114171A1D20237D
:100B900026292C2F3235383B3E4144474A01040573
:100BA000060102030A0B0C0D0E090A0B120D0E0FA3
:100BB00016171813141511FF0A000000000000009A
:100BC000000000000000000000007FF0CCAAB80B7D
:100BD00000008001000000FFFFFF00000000FFFF99
:100BE0007587010022EB900015F0EA900016F07571
:100BF000D60100000000000000000075B345E5B319
:100C0000A2E350FA227400900015F07405900016CB
:100C1000F0740090001FF07425900020F075D6034A
:100C200000000000000000000000000000000000C4
:100C3000000075B341E5B3A2E350FA227400F5D584
:100C400075D4157400F5D375D21D7470900017F02B
:100C500074B1900018F0E4900019F0741090001A2C
:100C6000F0741D90001BF0744190001CF0747090A3
:100C7000001DF074B290001EF0E4900021F074109A
:100C8000900022F0741E900023F07411900024F064
:100C9000120BE578B0E290000CF008E290000DF045
:100CA00008E290000EF008E290000FF0120C0590A0
:100CB000002CE0FA78AFE26AF290002B120CE4907C
:100CC000002A120CE4900029120CE4900028120C67
:100CD000E4900027120CE4900026120CE49000250A
:100CE000120CE422E0FA18E26AF22274F5120924E6
:100CF000E51024F0F510750B007401900108F074F4
:100D000060250B120E3C850B0A850A0C750D0074CC
:100D100004780C12090FE50C2435FEE50D3400FFB4
:100D2000EA7001EB6015750A007808120A067C105B
:100D30008E828F83A982AA83121F177A008A08EEF7
:100D40002508F582EF121318C0E0E5102AF8D0E06C
:100D5000F20AEAC3941040E5E5102407F8E28E8217
:100D60008F83F0E51004F8E2F4A3F018E28E828F8E
:100D700083A3A3F0080808120E53F0E510240A120A
:100D80000E49F0E5102402120E5CF0E5102409F87B
:100D9000E264558E828F83A3A3A3A3A3A3F0E510DF
:100DA000240E120E49A3A3A3F0E5102408F8120E96
:100DB00069F01818120E69A3F0E510240C120E5CED
:100DC000A3A3A3A3A3F0E5102405F8E2C0E0EE245A
:100DD0000BF582EF124217D0E0F0E510240DF8E297
:100DE000C0E0EE240CF582EF124217D0E0F00808C4
:100DF000E26455C0E0EE240DF582EF124217D0E018
:100E0000F0E5102404F8E2C0E0EE240EF582EF12C3
:100E10004217D0E0F0E510240BF8E2C0E0EE240F1A
:100E2000F582EF124217D0E0F0050BE50BC39406F4
:100E30005003020CF9E51024100226CEF9120E41DF
:100E4000221223B28A088B0922F8120E4E22120EA9
:100E500053A322E28E828F83A3A3A322F8E2F48E0F
:100E6000828F83A3A3A3A3A322120E4EA3A3A3A3A3
:100E700022EEC0E0E9FE754F107881E2F550755121
:100E8000817552F18E53EE120A340102B80E940E9F
:100E9000A20EAD0E900098E0F554900099120EC18C
:100EA000801B90009BE0F55490009A80F0755400F0
:100EB000900097120EC180057903121803D0E0FE4E
:100EC00022E0F555120EE622754F107881E2F550BA
:100ED00075518278A6E2F55208E2F5537554007513
:100EE0005500120EE6225367DF4367042274E28A3C
:100EF000828B83F0E960047C1080027C00EC440863
:100F0000A3F0227880E27003790022790122532134
:100F1000FBE47880F2122BBEE49000A6F074FD553D
:100F2000214401F5212274FA120924E9FE74069085
:100F300000A6F07880E26003020FD374FD552144CF
:100F400004F521EE08F2FA74756A70267475900043
:100F5000A8F074DE900115F074AD900116F074DF06
:100F6000900117F0740A900118F090009EE4F0A32D
:100F7000800974FF2A1217D49000A8F07F008F8296
:100F8000AA827881E2F874FF281874FF3400F9E827
:100F90006A7001E9601AEA123BA97004A3E064FFD9
:100FA000600E742F2FF8E6A2E05005EFF9122EFB29
:100FB0000FEFC3940640C77D107CFF79957A007BC4
:100FC00000122AB7E49000A7F07A051211A5740167
:100FD0007880F2023ED774F412092415101510859A
:100FE0009309AE10AF937880E2120A3400047311B3
:100FF0007311FA0F83109210391179011211766072
:101000007978A7E2A2E440030211738808750A0008
:101010007808120A067C1079957A00121F17900141
:1010200015E064DE7049900116E064AD70419001F6
:1010300017E064DF7039900118E0640A70319000A5
:10104000A0E0900115F09000A1E0900116F0900052
:10105000A2E0900117F09000A3E0900118F090003A
:10106000A4E09000A8F09000A7E004F002111B4358
:10107000210374037880F20211739000A712118883
:10108000021173790012117660F0E521A2E140E2CD
:1010900080DDE5376538700302112E74069000A6D6
:1010A000F0E53775F016A424FAF50CE5F03401F5F7
:1010B0000D750E00780C120A067C147983AA93121F
:1010C0001F1785370A123C5412088FEAF5377886C5
:1010D000E2120A6A0002E2DE10F1261173111818FA
:1010E000E2FA7881E26A702AE567A2E2500302110F
:1010F0007379157A86AB091242AEE96005120EC803
:1011000080719000A7E075F00384E5F0F0740402AC
:10111000107479031218039000A7E01211921211B3
:10112000A5740202107408E2F9120E718045900055
:10113000A5E0C39449403C80E89000A7E0C3941523
:10114000501B121188E567A2E2402879157A86AB18
:10115000091242AEE9601C120EC802107274FD55ED
:10116000214401F5217909121803E49000A7F07ACF
:101170000580AB0240EAEEFAEFFB120EED7902EECB
:10118000FAEFFB1242AEE922E004F01211921211C2
:10119000A52275F00384E5F024C9F582E4340AF54C
:1011A00083E493FA229000A8E0F912421C227D0603
:1011B0007C0079A97A001211D979AF7A001211D97D
:1011C00079B57A007B00122AB7743F9000BBF0E437
:1011D0009000BCF09000BDF0227B00122AB77D0683
:1011E0007C0022EEC0E0E9FEF8E6FC08E6FD748033
:1011F0005BF9E47001E960297401C39AF874F89B03
:10120000F9C3EC98ED99A2D265D0335009EEF87687
:10121000010876F88027EEF8EC2AF608E63BF6801F
:101220001C74FFC39AF874079BF9C3E89CE99DA25C
:10123000D265D03350E0EEF876FF087607D0E0FEB6
:101240002274FA120924E7FE3395E0FFEAFC339595
:10125000E0FDEAA2E7501F7481C39CFC74FF9DFD72
:10126000C3EE9CEF9DA2D265D03350047781801CE1
:10127000EAC727F78016747FC39CFCE49DFDC3EC8E
:101280009EED9FA2D265D03350E6777F023ED774A1
:10129000F9120924E9FE8E82A882124C952419FCC9
:1012A000EB3400FD8C828D83E0A2E15009E8123519
:1012B000E7E4F04366028C828D83E0A2E2500FE8FF
:1012C0001213B1E4F0E81213A2E4F04366088C8232
:1012D0008D83E0A2E35003436620A2E450034366FB
:1012E00080EA241A1213225003436702EA241B12D5
:1012F0001315A2E65019E523A2E3501375080175F2
:101300000900EE780812090F9000BDE04508F002D0
:101310002A5EEA2421F582EB12131C223400F583A5
:10132000E022F582EB12131CA2E022C008C009AA39
:101330003678A8E2C0E01213B0D0E0F008E2C0E0D6
:101340001213A1D0E012142F12140040FB78AA123D
:1013500044A0F8740F58FB74085BF9E47001E9606D
:101360000474F04BFB794B1211E378ABE2C4540FD9
:10137000FA0812388212090FE5082AFAE509340042
:10138000FB74085BF9E47001E9600474F04BFB79CD
:101390004D1211E378AD12141C78AE121424023DE4
:1013A00001EA1213A62224AFF582E43400F5832269
:1013B000EA1213B52224A9F582E43400F58322AAA7
:1013C0003678A8E2C0E01213B0D0E0F008E2C0E046
:1013D0001213A1D0E012142F12140040FB78ABE2DC
:1013E000FB18E2FA794B1211E378ADE2FB18E2FA4E
:1013F000794D1211E378AE12141C78AF1214242226
:101400008A82A882E81213B5E04548F548E812132D
:10141000A6E04547F5470AEAC3940622E2FA79496D
:1014200012124122E2FA794A12124143660422F072
:101430007548007547007A0022C008C009E523A25C
:10144000E340030214F97411900389F07401253606
:1014500090038AF0746690038BF078A8E290038C76
:10146000F008E290038DF008E290038EF078B2E28B
:10147000C454F0C0E078ABE2540FFAD0E04A9003D5
:101480008FF008E2900390F008E2900391F008E2F8
:10149000900392F008E2900393F008E2900394F036
:1014A00008E2900395F078BAE2C454F0C0E078B353
:1014B000E2540FFAD0E04A900396F008E2900397C6
:1014C000F008E2900398F008E2900399F008E290A7
:1014D000039AF008E290039BF008E290039CF075F9
:1014E0000801750900E536780812090FE508F4FAD5
:1014F0009000BDE05AF0436710023D0174F81209F4
:101500002474200245D974F812092474210245D9A3
:1015100074F7120924E568A2E250185368FB7E00B4
:101520008E08E508122D40EEF9123AB20EEEC39481
:101530000640EDE522A2E350065322F712157EE5A0
:1015400022A2E55036E567A2E240305322DF900B3D
:10155000CA7808120805900001780812082DC2AF59
:10156000E490620F121FC990620FE0A2E740F87A80
:10157000EE7B02122293121F2D80FE023B2C74F987
:101580001209249000C0E0FA9000BFE0FB74FF6BEA
:101590006003021621EA120A3480023A16A315F4F7
:1015A0001511169000C2E0FA74FF6A6003EA700336
:1015B000EA800374012A9000F5F07E00800BE7C2F8
:1015C000E1F70EEEC394065071742F2EF9750801E1
:1015D000750900EE780812090F9000C1AA08E05AB8
:1015E00060DCE7A2E140DBE9F8E6D2E1F6EEF912D1
:1015F000128F80CE4322047E00742F2EF8E6A2E0E4
:101600005003D2E6F60EEEC3940640ED432202806C
:10161000299000C1E06005432304801E5323FB8012
:1016200019740E6A701474FF2BFE9000C1E0FAEE7C
:10163000124479EAF0EEF9123AB2022A5E74F31219
:101640000924E51024FBF510E567A2E64003021724
:10165000CF5367BF900363E0FAE5102402F8746289
:10166000F208740312448774FF6A706FE567A2E2A0
:1016700050030217CF900362E06410703A181812FA
:101680000A1F7C07794F7A007B01121F19E551125E
:101690000A348003B2169E16A716B216AC1612189C
:1016A00017120EE60217CF121AAA80F5121C3B027F
:1016B00017CF79010217CCE0641160030217CF182D
:1016C00018120A1F7C14794F7A007B01121F1974BB
:1016D00082655170DD121CB40217CF74FF2AF50B1E
:1016E000C39406400874756A60030217ABAA388A6F
:1016F00082AE82EE75F016A424F9FAE5F0340112F8
:1017000017E8120F03E9603F900362E0120A3410F9
:1017100001CF171717171774012E123C5812088F94
:101720008A0EE537650E7001EB6017E5102402F8AC
:10173000120A1F1217F1123B6A12088FEAF53802DB
:1017400017CF750B078067AE0B900362E0120A3467
:101750001001CF1758175817EEC39406504DEEF9E5
:10176000123B7BE9FF703DA810E2F58208E2F583A9
:10177000EEF008120A1F1217F1AA388A82A882EE28
:101780001217D4C0E0E875F016A424FBF582E5F04A
:101790003401F583D0E0F074012808123C59120896
:1017A0008FEAF5388F0BEF70058024750B08E5671D
:1017B000A2E2401B5367BFE5102402F8120A1F7C07
:1017C00007794F7A007B01121F19A90B1218030524
:1017D00010025A651217D82275F01DA4241DF58237
:1017E000E5F03401F583E022FBA810EAF208EBF201
:1017F000227C14E5102403F8125A50A982AA8312FD
:101800002A35227555008954855253855152754F9A
:101810001075518F020EE274F71209241510E55469
:10182000FAE553F508E552120A6A000B004F180159
:10183000921802A11803C918B2D118D08019D194F6
:1018400019D4AD19D70D1AF04B1AF29D1AA51AEA40
:10185000A2E0500543220180035322FEA2E350057B
:1018600043221080035322EFA2E450054323088053
:10187000035323F7A2E25015432310748F65516080
:1018800009755300755400755500023B2A5323EF28
:1018900080E9EAA2E35005432C0180DF532CFE804F
:1018A000DAE553A2E150D4E522A2E050CEE4A8103C
:1018B000F2E2242FF8E6A2E05003D2E2F6A810E20A
:1018C00004F2C3940650B480E8E5089000BCF080B0
:1018D000AAE522A2E65003021AA574016553600628
:1018E000740665537047AA10AB93123664E964011D
:1018F00070337406655370047A0180027A00E555EE
:10190000700375551E74019000F4F0855535EA900A
:101910000359F0123F1DE522A2E0400302187B4369
:10192000680102187B790512180302187B7402659E
:10193000537006122EEB02187B740365536003028A
:101940001A46EAC394074003021A46EA7003021AD1
:101950004674FF2AA810F2F912128F750801750952
:1019600000A810E2780812090FAA08AB0912248710
:10197000122BBEA810E2242FF8C64428F602187BCA
:10198000740165087005432240800353223F122AE8
:10199000EC02187BE522A2E64003021AA51220738E
:1019A000E96401700302187B790B021927E522A272
:1019B000E64003021AA5EAAE08FFC3EE9410EF94C6
:1019C000004003021A46797C120E3D79F87A007BBA
:1019D00000E5087002E50970097D107C00122AB745
:1019E000800C8B0A7808120A067C10121F19E55524
:1019F000C0E0EE24F8F582EF3400F583D0E0F07C0F
:101A0000107AF87B00797C12240102187BE522A26F
:101A1000E64003021AA5E508120A340006461A7BBE
:101A2000182D1A461A331A361A461A3C1A1225FF6E
:101A300002187B1225FF1228B502198E7AFF7BFF50
:101A400012248702187B79030219277449650870EC
:101A5000127443655470EF7450655570E943222049
:101A600002187B744C6508701C7454655470D7E57B
:101A700055F974FF29C39406400574756970C7123F
:101A80000F2602187B7458650870BB744965547042
:101A9000B57454655570AF120F0E02187B74016552
:101AA0000870A380FE790202192774F9120924E54F
:101AB00053F508E552120A6A000900F71A012C1BB7
:101AC00002431B03651BD0771BD4891BE6B81BF0B0
:101AD000D71AF1C71B281C755300755400755500A3
:101AE000120F03E97003021C2D75534C7554547882
:101AF00081E2F555021C2D75530075540075550093
:101B0000E523A2E3E492E0C4C0E0E522A2E4E4928B
:101B1000E033333354F8C0E0E522A2E0E492E0FA87
:101B2000D0E04AFAD0E04AF554021C2D75530075F6
:101B30005400755500E52CA2E0E492E033333354B1
:101B4000F880E47553007554007555007A00742FC1
:101B50002AF8E6A2E0500205540AEAC394064003BC
:101B6000021C2D80E97553007554007555009000D6
:101B7000BCE0F553021C2D755300755400755500DB
:101B8000E522A2E6E492E080E9E554AE08FFC3EE68
:101B90009410EF94005019797C121F067001E970BF
:101BA00003021C24E82EF582E93FF583E0021AF2D5
:101BB0008E828F83E0021AF2A92EE9F553A82DE850
:101BC000F5547555008066E508120A340104241C9A
:101BD000DA1BE21BEA1B011C191C75542475550500
:101BE000804B75540075552980439003FA121C30C0
:101BF000700374FF69602D740193F554E493021A25
:101C0000F29003FC121C30700374FF696016E493B9
:101C1000F5549003FEE493809C90624AE0F5549062
:101C200062498088790380027902121803022A5ED1
:101C3000E493F8740193F974FF682274F71209248D
:101C4000E552120A34B302AC1C7B1CAC1C4F1CE5E1
:101C500053F9C394805008122A237001EB70047961
:101C600003804B750A007808120A067C0F79547AB3
:101C7000007B01121F1943672480367D107C007998
:101C8000537A007B01122AB77B00EB75F01DA42468
:101C900033F582E5F03401F583E0C0E074532BF8AE
:101CA000D0E0F60BEBC3940640E080CA790212182C
:101CB00003023B2C74F8120924E552120A6A00024E
:101CC000B5C81CD1ED1E021FE522A2E64003021F8B
:101CD00002E553FAC39480503C74026A6037750879
:101CE00054750900750A017808120A067C0F79F804
:101CF0007A00121F177C0F7AF87B00A95312240177
:101D0000748F655160097553007554007555004313
:101D1000670402460874102AC394064003021EE9B1
:101D2000740F5AFE8E087509007404780812090FA2
:101D3000E5082435F8E43400F9E55488828983F015
:101D4000E555A3F0E55688828983A3A3F0E557887B
:101D5000828983A3A3A3F0E55888828983A3A3A3E0
:101D6000A3F0E55912388DE55A88828983A3A3A38D
:101D7000A3A3A3A3A3F0E55B88828983A3A3A3A362
:101D8000A3A3A3A3A3F0E55C88828983A3A3A3A351
:101D9000A3A3A3A3A3A3F0E55DC0E0124211D0E08A
:101DA000F0E55EC0E0E8240C124214D0E0F0E55FFC
:101DB000C0E0E8240D124214D0E0F0E560C0E0E895
:101DC000240E124214D0E0F0E561C0E0E8240F12C6
:101DD0004214D0E0F0EEF9122A417401900108F0AB
:101DE00074602EF9121F067001E97003021EE1886B
:101DF000828983E065546003021EE1A3E0655560BB
:101E000003021EE188828983A3A3E0655660030272
:101E10001EE188828983A3A3A3E065576003021EA5
:101E2000E188828983A3A3A3A3E065586003021E0F
:101E3000E188828983A3A3A3A3A3E0655960030279
:101E40001EE188828983A3A3A3A3A3A3E06488607F
:101E500003021EE188828983A3A3A3A3A3A3A3E013
:101E60006408707D88828983A3A3A3A3A3A3A3A3EB
:101E7000E0655A706C88828983A3A3A3A3A3A3A35C
:101E8000A3A3E0655B705A88828983A3A3A3A3A35D
:101E9000A3A3A3A3A3E0655C7047E8240BF582E944
:101EA000121318655D703AE8240CF582E9121318D4
:101EB000655E702DE8240DF582E9121318655F70D8
:101EC00020E8240EF582E912131865607013E824E7
:101ED0000FF582E912131865617006120CEB021DF2
:101EE000007909121803021D00790380F6E522A289
:101EF000E6500F12212FE964017003021D00790BD7
:101F000080E1790280DD120E41A808A909E8228C3F
:101F1000F0123C4AA908FA7B00122A372275C680C3
:101F2000744055C6FA7440559E6A70F42243C9A0A5
:101F3000E5C943C950E5C92274F712092474035551
:101F400023FA6070E56FA2E050247878E6640470AC
:101F50001D74016A7005900BCE8003900BD2780837
:101F6000120805AA08AB09AC0AAD0B12221E123DDD
:101F70001590620FE0C2E1121FC990620FE0A2E764
:101F800040F875BE85120BE0121F1D12466090626C
:101F90000FE0A2E750F87524185323FC7878E66424
:101FA000047011123D2E900119E0121FB76005EE6A
:101FB000900119F0023B2C246CF582E4340BF5837C
:101FC000E493FEF9123F76E922F090624BE0D2E210
:101FD000F022C0D080FE75C909121F1D75FDFF7566
:101FE000800075900090624BE0D2E2F090620FE0CA
:101FF000C2E3F01247D41211AE122AEC7418559DA8
:1020000060077AE87B0312229312460D75E4097586
:102010002703752818752909E5E2F508E5E3F9A80D
:102020000874E828F8740339F988258926801C1279
:102030002C091222CA78F9E264017003121F387861
:10204000FAE264017005E4F25323FB121F2D1246DD
:102050006F7878E6640470DA12163D12151078F97C
:10206000E264016003124D32120F03E960C1120FE6
:10207000D680BF74F9120924E553120A3400021104
:1020800021872011211121E554120A340003112166
:10209000982002210A2111219000F7E0C454F04455
:1020A00005FEE555120A3400041121B520BF20CBEE
:1020B00020EB20F320123D15432280790180541239
:1020C00021167A01790012219780ED53227F123D6B
:1020D0002E123D159000F7E0C454F044059061863F
:1020E000F09000F6E0F9123F6D80D0752A0053227F
:1020F0003F80C84322801221167A0079001221976E
:1021000080B9E5559000F6F080B1E5559000F78074
:10211000F67900022A5E9000F6E0F508123D15EE11
:10212000906186F074602508FC74093400FD227407
:10213000F9120924740465537058E554900115F0A0
:10214000E555900116F0E556900117F0E55790011E
:1021500018F0E55890011DF0123D2EE55BF9E55CA5
:10216000F8740C28F8E439F9900136E8F0A3E9F0A6
:10217000900138E4F0A3F0E55D900119F0FEC394FE
:10218000195003EE70037401F0E0F9123F59790120
:1021900080027900022A5EEEC0E0E9FBEC24B5FE85
:1021A00074016A700974016B70077900806CEA60D1
:1021B00018EE906184F0906190E0D2E5F0740A909E
:1021C00061A6F0E49061E9803BEB7021C3EC948A56
:1021D000ED9409EC500D24B6906184F07425906163
:1021E000A6800E24B4906184F0740F80F1EE9061AB
:1021F00084F0906190E0C2E5F074039061E9F074BE
:10220000FF9061E8F0EB700975E104E5BF709B8019
:102210000775E103E5BF70927901D0E0FE2274F703
:102220001209241240F38C0A8D0BE595A810F2E5F3
:102230009608F2E597081244877405780812078B10
:10224000A91078081207AAE5102402F8E2F59718F9
:10225000E2F59618E2F595C2C7D2AD051005100556
:1022600010023B2AEBC313FBEA13FAEAF8EBF9740A
:10227000FF28FA74FF39FB7400687003740069600A
:10228000110000000000000000000000000000003D
:1022900080D92274FA120924EAFEEBFFEEF8EFF976
:1022A00074FF28FE74FF39FF7400687003740069BE
:1022B000600C121F2D7AE87B0312226480DE7F01FE
:1022C000020955C2C7C2C7C2AD3274F9120924E56A
:1022D000E2F508E5E3FB7825E508C396FEEB0896F2
:1022E000FFC3EE9401EF123A7150030223AF782539
:1022F000E624E8F608E63403F6EE2418FEEF34FC94
:10230000FFE5276002152778F9E26401701AE523DA
:10231000A2E24014E52460191524E524701374FC2E
:1023200055234402F5238009120F03E97003122D8F
:10233000469000A5E004F0C3EE9401EF123A71500C
:10234000ADE527701F752704E52860021528E56CA8
:102350006006E56D6002156D900378E0C3947E50D1
:1023600003E004F0E5287009752819E529600615D1
:1023700029E529703A75290A78F9E264016030127A
:102380000F03E96401700D9000A6E0600714F0707F
:1023900003120F0E9000F5E0601514F070117A0032
:1023A000742F2AF8E6C2E1F60AEAC3940640F10265
:1023B0002A5E74F9120924E9FE900108E0700D7498
:1023C000705E646070067A007B00801FE4F090EC21
:1023D00000E0643F70187A047BEC122664EA700116
:1023E000EB60E3EA2404FAEB3400FB022A5E90F08F
:1023F00000E0643F70067A047BF080DE1225A38043
:10240000C574FA120924E9FEECFF750800850882FC
:10241000AC82EC24F8F8E43400F9ECC39F5007EAEE
:102420002C1213158001E488828983F00508E508E1
:10243000C3941040D890EC00E0643F702075820493
:102440007A00E064FF7023AA82AB83EA7001EB603C
:102450002B7CF87D00EEF912268C023ED790F0001E
:10246000E0643F60D81225A38012E5822414F5822F
:10247000E5831242170AEAC3943340C67AF87B0018
:10248000EEF91226D580D374F3120924E51024FA4C
:10249000F5102404F81217EB90EC00E0643F70157F
:1024A000181818E4F20874ECF2750FF0791C122871
:1024B000147F1B802290F000E0643F700D18181804
:1024C000122599791B122814800B1225A3E51024DC
:1024D00002F81225997F1C797F7A00AB0F12260A29
:1024E000758200850F83A3A3A3A3A810E582F20839
:1024F000E583F27E00750801750900740F5E7808A7
:1025000012090FAA08AB091227B4E4935AF8A3E4FE
:10251000935BF9E87001E9605F74F05EFC74206C15
:10252000600F74306C600A74406C600574606C708D
:1025300012E5102404F8E25AFA08E25BFBEA7001A3
:10254000EB70351228008A0C8B0DEA7001EB6028C5
:102550001227C4120A061227D4850C82850D83E047
:10256000F9A8101244A812268CA810E22414FA0824
:10257000E23400FB181217EB0EEEC39480500302F6
:1025800024F5793F7A00AB0F12260AEFF9122814CE
:10259000E5102406F510025A6DE4F20874F0F275A5
:1025A0000FEC2290EC00E0643F602C90F000E064BF
:1025B0003F60031225FF90EC00E064FF701190F083
:1025C00000E064FF7009793F7A007B6C12260A9064
:1025D000EC00E0643F700D90F000E0643F7005791E
:1025E0001B12281490EC00E0647F7005791B122800
:1025F0001490F000E0647F7005791C122814227991
:102600001B122814791C1228142274F6120924EAC9
:10261000F58274804BF583C082C0838908750900F8
:10262000750A00750B00900BD678081207D0D0837E
:10263000D08278081207BD900109E508F0A3E509EA
:10264000F0A3E50AF0A3E50BF0750804750900781E
:1026500008120A0A7C097D0112282C051005107F3A
:102660000502095574FA120924FCFD7E338A828B17
:1026700083E0697004EAFCEBFDEA2414FAEB340011
:10268000FB1EEE70E8ECFAEDFB023ED774F5120982
:1026900024EAFEEBFF890A8C088D097480450AF94B
:1026A00012260A750C10750D00780C120A0AAC0877
:1026B000AD0974042EFAE43FFB12282C0510051016
:1026C000747F550AF9EEFAEFFB12260A8002F51024
:1026D0007F0602095574F3120924E51024FCF51055
:1026E000890B8A088B0990EC00E0643F701DE510AF
:1026F0002402F8E4F20874ECF2181818E4F20874F2
:10270000F0F2791C1228147F1B801A90F000E0640C
:102710003F700A1227E2791B12281480061225A3A3
:102720001227E27F1C797F1227F7A810E22404F514
:102730000C08E23400F50DAC08AD09A90BAA0CFB9E
:102740001227A47E00E50B6E60461227B4750801BF
:10275000750900740F5E780812090F935508F8A3E5
:10276000E4935509F9E87001E960251228008A0E02
:102770008B0FEA7001EB60181227C4120A061227A9
:10278000D4850E82850F83E0F9AA0CAB0D1227A425
:102790000EEEC3948040AE793F1227F7EFF912286E
:1027A00014025A6512268CE50C2414F50CE50D3440
:1027B00000F50D22EEC4540FC33324CCF582E4346B
:1027C0000AF58322EA2404F508EB3400F509750ABA
:1027D000007808227C1079F87A00122A357CF87D7E
:1027E0000022E5102402F8E4F20874F0F218181838
:1027F000E4F20874ECF222A8101244AC12260A2269
:10280000EEF9E5102402F8E22404FA08E23400FBB1
:1028100012266422C0A8C2AFE9906272F090627082
:102820001242A900E0A2E740FBD0A82274F91209E5
:1028300024E5102407F8E2FE08E2FF7401F5D575DF
:10284000D40DD2B8ED90010DF0EC90010EF0746251
:1028500090010FF07473900110F0EF900111F0EE01
:10286000900112F07412900113F07442900114F070
:1028700053D1FE75D6010000000000000000007476
:10288000FF5AF508747F5BF5097402780812090095
:10289000E508906271F0E509906272F01228A202D8
:1028A0002A5EC0A8C2AF906270E0D2E1F0E0A2E779
:1028B00040FBD0A82274F8120924900108F01225D8
:1028C000A379021223B2EA7001EB60247D00800735
:1028D0000DEDC3941050248D82A882EA281213159E
:1028E000FCE824DCF582E4340AF583E4936C60E0D0
:1028F0007C107ADC7B8A790212240179031223B2DC
:10290000EA7001EB703E7508EC75090A750A80786B
:1029100008120A067C1079F87A00121F17E53C901D
:1029200000F8F0E53D9000F9F0740F553E449090AA
:1029300000FAF0E53F9000FBF07C107AF87B00791C
:102940000312240102460874F4120924151015100C
:102950007903122A237001EB70067508DC75098A69
:10296000750A007808120A067C0879157A01121F88
:10297000177E0074202E120E3C74302EF91223B2F2
:102980008A0C8B0D74402EF91223B28A0A742F2EF2
:10299000FC8E82AA82E5087002E509600FE50C70E2
:1029A00002E50D6007E50A7001EB702B8A087509D6
:1029B000007404780812090FE50824FCF8E50934CE
:1029C0000AF9E8F508748049F509750C5C750D8BFA
:1029D000ECF8E6C2E08005ECF8E6D2E0F6EA75F045
:1029E0001DA42415FAE5F034011217E8750A0078E1
:1029F00008120A067C0DE5102403F8E22408122AC6
:102A000028750E00780C120A067C09E5102403F8DC
:102A1000E22415122A280EEEC394065003022973ED
:102A20000240EA120E41EA22F50808E23400A90841
:102A3000FA122A35227B00122A63051005100510B0
:102A40002274F9120924E9FE7C108E0875090074BD
:102A500004780812090F1235F574601238497F02A4
:102A600002095574F812092489088A098B0AECFFB7
:102A7000E5102408F81244A5AC08AD09AE0A89088F
:102A80008A098B0A802B1FA908AA09AB0A12075BC7
:102A9000C0E0ECF9EDFAEEFBD0E0120775E5082492
:102AA00001F508E5093400F509EC24010CED3400CA
:102AB000FDEF70D202460874F812092489088A09C9
:102AC00080131DECA908AA09120775E92401F5086D
:102AD000EA3400F509ED70EA024608E9700379046A
:102AE00022C3941150037909227915227539007592
:102AF0003A0075350075370075380074049000058C
:102B0000F07414900006F0741D900007F0741F908C
:102B10000008F07427900009F0742890000AF074FF
:102B20000D90000BF0740A900010F0740D900011DD
:102B3000F07413900012F07426900013F0740E904D
:102B40000014F0120CEB7D807C0079007A607B0031
:102B5000122AB7759C7774019061B1F0E49061A07E
:102B6000F0906184F0E5E170FC75E1029061BFE0F6
:102B700060FAE0F5BCE0F5BC7A00122BB1122BB183
:102B8000743C2AF8A6BC0AEAC3940440EDE5E1705F
:102B9000FC75E1011228B57D037C00792C7A007B5D
:102BA000011211DB792F7A007B01122AB7122BBE9A
:102BB00022E0F5BDE0F5BDE0F5BDE0F5BD227DB656
:102BC0007C0079157A017B00122AB71229477B0015
:102BD000EB122EDB12421474FFF0A3123EE774FFD7
:102BE000F0A3F0E8241E123EDC241F123EDC242059
:102BF000124214EBF00BEBC3940640D4752A037514
:102C00002B00753B18123D2E2274F9120924E5227F
:102C1000A2E75003022D3D1238B3E97003022CCE17
:102C2000E536120A340601B82C3F2C2D2C78A7E289
:102C3000541F641F6003022CCE122F27022CCEE5F6
:102C40002A120A340003CE2C712C502C712C712CBA
:102C500078A7E2541FFA741F6A60DE740F6A706E00
:102C600008E26406706808E26401706212368180CE
:102C70005D78A7E2541F640F700608E26407604E97
:102C800078A6E2FC7B0012311C7024742F2BF8E62E
:102C9000A2E0501B8B36A936123BB0790112391FC6
:102CA0001231FCE536122D40A936123AB2801C0BC7
:102CB000EBC3940640D08016E52A120A6A0102038B
:102CC000C82C0100C82CCE2C1231FC752A00E53727
:102CD00065386069E52A120A6A010203E42C0100E2
:102CE000E42C3D2DAA37EA123C41850882F583E0A9
:102CF000FCFF742F2FF8E6A2E05036EF123BA970CC
:102D000004A3E064FF602AECF9124125E9702E85E6
:102D10000882850983E0FEA3E0541FF9122ADBEE46
:102D2000FCAA08AB09123FE085370874012508802A
:102D30000374012A123C5812088FEAF537022A5E02
:102D400012447DE0FA2274F9120924E522A2E65029
:102D500003022ED87F017E00EE122EDBFAE934004A
:102D6000FB8A828B83E064FF7004A3E064FF70033E
:102D7000022E317F00E82423F8E9123A8A2401F078
:102D8000A3E03400F088828983E0FCA3E0FD8A821E
:102D90008B83E06C7003A3E06D707078FF79FFE5C2
:102DA0002A120A6A010104312E0100AF2D312E8F43
:102DB00009E50975F01DA485F0082436F582E508BB
:102DC0003401F583E0FCA3E0FDC3E89CE99D4004E9
:102DD000ECF8EDF90509E509C3940640D48A828B25
:102DE00083E0687003A3E0697047900119E0249DB7
:102DF000F582E4340BF583E493F9900119F0123F66
:102E000059753B0D752A028F2B802688828983C0D5
:102E100082C0838A828B83E024C8F8A3E03400F95F
:102E2000D083D082C3E098A3E0994005EEF9122E3A
:102E3000FB0EEEC394065003022D58900119E0F8E2
:102E4000E52A120A340004B52EAA2EB52E532E8F71
:102E50002EB52E153BE53B705C052BE52BC394048A
:102E6000E84016121FB7600AEE900119F0753B1882
:102E7000803D753B01152B803C249DF582E4340B8D
:102E8000121FBE60EDEE900119F0753B0C80261507
:102E90003BE53B7020E8121FB7600AEE900119F085
:102EA000753B188010753B01800B74016F700675BF
:102EB0002A03752B0078391235DDC3E53994E9E52D
:102EC0003A94034013753900753A00E535600915E9
:102ED00035E5357003122EEB022A5E75F01DA42431
:102EE00015F8E5F03401F9E8242122753500E522D2
:102EF000A2E05003436802122BBE22EEC0E0E9FEBE
:102F0000124C9E74FFF0A3123AA95017E522A2E0DA
:102F10005004E6D2E2F6E6A2E15005D2E4F68003E0
:102F200012128FD0E0FE2274F912092478A8E2125E
:102F30000A340102A12F3C2F552F5D2FE536900357
:102F40005AF0122FA4E96008752A01752B028051EE
:102F5000123645804C123122432B0480440808E28B
:102F60009001EAF07A0074AB2AF8E2C0E08A08E542
:102F70000824EBF582E43401F583D0E01244B294E6
:102F80000E40E378A6E27882F2740F08F274060825
:102F9000F2740208F2740308F2790F1231E4432B41
:102FA00008022A5E74F91209247D2EFC79CB7A017D
:102FB000FB122AB778B4E2A2E25011181818E264A2
:102FC000047009181818E2C394085009E52CA2E00F
:102FD000400302311178B4E2A2E3500E78BAE290D5
:102FE00000F3F0700B740502311374FF9000F3F0DE
:102FF00075350274019000F4F079031223B2EA707F
:1030000001EB701BE53C900115F0E53D900116F0D9
:10301000E53E900117F0E53F900118F0123F38901F
:10302000011BE004F0FC60F774FF2CC3940640EF32
:1030300074756C60EA7D007B0012311C70027D01AA
:103040000BEBC3940640F2ED70D578A6E29001CB6D
:10305000F0EC9001CCF078AEE29001CDF008E29077
:1030600001CEF008E29001CFF008E29001D0F00824
:10307000E29001D1F008E29001D2F07A0074B42A13
:10308000F8E2C0E08A08E50824D3F582E43401F5CB
:1030900083D0E01244B2940640E31231F174010887
:1030A000F2900115E008F2900116E008F290011785
:1030B000E008F2900118E008F29001CCE008F290EC
:1030C00001CDE008F2748808F2740808F27404086C
:1030D0001236039001D2E008F27A0074902AF8E4E4
:1030E000F20AEAC3940640F39001D3E0542F78909B
:1030F000F2900359E060067895E2D2E0F2123A933A
:10310000AB93123FE09001CCE0906062F0790180D7
:103110000874029000F4F07900022A5EEB1217D8CE
:103120006C2274F7120924123F007A0074A92AF85D
:10313000E2C0E08A08E50824DDF582E43401F58385
:10314000D0E01244B2940440E3E597653C9001D985
:10315000F0E595653D9001DAF0E596653E9001DB7E
:10316000F0E597653F9001DCF07A008A08E50824D5
:10317000D9F582E43401F583E0C0E074852AF8D003
:10318000E0F20AEAC3940440E279AD78081207E756
:103190009001E1780812082D78AD7989740412083D
:1031A000497A0074B12AF8E2C0E08A08E50824E50B
:1031B000F582E43401F583D0E0F0C0E0E92AF8D0EC
:1031C000E0F20AEAC3940440DA78B5E2FA9001E941
:1031D000F01231F1740208F2EA7891F2791F12319B
:1031E000E4023B2C122ADB7C067A82AB93123FE08E
:1031F0002278A6E27882F2741F08F22274F712098C
:1032000024E53675F01DA42415FCE5F03401FDEC31
:103210002421FEED3400FFEC241EF8ED3400F98883
:10322000088909EC2419FAED3400FB742F2536F9CE
:1032300078A7E2541F120A6A000D00633201673258
:10324000025E3303B33304DF330800340F1F33103F
:10325000233411663413A234157B331698331F932D
:10326000344D3508123609E536124C952421F8EB19
:103270003400F9E8FCE9FD8C828D83E064FF700482
:10328000A3E064FF701EE536FE742F2EF8E6A2E080
:103290005012E522A2E05004E6D2E2F6E6A2E150A6
:1032A00003D2E4F612384F78A7E2A2E740030235D2
:1032B0006C8A828B83A3A3A3A3A3A3A3A3A3E0F8F5
:1032C000740C28FAE43400FB8C828D83E06A70036E
:1032D000A3E06B6009742F2536F8E6D2E7F68C82FE
:1032E0008D83EAF0A3EBF078F9E264016003023524
:1032F00085E56FA2E04003023585C2AFE4123603D4
:10330000906201E0D2E2F07A0A7B0012229390628E
:1033100001E0C2E2F0758B00C2E8D2AF0235850849
:10332000E2120A6A0002002E330349336732E9F8D9
:10333000E6D2E7F678A912360978A7E2A2E54003BB
:10334000023267436810023267A936122EFB78A753
:10335000E2A2E540030232674368080232678A82CC
:103360008B83E0A2E2400302326712362A50061233
:1033700014FC02326712132B0232678A828B83E0BD
:10338000A2E2400302326712362A500612150602E4
:1033900032671213BF023267EC241BF582ED121361
:1033A00018A2E6400302326712362A40DF121439AF
:1033B0000232678A828B83E0A2E340030232671203
:1033C000362A40AB78A890035CE2F008A3E2F0084C
:1033D00090035EE2F008A3E2F04366100232678ACF
:1033E000828B83E0A2E4400302326712362A500344
:1033F00002336F78A8E2900360F0436640023267C0
:10340000EC241AF582ED12132540030232671236BE
:103410002A500302336F78A8E2900361F0436701FA
:10342000023267850882850983E004F00808E2FA21
:10343000744B6A7009E522A2E04003023267181853
:10344000E2F54F74012536F5508A51080808E2F577
:103450005208E2F55308E2F55408E2F5555367DFE8
:10346000436784023267850882850983E004F08817
:1034700008859309750A007808120A067C14794FAA
:103480007A007B01121F1974012536F5504367A499
:10349000023267850882850983E004F0122F270233
:1034A00032678A828B83E0A2E14003023267EC2418
:1034B0000FF582ED1213254003023267123636AA49
:1034C000368A82AE828E0875090074047808120963
:1034D0000F1235F5120C3C78AFE264C9706778A71B
:1034E000E254E04401F2E478AFF2900BDA7808128B
:1034F000080578B07408120818E408124657F20854
:10350000F208F2742F2536F8E6A2E1500302336F79
:1035100078A8E2C0E0EE1235E7D0E0F07540007A1E
:10352000001248C640FB7508A9859309750A007802
:1035300008120A067C0679417A007B01121F1943A2
:103540006601023267782D1235DD02326785088206
:10355000850983E004F0E7A2E14003023267123AF2
:10356000A1E96415600302336F02338C8C828D8372
:10357000E064FF7004A3E064FF700A8C828D8374A2
:10358000C8F0A3E4F078A7E2A2E5504E900379E0FA
:10359000C39403504574012536C0E0E075F005A4DE
:1035A000247AF582E5F03403F583D0E0F07870E614
:1035B00024A7F508859309750A007808120A067C85
:1035C00004900379E075F005A4247BF508E5F03458
:1035D00003121F14900379E004F0023B2CE624014F
:1035E000F608E63400F6221235EB2224B5F582E423
:1035F0003400F58322E5082435FAE5093400FB227E
:10360000E478F9F2740108F222E2FA08E2F8EAF941
:10361000740C28F8E439F98E828F83E8F0A3E9F07E
:10362000EC2423F582ED12385922123636742F25F8
:1036300036F8E6A2E122850882850983E004F07964
:103640000012391F22E535601A753500123F0075EA
:103650002A00E522A2E0500B90035AE064077003B1
:1036600043680222E48A828B83F0E0242FF8E6A2EA
:10367000E04003790122E004F0C3940640EC7900B5
:103680002274F71209241510740E652B600302389A
:1036900029AA10AB93E48A828B83F0E0FD742F2D6E
:1036A000FCF8E6A2E0400302382CED75F01DA424DE
:1036B0002AF582E5F03401F583C082C0839001E1F0
:1036C00078081207F6D083D0827808120746600384
:1036D00002382CECF8C64428F69001D3E0A2E04072
:1036E0000302378FA81012388212090FE50824351B
:1036F000F8E5093400F9900115123873F0900116BD
:10370000123862F0900117123862A3F0900118127B
:103710003862A3A3F09001CE123867F09001CFE099
:1037200012388D9001DD123867A3A3A3A3F0900196
:10373000DE123879F09001DF123879A3F09001E0C1
:10374000E0C0E0124211D0E0F09001D9E0C0E0E822
:10375000240C124214D0E0F09001DAE0C0E0E8243A
:103760000D124214D0E0F09001DBE0C0E0E8240E3E
:10377000124214D0E0F09001DCE0C0E0E8240F1227
:103780004214D0E0F0A810E2F9122A41120CEB909A
:1037900001CCE090011BF07C087A157B01790312C3
:1037A0002401A810E2FE7C0D7ACC7B017420123833
:1037B000497C097AE17B0174301238497C0F7AEA3E
:1037C0007B0174401238495322FBA810E2242FF8E1
:1037D000E6D2E6F6A910E3123A798A828B83A3A394
:1037E000A3A3A3A3A3A3A3E0FC740C2CFCE43400C8
:1037F000FDEA2421F582EB124217ECF0A3EDF01262
:10380000384F9000F4F0E522A2E0500FE6D2E2F645
:1038100090035AE064077003436802E6A2E1500394
:10382000D2E4F6753500122BBE023B2A8A828B83C6
:10383000E004F0C39406500302369B123664E9603C
:10384000030236D912364580E02EF912240122EA0D
:103850002423F582EB123859223400F583E4F0A3D7
:10386000F022123873A32212386B22123873A3A3EA
:10387000A3A322E0888289832212386BA3A3A3A387
:10388000A322E2F508750900740478082288828969
:1038900083A3A3A3A3A3F0748888828983A3A3A38B
:1038A000A3A3A3F0740888828983A3A3A3A3A3A3DB
:1038B000A3F02274FA120924E567A2E740159003E9
:1038C00079E0C39403500C7418556770067418554A
:1038D00068600DE56B6009900378E0C3947D402734
:1038E0007C3679247AA6AB9312414EE97870F66063
:1038F0001678A7E2541FFEE9C0E0EEF9122ADBE9D0
:10390000FAD0E0C39A5004790080117407653670CC
:1039100009741F6E70F1E53560ED7901023ED774D0
:10392000F5120924E9FF78007900E536123A79E8C2
:10393000FCE9FDEC75F01DA4FCAEF075F01DEDA4E6
:103940002EFDEC2434FCED3401FD8C828D83E0C02F
:10395000E0EA241F121315FED0E0C39E40098C82BA
:103960008D83E0600214F0E8240108E93400F9C313
:10397000E89406123A7040B2EA2420F8EB3400F9D9
:10398000E8FCE9FD8593098C828D83E0C3940350A4
:1039900003023A3C750A057E007A007B00EAF8EBE8
:1039A000F9E875F01DA4F885F00B75F01DE9A42564
:1039B0000BF9E82415F8E93401F9E8241FF50CE9BE
:1039C0003400F50D850C82F583E0F50BE50AC3950F
:1039D0000B4019E82420F582E9121318C394035010
:1039E0000B850C82850D83E0F50AEAFEEA24010AC4
:1039F000EB3400FBC3EA9406EB123A71409FEE12DF
:103A00003D06F8EB123A8AF50A8C828D83123873E0
:103A1000F08C828D83E50A123AA9502512131264A4
:103A2000FF7004A3E064FF6018EEF9123C62EEF947
:103A3000123B31800CA936123B31801A74016F7031
:103A400015A936123C62A936124125E970E7123AEF
:103A500093AB09123FE0E53675F01DA42434F582DE
:103A6000E5F03401F5837405F00226D0C3E89480B4
:103A7000E99400A2D265D03322123A7D2275F01D5E
:103A8000A42415FAE5F03401FB223400F988828978
:103A900083E022AC36ECFE7883123AA1EEFC7A8207
:103AA00022E2541FF9122ADB22F0742F2EF8E6A22C
:103AB000E02274F7120924E9FEEAFFEEC3940650EF
:103AC00065EE75F01DA4242FF582E5F03401F58331
:103AD000E0A2E6504D123B7BE9FA8A087040E538D7
:103AE00075F016A424F9F8E5F03401F9EE8882891E
:103AF00083F0740EA3F0EF88828983A3A3F07D0680
:103B00007C0088828983A3A3A3A982AA837B001255
:103B10002AB785380A123C5412088FEAF538A908EA
:103B20008006790980027908800205107F04020965
:103B30005574F8120924E9C394065029123B7BE915
:103B4000FF701E750882859309750A007808120AAD
:103B5000067C16E538121F0F123B6A12088FEAF531
:103B600038EFF98002790802460885380874012583
:103B700008F8E43400F97A107B002274F712092463
:103B8000E9123BA97004A3E064FF6019123B6A12BA
:103B9000088F8A0AE537650A7001EB6004790080B6
:103BA000067907800279098083124CA2E064FF2223
:103BB00074F4120924890E1240FE750D00E537FFDA
:103BC000E5386F60798F82AC8274012C123C5812F8
:103BD000088FEAFBEC75F016A424F9F582E5F034C1
:103BE00001F583E0650E704B8F0BEBFE750C00E565
:103BF000386E6032EE123C41750A007808120A06EF
:103C00007C16E50B121F0F8E08123B6D12088FEA0F
:103C1000FE850B08123B6D12088FEAF50B050CE5CB
:103C20000CC3941040C9E538600415388007753816
:103C30000F8002EBFF050DE50DC39410408202409A
:103C4000EE75F016123C4AF50922A424F9F508E5B0
:103C5000F03401227401250AF8E43400F97A107B6B
:103C60000022C008C009E97882F2740F08F27405D6
:103C700008F274012908F2E9123D06121315120A1E
:103C8000340004AF3C8F3C973C9F3CA73CAB3C745A
:103C90002708F274D4801C743608F274E48014741B
:103CA0004508F274F4800C74D4800674E4800274C5
:103CB000F408F208F2E408F2E522A2E450037401E9
:103CC000F2750801750900E9780812090FAC08ECD3
:103CD000F4FD9000BBE05C6009E05DF07888E2D222
:103CE000E1F29000BCE05C6009E05DF07888E2D22F
:103CF000E2F2EA24171213157889F2EA2418123D29
:103D00000CD009D00822124C99242022F582EB1203
:103D1000131C08F222E5E170FC75E10122E5E17077
:103D2000FC75E10BE591A2E650FA5391BF2274FABB
:103D3000120924123D1574669061A2F074299061F5
:103D40009AF0745A90619BF0747F9061A0F07407B0
:103D50009061BCF0E522A2E650047405800274F57F
:103D6000906186F0900119E0F9123FAC123FCD123C
:103D70003F3874BB9061FBF0740A9061FAF074DC18
:103D80009061F9F074A59061F8F07443906180F04F
:103D90007448906191F0740E906190F0746F90612E
:103DA000A5F074CC906192F0E49061E0F09061E154
:103DB000F074219061E2F074109061E3F0E490619E
:103DC000E9F0906001E054FC4402123EF3F0E0C2DE
:103DD000E6F0E0D2E7F09060021242A9E0D2E112F0
:103DE0003EF34420F0E0543F4480F09060031242E0
:103DF000A97402906004F0E4906008F0906009F00B
:103E000074FF90600AF090600BF0906012E4F0A3F1
:103E1000F090607EF0E0D2E7F0E054CF4410F090F4
:103E20006014749CF0A37405F0906003E0D2E2F09B
:103E30007F008F82AA82EA75F00CA4F8ACF0E42C23
:103E40003460F9E82418FCE93400FDE48C828D83A9
:103E5000F0E0D2E3F0E0D2E4F0E824191242147466
:103E600024F0E82422124214E4123EE7E4F0E824AD
:103E70001C123EDC241D124214E4F0EFC3940650E1
:103E800018EA1217D4C0E0E8241A124214D0E0F065
:103E90008C828D83E0D2E0802074066F700AE490FB
:103EA0006062F090606080EC74076F700D747590C4
:103EB000606EF090606CE0C2E1F00FEFC3940850C8
:103EC00003023E32E5356005123F1D8005E4906136
:103ED00094F079081243547F01020955F582E934C0
:103EE00000F583E4F0E822F0E82423F582E93400C9
:103EF000F58322F0E0D2E2F0E0C2E3F0E054CF221A
:103F000090606CE0A2E15014123D1DE4906194F0C9
:103F100090606CE0C2E1F0790812435422123D1D1A
:103F200079071240FE7480906194F090606CE0D24A
:103F3000E1F0790812435422900115E0906198F065
:103F4000900116E0906197F0900117E0906196F073
:103F5000900118E0906195F022EEC0E0E9FE123D7C
:103F60001DEEF9123FAC123F6DD0E0FE22123FCDA4
:103F700079081243542274FA120924E9FF9061C5AA
:103F8000E0A2E350047E00801E123D1D9061C5E05A
:103F9000A2E350047E00800AEFF9123FAC123FCD3D
:103FA0007E017908124354EEF9023ED7C008E9FABF
:103FB000C394195003EA70027A018A08E508248440
:103FC000F582E4340BF583E493F9D00822741529C3
:103FD000547FC0E0906000E05480FAD0E04AF022C4
:103FE00074F41209241240F3890B8C0EE49061C022
:103FF000F0EC75F00CA4F8AAF0E42AF9E8FAE93438
:10400000601217E818E2241CF58208E2123D0F182E
:1040100018E2241DF58208E21213180808F2181895
:1040200018E2241BFE08E23400FF8E828F83E0A298
:10403000E6E492E0FDE51024022DF8E26022ED7046
:10404000047D0180027D00E51024022DF8E260105D
:10405000A90E1240FE8E828F83E0A2E6E492E0FD7C
:10406000E50EC39402500474078004E50EC3139058
:1040700061C0F08508828509837A007B008007E0B3
:10408000CAC39AFAA30BEBC3950B40F3EAF0050BF6
:104090008D82AE82750A007808120A06AC0B8E0873
:1040A0007509007405780812090FE50EA2E0E49284
:1040B000E0F50C750D007406780C12090FA80CE5DC
:1040C0000828F508E5093460121F14E49061C0F077
:1040D000A810E22EFA08E23400FB741C2AF582E4F0
:1040E0003BF583E50BF005100510051005107F0763
:1040F000020955E51024FCF5108A088B0922E5E138
:1041000070FC743029F5E1E975F00CA4FAACF0E428
:104110002C3460FBEA241C12131570F8EA241D12DB
:10412000131570F022E975F00CA4F8AAF0E42A3413
:1041300060F9E8241CF582E9121318600EE8241DCA
:10414000F582E9121318600379012279002274F7CD
:10415000120924EAFEEBFF89088C09E591F50A9023
:1041600061C5E0A2E3507F5391FEAD087C008E82D2
:104170008F83A982AA837B00122AB7E5D9FA70053A
:104180007900023B2C740755D9A809F61A7B0080E8
:1041900019EBC395085012E5D9C0E08B0AEE250A49
:1041A000F582EF124217D0E0F00BEBC39A40E2E544
:1041B00008C39A40CB8E828F83A3E0A2E5500AEA1F
:1041C000C3940440BB74FC2AFA8E828F837B00EA7E
:1041D00060AEFEE0CBC39BFBA31EEE70F6EB70A0BF
:1041E00074FF2AF9809CE50AA2E250035391FBA2D6
:1041F000E350035391F7A2E650085391BF79081298
:104200004354E50AA2E540030241805391DF024195
:1042100080E8240BF582E93400F5832274FA120950
:1042200024E9FFEAFE123D15123F38906001E0C21A
:10423000E2F0906002E0543FF09060127440F0A30E
:104240007406F074619061A5F0E490607EF0E05433
:10425000CF4410F0E0D2E6F09060167480F0A374C2
:1042600006F09060107480F0A3743BF0740F9060BF
:104270000DF07B00EB75F00CA42418F582E5F0340A
:1042800060F583E0C2E0F0E0C2E1F00BEBC394081C
:1042900040E29060181242A9E0C2E1F0EF90601A8B
:1042A000F0EEF9123FCD023ED7E0D2E0F02274F9F1
:1042B000120924E9FE7FC8E5E170FC75E1F18ED9B1
:1042C0007C00800D8A828B83E0F5D90CA3AA82AB97
:1042D00083ECC39E40EE79091243541F7A647B003D
:1042E000122264E591A2E64003EF70EFE591A2E5AA
:1042F000401490601BE0FA74022A5406C0E074F97E
:104300005AFAD0E04AF09061C5E0A2E350415391DF
:10431000FEE5D9FA6039740755D970331A7B0080ED
:104320001CEBC394245015E5D9C0E08B08A993E594
:104330000824A6F582E439F583D0E0F00BEBC39AAC
:1043400040DFEAC394255007EA60047901800279CE
:1043500000022A5EC0A8C2AF759100E5E170FC8939
:10436000E1D0A82274F9120924787DE6FA600302EC
:10437000442012449E6402600302441A08125756F5
:104380007001ED70230812575D7001EB6003024469
:104390001A787D760278EA745BF20874031245CBD2
:1043A000E4F2756E0102447674026C7001ED706A7D
:1043B000E56B6066EA641070191244A774076A70AE
:1043C00001EB705612448C7407124487756E030219
:1043D0004476EA641170191244A774146A7001EBF0
:1043E000703812448C7414124487756E040244763B
:1043F000EA642070251244A7740F6A7001EB701AEA
:10440000787D760278EA74BEF20874001244870858
:10441000740F124487756E08805C787D7604805630
:1044200074026A7051E56E120A6A0004013A44038C
:104430005744046344086C4476447A0090035BE07C
:10444000C0E08A08E508124479D0E01244B294062C
:1044500040EA436804801F78F1E2641070184367F3
:1044600040801378F1E26411700C80F278F1E2641C
:10447000207003432208022A5E12447D2224EDF5B7
:1044800082E43400F58322F208E4F222787D760299
:1044900078EA7462F2087403F208E4F2082278F110
:1044A000E2FA08E222E2F9081244AC22E2FA08E257
:1044B000FB22F00AEAC32274F8120924787DE66030
:1044C000030245C978F31258F6C3EC9403ED940047
:1044D00040030245C97878E6640460030245C912C6
:1044E000449EFE74016E6003024599859309EC7049
:1044F00001ED701B787D7601124EC3E978ED124410
:104500008778EA74CAF208E5091244870245BE7446
:10451000016C7001ED7045E56A601CEA6402700987
:10452000787D7601124EEF80D2EA64037012787DB6
:104530007601124FBA80C4787D7601124F5880BB45
:10454000EA64047009787D7601124FD980ADEA647F
:10455000087067787D7601124FEA809F74026C7054
:1045600001ED7056E56B6052EA64107012787D764A
:1045700001754F1078EA744F1245CB7407808AEAB0
:1045800064117036787D760178EA74B6F208740B9F
:104590001258FC08741402450974026E701CEC7009
:1045A00001ED7016787D760178ED740112448778FC
:1045B000EA745BF2087403024509787D76041259A7
:1045C00002500618ECF208EDF2803D1245CF22F2BF
:1045D00008E4F2087401F208229000CDF07401257D
:1045E000369000CEF078A7E2541F9000CFF0750807
:1045F000A8859309750A007808120A067C1D79D0EF
:104600007A00121F174367087F0302095590053C83
:10461000E493A2E6E56F92E1F56F12466090620FB7
:10462000E0A2E750F890620BE0D2E1F078F7E412F4
:10463000465774FFF208F2F0906207F0743E906201
:1046400009F0758B00C2E843AC20439A0290620FD8
:10465000E0D2E3F0D2AF22F208F208F208F2082228
:1046600090620FE04403F090624BE0C2E2F02278E7
:10467000F7E254046048E4F208F27D07FC7969FA35
:104680007B01122AB77A0074692AF876010AEAC314
:10469000940340F31211AE1247D4122AEC756C0049
:1046A000756D0078787602087600787D7600125471
:1046B000E5788876000876007401906201F078F75A
:1046C000E25410600AE254EFF208E2F212524D781E
:1046D000F7E2A2E0502154FEF208E2F2E523A2E262
:1046E00050055323FC800874FC55234401F523181E
:1046F000E254FDF208E2F22278F0E2120A340902F2
:104700006947084747470C4712436422787DE670A3
:104710005C78F1E254FEFA08E2FBEA7001EB7049C2
:104720000808081257667001EB703E1247C05039F6
:104730007C0078F1E2C0E074692CF8D0E0F60CEC73
:10474000C39403502880EB787DE670211257647083
:1047500001EB70151818181257667001EB700A18E3
:10476000181808E2F56CF56D22787D76042278F051
:10477000E2120A340102BB477E479B47824712443C
:10478000B722787DE6703812575B7001EB702C12FF
:1047900047C05027EA246978EA801C787DE6701FBC
:1047A00012575B7001EB70131818181257667001DE
:1047B000EB700878EA746C1254B222787D76042289
:1047C0001818181256A4EA9402EB940022787D7609
:1047D000042280F9C008C0097D037C0079667A0054
:1047E0007B01122AB7E4900379F07D07FC7940FA47
:1047F0007B01122AB77D087C0079477A007B011281
:104800002AB77D047C00795C7A037B00122AB77D8D
:10481000017C0079607A037B00122AB77D017C005D
:1048200079617A037B00122AB77D147C00794F7A74
:10483000007B01122AB77D147C0079627A037B0029
:10484000122AB77D077C0079717A007B01122AB7A2
:104850007D027C0079227A007B01122AB77A0074EB
:10486000632AF87600124E991244B2940340F05332
:10487000677F023D0174F4120924750CCA85930DFB
:10488000F50EE566A2E150195366FD7D077C0079BF
:10489000407A007B01122AB77A001248C640FB809A
:1048A0000CA2E04008E56C601AE56D7016124EC36C
:1048B000E9F563740190620EF0780C120A067A2210
:1048C000124EAC0240EE8A08E5081235EBE0454096
:1048D000F5400AEAC394062274F8120924E56AFB3B
:1048E000E566A2E3503C5366F77548007547007AC9
:1048F0000012140040FBEB7005124F588003124E5B
:10490000EFE9F564740290620EF07508CA859309A8
:10491000750A007808120A06A9647A24124EAC02BD
:104920004608A2E250F9EB70D580CE74F512092446
:10493000E51024EAF510900379E0C39402400B12CD
:1049400050B9E9F565E4900379F0E568A2E05022FA
:104950005368FE787176100876FF08764A0876016B
:10496000087600087600087600124FF7E9F5650230
:104970004C847E00742F2EF8E6A2E35014C2E3F6B6
:104980007871761074012E08F60876400876028059
:10499000CF0EEEC3940640DC7E00742F2EF8E6A204
:1049A000E25074C2E2F67871761074012E08F608AF
:1049B0007641087604124C94240E121315540F08F5
:1049C000F612131264FF7004A3E064FF7005E6D2D0
:1049D000E6800C78A7E2541F60067875E6D2E7F609
:1049E000EA240F12132250067875E6D2E5F6E52286
:1049F000A2E450067875E6D2E4F68A828B83A3A3FC
:104A0000A3A3A3A3A3A3A3A3E07877F6EA240B129E
:104A1000131518F60249690EEEC3940650030249B5
:104A20009A7E00742F2EF8E6A2E45031C2E4F6A27A
:104A3000E1502A124CB17442F2EE123BA97004A369
:104A4000E064FF7004087401F2740390620EF07861
:104A500008120A06124EA875650F024C840EEEC3AA
:104A6000940640BFE521A2E050625321FE787176A2
:104A7000107881E27872F608764108760590009603
:104A8000E0540F08F6E521A2E14004E04440F67846
:104A900081E2FA74756A602AEA75F01DA4A9F0240F
:104AA00002F582E93401F583E07877F67881E275E2
:104AB000F01DA42403F582E93401F583E07876F64D
:104AC0008007787776001876000249697E00742F97
:104AD0002EF8E6A2E5500BC2E5F6124CB174400286
:104AE0004A480EEEC3940640E57E00742F2EF8E689
:104AF000A2E6500BC2E6F6EEF912501302496C0E14
:104B0000EEC3940640E5E522A2E1500C74066E70F7
:104B1000075322FD79FF80E1E568A2E1502C53683C
:104B2000FD787176100876FF08764A0876009000C6
:104B3000F4E008F60876009000F3E064FF700508E2
:104B400076008003E008F602496974245567FA7517
:104B5000084F750900750A0174046A7011754F10C9
:104B60007808120A06124C8B53677B024C8474241B
:104B70006A7013754F117808120A067A14124C8D58
:104B800053675B024C84E523A2E450397E00742F06
:104B90002EF8E6A2E75027C2E7F678717610740186
:104BA0002E08F6087649087603E536124C9EE02476
:104BB000F4FAA3E034FF08F6EA08F60249660EEEBE
:104BC000C3940640C9E568A2E4500D5368EF7871BC
:104BD00076107401253680C9A2E350165368F77821
:104BE0007176107401253608F608764908760402B5
:104BF0004960E06401702AA8107410F290037AE012
:104C000008F208744912514FE510F50885930975AB
:104C10000A007808120A06124C8BE4900379F0809F
:104C200063750889750903750A00E567A2E4500EEB
:104C30005367EF7808120A0612513D02496C7E0054
:104C4000750C01750D00EE780C12090FAA0C90007E
:104C5000BDE05A6028EAF4FAE05AF07D147C00794D
:104C6000897A037B00122AB77411900389F07401CA
:104C70002E90038AF0746690038BF080B60EEEC31C
:104C8000940640BCE51024160226CE7A0712514342
:104C9000E9F56522EE124C9922123A7DEA22124C75
:104CA000A22275F01DA42436F582E5F03401F583C7
:104CB00022E5102407F508859309750A007D0F7C0D
:104CC00000F9AA097B00122AB7E5102407F874201E
:104CD000F274012E08F20822E9F8E6FC08E6FDEC81
:104CE0007001ED70057A007B0022C3ED9408A2D21A
:104CF00065D033401218EC2401F608E634F8F64388
:104D000066047AFF7B0722C3EC9401ED94F8A2D2EB
:104D100065D033501218EC24FFF608E63407F6434A
:104D200066047A017BF822ECFAEDFB18760008762F
:104D3000002274F8120924151015101510FA124EDD
:104D4000B8E0A2E0B3E492E0C0E0E5102AF8D0E0D9
:104D5000F26004124E99F00AEAC3940340E0A810EE
:104D6000E26007E5637003124875E51004F8E2702D
:104D700003024E25E56470031248D87508CA85936E
:104D800009750A00E5647039E56A7003024E25E58D
:104D900066A2E550125366DF7D047C00795C7A03DD
:104DA0007B00122AB78004A2E4501A124FBAE9F528
:104DB00064740290620EF07808120A067A24124E89
:104DC000ACE564702EE56A605CE566A2E7500A53C4
:104DD000667FE4900360F08004A2E6501A124FD977
:104DE000E9F564740290620EF07808120A067A24DB
:104DF000124EACE564702EE56A602AE567A2E150C8
:104E00000A5367FDE4900361F08004A2E05016129B
:104E10004FEAE9F564740290620EF07808120A060F
:104E20007A24124EACE5102402F8E2604BE565707E
:104E300007E56B604312492BE565703CE56B603814
:104E4000E567A2E350325367F7740390620EF07582
:104E500008CD750900750A009000CDE0642078083F
:104E6000700A120A06124EA8740F800A120A0679F6
:104E700020124EAA7420F5657A0074632AF8E66061
:104E800008124EB81242A976000AEAC3940340EA17
:104E90000510051005100246088A08E5082476F575
:104EA00082E43403F583E422790F7A267B6212557B
:104EB0001C0510051005102274012A90620EF09056
:104EC0006211225366FEE54078CAF2E408F2E54139
:104ED00008F2E54208F2E54308F2E54408F2E54548
:104EE00008F2E54608F2E56C6002F56D7908227477
:104EF000F71209245366FB740278CAF2E54808F2F7
:104F0000E54708F2794B124CD88A088B09AF09792A
:104F10004D124CD88A0A8B0BE50878CDF2EAC454BE
:104F2000F0C0E0750800740F5FF509740878081286
:104F300008F0D0E0450878CEF27404780A1208F040
:104F4000E50A78CFF2E54908F2754900E54A08F22A
:104F5000754A007908023B2C5366FBE54878CAF293
:104F6000A84BA94C123A6C4004747F800A124FADD2
:104F7000500474818001E878CBF2A84DA94E123A12
:104F80006C4004747F800A124FAD5004748180011C
:104F9000E878CCF2E54908F2754B00754C00754D88
:104FA00000754E00754900754A00790422C3E894E3
:104FB00081E994FFA2D265D033225366EF7403785F
:104FC000CAF290035C08E0F2A308E0F290035E08E6
:104FD000E0F2A308E0F27905225366BF740478CAB0
:104FE000F2900360E008F27902225367FE740878B9
:104FF000CAF290036180ED74F8120924750871F506
:1050000009750A017808120A067A077903125169AC
:10501000024E9074F8120924E51024F1F510E9FE0F
:10502000E510F508859309750A007D0F7C00F9AA43
:10503000097B00122AB7A8107420F208087441F204
:1050400074FF6E700918E4F2080874028047740156
:105050002E18F2E522A2E20808500474018001E44F
:10506000F2124C94240B123D0C8A828B83A3A3A3CF
:10507000A3A3A3A3A3A3A3E008F2EA24191250AFA9
:10508000241A1250AF241B1250AF241C1250AF240C
:105090000C12131508F2740390620EF07808120ACD
:1050A00006124EA8790FE510240FF510024608F5F8
:1050B00082EB12131C08F2EA2274F8120924E5109C
:1050C00024ECF510A8107411F20874FFF20874496A
:1050D000F2900379E008F290037AE00812514F90C1
:1050E000037FE008F2900380E008F2900381E0087B
:1050F000F2900382E008F2900383E008F2900379D3
:10510000E0C39403401E900384E008F2900385E01E
:1051100008F2900386E008F2900387E008F290031B
:1051200088E008F2E510F508859309750A0078080B
:10513000120A0612513DE51024140250AA7A1412E4
:10514000514322790312516905100510051022F20E
:1051500090037BE008F290037CE008F290037DE08E
:1051600008F290037EE008F22274F8120924E9FFA5
:10517000EAFEE5102408F81255FD08E2F50AEF9062
:10518000620EF07808120A06EEF9EFC333FAE43340
:10519000FBEA2420FAEB3462FB124EAEEEF9024633
:1051A00008E9FCEAFD7A007B0080081890039EE085
:1051B0001251F290039DE0F8A3E0F99003A3E06898
:1051C0007003A3E069602A90039DE0240108A3E036
:1051D0003400F988828983E4936C700D90039DE01C
:1051E000FAA3E0FB181251F222E4936D70BDED605A
:1051F000BA22F5838882E493F890039DE028F8A30F
:10520000E03400F990039DE8F0A3E9F02274F9126C
:105210000924E9FEEAFF9003A1E0F8A3E0F9900376
:105220009DE8F0A3E9F0800E8A828B83A3A3A3A359
:10523000A3E4936E60147A0079021251A1EA70011E
:10524000EB6007EE70E2EF1F70EC022A5E74F4125E
:10525000092490620EE0F50AE4F0906211E0FFA2EA
:10526000E4501E7480F0787D76077888E670020836
:10527000E6600A78888682088683120922787D761D
:1052800000EFA2E2500AE4906211F0787DF680719E
:10529000787DE6FA74026A7051906216E0FE78EA50
:1052A000120A1FEEF91254A48E0878ED1254BE12A1
:1052B00054C91257667001EB600474408002744850
:1052C000906211F0EA7001EB70177888E6700208BE
:1052D000E6600A78888682088683120922787D76BD
:1052E00000E50A90620EF00240EE74066A700A78D9
:1052F000888682088683120922787DE6600302533D
:10530000ECEFA2E050DB750CEF85930D750E007885
:105310000C120A0679081254A478887600087600E0
:1053200078EFE254E0120A6A0006003E53203A5435
:1053300040265480BA53A05154C03054A05308E2C0
:10534000120A6A000501A65303985305565309B083
:10535000530BB553A0530808081257667001EB7041
:105360003F081257667001EB703612449E7031EAA6
:105370005480702CEA906200F078786012E6640243
:1053800070027603787DE66404705B74608059E691
:10539000640370F0760280EC79011256ABE970E498
:1053A000787D760480E579001256ABE970D680F0FE
:1053B000125A7280CF125AFA80CA08E2120A6A00A0
:1053C0000400CF5306D45308D9530A0C54A05312E7
:1053D000560580B012576B80AB18E2541F70C1782D
:1053E000EA74791254B27440906211F0E6FA7401D2
:1053F0006A600302548F7F0278ED1244A8C3EA94D6
:1054000020EB94005062EAFE7F0A805E7878E664C2
:1054100004708D78EFE2648170861256985081EAAC
:10542000247A78EA80BD788876CD0876470253A042
:10543000788876D20876470253A0E2541F64016050
:10544000030253A0788876F80876461246F802538D
:1054500084E2541F640160030253A07888766E08CA
:10546000764712476E0253847E2078EA120A1FEEB6
:10547000F97A20124EAC8E081254C91254BEEF9025
:105480006211F0EEC3942040030252E10252CA744A
:10549000056A60030252E1788886820886831209D1
:1054A000220252E17A207B62125506051005100592
:1054B00010221245CFF208E4F2787D760122C3E291
:1054C0009508F208E29400F22278EAE2F908124420
:1054D000ACE92508F9EA3400FA1818E9F208EAF20A
:1054E00008EBF208227A00747E2AF8760374012A07
:1054F00090620EF074109062111244B2940540E76D
:10550000E490620EF02274FA12092412553D6009EB
:10551000E012077512553270F7023ED774FA12097D
:105520002412553D600912075BF012553270F702E4
:105530003ED7E9240109EA3400FA1FEF228A828B60
:1055400083E9FFE5102406F81258EEF9EDFAEEFBB8
:10555000EF22C0E074F112097A906206E0FCA2E248
:10556000503478FBE290620BF0F50808E2F509741C
:10557000047808120900E508906207F078FB1255DC
:10558000FD74097808120900E508543E906209F09C
:105590009062011242A98C0878F7E24508F208E20D
:1055A000F2906202E0F5088B097404780812090F82
:1055B00078F7E24508F208E24509F2906204E0F566
:1055C000088B097409780812090F78F7E2F208E2EB
:1055D0004509F2ECA2E05007740108F2E408F27405
:1055E000065C6003123600E58BA2E55006758BDF82
:1055F000123600758B00C2E87F020209C3E2F5088B
:1056000008E2F5092278EFE2549F120A34800295ED
:105610005617564D566156E56FA2E0E492E0C3334B
:10562000F8E56FA2E1E492E04890039FF0A3E4F074
:10563000787DE66404601578EA749FF208740312BA
:105640004487087402124487787D760122125698A6
:1056500050437878E66404703C90039FE4F0A380A4
:10566000CE78F31244A0702DEA547FFC60EB78787A
:10567000E664047020ECC39404501AEA5480601568
:10568000747D2CF8E6640370047801800278009041
:10569000039FE880970247CD78F31256A4EA94035B
:1056A000EB940022E2FA08E2FBC32274FA12092406
:1056B000E9FE1257647001EB70117878E6640460BB
:1056C0001078F31257667001EB6006787D760480DF
:1056D0006978EFE2541F120A340002CB56E356ED0C
:1056E00056FD56080812575D7001EB6005790002FF
:1056F0003ED7EEA2E0E56F92E0F56F803D78F312C1
:105700005766547FFF18181257557001ED70DEEB85
:1057100070DBEFC3940450B3EF90620EF0747D2FF2
:10572000F9EE6013EF60C608E2548060C074109018
:105730006211F077038017EF7004790180B108E2FD
:10574000548060A97440906211F0E9F87600E4900A
:10575000620EF080E5181258F6EC2278F51244AC8F
:1057600074016A2278F51244ACEA2274F712092413
:1057700078EAF208F208F278EFE2541FFA600302C6
:10578000581308081244A0120A340102CF58945743
:10579000AD57D15779237A057B8078EAE9F2081270
:1057A00017EB12075B08F208E4F20258C678EA74B5
:1057B00035F20874051258FC79377A05FB12075B3D
:1057C000F508097A0512075BFB08E508F208EB808B
:1057D000D8EA120A3400040C58E357ED57F7570C77
:1057E00058015878EA7489F2087405801C78EA74C4
:1057F0008DF2087405801278EA749FF208740580AF
:105800000878EA74BBF20874051258FC78EA12446E
:10581000A5808F74016A60030258CF7C009003A5B5
:10582000E0FAA3E0FB807875090074037808120998
:105830000FEA2508F8EB3509F9E8FEE9FF8E828FBB
:1058400083E493C0E078F108E2F508D0E0650870E1
:105850004D081255FDA3A3E493A8096870408E82F9
:105860008F83A3A3A3E493650870338E828F83A3F1
:10587000A3A3A3E493F508740193F50978EAE50876
:10588000F208E5091258FC8E828F83A3A3A3A3A379
:10589000A3E493FE740193FF08EEF208EFF20C8C80
:1058A000089003A7E0F8A3E0F9E8C39AF50AE99B9A
:1058B000F50B7403780A120900C3E508950AE4950C
:1058C0000B500302582778EA1258EE4D4E700678B6
:1058D0007D76048016787DE66404600F12590250CC
:1058E0000618ECF208EDF2787D7601023B2C125896
:1058F000F608E2FEEC22E2FC08E2FD22F2087480E7
:10590000F22278F51258F678ED1256A4EC9AED9B37
:105910002274F3120924151015101217E918125ADF
:105920004760269003A9E0FEA3E08007EE2404FE72
:10593000EF3400FF8E828F83E493FA740193FB129D
:1059400057556A7002ED6B70E3750800803C7490E7
:10595000906214F07410125A5970037509408E82C7
:105960008F83A3A3A3E493550A6006E509D2E0F56B
:1059700009E509906215F0EA906213F0740A250FA8
:10598000F87600E490620EF00508A810125A47FA63
:10599000E508C39A4003025A457A0079051251A1DD
:1059A0008A0A8B0BAC0AAD0BEC7001ED60DAEC24CB
:1059B00002F8ED3400F9880C890D8882F583E493B0
:1059C000540FF50E90620EF07509008C828D83A342
:1059D000A3A3A3E4932407F50AA3E4933400F50BEF
:1059E0007403780A120900AA0A7478250EF50F7557
:1059F0000A01750B00E50E780A12090FEC2403F872
:105A0000ED3400F9850C82850D83E493A2E7400311
:105A100002594E7448906211F07408125A5970037A
:105A20007509408E828F83A3A3E493550A6006E52F
:105A300009D2E0F509E509906212F0EA906210F0EF
:105A4000740502597E8022125A50A3A3A3E4932224
:105A5000E2F58208E2F583A322F088828983E49349
:105A6000540364012205100510051005107F08027B
:105A7000095574F71209247878E664026018125701
:105A8000647001EB701078F1E2FE08E270081818FB
:105A900018E2541F6006787D7604805BEE604F7AD2
:105AA00000F912520D8A088B09EA7001EB60E77861
:105AB000787604EE08F6756C7D756D7D7E00850840
:105AC00082850983A3A3A3A3E493FAEEC39A502784
:105AD000747A2EF876007A0079041251A18A828BAA
